S01400004C696E65626F7446696E616C2E7372656359
S11300000C94D2010C94F3010C944C040C94D3047E
S11300100C94F3010C94F3010C94F3010C94F3018C
S11300200C94F3010C94F3010C94F3010C94F3017C
S11300300C94F3010C94F3010C949F0F0C94F301B2
S11300400C9413100C94F3010C94F3010C94F3012D
S11300500C94F3010C94F3010C94F3010C94F3014C
S11300600C94F3010C94F3010C94F3010C94F3013C
S11300700C94F3010C94F3010C94F3010C94F3012C
S11300800C94F3010C94F3010C9462020C94F301AC
S11300900C94F3010C94F3010C94F3010C94F3010C
S11300A00C94F3010C94F3010C94F3010C945A0591
S11300B00C94E1050C94F3010C94A20B0C94F30141
S11300C00C94F3010C94F3010C94F3010C94F301DC
S11300D00C94F3010C94F3010C94F3010C94F301CC
S11300E00C94F3010C94F3010C94C20C0C94F301E2
S11300F00C947B0C0C94F3010C94F3010C94F30119
S11301000C94F3010C94F3010C94F3010C94F3019B
S11301100C94F3010C94F3010C94F3010C94F50189
S11301200C94F3010C94F3010C94F3010C94F3017B
S11301300C94F3010C94F3010C94F3010C94F3016B
S11301400C94F3010C94F3010C94F3010C94F3015B
S11301500C94F3010C94F3010C94F3010C94F3014B
S11301600C94F3010C94F3010C94F3010C94F3013B
S11301700C94F3010C94F3010C94F3010C94F3012B
S11301800C94F3010C94F3010C94F3010C94F3011B
S11301900C94F3010C94F3010C94F3010C94F3010B
S11301A00C94F3010C94F3010C94F3010C94F301FB
S11301B00C94F3010C94F3010C94F3010C94F301EB
S11301C00C94F3010C94F3010C94F3010C94F301DB
S11301D00C94F3010C94F3010C94F3010C94F301CB
S11301E00C94F3010C94F3010C94F3010C94F301BB
S11301F00C94F3010C94F3010C94F301FA21D9212A
S1130200E321232218220A2203220E23F922E622C2
S1130210D322C0229522212305A84CCDB2D44EB9B5
S11302203836A9020C50B9918688083CA6AAAA2A95
S1130230BE000000803F0C9465240C94E3210C94D0
S113024021230C9423220C94C0220C9418220C9485
S1130250D22E0C94D9210C9426230C9403220C94B2
S113026017210C945C2E0C940A220C94D3220C9427
S11302700C0C0C94552A0C9443250C940E230C94CA
S11302809E2C0C94DA1F0C9495220C94220C0C9442
S1130290B2210C94FA210C94E6220C9433160C949B
S11302A0F9226E616E00696E660000407A10F35A9E
S11302B000A0724E18090010A5D4E80000E87648A2
S11302C0170000E40B54020000CA9A3B000000E14E
S11302D0F505000080969800000040420F000000E1
S11302E0A08601000000102700000000E8030000C1
S11302F000006400000000000A000000000001008B
S1130300000000002C76D888DC674F0823DFC1DFAB
S1130310AE59E1B1B796E5E3E453C63AE6519976AE
S113032096E8E6C28426EB898C9B62ED407C6FFCE8
S1130330EFBC9C9F40F2BAA56FA5F490055A2AF72A
S11303405C936B6CF9676DC11BFCE0E40D47FEF533
S113035020E6B500D0ED902E03009435770500809B
S1130360841E080000204E0A000000C80C333333FA
S1130370330F986E12831141EF8D2114893BE6559A
S113038016CFFEE6DB18D1844B381BF77C1D901D7D
S1130390A4BBE424203284725E228100C9F124ECDF
S11303A0A1E53D2711241FBECFEFCDBFDFE9DEBF9E
S11303B000E00CBF13E2A0E0B0E2E0EDF2E700E001
S11303C00BBF02C007900D92A63EB107D9F729E2F0
S11303D0A6EEB3E201C01D92A73AB207E1F70E946C
S11303E0C21F0C9466390C9400001F920F920FB632
S11303F00F9211240BB60F922F933F934F935F9359
S11304006F937F938F939F93AF93BF93EF93FF93D8
S1130410CF93DF931F92CDB7DEB71982BE016F5F12
S11304207F4F80917A2990917B290E940C138981B6
S113043081110E947B0F0F90DF91CF91FF91EF917B
S1130440BF91AF919F918F917F916F915F914F91E8
S11304503F912F910F900BBE0F900FBE0F901F90E6
S11304601895E0E2F6E098EF928389E5838B848B1C
S1130470858B868B878B928783E0818740E061E060
S11304808AE00E9484118093EA239093EB230895D9
S11304908091280683FF12C080E19091280694FD84
S11304A088609091280695FD84609091280696FDB9
S11304B082609091280697FD03C0089580E0EDCFF7
S11304C0816008951F920F920FB60F9211240BB6FC
S11304D00F92CF92DF92EF92FF920F931F932F937D
S11304E03F934F935F936F937F938F939F93AF93B8
S11304F0BF93EF93FF93CF93DF931F921F92CDB7D8
S1130500DEB786E190E29F938F930E94BE3880917C
S1130510A20087608093A2001982809120089091A4
S11305202108C0909229D0909329E0909429F090CA
S11305309529C80ED91EE11CF11C0E9448028A8329
S11305404091E6235091E7236091E8237091E923D9
S113055097018601041B150B260B370BB901A80163
S11305600F900F904130584A6146710510F0811187
S113057021C0898181110E947B0F0F900F90DF9120
S1130580CF91FF91EF91BF91AF919F918F917F9107
S11305906F915F914F913F912F911F910F91FF9018
S11305A0EF90DF90CF900F900BBE0F900FBE0F9087
S11305B01F90189520E0AE014F5F5F4FBE016E5F44
S11305C07F4F8091EA239091EB230E94B112C09255
S11305D0E623D092E723E092E823F092E923C9CFFF
S11305E0DC011092EF231092F0239C919923B1F037
S11305F0FD01319680E49093A00A9091A10A96FFA0
S1130600FCCF8093A10A9F012A1B3B0B919191116E
S1130610F2CF2093EF233093F02308950895FC0143
S11306201092EF231092F02390819923E1F03196F8
S113063020E030E080E4261737071CF061157105CF
S113064069F49093A00A9091A10A96FFFCCF80933D
S1130650A10A2F5F3F4F91919111EDCF2093EF238A
S11306603093F02308950895CF92DF92EF92FF9292
S11306700F931F93CF93DF937C0180E197E28093E4
S1130680ED239093EE231092EC23C5E0D0E0C12C2F
S1130690E0E1F7E2A0E4DA2E0AE010E0C701BF01CE
S11306A00E94A435AB019B01ADECBCEC0E94D43597
S11306B09695879596958795969587959C01220F93
S11306C0331F880F991F880F991F880F991F820F56
S11306D0931F9A01281B390BC901009711F4CC20F0
S11306E059F0805D8093A00A8091A10A86FFFCCF17
S11306F0D092A10ACC24C394CF01B8010E94B8358A
S1130700FB01219759F6C092EC236093ED2370937B
S1130710EE23DF91CF911F910F91FF90EF90DF9027
S1130720CF900895E0E2F6E087E0818380E4808B57
S1130730818B828BE0E0F6E090E89183878B0895CB
S1130740E0EAF6E08FE1818380E4848B20E1258375
S1130750E0E0FBE091E0908393EF918340E050E18F
S113076046A357A3E0E4F6E090EC9283868B878B54
S1130770828790E8938795E09187E0E8F6E030E39C
S11307803283848B858B228780E28387918740E044
S113079065E084E10E9484118093822990938329E7
S11307A0089520E1009769F56115710509F457C0B2
S11307B02093A606813020EF92070CF457C0919540
S11307C0819591098093280B9093290B10922A0B01
S11307D010922B0B7195619571091616170644F149
S11307E0613020EF72070CF444C071956195710972
S11307F060932C0B70932D0B10922E0B10922F0BD9
S113080008952093A60618161906A4F61092280B2C
S11308101092290B811520E19207F4F480932A0B9E
S113082090932B0B71956195710916161706C4F6F2
S113083010922C0B10922D0B611580E178072CF48B
S113084060932E0B70932F0B08956FEF7FE06093EE
S11308502E0B70932F0B08958FEF9FE0DFCF209323
S1130860A506813020EF92070CF0A9CF81E090EF2C
S1130870A6CF61E070EFB9CF0FB6F8940F92409114
S11308807E2950917F2920918029309181290F90D0
S11308900FBEBA01C90108951F920F920FB60F92AD
S11308A011240BB60F921F932F933F934F935F9393
S11308B06F937F938F939F93AF93BF93EF93FF9324
S11308C0CF93DF9300D000D0CDB7DEB71E82209146
S11308D02008309121088091922990919329A09128
S11308E09429B0919529820F931FA11DB11D89836D
S11308F09A83AB83BC8380914806182F107886FFB7
S113090037C081E08D8320E0AE014A5F5F4FBE01B6
S11309106F5F7F4F80918229909183290E94B11249
S11309201123B9F180917E2990917F2901968093BA
S11309307E2990937F298E8181110E947B0F2696B8
S1130940CDBFDEBFDF91CF91FF91EF91BF91AF910A
S11309509F918F917F916F915F914F913F912F91D3
S11309601F910F900BBE0F900FBE0F901F90189504
S113097085E08D8320E0AE014A5F5F4FBE016F5F6B
S11309807F4F80918229909183290E94B112112373
S113099049F280917E2990917F29019780937E2945
S11309A090937F29C8CF1F920F920FB60F921124F4
S11309B00BB60F921F932F933F934F935F936F93B5
S11309C07F938F939F93AF93BF93EF93FF93CF93B3
S11309D0DF9300D000D0CDB7DEB71E82209120086F
S11309E0309121088091922990919329A091942982
S11309F0B0919529820F931FA11DB11D89839A83FC
S1130A00AB83BC8380914806182F107487FF37C0CE
S1130A1082E08D8320E0AE014A5F5F4FBE016F5FCD
S1130A207F4F80918229909183290E94B1121123D2
S1130A30B9F180917E2990917F29019780937E2935
S1130A4090937F298E8181110E947B0F2696CDBFC2
S1130A50DEBFDF91CF91FF91EF91BF91AF919F9155
S1130A608F917F916F915F914F913F912F911F9142
S1130A700F900BBE0F900FBE0F901F90189586E03D
S1130A808D8320E0AE014A5F5F4FBE016F5F7F4FF1
S1130A9080918229909183290E94B112112349F2F5
S1130AA080917E2990917F29019680937E2990934D
S1130AB07F29C8CF1F920F920FB60F9211240BB645
S1130AC00F921F932F933F934F935F936F937F9353
S1130AD08F939F93AF93BF93EF93FF93CF93DF9342
S1130AE000D000D0CDB7DEB71E822091200830910F
S1130AF021088091922990919329A0919429B091F1
S1130B009529820F931FA11DB11D89839A83AB83FD
S1130B10BC8380918806182F107284FF37C083E04D
S1130B208D8320E0AE014A5F5F4FBE016F5F7F4F50
S1130B3080918229909183290E94B1121123B9F1E5
S1130B4080918029909181290196809380299093A6
S1130B5081298E8181110E947B0F2696CDBFDEBF35
S1130B60DF91CF91FF91EF91BF91AF919F918F91C1
S1130B707F916F915F914F913F912F911F910F90B2
S1130B800BBE0F900FBE0F901F90189587E08D83BA
S1130B9020E0AE014A5F5F4FBE016F5F7F4F8091DF
S1130BA08229909183290E94B112112349F28091E4
S1130BB0802990918129019780938029909381299C
S1130BC0C8CF1F920F920FB60F9211240BB60F923B
S1130BD01F932F933F934F935F936F937F938F93C1
S1130BE09F93AF93BF93EF93FF93CF93DF9300D083
S1130BF000D0CDB7DEB71E822091200830912108A5
S1130C008091922990919329A0919429B09195294A
S1130C10820F931FA11DB11D89839A83AB83BC836B
S1130C2080918806182F107284FF1CC084E08D8385
S1130C3020E0AE014A5F5F4FBE016F5F7F4F80913E
S1130C408229909183290E94B112112309F447C08B
S1130C508091802990918129019780938029909394
S1130C6081291AC088E08D8320E0AE014A5F5F4F7E
S1130C70BE016F5F7F4F80918229909183290E94EA
S1130C80B1128091802990918129111122C001977C
S1130C9080938029909381298E8181110E947B0FFA
S1130CA02696CDBFDEBFDF91CF91FF91EF91BF912B
S1130CB0AF919F918F917F916F915F914F913F91F0
S1130CC02F911F910F900BBE0F900FBE0F901F908E
S1130CD0189501968093802990938129DDCF809186
S1130CE0802990918129019680938029909381296C
S1130CF0D3CF0FB6F8940F9210927E2910927F29C9
S1130D0010928029109281290F900FBE08950F939D
S1130D101F93CF93DF931F921F92CDB7DEB785E762
S1130D20898301E09E012F5F3F4F41E0B90188E6CE
S1130D300E949D0A8823D9F08981883619F11F926F
S1130D4098E69F931F928F9387E390E29F938F93EC
S1130D500E94BE380F900F900F900F900F900F903D
S1130D600F900F90DF91CF911F910F91089582E220
S1130D7090E20E94D8380F900F90DF91CF911F918D
S1130D800F91089589E189831A8242E0BE016F5F61
S1130D907F4F88E60E942C0B8AE1898311E01A8335
S1130DA042E0BE016F5F7F4F88E60E942C0B8BE10F
S1130DB089831A8242E0BE016F5F7F4F88E60E94FA
S1130DC02C0B87E3898380E18A8342E0BE016F5F55
S1130DD07F4F88E60E942C0B88E389831A8342E0C4
S1130DE0BE016F5F7F4F88E60E942C0B8BE68983E0
S1130DF01A8342E0BE016F5F7F4F88E60E942C0B8E
S1130E000F900F90DF91CF911F910F910895AF92A2
S1130E10BF92CF92DF92EF92FF920F93CF93DF9323
S1130E20CDB7DEB72C97CDBFDEBF5C016B017A0175
S1130E3083E4898306E09E012F5F3F4F41E0B901BF
S1130E4088E60E949D0A882389F18A818B8789819B
S1130E508C878C8189878B818A878E818F838D8112
S1130E608887A114B10429F08B859C85F5018083C2
S1130E709183C114D10429F089859A85F601808370
S1130E809183E114F10429F08F819885F70180831F
S1130E9091832C96CDBFDEBFDF91CF910F91FF9050
S1130EA0EF90DF90CF90BF90AF90089568E870E026
S1130EB08EE690E20E94901FC8CFAF92BF92CF926D
S1130EC0DF92EF92FF920F93CF93DF93CDB7DEB70C
S1130ED02C97CDBFDEBF5C016B017A018BE3898364
S1130EE006E09E012F5F3F4F41E0B90188E60E9472
S1130EF09D0A882389F18A818B8789818C878C81DB
S1130F0089878B818A878E818F838D818887A114BD
S1130F10B10429F08B859C85F50180839183C114EC
S1130F20D10429F089859A85F60180839183E1149F
S1130F30F10429F08F819885F701808391832C96A1
S1130F40CDBFDEBFDF91CF910F91FF90EF90DF9087
S1130F50CF90BF90AF90089561EA70E08EE690E282
S1130F600E94901FC8CF1F93CF93DF931F921F92AD
S1130F70CDB7DEB710E8198382E28A8342E0BE016E
S1130F806F5F7F4F8CE30E942C0B19831A8242E01F
S1130F90BE016F5F7F4F8CE30E942C0B198387E0A7
S1130FA08A8342E0BE016F5F7F4F8CE30E942C0B6B
S1130FB00F900F90DF91CF911F9108951F93CF93BE
S1130FC0DF931F921F92CDB7DEB710E8198381E239
S1130FD08A8342E0BE016F5F7F4F8CE30E942C0B3B
S1130FE019831A8242E0BE016F5F7F4F8CE30E9437
S1130FF02C0B19838FE78A8342E0BE016F5F7F4F1A
S11310008CE30E942C0B0F900F90DF91CF911F91D6
S11310100895BF92CF92DF92EF92FF920F931F93A6
S1131020CF93DF93CDB7DEB76197CDBFDEBF80919D
S1131030F123882349F10E94DE078091F123811175
S113104030C083EFC82E83E2D82E93EFE92E97E2C7
S1131050F92E8E010E5E1F4F20E4B22EB982FE01DE
S11310603296D6018D918193E017F107D9F741E1CA
S1131070BE016F5F7F4F8CE30E942C0B80E1C80E92
S1131080D11CEC14FD0451F76196CDBFDEBFDF9196
S1131090CF911F910F91FF90EF90DF90CF90BF9071
S11310A008950E94B307CDCF0F931F93CF93DF937F
S11310B000D01F92CDB7DEB71092F1238093F223B4
S11310C010E819838EEA8A8342E0BE016F5F7F4F86
S11310D08CE30E942C0B882309F4C3C0198385ED8B
S11310E08A831B831C8344E0BE016F5F7F4F8CE3C4
S11310F00E942C0B198388EA8A831B838FE38C83D9
S113110044E0BE016F5F7F4F8CE30E942C0B198378
S113111083ED8A831B831C8244E0BE016F5F7F4F93
S11311208CE30E942C0B19838DE88A831B8384E152
S11311308C8344E0BE016F5F7F4F8CE30E942C0BD5
S1131140198300E40A8342E0BE016F5F7F4F8CE3A2
S11311500E942C0B198386EA8A8342E0BE016F5FEA
S11311607F4F8CE30E942C0B198384EA8A8342E02C
S1131170BE016F5F7F4F8CE30E942C0B198381EAC1
S11311808A8342E0BE016F5F7F4F8CE30E942C0B89
S1131190198388EC8A8342E0BE016F5F7F4F8CE342
S11311A00E942C0B198380E28A8342E0BE016F5FA8
S11311B07F4F8CE30E942C0B19831A8242E0BE01FC
S11311C06F5F7F4F8CE30E942C0B19838AED8A8317
S11311D01B8382E18C8344E0BE016F5F7F4F8CE30D
S11311E00E942C0B198381E88A831B838FE88C83EC
S11311F044E0BE016F5F7F4F8CE30E942C0B198388
S113120089ED8A831B8381EF8C8344E0BE016F5F89
S11312107F4F8CE30E942C0B19838BED8A831B83F5
S11312200C8344E0BE016F5F7F4F8CE30E942C0B64
S113123019838FEA8A8342E0BE016F5F7F4F8CE39C
S11312400E942C0B80E094E0E3EFF3E2DF019C01C9
S11312501D9221503040E1F70E94090881E08093FB
S1131260F1232496CDBFDEBFDF91CF911F910F9163
S11312700895CF93C82F809142288E3450F59091D1
S11312804328911106C0E82FF0E0EC50F84D2FEF01
S11312902083C11110C0E82FF0E0EC50F84D20E895
S11312A030E0092E02C0359527950A94E2F720957F
S11312B03081232320839F5F983039F41092432890
S11312C08F5F80934228CF91089590934328CF91C4
S11312D0089567E270E089E890E20E94901F90917F
S11312E043288091422891110DC0E82FF0E0EC5082
S11312F0F84D2FEF20838E3460F281E080934328F1
S1131300CF9108958E3428F29F5F9830B9F2DDCFE3
S113131080E00E94390981E00E94390981E00E943D
S1131320390981E00E94390981E00C94390980E08F
S11313300E94390980E00E94390980E00E9439093D
S113134080E00E94390981E00C943909CF93DF933E
S1131350D82FC8E005C00E948809DD0FC15039F0BC
S1131360D7FFF9CF0E949709DD0FC150C9F7DF916C
S1131370CF910895E0E0F6E080E4818386830895C8
S11313803F924F925F926F927F928F929F92AF9211
S1131390BF92CF92DF92EF92FF920F931F93CF935E
S11313A0DF93362E472E582ED22E132FD42F88E0BB
S11313B08093610690E4909373061092A30980933E
S11313C0A40980EC8093A50985E08093A60984EFA5
S11313D0882E87E2982E92E4692E98E2792EF40101
S11313E08FEF81936E167F06E1F710924228C5E8CD
S11313F081E00E943909C150D9F7832D0E94A609C2
S1131400842D0E94A609852D0E94A6098D2D0E9477
S1131410A609812F0E94A6098D2F0E94A6098E2D50
S11314200E94A6098F2D0E94A609802F0E94A6095A
S11314308A2D0E94A6098B2D0E94A6098C2D0E943C
S1131440A6090FB6F8940F921092F32780E48093C4
S1131450050620E4F40191914F018091A10985FFD3
S1131460FCCF2093A1099093A0096814790491F703
S11314708FEE90E00197F1F700C0000080E48093C4
S113148006060F900FBEDF91CF911F910F91FF9031
S1131490EF90DF90CF90BF90AF909F908F907F9010
S11314A06F905F904F903F90089580E28093410643
S11314B00895811104C080E280934606089580E275
S11314C08093450608958BEC8093520088E08093C6
S11314D050008091510083FFFCCF82EC8093550033
S11314E088E1809350008091510084FFFCCF88ED07
S11314F084BF84E08093400080E0089510924928DE
S1131500E0E8F6E088E1808B818BE0EAF4E088E7AC
S1131510818383E2858381E084830E949712809390
S113152046289093472843E060E081E00E948411BC
S113153080934428909345280895CF92DF92EF92A8
S1131540FF920F931F93CF93DF93D82F6B01142F28
S113155079016FEF7FEF80914628909147280E9490
S11315601C14C0925028D0925128E0924E28F09238
S11315704F28C0914928C11155C081E08093492862
S1131580109248288D2F880F8093522810934D284D
S113159000934C2810924B2810924A2880914D2891
S11315A08823B1F1809152288E7F8093A6046FEF37
S11315B07FEF80914428909145280E941C148091CB
S11315C048288130E1F11F928F931F92DF9388EABC
S11315D090E29F938F930E94BE3820E040E050E059
S11315E060E070E080914628909147280E94C811DD
S11315F00F900F900F900F900F900F908C2FDF9102
S1131600CF911F910F91FF90EF90DF90CF900895AD
S113161080914C28882359F28091522881608093CC
S1131620A604C5CF20E040E050E060E070E0809187
S11316304628909147280E94C811C0E0DFCF20E0DF
S113164040E050E060E070E08091462890914728A7
S11316500E94C811C1E0D2CF0F9300E020E030E037
S11316600E949D0A0F91089590914D2820914C2835
S11316708091A40484FD22C080914B28891768F0CE
S113168080914A28821718F183E08093A30481E0B3
S11316908093482810924928089580914B28E0911E
S11316A05028F0915128E80FF11D80818093A70400
S11316B080914B288F5F80934B28089583E080931B
S11316C0A30485E0809348281092492808958091C6
S11316D0522881608093A604089580914A2880321C
S11316E0F8F48091A70490914A28E0914E28F09153
S11316F04F28E90FF11D808380914A288F5F8093E2
S11317004A2890914C2880914A288917B8F087E09C
S11317108093A30481E08093482810924928089577
S113172083E08093A30482E08093482810924928A0
S113173090914C2880914A28891748F782E0809339
S1131740A30408951F920F920FB60F9211240BB6A3
S11317500F922F933F934F935F936F937F938F9346
S11317609F93AF93BF93EF93FF93CF93DF931F9216
S1131770CDB7DEB719828091A404982F9C70E1F450
S113178086FD44C087FD45C086E0809348281092BA
S113179049288091492881111FC0BE016F5F7F4F86
S11317A080914428909145280E940C1389818823B4
S11317B099F00E947B0F10C08091A40482FD22C086
S11317C093E09093482888608093A4041092492859
S11317D080914928882309F30F90DF91CF91FF91DD
S11317E0EF91BF91AF919F918F917F916F915F9195
S11317F04F913F912F910F900BBE0F900FBE0F9002
S11318001F90189594E090934828DDCF0E94340BE4
S1131810DFCF0E946D0BDCCFCF93DF931F92CDB748
S1131820DEB74FEF5FEFBE016F5F7F4F8091862978
S1131830909187290E945F13898190E00F90DF9136
S1131840CF910895CF93DF931F921F92CDB7DEB748
S11318508A8320E04FEF5FEFBE016E5F7F4F809180
S11318609029909191290E94C8118091A10A85FF25
S11318700EC040E050E0BE016F5F7F4F8091902921
S1131880909191290E945F1389818093A00A80E03E
S113189090E00F900F90DF91CF91089540E061E0C8
S11318A080E80E948411809390299093912940E0CC
S11318B061E080E80E9484118093862990938729AF
S11318C0E0E8F6E088E0818384E08283E0EAFAE0FD
S11318D088E3838388E1848383E0858385EE86833C
S11318E08CEB8783E1EAF9E286E090E282839383DA
S11318F08083918308951F920F920FB60F92112443
S11319000BB60F922F933F934F935F936F937F93F5
S11319108F939F93AF93BF93EF93FF93CF93DF93F3
S11319201F921F92CDB7DEB71982AE014F5F5F4F92
S1131930BE016E5F7F4F80919029909191290E9402
S1131940D3158130D9F0898181110E947B0F0F90CA
S11319500F90DF91CF91FF91EF91BF91AF919F9144
S11319608F917F916F915F914F913F912F910F9044
S11319700BBE0F900FBE0F901F9018958A81809315
S1131980A00AE1CF1F920F920FB60F9211240BB64B
S11319900F922F933F934F935F936F937F938F9304
S11319A09F93AF93BF93EF93FF93CF93DF931F92D4
S11319B01F92CDB7DEB719828091A00A8A839091D5
S11319C053289130C9F08B3561F10F900F90DF915E
S11319D0CF91FF91EF91BF91AF919F918F917F91A3
S11319E06F915F914F913F912F910F900BBE0F908C
S11319F00FBE0F901F9018958D35B9F020E0AE0101
S1131A004F5F5F4FBE016E5F7F4F8091862990913B
S1131A1087290E94B11289818823B9F20E947B0F21
S1131A20D4CF81E080935328D0CF10925328909341
S1131A308529809184298F5F8093842980EC90E2AA
S1131A400E94F002E8CF0F931F93CF93DF93EC0132
S1131A500E94E91980915428811121C0E0919629AE
S1131A60F0919729CF0101968093592890935A2891
S1131A7010925B2810925C288FEF9FE38093572885
S1131A809093582810925528109256288383948353
S1131A9085E598E28183928381E08093542820979E
S1131AA009F464C0AE014C5F5F4F2396CE3FDF4321
S1131AB008F05CC0E0915928F0915A28A9E5B8E2F1
S1131AC006C080819181009739F0DF01FC012281F9
S1131AD0338124173507A8F3C8E2E535FC0709F478
S1131AE045C0CD91DC9111978E010C5F1F4F808111
S1131AF091818D939C93C901841B950B8930910529
S1131B0000F1BF01640F751FDB0112968D939C9346
S1131B1013974283538312962D913C911397A9E511
S1131B20B8E201C0DF01ED91FC91119782819381AC
S1131B3082179307B8F3EB01E883F9836D937C93E1
S1131B409A018091142090911520821B930B80930D
S1131B501420909315200E94D31A0115110541F009
S1131B60C801DF91CF911F910F9108950E94D31A5C
S1131B700E94471F00E010E0C801DF91CF911F9140
S1131B800F910895CF93DF93009721F1EC012497EF
S1131B900E94E9194A815B81A9E5B8E201C0DF012D
S1131BA0ED91FC9111972281338124173507B8F305
S1131BB0E883F983CD93DC938091142090911520D0
S1131BC0480F591F4093142050931520DF91CF9153
S1131BD00C94D31ADF91CF910895FC01039681836D
S1131BE092832FEF3FEF2383348385839683878308
S1131BF0908710820895FC01108611860895CF9372
S1131C00DF939C01FB01DC011196CD91DC911297CD
S1131C10C283D3838C819D81848395838C819D81B0
S1131C20DC0112966D937C9313976C837D832087DC
S1131C303187F90180818F5F8083DF91CF9108958F
S1131C40CF93DF93EB01488159814F3F2FEF520728
S1131C5001F1DC01139601C0DF011296ED91FC91B4
S1131C6013972081318142175307B0F7EA83FB832E
S1131C70C483D583AC83BD831296CD93DC93139731
S1131C8088879987FC0120812F5F2083DF91CF9182
S1131C900895FC01A781B0851296ED91FC911397EC
S1131CA0E5CFCF93DF93FC01A085B18522813381F9
S1131CB084819581E9018C839D8384819581EC01E4
S1131CC02A833B8311962D913C911297E217F307D7
S1131CD049F0108611868C9181508C938C91DF9100
S1131CE0CF91089511968D939C931297F2CF31E181
S1131CF0FC013083319722E220833197A3E3A08350
S1131D0031976083319770833197108231971082B5
S1131D10319760E8608331971082319762E0608385
S1131D20319763E06083319764E06083319765E0C5
S1131D306083319766E06083319767E06083319711
S1131D4068E06083319769E06083319760E1608384
S1131D5031973083319732E13083319733E13083E7
S1131D60319734E13083319735E13083319736E16F
S1131D703083319737E13083319738E130833197BD
S1131D8039E13083319730E23083319731E2308367
S1131D9031972083319723E2208331974083319711
S1131DA05083319726E22083319727E220833197AD
S1131DB028E22083319729E22083319720E320838E
S1131DC0319721E3208387970895E0E0F8E08FEFCF
S1131DD09FEF80A791A781E0808390E4918386831D
S1131DE0878380E09DE786A397A3A091FB28B09109
S1131DF0FC28CD91CDBFDD91DEBFFF91EF91DF9146
S1131E00CF91BF91AF919F918F917F916F915F918E
S1131E104F913F912F911F910F91FF90EF90DF9081
S1131E20CF90BF90AF909F908F907F906F905F9076
S1131E304F903F902F901F900F900FBE0F900895DA
S1131E4081E008950F920FB6F8940F921F92112417
S1131E502F923F924F925F926F927F928F929F92B6
S1131E60AF92BF92CF92DF92EF92FF920F931F93A4
S1131E702F933F934F935F936F937F938F939F938E
S1131E80AF93BF93CF93DF93EF93FF93A091FB287E
S1131E90B091FC280DB60D920EB60D920E94DD1B7A
S1131EA0A091FB28B091FC28CD91CDBFDD91DEBF80
S1131EB0FF91EF91DF91CF91BF91AF919F918F915E
S1131EC07F916F915F914F913F912F911F910F914E
S1131ED0FF90EF90DF90CF90BF90AF909F908F9046
S1131EE07F906F905F904F903F902F901F900F9036
S1131EF00FBE0F90089580912008909121088C596D
S1131F009F4F8093280890932908209128083091A6
S1131F10290880912608909127082817390770F01E
S1131F20209126083091270880912808909129084B
S1131F30821B930B809328089093290808950F928D
S1131F400FB6F8940F921F9211242F923F924F9242
S1131F505F926F927F928F929F92AF92BF92CF9235
S1131F60DF92EF92FF920F931F932F933F934F9320
S1131F705F936F937F938F939F93AF93BF93CF930D
S1131F80DF93EF93FF93A091FB28B091FC280DB64B
S1131F900D920EB60D92209126083091270880915B
S1131FA0922990919329A0919429B0919529820F17
S1131FB0931FA11DB11D8093922990939329A093FF
S1131FC09429B09395290E94F9190E94DD1BA091D0
S1131FD0FB28B091FC28CD91CDBFDD91DEBFFF91F0
S1131FE0EF91DF91CF91BF91AF919F918F917F91AD
S1131FF06F915F914F913F912F911F910F91FF909E
S1132000EF90DF90CF90BF90AF909F908F907F9094
S11320106F905F904F903F902F901F900F900FBE46
S11320200F90189508950F920FB6F8940F921F927F
S113203011242F923F924F925F926F927F928F92D0
S11320409F92AF92BF92CF92DF92EF92FF920F9343
S11320501F932F933F934F935F936F937F938F932C
S11320609F93AF93BF93CF93DF93EF93FF93A0918D
S1132070FB28B091FC280DB60D920EB60D928FEF91
S11320809FEF80932808909329080E94DD1BA0915C
S1132090FB28B091FC28CD91CDBFDD91DEBFFF912F
S11320A0EF91DF91CF91BF91AF919F918F917F91EC
S11320B06F915F914F913F912F911F910F91FF90DD
S11320C0EF90DF90CF90BF90AF909F908F907F90D4
S11320D06F905F904F903F902F901F900F900FBE86
S11320E00F9018950F931F93CF93DF93EC01042F58
S11320F01A8D4C8D41110DC088819981892B09F469
S113210043C01F5F80E01A8FDF91CF911F910F9121
S1132110089550E0011115C08A819B810E94E73720
S11321202C8D8A819B81820F911D8A839B832C81B4
S11321303D818217930728F3888199818A839B8341
S1132140E0CF8E819F810E94E7378C8D90E091953E
S1132150819591092E813F81280F391F2E833F835A
S1132160488159812417350730F42C813D81820F31
S1132170931F8E839F83023021F6112311F080E098
S1132180C2CF11E080E0BFCF8C819D810E94371DBA
S11321901C821D821F5FB7CFFC01CB01448D4423F9
S11321A091F050E066817781640F751F66837783B1
S11321B0248135816217730720F060817181668301
S11321C077830C94E7370895EF92FF920F931F9350
S11321D0CF938C010FB6F8940F92FC01C68D1C1698
S11321E0C4F4FC0181898823A1F07801F1E1EF0EA8
S11321F0F11C06C0C15069F0F8018189882349F0B7
S1132200C7010E94071C8823A9F30E94C01CC15067
S113221099F78FEFF801868F0F900FBE0FB6F894E1
S11322200F92C58D1C16C4F4F80180858823A1F093
S11322307801F8E0EF0EF11C06C0C15069F0F80116
S11322408085882349F0C7010E94071C8823A9F3CD
S11322500E94C01CC15099F78FEFF801858F0F9031
S11322600FBECF911F910F91FF90EF9008951F9390
S1132270CF93DF93EC01162F892B09F43EC00FB6E0
S1132280F8940F92488159818B8D6C8D9A01869FA9
S1132290200D311D11242C833D831A8E4A835B83C8
S11322A090E00197689F9001699F300D1124CA0145
S11322B0820F931F8E839F838FEF8D8F8E8F1111CB
S11322C013C08885811107C00F900FBE81E0DF9194
S11322D0CF911F910895CE0108960E94071C882370
S11322E099F30E94220FF0CFCE0108960E94ED0DC3
S11322F0CE0141960E94ED0DE7CF63E071E08AEDD7
S113230090E20E94901FBBCFFF920F931F93CF9335
S1132310DF93182F062FF42E882399F10023D1F090
S1132320109FC001112481960E94230DEC01009797
S113233051F08196888399831B8F0C8F61E0CE01C5
S11323400E943711F8A2CE01DF91CF911F910F9116
S1132350FF90089581E290E00E94230DEC01892B07
S113236091F3C883D9831B8F0C8F61E0CE010E9447
S11323703711F8A2CE01DF91CF911F910F91FF90F9
S1132380089566E771E08AED90E20E94901FC6CF3F
S1132390BF92CF92DF92EF92FF920F931F93CF934E
S11323A0DF93CDB7DEB72597CDBFDEBF8C016B01C0
S11323B04C835D83B22E892B09F4B2C0C114D104BD
S11323C009F4A2C0F2E0BF1609F47DC0F801838DC0
S11323D020E07801F8E0EF0EF11C10C06C817D81E3
S11323E0C7010E94E71BC8010E94E4100E94D31A8F
S11323F0882309F44AC0F801838D21E00FB6F894CC
S11324000F92F801928D981708F442C0F2E0BF16BB
S113241009F43EC08C819D81892B09F460C022237C
S113242059F10F900FBE0E94E9190FB6F8940F925C
S1132430F801858D8F3F39F1F801868D8F3F09F1C1
S11324400F900FBEBE016C5F7F4FCE0101960E94BC
S1132450691C811148C00FB6F8940F92F801928D4F
S11324600F900FBE838D981709F4B8CFC8010E944E
S1132470E4100E94D31ABFCFCE0101960E945E1CC5
S1132480D0CF168EDDCF158ED7CF0E94220FB3CFBB
S11324904B2DB601C8010E947210F8019189911167
S11324A02CC0811127C00F900FBE81E02596CDBFAF
S11324B0DEBFDF91CF911F910F91FF90EF90DF90DE
S11324C0CF90BF900895F801838D813009F480CFB7
S11324D063EF72E08AED90E20E94901F77CF0F9035
S11324E00FBE80E0E3CFC8010E94E4100E94D31A1B
S11324F080E0DCCF0E94220FD6CFC80141960E9413
S1132500071C882381F2F6CFF801848D882309F40F
S113251059CF62EF72E08AED90E20E94901F52CF91
S113252061EF72E08AED90E20E94901F47CFCF9353
S1132530DF93482F60E081E00E948411EC01009752
S113254061F01C821D82188219821E8220E040E004
S113255050E060E070E00E94C811CE01DF91CF919D
S11325600895CF92DF92EF92FF920F931F93CF9330
S1132570DF93EC018B016A01F22E892B09F445C02B
S113258001151105C1F182E0F81671F09A8D8B8D59
S11325909817A0F080E0DF91CF911F910F91FF90E9
S11325A0EF90DF90CF9008958B8D813031F065EC02
S11325B073E08AED90E20E94901F8A8DEE8C4F2D7D
S11325C0B801CE010E947210EFEFEE1621F0E394F1
S11325D0EE8E81E0E0CF89898823D9F3CE0141963C
S11325E00E94071C8823A9F3C114D10491F381E04C
S11325F0F6018083D0CF8C8D882329F264EC73E0BC
S11326008AED90E20E94901FBECF63EC73E08AEDE6
S113261090E20E94901FB4CF0F931F93CF93DF9348
S1132620EC018B01892B09F443C08C8D81111BC0F3
S113263088819981892B09F18A8D9B8D891768F48A
S11326409E8D8F5F8A8F9F3F19F19F5F9E8F81E0E0
S1132650DF91CF911F910F91089580E0DF91CF9189
S11326601F910F91089564E674E08AED90E20E9450
S1132670901F88819981892BF9F68C819D81892B02
S1132680D9F269E674E08AED90E20E94901FD4CFFB
S113269089898823E1F2CE0141960E94071C882390
S11326A0B1F20115110599F281E0F8018083D0CFD0
S11326B060E674E08AED90E20E94901FB6CFAF927C
S11326C0BF92CF92DF92FF920F931F93CF93DF932A
S11326D0CDB7DEB72597CDBFDEBF8C015B014C8340
S11326E05D83892B09F4A1C0A114B10409F491C03C
S11326F020E06801F1E1CF0ED11C0FB6F8940F92DF
S1132700F801F28CF1106AC08C819D81892B09F447
S113271073C0222309F459C00F900FBE0E94E91917
S11327200FB6F8940F92F801858D8F3F09F454C0C9
S1132730F801868D8F3F09F44DC00F900FBEBE0186
S11327406C5F7F4FCE0101960E94691C811122C0EB
S11327500FB6F8940F92F801828D0F900FBE81117D
S113276012C06C817D81C6010E94E71BC8010E94D2
S1132770E4100E94D31A882311F021E0BECF0E94F6
S1132780220F21E0BACFC8010E94E4100E94D31A9C
S113279021E0B3CFC8010E94E4100E94D31A0FB6FF
S11327A0F8940F92F801828D0F900FBE8111E5CF3E
S11327B02596CDBFDEBFDF91CF911F910F91FF9082
S11327C0DF90CF90BF90AF900895CE0101960E9404
S11327D05E1CA2CF168EB1CF158EAACFB501C8014B
S11327E00E94CC10FA94F801F28E8085811108C001
S11327F00F900FBE81E0DCCF0F900FBE80E0D8CFEA
S1132800C80108960E94071C882391F30E94220F96
S1132810EFCFF801848D882309F46ACF64E075E072
S11328208AED90E20E94901F63CF60E075E08AED2C
S113283090E20E94901F58CFDF92EF92FF920F9385
S11328401F93CF93DF93CDB7DEB72597CDBFDEBF00
S11328508C016C837D83892B09F4D0C0D8015C96EC
S11328608C918111BBC0D12C20E07801B1E1EB0E39
S1132870F11C0FB6F8940F92F801828D811189C072
S11328808C819D81892B09F49DC0222309F45FC0AA
S11328900F900FBE0E94E9190FB6F8940F92D80159
S11328A05D968C915D978F3F09F456C0F801868D33
S11328B08F3F09F458C00F900FBEBE016C5F7F4F6D
S11328C0CE0101960E94691C811123C00FB6F894B1
S11328D00F92D8015A968C915A970F900FBE81117E
S11328E044C0F80180819181892B09F445C06C8131
S11328F07D81C7010E94E71BC8010E94E4100E9469
S1132900D31A882311F021E0B4CF0E94220F21E0D2
S1132910B0CFC8010E94E4100E94D31A0FB6F894F5
S11329200F92F801828D0F900FBE8111ECCFDD2044
S113293009F472C00FB6F8940F928189811165C0B1
S113294060E0F801848195810E948E1D43C0CE0110
S113295001960E945E1C9CCF5D961C92F801868DA8
S11329608F3F09F0A8CF168EA6CFC8010E94E410AD
S11329700E94D31A21E07DCF0FB6F8940F921496DB
S11329808D919C9115970E94C41CD82E0F900FBE58
S1132990AECF8150828F80819181892B09F43EC012
S11329A0F8018085811121C00F900FBE81E025962A
S11329B0CDBFDEBFDF91CF911F910F91FF90EF90BC
S11329C0DF900895DD2031F061EE75E08AED90E24C
S11329D00E94901F0F900FBE80E0E9CF65E975E07B
S11329E08AED90E20E94901F3ECFC80108960E9493
S11329F0071C8823C9F20E94220FD6CF61E975E033
S1132A008AED90E20E94901F29CF0688F789E02D75
S1132A1080816AE0681B95CF80E0C9CF0E94FD1DCC
S1132A20D80114968D939C931597BACFCF92DF92C9
S1132A30EF92FF920F931F93CF93DF93CDB7DEB73F
S1132A402597CDBFDEBF8C016B014C835D83892B41
S1132A5009F4A2C0C114D10409F492C020E07801A1
S1132A60F1E1EF0EF11C0FB6F8940F92F801828D8C
S1132A70811169C08C819D81892B09F474C0222342
S1132A8009F458C00F900FBE0E94E9190FB6F894CC
S1132A900F92F801858D8F3F09F453C0F801868D9C
S1132AA08F3F09F44CC00F900FBEBE016C5F7F4F87
S1132AB0CE0101960E94691C811122C00FB6F894C0
S1132AC00F92F801828D0F900FBE811112C06C819C
S1132AD07D81C7010E94E71BC8010E94E4100E9487
S1132AE0D31A882311F021E0BECF0E94220F21E0E7
S1132AF0BACFC8010E94E4100E94D31A21E0B3CFD8
S1132B00C8010E94E4100E94D31A0FB6F8940F92E1
S1132B10F801828D0F900FBE8111E5CF2596CDBFB0
S1132B20DEBFDF91CF911F910F91FF90EF90DF9067
S1132B30CF900895CE0101960E945E1CA3CF168EFD
S1132B40B2CF158EABCFE680F780B601C8010E94E4
S1132B50CC10F801E682F7828189811108C00F90B8
S1132B600FBE81E0DBCF0F900FBE80E0D7CFC8014E
S1132B7041960E94071C882391F30E94220FEFCFF5
S1132B80F801848D882309F469CF6CE676E08AED38
S1132B9090E20E94901F62CF68E676E08AED90E2B0
S1132BA00E94901F57CFCF92DF92EF92FF920F9324
S1132BB01F93CF93DF93EC017B016A01892BB9F159
S1132BC0E114F104D1F01A8D11110AC080E0DF91F3
S1132BD0CF911F910F91FF90EF90DF90CF900895C8
S1132BE00D8DB701CE010E94CC1011501A8F0F3FEA
S1132BF071F00F5F0D8F81E0EACF8C8D882319F37C
S1132C006CEF76E08AED90E20E94901FDCCF88851D
S1132C10882389F3CE0108960E94071C882359F360
S1132C20C114D10441F381E0F6018083D0CF6BEF6E
S1132C3076E08AED90E20E94901FC2CFCF93DF939B
S1132C40EC01892B49F00FB6F8940F928A8D0F90FE
S1132C500FBEDF91CF9108956AE877E08AED90E2A4
S1132C600E94901FF0CF20C00FB6F8940F92E0910D
S1132C707E28F0917F28C681D781CE0102960E94DA
S1132C80510E80916E28815080936E28809178280F
S1132C908150809378280F900FBE8F89988D0E9461
S1132CA0C20DCE010E94C20D809178288111DCCF23
S1132CB08091A128823010F00E94220F0E94461FAA
S1132CC0F3CFE0918D28F0918E280580F681E02DD8
S1132CD00680F781E02D828193818093642890930C
S1132CE065280895CF93DF93EC01892B99F08A85A9
S1132CF09B858F56984221F080E0DF91CF91089513
S1132D002C893D8988E222383807B1F381E0232BEE
S1132D1099F7F3CF62EF76E08EEE90E20E94901F77
S1132D20E6CFFF920F931F93CF93DF93EC01F62E20
S1132D3000916C2810916D288091FB289091FC28BB
S1132D4002960E94510ECF3F8FEFD807A9F1C00F12
S1132D50D11FE091FB28F091FC28C283D3836091BA
S1132D60FB287091FC28C017D107C8F080918D28EA
S1132D7090918E286E5F7F4F0E94200E8091642870
S1132D8090916528C817D90720F4C0936428D0937C
S1132D906528DF91CF911F910F91FF900895809145
S1132DA08B2890918C286E5F7F4FDF91CF911F917C
S1132DB00F91FF900C94200EFF2049F26091FB28A4
S1132DC07091FC286E5F7F4F8FE698E2DF91CF9180
S1132DD01F910F91FF900C94FF0D0F931F93CF93AE
S1132DE0109268282091200830912108809192291E
S1132DF090919329A0919429B0919529820F931FC2
S1132E00A11DB11D00915D2810915E2820915F28BD
S1132E1030916028081719072A073B07A0F4E091AE
S1132E20FB28F091FC2847A150A561A572A5401B81
S1132E30510B620B730B480F591F6A1F7B1F47A36B
S1132E4050A761A772A780935D2890935E28A093F2
S1132E505F28B0936028E091FB28F091FC28078854
S1132E60F08DE02D80819181A281B381853A954ACC
S1132E70A54AB54A09F44CC06091FB287091FC281E
S1132E808091FB289091FC28675E7F4F0E94661F0B
S1132E90C0916B288C2F90E09C01220F331F220FCE
S1132EA0331F220F331FF901E80FF91FEF55F74DB8
S1132EB0408141110CC0CC2311F0C150EBCF6CE820
S1132EC07BE08EEE90E20E94901FC150E3CF820F10
S1132ED0931FDC01AF55B74D1196ED91FC911297FC
S1132EE00280F381E02D1196ED93FC9312978C559B
S1132EF0974DE817F90759F1868197818093FB284C
S1132F009093FC28C0936B28CF911F910F91089543
S1132F1084819581A681B781853A954AA54AB54AA7
S1132F2009F0AACF80859185A285B385853A954A13
S1132F30A54AB54A09F0A0CF84859585A685B785AD
S1132F40853A954AA54AB54A09F096CFA1CF0280A1
S1132F50F381E02D1196ED93FC931297CDCF5F9200
S1132F606F927F928F929F92AF92BF92CF92DF9295
S1132F70EF92FF920F931F93CF93DF934C01EB01DA
S1132F805A013901502ECA010E94230D8C01892B4C
S1132F9009F4DEC080E390E00E94230D6C010097E9
S1132FA009F4D3C0DC0157960D931C9358972097CE
S1132FB009F4D0C0C801A50165EA70E00E94F037A9
S1132FC0F1E0AF1AB108D60157968D919C915897AC
S1132FD0A80EB91EF60179969E01285F3F4FDE01C7
S1132FE0899181938C91882319F0C217D307B9F77B
S1132FF0F60110A2052D0A3008F0A1C0D60156969C
S11330000C93569793960C93939794961C92E6017F
S11330102296CE010E94FB0DC6010C960E94FB0D68
S1133020F601C086D1868AE090E0801B91098487EE
S11330309587C28AD38A15A216A217A210A611A632
S113304012A613A614A615A616A617A6A301B401C4
S1133050C5010E94770ED6018D939C93E114F1046F
S113306019F0F701C082D1820FB6F8940F928091C3
S11330706E288F5F80936E288091FB289091FC28A6
S1133080892B99F080916A28811118C0E091FB285E
S1133090F091FC28D60156968C919689891788F070
S11330A0C092FB28D092FC280CC0C092FB28D0927E
S11330B0FC2880916E28813009F456C0D6015696BA
S11330C08C91909166289F5F90936628F60191A356
S11330D090916B28981780F190E09C01220F331F88
S11330E0220F331F220F331F820F931FBE018F55F0
S11330F0974D0E94FF0D0F900FBE80916A28882380
S113310051F0E091FB28F091FC289689D60156965F
S11331108C919817B0F081E0DF91CF911F910F91BE
S1133120FF90EF90DF90CF90BF90AF909F908F90E3
S11331307F906F905F90089580936B28CDCF09E0C6
S11331405DCF0E94220F81E0E7CFC8010E94C20D2B
S11331508FEFE2CF60E673E08EEE90E20E94901F64
S1133160F6018789908D27CF01EA18E25BEFE52EFF
S113317058E2F52EC8010E94ED0D075F1F4FE016BF
S1133180F106C1F788E998E20E94ED0D8FE898E214
S11331900E94ED0D82E898E20E94ED0D89E798E225
S11331A00E94ED0D8FE698E20E94ED0D88E998E209
S11331B080938D2890938E288FE898E280938B28B3
S11331C090938C28F60186897CCF0F931F93CF931D
S11331D0DF93EC010FB6F8940F92892B09F462C0C7
S11331E08E010E5F1F4FC8010E94510E8C899D896C
S11331F0892B21F0CE010C960E94510EB8018FE666
S113320098E20E94FF0D8FA5813021F10F900FBE2F
S113321080916A28882391F00FB6F8940F92E09178
S11332208D28F0918E28808181112BC08FEF9FEF24
S113323080936428909365280F900FBE8091FB289B
S11332409091FC28C817D90739F0DF91CF911F91CD
S11332500F9108951FA6DACF80916A288823A1F0E0
S113326080916128882331F068EC76E08EEE90E25C
S11332700E94901F0E94220FDF91CF911F910F9106
S113328008950E946116D8CF90916F2880916E287E
S1133290981799F080916128882349F081E0809300
S11332A06828D3CFC091FB28D091FC2899CFDF9117
S11332B0CF911F910F910C94ED161092FB28109250
S11332C0FC28C3CF0F931F93CF93DF93EC01892B7B
S11332D009F43DC08091FB289091FC28C817D907B8
S11332E051F00FB6F8940F92CE010E94721681111C
S11332F007C00F900FBEDF91CF911F910F910895DA
S11333008E010E5F1F4FC8010E94510E8E8990914D
S11333106B28981710F480936B2890E09C01220F7F
S1133320331F220F331F220F331F820F931FB80145
S11333308F55974D0E94FF0DE091FB28F091FC28DA
S11333409E8986899817A8F20E94220FD2CF6CE139
S113335077E08EEE90E20E94901F8091FB2890917E
S1133360FC28C9CFEF92FF920F9382E6E82E88E201
S1133370F82E00E020E030E040E051E062E071E24D
S113338083E396E10E94AF17813079F08F3F21F0FB
S11333900F91FF90EF90089567E078E08EEE90E251
S11333A00F91FF90EF900C94901FF8942FEF3FEF44
S11333B0209364283093652880936A2810926C289F
S11333C010926D280E9412100F91FF90EF900C94B0
S11333D0E50E809161288F5F8093612808950FB670
S11333E0F8940F9280916C2890916D280F900FBEE5
S11333F00895DF92EF92FF920F931F93CF93DF9381
S1133400809161288111B9C0E0906C28F0906D28FA
S11334108FEFE81AF80AE0926C28F0926D28E11414
S1133420F10449F5E0918D28F0918E288081811175
S1133430ABC080918D2890918E2820918B2830915B
S11334408C2820938D2830938E2880938B289093FA
S11334508C28809167288F5F80936728E0918D285E
S1133460F0918E288081811196C08FEF9FEF809319
S11334706428909365288091642890916528D12CC4
S1133480E816F90608F453C0E0918D28F0918E28CF
S11334908081882309F445C0E0918D28F0918E281D
S11334A00580F681E02DC681D7818A819B81E8164B
S11334B0F90608F473C08E010E5F1F4FC8010E9405
S11334C0510E8C899D89892B21F0CE010C960E9486
S11334D0510E8E8990916B28981710F480936B2865
S11334E090E09C01220F331F220F331F220F331F42
S11334F0820F931FB8018F55974D0E94FF0DE091E5
S1133500FB28F091FC289E898689981708F4BCCF83
S1133510DD24D394E0918D28F0918E28808181114F
S1133520BBCF8FEF9FEF8093642890936528E09141
S1133530FB28F091FC28868990E0FC01EE0FFF1F28
S1133540EE0FFF1FEE0FFF1F8E0F9F1FFC01EF55A5
S1133550F74D8081823010F0DD24D3948091682867
S1133560882311F0DD24D3948D2DDF91CF911F9109
S11335700F91FF90EF90DF900895809169288F5FFD
S113358080936928D12CEACF66E67AE08EEE90E249
S11335900E94901F4ECF0E9461166DCF80936428C5
S11335A090936528C4CFFF920F931F93CF93DF931B
S11335B080916128882309F477C00FB6F8940F929C
S11335C080916128815080936128809161288111C4
S11335D062C080916E28882309F45DC0C0E0D0E009
S11335E0FF24F394809182288823A1F1E091872815
S11335F0F0918828C681D781CE010C960E94510E85
S11336008E010E5F1F4FC8010E94510E8E8990914A
S11336106B28981710F480936B2890E09C01220F7C
S1133620331F220F331F220F331F820F931FB80142
S11336308F55974D0E94FF0DE091FB28F091FC28D7
S11336409E898689981770F2F09268288091822862
S11336508111CCCFCD2B69F0E0918D28F0918E288B
S1133660808181112CC08FEF9FEF80936428909309
S11336706528C0916928CC2351F0D1E00E94F91942
S11336808111D0936828C150C9F71092692880919C
S11336906828811110C080E00F900FBEDF91CF9198
S11336A01F910F91FF9008956CE678E08EEE90E202
S11336B00E94901F82CF0E94220F81E0EDCF0E94D2
S11336C06116D7CF0F931F93CF93DF938C01EB0138
S11336D0892B09F446C02097E9F180916128811172
S11336E032C0809161288F5F8093612840916C285B
S11336F050916D28F80120813181CE01820F931FF2
S11337004217530788F48217930788F0F8018083DF
S113371091830E94D31A811102C00E94220FDF916B
S1133720CF911F910F9108958217930718F04817AE
S1133730590760F7F8018083918360E0841B950B3F
S11337400E949116E6CF6CEC74E08EEE90E20E943B
S1133750901FC7CF6BEC74E08EEE90E20E94901F36
S1133760BCCF6AEC74E08EEE90E20E94901FB3CF5F
S1133770CF93DF93EC01892B29F40E94220FDF9170
S1133780CF91089580916128811110C080916128A2
S11337908F5F8093612860E0CE010E9491160E94A1
S11337A0D31A882351F3DF91CF91089560E275E035
S11337B08EEE90E20E94901FE9CF809161288111E2
S11337C002C00C94ED1681E08093682808950F934D
S11337D01F93CF93DF93EC018B01892B89F06091C8
S11337E0FB287091FC28645F7F4FCE010E94200E5D
S11337F061E0C801DF91CF911F910F910C94911654
S113380063EA7BE08EEE90E20E94901FE8CF0F9374
S11338101F93CF93DF93DC011596ED91FC911697DE
S1133820C681D781209709F442C08E01045F1F4FDF
S1133830C8010E94510E80916128811129C00A504B
S11338401109C8010E94510E8E8990916B28981716
S113385028F190E09C01220F331F220F331F220F07
S1133860331F820F931FB8018F55974D0E94FF0D90
S1133870E091FB28F091FC289E898689891788F4B9
S113388081E080936828DF91CF911F910F91089573
S1133890B80182E898E20E94FF0DEACF80936B287A
S11338A0D8CF80E0DF91CF911F910F9108956EEFF3
S11338B07BE08EEE90E20E94901FB7CF20916728A4
S11338C0FC01208320916C2830916D282183328360
S11338D008950F931F93CF93DF93EC018B01892BF2
S11338E009F440C00115110509F443C00FB6F8945A
S11338F00F9280916C2890916D28F801208131817C
S11339002F3FFFEF3F0761F149815A81609167289A
S11339107881761719F08417950780F4841B950B2A
S11339208217930768F0F8011082118281E00F90EA
S11339300FBEDF91CF911F910F91089581E0F7CFD2
S1133940281B390BF80120833183809167288883F1
S113395080916C2890916D2889839A8380E0E7CFC9
S113396080E0E5CF69E67CE08EEE90E20E94901F55
S1133970B9CF6AE67CE08EEE90E20E94901FB6CF4B
S113398081E08093682808950F931F93CF93DF936A
S1133990FC01892B09F441C02689A091FB28B09130
S11339A0FC2856968C91281770F58485958597FD8B
S11339B00CC0A091FB28B091FC2856963C918AE05B
S11339C090E0831B91098487958730E0C901880FB3
S11339D0991F880F991F880F991F280F391F2F557A
S11339E0374D8285938582179307E9F0A091FB28D0
S11339F0B091FC2856968C91868B81E0DF91CF9113
S1133A001F910F910895A091FB28B091FC2881E0AB
S1133A1023A156969C91291788F380E0DF91CF91DA
S1133A201F910F9108958F01EF012296CE010E94FC
S1133A30510EE091FB28F091FC288689F801868BD1
S1133A4090916B28981710F480936B2890E09C0158
S1133A50220F331F220F331F220F331F820F931F96
S1133A60BE018F55974D0E94FF0D81E0C7CF0F9384
S1133A701F93CF93DF930097C9F0EC018091FB284B
S1133A809091FC28C817D90731F06EE77FE08EEEDD
S1133A9090E20E94901F8CA18823C1F181508CA3D5
S1133AA02E899BA1291711F0882331F080E0DF9142
S1133AB0CF911F910F9108958E010E5F1F4FC80182
S1133AC00E94510E2BA12E8B822F90E04AE050E0F1
S1133AD0481B590B4C875D8730916B28321710F4C3
S1133AE020936B289C01220F331F220F331F220FB8
S1133AF0331F820F931FB8018F55974D0E94FF0DFE
S1133B0081E0DF91CF911F910F9108956FE77FE0DE
S1133B108EEE90E20E94901F8CA1C0CF0F931F9352
S1133B20CF93DF93009779F0162FEC018CA18823B3
S1133B3009F454C00BA1011758F08E89801719F0AD
S1133B409CA1913039F0DF91CF911F910F9108958D
S1133B50012FF3CF2091FB283091FC28C217D30703
S1133B6009F443C00E8B2C853D8537FD06C02AE041
S1133B7030E0201B31092C873D8790E09C01220F07
S1133B80331F220F331F220F331F820F931F8F55B2
S1133B90974D2A853B8528173907A9F68E010E5FB4
S1133BA01F4FC8010E94510E8E8990916B2898175F
S1133BB010F480936B2890E09C01220F331F220F96
S1133BC0331F220F331F820F931FB8018F55974D58
S1133BD0DF91CF911F910F910C94FF0D6DEC7FE05D
S1133BE08EEE90E20E94901FA5CF68EE7FE08EEEED
S1133BF090E20E94901F8E89B5CF8091FB2890910E
S1133C00FC28892B39F0E091FB28F091FC2884A151
S1133C108F5F84A38091FB289091FC2808954F9294
S1133C205F926F927F928F929F92AF92BF92EF9228
S1133C30FF920F931F9349015A010FB6F8940F9204
S1133C40E091FB28F091FC2827A5223001F1E091B6
S1133C50FB28F091FC2843A454A465A476A4DC01B9
S1133C60CB0180959095A095B09584219521A621AE
S1133C70B72183A794A7A5A7B6A7E091FB28F09145
S1133C80FC2881E087A7E114F10409F047C00F90F4
S1133C900FBE0FB6F8940F920115110569F0E0916B
S1133CA0FB28F091FC2883A594A5A5A5B6A5F80149
S1133CB080839183A283B383E091FB28F091FC2855
S1133CC087A58230A9F080E0E091FB28F091FC28E0
S1133CD017A60F900FBE1F910F91FF90EF90BF900A
S1133CE0AF909F908F907F906F905F904F900895CA
S1133CF0E091FB28F091FC2883A594A5A5A5B6A581
S1133D0080949094A094B09488229922AA22BB22F1
S1133D1083A694A6A5A6B6A681E0D6CF61E0C70186
S1133D200E9491160E94220FB2CF8F929F92AF925F
S1133D30BF92FF920F931F93CF93DF93EC014A013D
S1133D405B01F22E892B09F498C00FB6F8940F92F8
S1133D500115110549F08BA59CA5ADA5BEA5F801DB
S1133D6080839183A283B3831FA582E08FA7F81673
S1133D7009F474C08F1500F1FF2079F0F1E0FF120F
S1133D805CC08BA59CA5ADA5BEA5882A992AAA2AA4
S1133D90BB2A8BA69CA6ADA6BEA61130E1F081E09D
S1133DA00F900FBEDF91CF911F910F91FF90BF90A5
S1133DB0AF909F908F90089523E0F21631F084E045
S1133DC0F8123BC0123009F45FC08BA69CA6ADA6C6
S1133DD0BEA6113021F78E010E5F1F4FC8010E944D
S1133DE0510E8E8990916B28981710F480936B284C
S1133DF090E09C01220F331F220F331F220F331F29
S1133E00820F931FB8018F55974D0E94FF0D8C8927
S1133E109D89892B31F06DE572E18EEE90E20E946E
S1133E20901FE091FB28F091FC289E8986898917D0
S1133E3008F0B5CF0E94220FB2CF8BA59CA5ADA5EB
S1133E40BEA58F3F9F4FAF4FBF4F09F4A6CF6EE47F
S1133E5072E18EEE90E20E94901F9FCF8BA59CA5ED
S1133E60ADA5BEA50196A11DB11D8BA79CA7ADA7AD
S1133E70BEA7113009F093CFAECF6DE172E18EEEA3
S1133E8090E20E94901F61CF80E08ACF0895F89459
S1133E9081E391E20E94F00280E88093010680931E
S1133EA005062FEF33EC99E0215030409040E1F7C4
S1133EB000C00000809306062FEF33EC99E02150F8
S1133EC030409040E1F700C00000E9CFEB01F894E6
S1133ED080E88093010683E591E20E94F0026AE0A3
S1133EE070E0CE010E940F038EE291E20E94F00284
S1133EF080E8809305062FEF33ED90E321503040A6
S1133F009040E1F700C00000809306062FEF33EDE8
S1133F1090E3215030409040E1F700C00000E9CF29
S1133F208C01EB01F89480E8809301068BE691E222
S1133F300E94F00264E670E0C8010E940F038BE760
S1133F4091E20E94F002CE010E9434038EE291E2DB
S1133F500E94F00280E8809305062FEF33EC99E08D
S1133F60215030409040E1F700C0000080930606E5
S1133F702FEF33ED90E3215030409040E1F700C043
S1133F800000E9CF0E94630A80E090E40E94E335D8
S1133F908093962990939729892B59F087E08093F1
S1133FA0A20078940E941D2F0E94B21980E090E034
S1133FB00895FFCFCF93DF9300D01F92CDB7DEB724
S1133FC00E9487060E94EF1989839A830CED15E0FD
S1133FD0C12CD12C760140E050E060E070E0CE01CD
S1133FE003960E945D076B817C81072E000C880B71
S1133FF0990B0E94523020E030E040E858E30E94E0
S113400046319B01AC01C701B6010E94322F6B01FE
S11340107C018AE090E00E94B81B01501109D9F696
S113402020E030E84BEB54E4C701B6010E94A82F0E
S11340306093FD287093FE288093FF2890930029B5
S1134040A12CB12CC12CD12C6DC02AE037ED43EA50
S11340505BEBC301B2010E94413118160CF094C00D
S113406060E070E0CB012B013C01409201295092A9
S11340700229609203297092042920910929309120
S11340800A2940910B2950910C290E94322F7B015F
S11340908C01CB01D8018093092990930A29A0931C
S11340A00B29B0930C299701A801B501C6010E9400
S11340B0322F20E030E040E05FE30E94463120E010
S11340C030E040E251E40E94463120E030E04AE72B
S11340D054E40E94A82F9B01AC01609105297091C2
S11340E0062980910729909108290E94322F609314
S11340F0052970930629809307299093082920E0C5
S113410040E050E060E070E080910D2990910E292C
S11341100E94C8116AE070E0CE0101960E94621B01
S11341205701680140E050E060E070E0CE01039682
S11341300E945D076FEF7FEF80910D2990910E290A
S11341400E941C146B817C81072E000C880B990B38
S11341500E94523020E030E040E858E30E944631AB
S11341602091FD283091FE284091FF28509100298C
S11341700E94312F2B013C012AE037ED43EA5BE337
S11341800E949E2F87FD61CF20E030E040E251E4A1
S1134190C301B2010E94463120E030E04AE754E412
S11341A00E94A82F62CFEF92FF920F93E12CF12C83
S11341B003E020E030E040E051E066E871E28AED9F
S11341C09FE10E94AF1781E00E94971280930D290E
S11341D090930E290F91FF90EF900895CF93DF9362
S11341E0CDB7DEB76097CDBFDEBF4FEF5FEFBE0147
S11341F0675F7F4F80919829909199290E941615A5
S113420088E0FE013996DE01119601900D928A959F
S1134210E1F729813A814B815C816D817E818F81B7
S113422098856096CDBFDEBFDF91CF910895CF937F
S1134230DF931F921F92CDB7DEB70E94EF198983D7
S11342409A8306C06AE070E0CE0101960E94621B68
S1134250809185298823B1F31092852900E010E02C
S113426022E040E050E0BA018091882990918929A8
S11342700E94951EE7CFEF92FF920F9340E065E016
S113428085E00E94841180938A2990938B2910924F
S1134290842988E8E82E89E2F82E02E020E030E064
S11342A040E052E06AE871E286E293E20E94AF17CE
S11342B09EE8E92E99E2F92E01E020E030E040E0AA
S11342C054E06FE871E282EB91E20E94AF172CE8B0
S11342D0E22E29E2F22E20E030E040E052E068E9EC
S11342E071E287E191E20E94AF1783EA91E20E94B2
S11342F0D83880918E2990918F290F91FF90EF905B
S11343000C94E518CF93DF93CDB7DEB76097CDBF9C
S1134310DEBF8BE589830E9443246A837B838C837D
S11343209D830E944C246E837F83888799870E9493
S113433055246A877B878C879D87CE0101968F875A
S1134340988B2091A3293091A42941E050E06EE09C
S113435070E00E960E947C386096CDBFDEBFDF9180
S1134360CF910895CF93DF93CDB7DEB72597CDBF17
S1134370DEBF40E050E0BE016F5F7F4F80918A292D
S113438090918B290E945F13813009F076C090913F
S11343900F29911102C080930F29898190E0873001
S11343A0910538F7FC018827E250FF4F8F4F0C949A
S11343B0CC3520E030E048EC52E460E070E084EB7F
S11343C092EC0E94182980919A2990919B290E942D
S11343D062196A817B818C819D8120E030E048EC08
S11343E052E40E94322880919A2990919B290E943C
S11343F0E518BFCF20E030E048EC52E460E070E024
S113440084EB92E4DECF0E945E2410920F290E9476
S11344108221AFCF8A819B81AC81BD81BC01CD015A
S1134420905820E030E048EC52E40E941829A1CFD3
S11344306A817B818C819D8120E030E048EC52E4EC
S11344400E94182996CF80919A2990919B290E94C5
S113445062198A819B81AC81BD81BC01CD019058D8
S113446020E030E048EC52E40E94322880919A29FE
S113447090919B290E94E5187CCF80E090E00E94F7
S1134480E51877CF2F923F924F925F926F927F926F
S11344908F929F92AF92BF92CF92DF92EF92FF9250
S11344A00F931F93CF93DF936115710509F455C0E2
S11344B06B01EC0100E010E08BE0E82E82E2F82EC4
S11344C09BE9892E92E2992E20E8A22E22E2B22EB6
S11344D039E6632E32E2732E43E5442E42E2542E33
S11344E057E3252E52E2352E0AC082EC92E20E9456
S11344F0D8380F5F1F4F2596C016D10671F11F9350
S11345000F93FF92EF920E94BE380F900F900F907E
S11345100F90888190E08730910538F7FC01882757
S1134520EB5FFE4F8F4F0C94CC358C818F938B8136
S11345308F938A818F9389818F939F928F920E9408
S1134540BE380F900F900F900F900F900F900F5F49
S11345501F4F2596C016D10691F6DF91CF911F917A
S11345600F91FF90EF90DF90CF90BF90AF909F900E
S11345708F907F906F905F904F903F902F90089511
S11345808C818F938B818F938A818F9389818F9371
S1134590BF92AF920E94BE380F900F900F900F9071
S11345A00F900F90A6CF8C818F938B818F938A81EC
S11345B08F9389818F937F926F920E94BE380F9060
S11345C00F900F900F900F900F9093CF8C818F933B
S11345D08B818F938A818F9389818F935F924F927E
S11345E00E94BE380F900F900F900F900F900F9075
S11345F080CF8C818F938B818F938A818F938981D4
S11346008F938CE192E29F938F930E94BE380F9018
S11346100F900F900F900F900F906BCF8C818F9312
S11346208B818F938A818F9389818F933F922F926D
S11346300E94BE380F900F900F900F900F900F9024
S113464058CF8DEB92E20E94D83853CFCF93DF93AB
S1134650CDB7DEB72A97CDBFDEBF80E280930506D3
S113466023E1622E23E2722E3DEF432E32E2532EDB
S113467080918429811112C0EE24EA94FE2C8E01CB
S11346800F5F1F4F20E030E0A90160E070E0CB0134
S11346900E940F1E80918429882371F38BED92E28E
S11346A00E94D838809184298150809384298091F4
S11346B0A1299091A2290E9402389C0133272F83BB
S11346C038876901CC0CDD1CCC0CDD1C2C0D3D1D88
S11346D029873A87C9010E94E3358D839E83C98463
S11346E0DA8431E0C31AD10809F4C4C08091A12945
S11346F09091A2290E94023880939C29ED81FE8129
S1134700A080B12CF50181935F0199279F938F932A
S11347101F921F9224EF32E23F932F930E94BE38E0
S1134720ED80FE800F900F900F900F900F900F90E0
S1134730470100E010E0F40131904F011F923F92D5
S11347407F926F920E94BE380F5F1F4F0F900F90A1
S11347500F900F900C151D0568F58091A12990917B
S1134760A2290E94023880939C29F50181935F015C
S113477080919C291F928F931F930F9324EF32E211
S11347803F932F930E94BE380F900F900F900F907D
S11347900F900F900115110571F21F923F92E3E003
S11347A0F3E2FF93EF930E94BE380F900F900F90A7
S11347B00F90C1CF8EE193E29F938F930E94BE38F6
S11347C02D813E81C20ED31E0F900F90F70181916F
S11347D07F011F928F935F924F920E94BE380F9079
S11347E00F900F900F90CE14DF0481F78AE090E0D1
S11347F00E94D23888EE93E00E94B81B89859A857E
S11348000E94E3355C012F813885232B01F18C0153
S1134810ED80FE80C984DA84C80ED91E85E0F701D4
S1134820D80101900D928A95E1F720E040E050E034
S1134830B80180918A2990918B290E94C8110B5F3D
S11348401F4F35E0E30EF11C0C151D0539F76F8180
S11348507885C5010E9442228D819E810E947B360B
S1134860C5010E947B3680918E2990918F290E94E8
S11348706219FECE8EE193E29F938F930E94BE381D
S11348800F900F90B3CF60911C2970911D298091D6
S11348901E2990911F290895609118297091192952
S11348A080911A2990911B2908956091142970917F
S11348B0152980911629909117290895E0E1F9E2CC
S11348C010821182128213820895CF93DF9300D055
S11348D01F92CDB7DEB70E9487060E94EF19898325
S11348E09A8388EC90E00E94B81BAE014D5F5F4F45
S11348F060E070E080E090E00E9407076B817C81BB
S1134900072E000C880B990B0E9452302DE233E2E3
S11349104AEF5BE30E9446314B015C01612C712C30
S1134920C12CD12C0EC0C501B4010E94322F4B0101
S11349305C016AE070E0CE0101960E94621B3701BF
S11349406801AE014D5F5F4F60E070E080E090E091
S11349500E9407076FEF7FEF809128299091292902
S11349600E941C146B817C81072E000C880B990B10
S11349700E9452302DE233E24AEF5BE30E9446315B
S1134980A50194010E94312F7B018C01CB01D80138
S11349908093242990932529A0932629B09327292D
S11349A020E030E048EC52E4B701C8010E94A82F8F
S11349B01B012C0120E030E048EC52E4B301C601B5
S11349C00E94A82F9B01AC01C201B1010E94322FA9
S11349D020E030E040E05FE30E9446319B01AC01FF
S11349E06091202970912129809122299091232975
S11349F00E94322F609320297093212980932229C9
S1134A009093232920E040E050E060E070E0809142
S1134A102829909129290E94C81120E030E0A90199
S1134A206091242970912529809126299091272924
S1134A300E9441312FE632E143E85AE318160CF4A0
S1134A4072CFC501B4010E94312F4B015C0171CFBB
S1134A50EF92FF920F93E12CF12C03E020E030E081
S1134A6040E051E06FEB73E285E694E20E94AF17F9
S1134A7081E00E94971280932829909329290F910D
S1134A80FF90EF900895CF93DF93CDB7DEB7A29751
S1134A90CDBFDEBF0E9487060E94EF1989839A83E7
S1134AA01B8E1C8E1D8E1E8E1F8A188E198E1A8EBA
S1134AB01B8A1C8A1D8A1E8AAE01475F5F4FBE0196
S1134AC0655F7F4FCE010D960E945D07AE014D5F7D
S1134AD05F4FBE016B5F7F4FCE0107960E940707B1
S1134AE06D857E85072E000C880B990B0E94523031
S1134AF020E030E040E858E30E94463160933E29CC
S1134B0070933F2980934029909341296B857C853C
S1134B10072E000C880B990B0E94523020E030E0E5
S1134B2040E858E30E94463160933A2970933B2948
S1134B3080933C2990933D2969857A85072E000C42
S1134B40880B990B0E94523020E030E040E858E393
S1134B500E9446316093362970933729809338290F
S1134B60909339296F817885072E000C880B990B57
S1134B700E9452302DE233E24AEF5BE30E94463159
S1134B806093322970933329809334299093352983
S1134B906D817E81072E000C880B990B0E94523088
S1134BA02DE233E24AEF5BE30E94463160932E2903
S1134BB070932F2980933029909331296B817C81C4
S1134BC0072E000C880B990B0E9452302DE233E221
S1134BD04AEF5BE30E94463160932A2970932B29A4
S1134BE080932C2990932D296FEF7FEF80915A2980
S1134BF090915B290E941C146B817C81072E000C10
S1134C00880B990B0E9452302DE233E24AEF5BE3AA
S1134C100E94463120E030E040E251E40E944631F7
S1134C2020E030E04AE754E40E94A82F9B01AC0145
S1134C3060914A2970914B2980914C2990914D297A
S1134C400E94322F60934A2970934B2980934C29F8
S1134C5090934D296D817E81072E000C880B990B52
S1134C600E9452302DE233E24AEF5BE30E94463168
S1134C7020E030E040E251E40E94463120E030E0A0
S1134C804AE754E40E94A82F2091462930914729ED
S1134C9040914829509149290E94322F4B015C01CF
S1134CA06093462970934729809348299093492912
S1134CB06F817885072E000C880B990B0E94523067
S1134CC02DE233E24AEF5BE30E94463120E030E01C
S1134CD040E251E40E94463120E030E04AE754E4E7
S1134CE00E94A82F209142293091432940914429C0
S1134CF0509145290E94322F6B017C016093422917
S1134D00709343298093442990934529C501B401A4
S1134D100E94B3312B013C01C701B6010E94B3319B
S1134D206F87788B898B9A8BC501B4010E94A32F5E
S1134D304B015C01C701B6010E94A32F6F8F78A3BA
S1134D4089A39AA36D857E85072E000C880B990B89
S1134D500E94523020E030E040E858E30E9446319F
S1134D606B017C0123EC35EF4CE151E4C301B2014A
S1134D700E9446319B01AC01C701B6010E94312F4C
S1134D802B013C016B857C85072E000C880B990B4D
S1134D900E94523020E030E040E858E30E9446315F
S1134DA06B017C016F85788989899A89905823ECF5
S1134DB035EF4CE151E40E9446319B01AC01C7013F
S1134DC0B6010E94312F6B017C0169857A85072E1B
S1134DD0000C880B990B0E94523020E030E040E830
S1134DE058E30E9446316F87788B898B9A8B23EC2A
S1134DF035EF4CE151E4C501B4010E9446312F8DD9
S1134E0038A149A15AA10E9446319B01AC016F858A
S1134E10788989899A890E94312F4B015C01A30109
S1134E2092016B897C898D899E890E94322F20E0B2
S1134E3030E040E05FE30E94463120E030E040E2B1
S1134E4051E40E94463120E030E04AE754E40E94F5
S1134E50A82F9B01AC01609156297091572980912C
S1134E605829909159290E94322F609356297093A2
S1134E7057298093582990935929A70196016F893E
S1134E80788D898D9A8D0E94322F20E030E040E0A9
S1134E905FE30E94463120E030E040E251E40E94AA
S1134EA0463120E030E04AE754E40E94A82F9B01F9
S1134EB0AC016091522970915329809154299091A9
S1134EC055290E94322F609352297093532980935D
S1134ED0542990935529A50194016B8D7C8D8D8D5A
S1134EE09E8D0E94322F20E030E040E05FE30E947C
S1134EF0463120E030E040E251E40E94463120E0B7
S1134F0030E04AE754E40E94A82F9B01AC01609171
S1134F104E2970914F2980915029909151290E94D6
S1134F20322F60934E2970934F2980935029909388
S1134F30512920E030E040E251E4C301B2010E9473
S1134F40463120E030E04AE754E40E94A82F9B0158
S1134F50AC016B897C898D899E890E94322F6B8B71
S1134F607C8B8D8B9E8B20E030E040E251E4C701C6
S1134F70B6010E94463120E030E04AE754E40E9442
S1134F80A82F9B01AC016F89788D898D9A8D0E9421
S1134F90322F6F8B788F898F9A8F20E030E040E238
S1134FA051E4C501B4010E94463120E030E04AE7F3
S1134FB054E40E94A82F9B01AC016B8D7C8D8D8DD8
S1134FC09E8D0E94322F6B8F7C8F8D8F9E8F20E061
S1134FD040E050E060E070E080915A2990915B29B4
S1134FE00E94C8116AE070E0CE0101960E94621B23
S1134FF063CDEF92FF920F93E12CF12C03E020E0BC
S113500030E040E052E064EC73E283E495E20E9415
S1135010AF1781E00E94971280935A2990935B29DD
S11350200F91FF90EF900895609360297093612928
S1135030809362299093632920E040E050E060E08F
S113504070E080915E2990915F290C94C81120E052
S113505040E050E060E070E080915C2990915D292F
S11350600C94C8114F925F926F927F928F929F928D
S1135070AF92BF92CF92DF92EF92FF920F931F9362
S1135080CF93DF9300D000D0CDB7DEB74B015C01E6
S113509029013A010E94EF1989839A830E94E32D22
S11350A00E94B02E0E943C046B017C0120E030E0A1
S11350B0A901C501B4010E9441312DEC3CE44FE447
S11350C053E418160CF072C0C501B4010E94A82F55
S11350D020E030E044EB53E40E94463120E030E02D
S11350E040E450E40E94A82F6B837C838D839E83CD
S11350F0B601DD0C880B990B0E9452309B01AC0168
S11351006B817C818D819E810E94322F0E941A3096
S11351108B012DEC3CE44FE453E4C301B2010E9443
S1135120A82F20E030E044EB53E40E94463120E015
S113513030E040E450E40E94A82F0E941A30DC01C1
S1135140CB01BC010E94C22E09C00C151D05B4F090
S11351506AE070E0CE0101960E94621B0E943C044A
S11351606B017C0120E030E0A901C501B4010E947B
S11351704131181654F3C016D10654F70E94FC2D81
S11351800E94BC2E2696CDBFDEBFDF91CF911F912A
S11351900F91FF90EF90DF90CF90BF90AF909F90D2
S11351A08F907F906F905F904F900895C501B401E8
S11351B00E94A82F20E030E044EB53E40E944631E3
S11351C020E030E040E450E40E94A82F6B837C830D
S11351D08D839E83B601DD0C880B990B0E9452309F
S11351E09B01AC016B817C818D819E810E94322F59
S11351F00E941A308B012DEC3CE44FE453E4C301CC
S1135200B2010E94A82F20E030E044EB53E40E9456
S1135210463120E030E040E450E40E94A82F90584A
S11352200E941A30DC01CB01BC010E94C22E96CF31
S11352302F923F924F925F926F927F928F929F92A2
S1135240AF92BF92CF92DF92EF92FF920F931F9390
S1135250CF93DF9300D000D0CDB7DEB74B015C0114
S113526029013A010E94EF1989839A830E94E32D50
S11352700E94B02E0E943C046B017C0126EC39EDA7
S113528047E75FE3C501B4010E9446314B015C016D
S113529020E030E0A9010E94413118160CF0B8C09A
S11352A0B601DD0C880B990B0E9452306B017C0116
S11352B02DEC3CE44FE453E4C501B4010E94A82F53
S11352C020E030E044EB53E40E94463120E030E03B
S11352D040E450E40E94A82F9B01AC01C701B60131
S11352E00E94312F0E941A301B012DEC3CE44FE444
S11352F053E4C301B2010E94A82F20E030E044EB44
S113530053E40E94463120E030E040E450E40E943F
S1135310A82F6B017C010E941A306B837C838D83E0
S11353209E83C701B60190580E941A30DC01CB015C
S11353306B817C810E94C22E0E943C046B017C0123
S11353408B01B1016C197D09072E000C880B990B98
S11353500E9452306B017C012DEC3CE44FE453E499
S1135360C301B2010E94A82F20E030E044EB53E4D3
S11353700E94463120E030E040E450E40E94A82F2F
S11353809B01AC01C701B6010E94A82F0E942130E5
S11353906B017C016B837C8320E030E0A901C501B3
S11353A0B4010E9441311816B4F402151305B4F087
S11353B08B819C81449738F461E070E0CE010196C2
S11353C00E94621BB9CFB60176956795CE0101960E
S11353D00E94621BB1CF2016310654F70E94FC2DA7
S11353E00E94BC2E2696CDBFDEBFDF91CF911F91C8
S11353F00F91FF90EF90DF90CF90BF90AF909F9070
S11354008F907F906F905F904F903F902F90089572
S1135410B601DD0C880B990B0E9452306B017C01A4
S11354202DEC3CE44FE453E4C501B4010E94A82FE1
S113543020E030E044EB53E40E94463120E030E0C9
S113544040E450E40E94A82F9B01AC01C701B601BF
S11354500E94312F0E941A301B012DEC3CE44FE4D2
S113546053E4C301B2010E94A82F20E030E044EBD2
S113547053E40E94463120E030E040E450E40E94CE
S1135480A82F6B017C0190580E941A306B837C8397
S11354908D839E83C701B6010E941A30DC01CB01C3
S11354A06B817C810E94C22E47CFCF93DF93CDB70F
S11354B0DEB76797CDBFDEBF0FC0823009F4AEC040
S11354C0833009F4FAC080916629909167290E947B
S11354D01E16882309F496C04FEF5FEFBE016F5F7D
S11354E07F4F80916629909167290E945F1389817B
S11354F0813019F74E805F80688479848A809B802C
S1135500AC80BD800E94EF198A879B870E94E32D9F
S11355100E94B02E0E943C046B017C0120E030E02C
S1135520A901C501B4010E9441312DEC3CE44FE4D2
S113553053E418160CF050C1C501B4010E94A82F01
S113554020E030E044EB53E40E94463120E030E0B8
S113555040E450E40E94A82F6C8B7D8B8E8B9F8B34
S1135560B601DD0C880B990B0E9452309B01AC01F3
S11355706C897D898E899F890E94322F0E941A30FE
S11355808B012DEC3CE44FE453E4C301B2010E94CF
S1135590A82F20E030E044EB53E40E94463120E0A1
S11355A030E040E450E40E94A82F0E941A30DC014D
S11355B0CB01BC010E94C22E09C00C151D05B4F01C
S11355C06AE070E0CE010A960E94621B0E943C04CD
S11355D06B017C0120E030E0A901C501B4010E9407
S11355E04131181654F3C016D10654F70E94FC2D0D
S11355F00E94BC2E80916629909167290E941E16F4
S113560081116ACF20E040E050E060E070E08091DA
S11356106429909165290E94C8115ECFCA80DB80FD
S1135620EC80FD800E94EF198A8B9B8B0E94E32DF6
S11356300E94B02E0E943C042DEC3CE44FE453E461
S1135640C701B6010E94A82F20E030E044EB53E4E8
S11356500E94463120E030E040E450E40E94A82F4C
S11356600E94142800E010E00BC00F5F1F4F0531AB
S11356701105E4F46AE070E0CE0142960E94621BD8
S11356800E94EE202A873B874C875D876E877F8741
S1135690888B998B2A853B858E859F85820F931FE6
S11356A08A38934114F700E010E0E4CF0E942728E1
S11356B00E94FC2D0E94BC2E06CF4E805F80688421
S11356C079848A809B80AC80BD800E94EF198A8790
S11356D09B870E94E32D0E94B02E0E943C046B0124
S11356E07C0126EC39ED47E75FE3C501B4010E9474
S11356F046314B015C0120E030E0A9010E944131B8
S113570018160CF0ABC0B601DD0C880B990B0E9487
S113571052306B017C012DEC3CE44FE453E4C501B1
S1135720B4010E94A82F20E030E044EB53E40E942F
S1135730463120E030E040E450E40E94A82F9B0171
S1135740AC01C701B6010E94312F0E941A308B01AF
S11357502DEC3CE44FE453E4C301B2010E94A82FB2
S113576020E030E044EB53E40E94463120E030E096
S113577040E450E40E94A82F2B013C010E941A30FF
S11357806B017C01C301B20190580E941A30DC0104
S1135790CB01B6010E94C22E0AC0C016D1060CF479
S11357A025CF6AE070E0CE010A960E94621B0E9437
S11357B03C046B017C0120E030E0A901C501B40187
S11357C00E94413118164CF30C151D0554F70E9424
S11357D0FC2D0E94BC2E0ECFC501B4010E94A82F3F
S11357E020E030E044EB53E40E94463120E030E016
S11357F040E450E40E94A82F6C8B7D8B8E8B9F8B92
S1135800B601DD0C880B990B0E9452309B01AC0150
S11358106C897D898E899F890E94322F0E941A305B
S11358208B012DEC3CE44FE453E4C301B2010E942C
S1135830A82F20E030E044EB53E40E94463120E0FE
S113584030E040E450E40E94A82F90580E941A309F
S1135850DC01CB01BC010E94C22EB8CEB601DD0C26
S1135860880B990B0E9452306B017C012DEC3CE4B7
S11358704FE453E4C501B4010E94A82F20E030E0B6
S113588044EB53E40E94463120E030E040E450E42D
S11358900E94A82F9B01AC01C701B6010E94312FC1
S11358A00E941A308B012DEC3CE44FE453E4C30115
S11358B0B2010E94A82F20E030E044EB53E40E94A0
S11358C0463120E030E040E450E40E94A82F2B0150
S11358D03C0190580E941A306B017C01C301B20153
S11358E00E941A30DC01CB01B6010E94C22E5FCFA8
S11358F0EF92FF920F93E12CF12C03E020E030E0D3
S113590040E051E068EC73E285E59AE20E94AF174B
S113591040E069E081E00E948411809366299093BD
S1135920672943E060E081E00E9484118093642948
S1135930909365290F91FF90EF900895CF93DF9393
S1135940CDB7DEB72C97CDBFDEBF0E94EF19809391
S113595068299093692919861A861B861C861D82DC
S11359601E821F82188677C020E030E0A901C7019B
S1135970B6010E949E2F87FF0AC020E030E84BEB5F
S113598054E4C701B6010E94312F6B017C0120E071
S113599030EF4FE755ECC701B6010E949E2F87FFF9
S11359A0B6C001E010EFC501B4010E9452309B0162
S11359B0AC0169857A858B859C850E94312F20E016
S11359C030E046E953E40E9446316B017C0120E05B
S11359D030E0A9010E944131181654F420E030E867
S11359E04BEB54E4C701B6010E94322F6B017C01DA
S11359F020E030EF4FE755E4C701B6010E94413182
S1135A0018160CF48AC020E030E0A901C701B601E1
S1135A100E949E2F87FF0AC020E030E84BEB54E43D
S1135A20C701B6010E94312F6B017C0120E030EFE9
S1135A304FE755ECC701B6010E949E2F87FF74C043
S1135A4061E070EFC8010E94D1036AE070E088E66B
S1135A5099E20E94621B0E943C046B017C0160E09D
S1135A6070E080916E2990916F290E941C14260188
S1135A70DD0C66087708813009F490C04701FF0CFB
S1135A80AA08BB0840E050E0BE016F5F7F4F8091E1
S1135A906C2990916D290E945F13813009F449C0EB
S1135AA0C301B2010E9452309B01AC016D817E8121
S1135AB08F8198850E94312F20E030E046E953E43D
S1135AC00E9446316B017C0120E030E0A9010E9474
S1135AD04131181654F420E030E84BEB54E4C7018C
S1135AE0B6010E94322F6B017C0120E030EF4FE7BA
S1135AF055E4C701B6010E94413118160CF034CFA9
S1135B00C12C90EFD92E9FE7E92E95E4F92EC70119
S1135B10B6010E941A308B0146CFC12C80EFD82EDB
S1135B208FE7E82E85E4F82EC701B6010E941A30EB
S1135B3089CF69817A81072E000C880B990B0E940A
S1135B40523020E030E048EC52E40E94A82F9B0140
S1135B50AC016D817E818F8198850E94322F6D8387
S1135B607E838F8398876B817C81072E000C880B42
S1135B70990B0E94523020E030E048EC52E40E943D
S1135B80A82F9B01AC0169857A858B859C850E9431
S1135B90322F69877A878B879C8782CFC301B201B2
S1135BA00E9452306D837E838F8398874701FF0C58
S1135BB0AA08BB08C501B4010E94523069877A87DC
S1135BC08B879C875FCF0E94790620E040E050E0FD
S1135BD060E070E080916E2990916F290E94C81155
S1135BE00E94EF19809368299093692980916A290A
S1135BF090916B290C94621980916A2990916B2978
S1135C000E94E51860E070E080E090E00C94D1031D
S1135C10EF92FF920F930E94A0038AE6E82E89E296
S1135C20F82E03E020E030E040E051E06FEC73E256
S1135C308EE99CE20E94AF170E94FC2D40E064E0D4
S1135C4081E00E94841180936C2990936D2943E034
S1135C5060E081E00E94841180936E2990936F2903
S1135C60009751F020E040E050E060E070E00F91D8
S1135C70FF90EF900C94C8110F91FF90EF9008954E
S1135C80CF93DF9300D01F92CDB7DEB789839A8379
S1135C906B837C8320E04FEF5FEFBE016F5F7F4F2C
S1135CA080916C2990916D290E94C8112496CDBFD2
S1135CB0DEBFDF91CF910895CF93DF9300D01F9281
S1135CC0CDB7DEB70E94EF198093702990937129A4
S1135CD04FEF5FEFBE016F5F7F4F8091742990910A
S1135CE075290E9416156B817C8189819A810E9495
