S01400004C696E65626F7446696E616C2E7372656359
S11300000C94A2010C94C3010C9412040C94990452
S11300100C94C3010C94C3010C94C3010C94C3014C
S11300200C94C3010C94C3010C94C3010C94C3013C
S11300300C94C3010C94C3010C94530E0C94C3018F
S11300400C94C70E0C94C3010C94C3010C94C3010B
S11300500C94C3010C94C3010C94C3010C94C3010C
S11300600C94C3010C94C3010C94C3010C94C301FC
S11300700C94C3010C94C3010C94C3010C94C301EC
S11300800C94C3010C94C3010C9432020C94C3016C
S11300900C94C3010C94C3010C94C3010C94C301CC
S11300A00C94C3010C94C3010C94C3010C9420055B
S11300B00C94A7050C94C3010C94520A0C94C3012C
S11300C00C94C3010C94C3010C94C3010C94C3019C
S11300D00C94C3010C94C3010C94C3010C94C3018C
S11300E00C94C3010C94C3010C94720B0C94C301C3
S11300F00C942B0B0C94C3010C94C3010C94C301FA
S11301000C94C3010C94C3010C94C3010C94C3015B
S11301100C94C3010C94C3010C94C3010C94C50149
S11301200C94C3010C94C3010C94C3010C94C3013B
S11301300C94C3010C94C3010C94C3010C94C3012B
S11301400C94C3010C94C3010C94C3010C94C3011B
S11301500C94C3010C94C3010C94C3010C94C3010B
S11301600C94C3010C94C3010C94C3010C94C301FB
S11301700C94C3010C94C3010C94C3010C94C301EB
S11301800C94C3010C94C3010C94C3010C94C301DB
S11301900C94C3010C94C3010C94C3010C94C301CB
S11301A00C94C3010C94C3010C94C3010C94C301BB
S11301B00C94C3010C94C3010C94C3010C94C301AB
S11301C00C94C3010C94C3010C94C3010C94C3019B
S11301D00C94C3010C94C3010C94C3010C94C3018B
S11301E00C94C3010C94C3010C94C3010C94C3017B
S11301F00C94C3010C94C3010C94C30105A84CCD09
S1130200B2D44EB93836A9020C50B9918688083C4C
S1130210A6AAAA2ABE000000803F0C94E61F0C94F4
S1130220E7140C94D20A0C9452270C94081F0C94D3
S1130230DC260C94D5220C94BC0A0C94CB1D0C9493
S11302401E256E616E00696E660000407A10F35AD6
S113025000A0724E18090010A5D4E80000E8764802
S1130260170000E40B54020000CA9A3B000000E1AE
S1130270F505000080969800000040420F00000041
S1130280A08601000000102700000000E803000021
S113029000006400000000000A00000000000100EB
S11302A0000000002C76D888DC674F0823DFC1DF0C
S11302B0AE59E1B1B796E5E3E453C63AE65199760F
S11302C096E8E6C28426EB898C9B62ED407C6FFC49
S11302D0EFBC9C9F40F2BAA56FA5F490055A2AF78B
S11302E05C936B6CF9676DC11BFCE0E40D47FEF594
S11302F020E6B500D0ED902E0300943577050080FC
S1130300841E080000204E0A000000C80C3333335A
S1130310330F986E12831141EF8D2114893BE655FA
S113032016CFFEE6DB18D1844B381BF77C1D901DDD
S1130330A4BBE424203284725E228100C9F124EC3F
S1130340A1E53D2711241FBECFEFCDBFDFE9DEBFFE
S113035000E00CBF11E2A0E0B0E2E4E7F2E600E066
S11303600BBF02C007900D92A837B107D9F726E258
S1130370A8E7B1E201C01D92A23DB207E1F70E94D5
S1130380B31D0C9438310C9400001F920F920FB6D9
S11303900F9211240BB60F922F933F934F935F93B9
S11303A06F937F938F939F93AF93BF93EF93FF9339
S11303B0CF93DF931F92CDB7DEB71982BE016F5F73
S11303C07F4F8091AA269091AB260E94C01189810B
S11303D081110E942F0E0F90DF91CF91FF91EF9129
S11303E0BF91AF919F918F917F916F915F914F9149
S11303F03F912F910F900BBE0F900FBE0F901F9047
S11304001895E0E2F6E098EF928389E5838B848B7C
S1130410858B868B878B928783E0818740E061E0C0
S11304208AE00E94381080937C2190937D21089566
S11304308091280683FF12C080E19091280694FDE4
S113044088609091280695FD84609091280696FD19
S113045082609091280697FD03C0089580E0EDCF57
S1130460816008951F920F920FB60F9211240BB65C
S11304700F92CF92DF92EF92FF920F931F932F93DD
S11304803F934F935F936F937F938F939F93AF9318
S1130490BF93EF93FF93CF93DF931F921F92CDB738
S11304A0DEB786E190E29F938F930E94963081E0BD
S11304B090E00E9409098091A20087608093A200C5
S11304C019828091200890912108C090C026D09074
S11304D0C126E090C226F090C326C80ED91EE11CA6
S11304E0F11C0E9418028A8340917821509179214D
S11304F060917A2170917B2197018601041B150B71
S1130500260B370BB901A8010F900F904130584AC0
S11305106146710510F0811121C0898181110E9409
S11305202F0E0F900F90DF91CF91FF91EF91BF911C
S1130530AF919F918F917F916F915F914F913F9177
S11305402F911F910F91FF90EF90DF90CF900F901C
S11305500BBE0F900FBE0F901F90189520E0AE01B8
S11305604F5F5F4FBE016E5F7F4F80917C21909102
S11305707D210E946511C0927821D0927921E09268
S11305807A21F0927B21C9CFDC0110928121109253
S113059082219C919923B1F0FD01319680E49093DE
S11305A0A00A9091A10A96FFFCCF8093A10A9F0113
S11305B02A1B3B0B91919111F2CF2093812130930F
S11305C0822108950895FC011092812110928221C4
S11305D090819923E1F0319620E030E080E4261701
S11305E037071CF06115710569F49093A00A909186
S11305F0A10A96FFFCCF8093A10A2F5F3F4F9191F0
S11306009111EDCF20938121309382210895089593
S1130610CF92DF92EF92FF920F931F93CF93DF93CA
S11306207C0180E197E280937F2190938021109256
S11306307E21C5E0D0E0C12CE0E1F7E2A0E4DA2EAF
S11306400AE010E0C701BF010E94042EAB019B0128
S1130650ADECBCEC0E942C2E9695879596958795CB
S1130660969587959C01220F331F880F991F880F39
S1130670991F880F991F820F931F9A01281B390B0A
S1130680C901009711F4CC2059F0805D8093A00A31
S11306908091A10A86FFFCCFD092A10ACC24C394F6
S11306A0CF01B8010E94182EFB01219759F6C09280
S11306B07E2160937F2170938021DF91CF911F91E0
S11306C00F91FF90EF90DF90CF900895E0EAF6E06D
S11306D08FE1818380E4848B20E12583E0E0FBE0EB
S11306E091E0908393EF918340E050E146A357A3B8
S11306F0E0E4F6E090EC9283868B878B828790E827
S1130700938795E09187E0E8F6E030E33283848BC9
S1130710858B228780E28387918740E065E084E1CE
S11307200E9438108093B2269093B326089520E156
S1130730009769F56115710509F457C02093A60661
S1130740813020EF92070CF457C09195819591095F
S11307508093280B9093290B10922A0B10922B0B49
S11307607195619571091616170644F1613020EFF1
S113077072070CF444C071956195710960932C0B58
S113078070932D0B10922E0B10922F0B0895209323
S1130790A60618161906A4F61092280B1092290B17
S11307A0811520E19207F4F480932A0B90932B0B8C
S11307B071956195710916161706C4F610922C0BE3
S11307C010922D0B611580E178072CF460932E0BA9
S11307D070932F0B08956FEF7FE060932E0B70934F
S11307E02F0B08958FEF9FE0DFCF2093A506813074
S11307F020EF92070CF0A9CF81E090EFA6CF61E043
S113080070EFB9CF0FB6F8940F924091AE26509185
S1130810AF262091B0263091B1260F900FBEBA01B9
S1130820C90108951F920F920FB60F9211240BB6AF
S11308300F921F932F933F934F935F936F937F93E5
S11308408F939F93AF93BF93EF93FF93CF93DF93D4
S113085000D000D0CDB7DEB71E82209120083091A1
S113086021088091C0269091C126A091C226B09102
S1130870C326820F931FA11DB11D89839A83AB8365
S1130880BC8380914806182F107886FF37C081E01A
S11308908D8320E0AE014A5F5F4FBE016F5F7F4FE3
S11308A08091B2269091B3260E9465111123B9F16B
S11308B08091AE269091AF2601968093AE269093B8
S11308C0AF268E8181110E942F0E2696CDBFDEBFEA
S11308D0DF91CF91FF91EF91BF91AF919F918F9154
S11308E07F916F915F914F913F912F911F910F9045
S11308F00BBE0F900FBE0F901F90189585E08D834F
S113090020E0AE014A5F5F4FBE016F5F7F4F809171
S1130910B2269091B3260E946511112349F2809169
S1130920AE269091AF2601978093AE269093AF2682
S1130930C8CF1F920F920FB60F9211240BB60F92CD
S11309401F932F933F934F935F936F937F938F9353
S11309509F93AF93BF93EF93FF93CF93DF9300D015
S113096000D0CDB7DEB71E82209120083091210837
S11309708091C0269091C126A091C226B091C32631
S1130980820F931FA11DB11D89839A83AB83BC83FE
S113099080914806182F107487FF37C082E08D833A
S11309A020E0AE014A5F5F4FBE016F5F7F4F8091D1
S11309B0B2269091B3260E9465111123B9F180915A
S11309C0AE269091AF2601978093AE269093AF26E2
S11309D08E8181110E942F0E2696CDBFDEBFDF913E
S11309E0CF91FF91EF91BF91AF919F918F917F91A3
S11309F06F915F914F913F912F911F910F900BBE7B
S1130A000F900FBE0F901F90189586E08D8320E005
S1130A10AE014A5F5F4FBE016F5F7F4F8091B22688
S1130A209091B3260E946511112349F28091AE265C
S1130A309091AF2601968093AE269093AF26C8CFAF
S1130A401F920F920FB60F9211240BB60F921F93A1
S1130A502F933F934F935F936F937F938F939F93C2
S1130A60AF93BF93EF93FF93CF93DF9300D000D066
S1130A70CDB7DEB71E8220912008309121088091E5
S1130A80C0269091C126A091C226B091C326820FA0
S1130A90931FA11DB11D89839A83AB83BC8380916D
S1130AA08806182F107284FF37C083E08D8320E0FE
S1130AB0AE014A5F5F4FBE016F5F7F4F8091B226E8
S1130AC09091B3260E9465111123B9F18091B0264B
S1130AD09091B12601968093B0269093B1268E8191
S1130AE081110E942F0E2696CDBFDEBFDF91CF91DC
S1130AF0FF91EF91BF91AF919F918F917F916F91F2
S1130B005F914F913F912F911F910F900BBE0F90CA
S1130B100FBE0F901F90189587E08D8320E0AE01E3
S1130B204A5F5F4FBE016F5F7F4F8091B226909105
S1130B30B3260E946511112349F28091B026909149
S1130B40B12601978093B0269093B126C8CF1F9207
S1130B500F920FB60F9211240BB60F921F932F937F
S1130B603F934F935F936F937F938F939F93AF9331
S1130B70BF93EF93FF93CF93DF9300D000D0CDB713
S1130B80DEB71E8220912008309121088091C02672
S1130B909091C126A091C226B091C326820F931FC3
S1130BA0A11DB11D89839A83AB83BC838091880680
S1130BB0182F107284FF1CC084E08D8320E0AE01E6
S1130BC04A5F5F4FBE016F5F7F4F8091B226909165
S1130BD0B3260E946511112309F447C08091B02601
S1130BE09091B12601978093B0269093B1261AC0B4
S1130BF088E08D8320E0AE014A5F5F4FBE016F5FE6
S1130C007F4F8091B2269091B3260E946511809106
S1130C10B0269091B126111122C001978093B0267D
S1130C209093B1268E8181110E942F0E2696CDBFFE
S1130C30DEBFDF91CF91FF91EF91BF91AF919F9173
S1130C408F917F916F915F914F913F912F911F9160
S1130C500F900BBE0F900FBE0F901F90189501962A
S1130C608093B0269093B126DDCF8091B0269091E9
S1130C70B12601968093B0269093B126D3CF0FB6B8
S1130C80F8940F921092AE261092AF261092B026CE
S1130C901092B1260F900FBE08950F931F93CF9318
S1130CA0DF931F921F92CDB7DEB785E7898301E0FA
S1130CB09E012F5F3F4F41E0B90188E60E944D0934
S1130CC08823D9F08981883619F11F9298E69F9379
S1130CD01F928F9387E390E29F938F930E949630A5
S1130CE00F900F900F900F900F900F900F900F9008
S1130CF0DF91CF911F910F91089582E290E20E94BB
S1130D00AA300F900F90DF91CF911F910F9108950A
S1130D1089E189831A8242E0BE016F5F7F4F88E6D2
S1130D200E94DC098AE1898311E01A8342E0BE0152
S1130D306F5F7F4F88E60E94DC098BE189831A820A
S1130D4042E0BE016F5F7F4F88E60E94DC0987E3C3
S1130D50898380E18A8342E0BE016F5F7F4F88E62A
S1130D600E94DC0988E389831A8342E0BE016F5F35
S1130D707F4F88E60E94DC098BE689831A8342E070
S1130D80BE016F5F7F4F88E60E94DC090F900F90D1
S1130D90DF91CF911F910F910895AF92BF92CF929F
S1130DA0DF92EF92FF920F93CF93DF93CDB7DEB72D
S1130DB02C97CDBFDEBF5C016B017A0183E489838C
S1130DC006E09E012F5F3F4F41E0B90188E60E9493
S1130DD04D09882389F18A818B8789818C878C814D
S1130DE089878B818A878E818F838D818887A114DF
S1130DF0B10429F08B859C85F50180839183C1140E
S1130E00D10429F089859A85F60180839183E114C0
S1130E10F10429F08F819885F701808391832C96C2
S1130E20CDBFDEBFDF91CF910F91FF90EF90DF90A8
S1130E30CF90BF90AF9008956FE770E08EE690E298
S1130E400E94811DC8CFAF92BF92CF92DF92EF92E2
S1130E50FF920F93CF93DF93CDB7DEB72C97CDBF1F
S1130E60DEBF5C016B017A018BE3898306E09E019E
S1130E702F5F3F4F41E0B90188E60E944D09882366
S1130E8089F18A818B8789818C878C8189878B8181
S1130E908A878E818F838D818887A114B10429F07C
S1130EA08B859C85F50180839183C114D10429F03D
S1130EB089859A85F60180839183E114F10429F0F0
S1130EC08F819885F701808391832C96CDBFDEBFF7
S1130ED0DF91CF910F91FF90EF90DF90CF90BF9073
S1130EE0AF90089568E970E08EE690E20E94811D5B
S1130EF0C8CF1F93CF93DF931F921F92CDB7DEB756
S1130F0010E8198382E28A8342E0BE016F5F7F4F5B
S1130F108CE30E94DC0919831A8242E0BE016F5FF0
S1130F207F4F8CE30E94DC09198387E08A8342E0C7
S1130F30BE016F5F7F4F8CE30E94DC090F900F901E
S1130F40DF91CF911F9108951F93CF93DF931F9249
S1130F501F92CDB7DEB710E8198381E28A8342E09D
S1130F60BE016F5F7F4F8CE30E94DC0919831A82F4
S1130F7042E0BE016F5F7F4F8CE30E94DC0919835E
S1130F808FE78A8342E0BE016F5F7F4F8CE30E944C
S1130F90DC090F900F90DF91CF911F910895BF92BC
S1130FA0CF92DF92EF92FF920F931F93CF93DF9331
S1130FB0CDB7DEB76197CDBFDEBF80918321882393
S1130FC049F10E94A40780918321811130C085E8F2
S1130FD0C82E81E2D82E95E8E92E95E2F92E8E01ED
S1130FE00E5E1F4F20E4B22EB982FE013296D60166
S1130FF08D918193E017F107D9F741E1BE016F5F4D
S11310007F4F8CE30E94DC0980E1C80ED11CEC14F4
S1131010FD0451F76196CDBFDEBFDF91CF911F91E3
S11310200F91FF90EF90DF90CF90BF9008950E94B2
S11310307907CDCF0F931F93CF93DF9300D01F92E7
S1131040CDB7DEB7109283218093842110E81983F1
S11310508EEA8A8342E0BE016F5F7F4F8CE30E9479
S1131060DC09882309F4C3C0198385ED8A831B83B3
S11310701C8344E0BE016F5F7F4F8CE30E94DC0958
S1131080198388EA8A831B838FE38C8344E0BE013F
S11310906F5F7F4F8CE30E94DC09198383ED8A83A1
S11310A01B831C8244E0BE016F5F7F4F8CE30E9470
S11310B0DC0919838DE88A831B8384E18C8344E0F3
S11310C0BE016F5F7F4F8CE30E94DC09198300E44B
S11310D00A8342E0BE016F5F7F4F8CE30E94DC090C
S11310E0198386EA8A8342E0BE016F5F7F4F8CE3F7
S11310F00E94DC09198384EA8A8342E0BE016F5F9F
S11311007F4F8CE30E94DC09198381EA8A8342E0E1
S1131110BE016F5F7F4F8CE30E94DC09198388EC6A
S11311208A8342E0BE016F5F7F4F8CE30E94DC093B
S1131130198380E28A8342E0BE016F5F7F4F8CE3B4
S11311400E94DC0919831A8242E0BE016F5F7F4F5F
S11311508CE30E94DC0919838AED8A831B8382E174
S11311608C8344E0BE016F5F7F4F8CE30E94DC09F7
S1131170198381E88A831B838FE88C8344E0BE0152
S11311806F5F7F4F8CE30E94DC09198389ED8A83AA
S11311901B8381EF8C8344E0BE016F5F7F4F8CE340
S11311A00E94DC0919838BED8A831B830C8344E042
S11311B0BE016F5F7F4F8CE30E94DC0919838FEAC5
S11311C08A8342E0BE016F5F7F4F8CE30E94DC099B
S11311D080E094E0E5E8F1E2DF019C011D922150FA
S11311E03040E1F70E94CF0781E080938321249669
S11311F0CDBFDEBFDF91CF911F910F910895E0E045
S1131200F6E080E481838683089580E2809341063A
S11312100895811104C080E280934606089580E217
S11312208093450608958BEC8093520088E0809368
S113123050008091510083FFFCCF82EC80935500D5
S113124088E1809350008091510084FFFCCF88EDA9
S113125084BF84E08093400080E0089510928A2542
S1131260E0E8F6E088E1808B818BE0EAF4E088E74F
S1131270818383E2858381E084830E944B11809380
S113128087259093882543E060E081E00E94381030
S113129080938525909386250895CF92DF92EF92CF
S11312A0FF920F931F93CF93DF93D82F6B01142FCB
S11312B079016FEF7FEF80918725909188250E94B7
S11312C0D012C0929125D0929225E0928F25F0926F
S11312D09025C0918A25C11155C081E080938A254B
S11312E0109289258D2F880F8093932510938E2536
S11312F000938D2510928C2510928B2580918E253C
S11313008823B1F1809193258E7F8093A6046FEF9B
S11313107FEF80918525909186250E94D01280913F
S113132089258130E1F11F928F931F92DF9389E821
S113133090E29F938F930E94963020E040E050E02B
S113134060E070E080918725909188250E947C1050
S11313500F900F900F900F900F900F908C2FDF91A4
S1131360CF911F910F91FF90EF90DF90CF90089550
S113137080918D25882359F28091932581608093F3
S1131380A604C5CF20E040E050E060E070E080912A
S11313908725909188250E947C10C0E0DFCF20E053
S11313A040E050E060E070E08091872590918825CE
S11313B00E947C10C1E0D2CF0F9300E020E030E027
S11313C00E944D090F91089590918E2520918D25AD
S11313D08091A40484FD22C080918C25891768F033
S11313E080918B25821718F183E08093A30481E018
S11313F08093892510928A25089580918C25E09107
S11314009125F0919225E80FF11D80818093A70426
S113141080918C258F5F80938C25089583E0809341
S1131420A30485E08093892510928A2508958091EC
S1131430932581608093A604089580918B25803242
S1131440F8F48091A70490918B25E0918F25F09179
S11314509025E90FF11D808380918B258F5F809308
S11314608B2590918D2580918B258917B8F087E085
S11314708093A30481E08093892510928A2508959E
S113148083E08093A30482E08093892510928A25C7
S113149090918D2580918B25891748F782E0809360
S11314A0A30408951F920F920FB60F9211240BB646
S11314B00F922F933F934F935F936F937F938F93E9
S11314C09F93AF93BF93EF93FF93CF93DF931F92B9
S11314D0CDB7DEB719828091A404982F9C70E1F4F3
S11314E086FD44C087FD45C086E08093892510921F
S11314F08A2580918A2581111FC0BE016F5F7F4FAD
S113150080918525909186250E94C0118981882328
S113151099F00E942F0E10C08091A40482FD22C075
S113152093E09093892588608093A40410928A257F
S113153080918A25882309F30F90DF91CF91FF9141
S1131540EF91BF91AF919F918F917F916F915F9137
S11315504F913F912F910F900BBE0F900FBE0F90A4
S11315601F90189594E090938925DDCF0E94E4099B
S1131570DFCF0E941D0ADCCFCF93DF931F92CDB73C
S1131580DEB74FEF5FEFBE016F5F7F4F8091B626EE
S11315909091B7260E941312898190E00F90DF91F9
S11315A0CF910895CF93DF931F921F92CDB7DEB7EB
S11315B08A8320E04FEF5FEFBE016E5F7F4F809123
S11315C0BE269091BF260E947C108091A10A85FFBF
S11315D00EC040E050E0BE016F5F7F4F8091BE2699
S11315E09091BF260E94131289818093A00A80E003
S11315F090E00F900F90DF91CF91089540E061E06B
S113160080E80E9438108093BE269093BF2640E065
S113161061E080E80E9438108093B6269093B72644
S1131620E0E8F6E088E0818384E08283E0EAFAE09F
S113163088E3838388E1848383E0858385EE8683DE
S11316408CEB8783ECECF6E286E090E28283938372
S11316508083918308951F920F920FB60F921124E5
S11316600BB60F922F933F934F935F936F937F9398
S11316708F939F93AF93BF93EF93FF93CF93DF9396
S11316801F921F92CDB7DEB71982AE014F5F5F4F35
S1131690BE016E5F7F4F8091BE269091BF260E944F
S11316A087148130D9F0898181110E942F0E0F9007
S11316B00F90DF91CF91FF91EF91BF91AF919F91E7
S11316C08F917F916F915F914F913F912F910F90E7
S11316D00BBE0F900FBE0F901F9018958A818093B8
S11316E0A00AE1CF1F920F920FB60F9211240BB6EE
S11316F00F922F933F934F935F936F937F938F93A7
S11317009F93AF93BF93EF93FF93CF93DF931F9276
S11317101F92CDB7DEB719828091A00A8A83909177
S113172094259130C9F08B3571F10F900F90DF91B2
S1131730CF91FF91EF91BF91AF919F918F917F9145
S11317406F915F914F913F912F910F900BBE0F902E
S11317500FBE0F901F9018958D35D9F09093B42635
S113176020E0AE014F5F5F4FBE016E5F7F4F8091FF
S1131770B6269091B7260E94651189818823A9F223
S11317800E942F0ED2CF81E0809394251092B5262B
S1131790CCCF109294259093B526BE016F5F7F4FF6
S11317A08091B8269091B9260E94C31CE6CF0F936E
S11317B01F93CF93DF93EC010E949D188091952590
S11317C0811121C0E091C426F091C526CF01019674
S11317D080939A2590939B2510929C2510929D2589
S11317E08FEF9FE3809398259093992510929625E7
S11317F0109297258383948386E995E2818392836B
S113180081E080939525209709F464C0AE014C5F74
S11318105F4F2396CE3FDF4308F05CC0E0919A25EA
S1131820F0919B25AAE9B5E206C0808191810097D9
S113183039F0DF01FC012281338124173507A8F335
S1131840C5E2E639FC0709F445C0CD91DC91119756
S11318508E010C5F1F4F808191818D939C93C901F0
S1131860841B950B8930910500F1BF01640F751F2E
S1131870DB0112968D939C931397428353831296A4
S11318802D913C911397AAE9B5E201C0DF01ED91D6
S1131890FC9111978281938182179307B8F3EB012E
S11318A0E883F9836D937C939A018091142090913D
S11318B01520821B930B80931420909315200E9473
S11318C087190115110541F0C801DF91CF911F91CE
S11318D00F9108950E9487190E94381D00E010E0BE
S11318E0C801DF91CF911F910F910895CF93DF939A
S11318F0009721F1EC0124970E949D184A815B8195
S1131900AAE9B5E201C0DF01ED91FC9111972281B2
S1131910338124173507B8F3E883F983CD93DC9337
S11319208091142090911520480F591F4093142042
S113193050931520DF91CF910C948719DF91CF91AB
S11319400895FC010396818392832FEF3FEF238355
S11319503483858396838783908710820895FC015E
S1131960108611860895CF93DF939C01FB01DC015F
S11319701196CD91DC911297C283D3838C819D8182
S1131980848395838C819D81DC0112966D937C9375
S113199013976C837D8320873187F90180818F5F62
S11319A08083DF91CF910895CF93DF93EB0148813A
S11319B059814F3F2FEF520701F1DC01139601C00B
S11319C0DF011296ED91FC9113972081318142172A
S11319D05307B0F7EA83FB83C483D583AC83BD8309
S11319E01296CD93DC93139788879987FC01208105
S11319F02F5F2083DF91CF910895FC01A781B085EB
S1131A001296ED91FC911397E5CFCF93DF93FC01F0
S1131A10A085B1852281338184819581E9018C83FC
S1131A209D8384819581EC012A833B8311962D91BA
S1131A303C911297E217F30749F0108611868C91B6
S1131A4081508C938C91DF91CF91089511968D9351
S1131A509C931297F2CF31E1FC013083319722E25B
S1131A6020833197A3E3A0833197608331977083F8
S1131A703197108231971082319760E860833197F3
S1131A801082319762E06083319763E0608331971D
S1131A9064E06083319765E06083319766E060833A
S1131AA0319767E06083319768E06083319769E03C
S1131AB06083319760E1608331973083319732E1FD
S1131AC03083319733E13083319734E13083319778
S1131AD035E13083319736E13083319737E1308314
S1131AE0319738E13083319739E13083319730E2EF
S1131AF03083319731E2308331972083319723E269
S1131B0020833197408331975083319726E2208395
S1131B10319727E22083319728E22083319729E205
S1131B202083319720E32083319721E32083879713
S1131B300895E0E0F8E08FEF9FEF80A791A781E0A0
S1131B40808390E491838683878380E09DE786A3E6
S1131B5097A3A0913C26B0913D26CD91CDBFDD91B8
S1131B60DEBFFF91EF91DF91CF91BF91AF919F9134
S1131B708F917F916F915F914F913F912F911F9121
S1131B800F91FF90EF90DF90CF90BF90AF909F9018
S1131B908F907F906F905F904F903F902F901F9009
S1131BA00F900FBE0F90089581E008950F920FB625
S1131BB0F8940F921F9211242F923F924F925F92AA
S1131BC06F927F928F929F92AF92BF92CF92DF9249
S1131BD0EF92FF920F931F932F933F934F935F9333
S1131BE06F937F938F939F93AF93BF93CF93DF9321
S1131BF0EF93FF93A0913C26B0913D260DB60D9234
S1131C000EB60D920E94911AA0913C26B0913D26E9
S1131C10CD91CDBFDD91DEBFFF91EF91DF91CF91EB
S1131C20BF91AF919F918F917F916F915F914F91F0
S1131C303F912F911F910F91FF90EF90DF90CF90E4
S1131C40BF90AF909F908F907F906F905F904F90D8
S1131C503F902F901F900F900FBE0F90089580918A
S1131C602008909121088C599F4F809328089093C5
S1131C7029082091280830912908809126089091FC
S1131C8027082817390770F0209126083091270873
S1131C908091280890912908821B930B809328082F
S1131CA09093290808950F920FB6F8940F921F92FB
S1131CB011242F923F924F925F926F927F928F9254
S1131CC09F92AF92BF92CF92DF92EF92FF920F93C7
S1131CD01F932F933F934F935F936F937F938F93B0
S1131CE09F93AF93BF93CF93DF93EF93FF93A09111
S1131CF03C26B0913D260DB60D920EB60D92209164
S1131D002608309127088091C0269091C126A09181
S1131D10C226B091C326820F931FA11DB11D8093CB
S1131D20C0269093C126A093C226B093C3260E94D6
S1131D30AD180E94911AA0913C26B0913D26CD91F8
S1131D40CDBFDD91DEBFFF91EF91DF91CF91BF91C8
S1131D50AF919F918F917F916F915F914F913F913F
S1131D602F911F910F91FF90EF90DF90CF90BF9034
S1131D70AF909F908F907F906F905F904F903F9027
S1131D802F901F900F900FBE0F90189508950F92EB
S1131D900FB6F8940F921F9211242F923F924F92F4
S1131DA05F926F927F928F929F92AF92BF92CF92E7
S1131DB0DF92EF92FF920F931F932F933F934F93D2
S1131DC05F936F937F938F939F93AF93BF93CF93BF
S1131DD0DF93EF93FF93A0913C26B0913D260DB67F
S1131DE00D920EB60D928FEF9FEF8093280890937B
S1131DF029080E94911AA0913C26B0913D26CD91CC
S1131E00CDBFDD91DEBFFF91EF91DF91CF91BF9107
S1131E10AF919F918F917F916F915F914F913F917E
S1131E202F911F910F91FF90EF90DF90CF90BF9073
S1131E30AF909F908F907F906F905F904F903F9066
S1131E402F901F900F900FBE0F9018950F931F9314
S1131E50CF93DF93EC01042F1A8D4C8D41110DC0EB
S1131E6088819981892B09F443C01F5F80E01A8F10
S1131E70DF91CF911F910F91089550E0011115C08A
S1131E808A819B810E943F302C8D8A819B81820FA5
S1131E90911D8A839B832C813D818217930728F3AC
S1131EA0888199818A839B83E0CF8E819F810E9460
S1131EB03F308C8D90E09195819591092E813F81E1
S1131EC0280F391F2E833F834881598124173507F2
S1131ED030F42C813D81820F931F8E839F830230C7
S1131EE021F6112311F080E0C2CF11E080E0BFCFD2
S1131EF08C819D810E94EB1B1C821D821F5FB7CFCA
S1131F00FC01CB01448D442391F050E0668177813C
S1131F10640F751F66837783248135816217730785
S1131F2020F060817181668377830C943F3008953B
S1131F30EF92FF920F931F93CF938C010FB6F894F7
S1131F400F92FC01C68D1C16C4F4FC018189882300
S1131F50A1F07801F1E1EF0EF11C06C0C15069F067
S1131F60F8018189882349F0C7010E94BB1A88239C
S1131F70A9F30E94741BC15099F78FEFF801868F63
S1131F800F900FBE0FB6F8940F92C58D1C16C4F4B3
S1131F90F80180858823A1F07801F8E0EF0EF11CA8
S1131FA006C0C15069F0F8018085882349F0C70153
S1131FB00E94BB1A8823A9F30E94741BC15099F78D
S1131FC08FEFF801858F0F900FBECF911F910F9166
S1131FD0FF90EF9008951F93CF93DF93EC01162F9A
S1131FE0892B09F43EC00FB6F8940F9248815981A9
S1131FF08B8D6C8D9A01869F200D311D11242C83AD
S11320003D831A8E4A835B8390E00197689F900119
S1132010699F300D1124CA01820F931F8E839F8301
S11320208FEF8D8F8E8F111113C08885811107C09A
S11320300F900FBE81E0DF91CF911F910895CE01E3
S113204008960E94BB1A882399F30E94D60DF0CFFC
S1132050CE0108960E94A10CCE0141960E94A10CCB
S1132060E7CF63E071E081EA90E20E94811DBBCF7B
S1132070FF920F931F93CF93DF93182F062FF42E05
S1132080882399F10023D1F0109FC0011124819677
S11320900E94D70BEC01009751F0819688839983B5
S11320A01B8F0C8F61E0CE010E94EB0FF8A2CE01D2
S11320B0DF91CF911F910F91FF90089581E290E0FD
S11320C00E94D70BEC01892B91F3C883D9831B8F12
S11320D00C8F61E0CE010E94EB0FF8A2CE01DF91DC
S11320E0CF911F910F91FF90089566E771E081EA07
S11320F090E20E94811DC6CFBF92CF92DF92EF92F1
S1132100FF920F931F93CF93DF93CDB7DEB725973D
S1132110CDBFDEBF8C016B014C835D83B22E892B56
S113212009F4B2C0C114D10409F4A2C0F2E0BF168C
S113213009F47DC0F801838D20E07801F8E0EF0E0A
S1132140F11C10C06C817D81C7010E949B1AC801DB
S11321500E94980F0E948719882309F44AC0F80145
S1132160838D21E00FB6F8940F92F801928D9817A1
S113217008F442C0F2E0BF1609F43EC08C819D8190
S1132180892B09F460C0222359F10F900FBE0E94DD
S11321909D180FB6F8940F92F801858D8F3F39F191
S11321A0F801868D8F3F09F10F900FBEBE016C5F61
S11321B07F4FCE0101960E941D1B811148C00FB6AE
S11321C0F8940F92F801928D0F900FBE838D98179B
S11321D009F4B8CFC8010E94980F0E948719BFCF95
S11321E0CE0101960E94121BD0CF168EDDCF158E24
S11321F0D7CF0E94D60DB3CF4B2DB601C8010E9494
S1132200260FF801918991112CC0811127C00F90DC
S11322100FBE81E02596CDBFDEBFDF91CF911F9128
S11322200F91FF90EF90DF90CF90BF900895F80149
S1132230838D813009F480CF63EF72E081EA90E20C
S11322400E94811D77CF0F900FBE80E0E3CFC801BD
S11322500E94980F0E94871980E0DCCF0E94D60D5F
S1132260D6CFC80141960E94BB1A882381F2F6CFCB
S1132270F801848D882309F459CF62EF72E081EA72
S113228090E20E94811D52CF61EF72E081EA90E2F8
S11322900E94811D47CFCF93DF93482F60E081E0F8
S11322A00E943810EC01009761F01C821D82188294
S11322B019821E8220E040E050E060E070E00E945D
S11322C07C10CE01DF91CF910895CF92DF92EF92EF
S11322D0FF920F931F93CF93DF93EC018B016A015D
S11322E0F22E892B09F445C001151105C1F182E0D4
S11322F0F81671F09A8D8B8D9817A0F080E0DF911D
S1132300CF911F910F91FF90EF90DF90CF900895A0
S11323108B8D813031F065EC73E081EA90E20E94AC
S1132320811D8A8DEE8C4F2DB801CE010E94260F9F
S1132330EFEFEE1621F0E394EE8E81E0E0CF898991
S11323408823D9F3CE0141960E94BB1A8823A9F3AE
S1132350C114D10491F381E0F6018083D0CF8C8D38
S1132360882329F264EC73E081EA90E20E94811DE3
S1132370BECF63EC73E081EA90E20E94811DB4CF8A
S11323800F931F93CF93DF93EC018B01892B09F4F7
S113239043C08C8D81111BC088819981892B09F1DF
S11323A08A8D9B8D891768F49E8D8F5F8A8F9F3FDE
S11323B019F19F5F9E8F81E0DF91CF911F910F9163
S11323C0089580E0DF91CF911F910F91089564E605
S11323D074E081EA90E20E94811D88819981892BB1
S11323E0F9F68C819D81892BD9F269E674E081EA42
S11323F090E20E94811DD4CF89898823E1F2CE0125
S113240041960E94BB1A8823B1F20115110599F275
S113241081E0F8018083D0CF60E674E081EA90E245
S11324200E94811DB6CFAF92BF92CF92DF92FF92EE
S11324300F931F93CF93DF93CDB7DEB72597CDBF0F
S1132440DEBF8C015B014C835D83892B09F4A1C041
S1132450A114B10409F491C020E06801F1E1CF0EA8
S1132460D11C0FB6F8940F92F801F28CF1106AC0E7
S11324708C819D81892B09F473C0222309F459C0EE
S11324800F900FBE0E949D180FB6F8940F92F8019A
S1132490858D8F3F09F454C0F801868D8F3F09F470
S11324A04DC00F900FBEBE016C5F7F4FCE010196F1
S11324B00E941D1B811122C00FB6F8940F92F801DF
S11324C0828D0F900FBE811112C06C817D81C60177
S11324D00E949B1AC8010E94980F0E9487198823A2
S11324E011F021E0BECF0E94D60D21E0BACFC80181
S11324F00E94980F0E94871921E0B3CFC8010E945F
S1132500980F0E9487190FB6F8940F92F801828DE4
S11325100F900FBE8111E5CF2596CDBFDEBFDF91B1
S1132520CF911F910F91FF90DF90CF90BF90AF900C
S11325300895CE0101960E94121BA2CF168EB1CF30
S1132540158EAACFB501C8010E94800FFA94F80134
S1132550F28E8085811108C00F900FBE81E0DCCF20
S11325600F900FBE80E0D8CFC80108960E94BB1A16
S1132570882391F30E94D60DEFCFF801848D882330
S113258009F46ACF64E075E081EA90E20E94811D5B
S113259063CF60E075E081EA90E20E94811D58CF2C
S11325A0DF92EF92FF920F931F93CF93DF93CDB7F8
S11325B0DEB72597CDBFDEBF8C016C837D83892B6D
S11325C009F4D0C0D8015C968C918111BBC0D12C88
S11325D020E07801B1E1EB0EF11C0FB6F8940F92F4
S11325E0F801828D811189C08C819D81892B09F428
S11325F09DC0222309F45FC00F900FBE0E949D1856
S11326000FB6F8940F92D8015D968C915D978F3F29
S113261009F456C0F801868D8F3F09F458C00F9015
S11326200FBEBE016C5F7F4FCE0101960E941D1B41
S1132630811123C00FB6F8940F92D8015A968C9149
S11326405A970F900FBE811144C0F8018081918187
S1132650892B09F445C06C817D81C7010E949B1AB6
S1132660C8010E94980F0E948719882311F021E065
S1132670B4CF0E94D60D21E0B0CFC8010E94980FBC
S11326800E9487190FB6F8940F92F801828D0F906B
S11326900FBE8111ECCFDD2009F472C00FB6F8949F
S11326A00F928189811165C060E0F8018481958170
S11326B00E94421C43C0CE0101960E94121B9CCF73
S11326C05D961C92F801868D8F3F09F0A8CF168E77
S11326D0A6CFC8010E94980F0E94871921E07DCFE0
S11326E00FB6F8940F9214968D919C9115970E94B1
S11326F0781BD82E0F900FBEAECF8150828F808171
S11327009181892B09F43EC0F8018085811121C093
S11327100F900FBE81E02596CDBFDEBFDF91CF9134
S11327201F910F91FF90EF90DF900895DD2031F01D
S113273061EE75E081EA90E20E94811D0F900FBE68
S113274080E0E9CF65E975E081EA90E20E94811DAD
S11327503ECFC80108960E94BB1A8823C9F20E9482
S1132760D60DD6CF61E975E081EA90E20E94811D21
S113277029CF0688F789E02D80816AE0681B95CF10
S113278080E0C9CF0E94B11CD80114968D939C930C
S11327901597BACFCF92DF92EF92FF920F931F93C8
S11327A0CF93DF93CDB7DEB72597CDBFDEBF8C01C6
S11327B06B014C835D83892B09F4A2C0C114D1043D
S11327C009F492C020E07801F1E1EF0EF11C0FB69C
S11327D0F8940F92F801828D811169C08C819D81DA
S11327E0892B09F474C0222309F458C00F900FBE3A
S11327F00E949D180FB6F8940F92F801858D8F3FB3
S113280009F453C0F801868D8F3F09F44CC00F9032
S11328100FBEBE016C5F7F4FCE0101960E941D1B4F
S1132820811122C00FB6F8940F92F801828D0F9097
S11328300FBE811112C06C817D81C7010E949B1A59
S1132840C8010E94980F0E948719882311F021E083
S1132850BECF0E94D60D21E0BACFC8010E94980FC6
S11328600E94871921E0B3CFC8010E94980F0E94EB
S113287087190FB6F8940F92F801828D0F900FBE4E
S11328808111E5CF2596CDBFDEBFDF91CF911F919A
S11328900F91FF90EF90DF90CF900895CE010196B5
S11328A00E94121BA3CF168EB2CF158EABCFE6803B
S11328B0F780B601C8010E94800FF801E682F78212
S11328C08189811108C00F900FBE81E0DBCF0F908A
S11328D00FBE80E0D7CFC80141960E94BB1A88235F
S11328E091F30E94D60DEFCFF801848D882309F46B
S11328F069CF6CE676E081EA90E20E94811D62CFA6
S113290068E676E081EA90E20E94811D57CFCF927B
S1132910DF92EF92FF920F931F93CF93DF93EC011B
S11329207B016A01892BB9F1E114F104D1F01A8D0C
S113293011110AC080E0DF91CF911F910F91FF9098
S1132940EF90DF90CF9008950D8DB701CE010E94D6
S1132950800F11501A8F0F3F71F00F5F0D8F81E0C0
S1132960EACF8C8D882319F36CEF76E081EA90E24C
S11329700E94811DDCCF8885882389F3CE010896C7
S11329800E94BB1A882359F3C114D10441F381E096
S1132990F6018083D0CF6BEF76E081EA90E20E946B
S11329A0811DC2CFCF93DF93EC01892B49F00FB681
S11329B0F8940F928A8D0F900FBEDF91CF910895F6
S11329C06AE877E081EA90E20E94811DF0CF20C09E
S11329D00FB6F8940F92E091BF25F091C025C681FF
S11329E0D781CE0102960E94050D8091AF258150BA
S11329F08093AF258091B92581508093B9250F909C
S1132A000FBE8F89988D0E94760CCE010E94760CA1
S1132A108091B9258111DCCF8091E225823010F0BC
S1132A200E94D60D0E94371DF3CFE091CE25F09180
S1132A30CF250580F681E02D0680F781E02D828187
S1132A4093818093A5259093A6250895CF93DF9332
S1132A50EC01892B99F08A859B85805B954221F056
S1132A6080E0DF91CF9108952C893D8985E2233C54
S1132A703807B1F381E0232B99F7F3CF62EF76E0C7
S1132A8085EB90E20E94811DE6CFFF920F931F9386
S1132A90CF93DF93EC01F62E0091AD251091AE2576
S1132AA080913C2690913D2602960E94050DCF3FD1
S1132AB08FEFD807A9F1C00FD11FE0913C26F09108
S1132AC03D26C283D38360913C2670913D26C01776
S1132AD0D107C8F08091CE259091CF256E5F7F4FAE
S1132AE00E94D40C8091A5259091A625C817D907DA
S1132AF020F4C093A525D093A625DF91CF911F91F3
S1132B000F91FF9008958091CC259091CD256E5F13
S1132B107F4FDF91CF911F910F91FF900C94D40CB4
S1132B20FF2049F260913C2670913D266E5F7F4FF5
S1132B3080EB95E2DF91CF911F910F91FF900C9460
S1132B40B30C0F931F93CF931092A92520912008C3
S1132B50309121088091C0269091C126A091C2266F
S1132B60B091C326820F931FA11DB11D00919E2514
S1132B7010919F252091A0253091A12508171907B0
S1132B802A073B07A0F4E0913C26F0913D2647A19B
S1132B9050A561A572A5401B510B620B730B480F26
S1132BA0591F6A1F7B1F47A350A761A772A7809371
S1132BB09E2590939F25A093A025B093A125E091F5
S1132BC03C26F0913D260788F08DE02D808191818F
S1132BD0A281B381853A954AA54AB54A09F44CC005
S1132BE060913C2670913D2680913C2690913D2633
S1132BF0675E7F4F0E94571DC091AC258C2F90E0DB
S1132C009C01220F331F220F331F220F331FF901A0
S1132C10E80FF91FEE51FA4D408141110CC0CC234D
S1132C2011F0C150EBCF6CE87BE085EB90E20E94A1
S1132C30811DC150E3CF820F931FDC01AE51BA4D09
S1132C401196ED91FC9112970280F381E02D11967B
S1132C50ED93FC9312978B519A4DE817F90759F1AC
S1132C608681978180933C2690933D26C093AC2522
S1132C70CF911F910F91089584819581A681B78189
S1132C80853A954AA54AB54A09F0AACF8085918527
S1132C90A285B385853A954AA54AB54A09F0A0CFDD
S1132CA084859585A685B785853A954AA54AB54A0A
S1132CB009F096CFA1CF0280F381E02D1196ED9318
S1132CC0FC931297CDCF5F926F927F928F929F92D7
S1132CD0AF92BF92CF92DF92EF92FF920F931F9326
S1132CE0CF93DF934C01EB015A013901502ECA01F5
S1132CF00E94D70B8C01892B09F4DEC080E390E09D
S1132D000E94D70B6C01009709F4D3C0DC015796DD
S1132D100D931C935897209709F4D0C0C801A501BE
S1132D2065EA70E00E944830F1E0AF1AB108D601BC
S1132D3057968D919C915897A80EB91EF6017996D5
S1132D409E01285F3F4FDE01899181938C918823F6
S1132D5019F0C217D307B9F7F60110A2052D0A30EE
S1132D6008F0A1C0D60156960C93569793960C93EF
S1132D70939794961C92E6012296CE010E94AF0C82
S1132D80C6010C960E94AF0CF601C086D1868AE07B
S1132D9090E0801B910984879587C28AD38A15A203
S1132DA016A217A210A611A612A613A614A615A65B
S1132DB016A617A6A301B401C5010E942B0DD601C6
S1132DC08D939C93E114F10419F0F701C082D18230
S1132DD00FB6F8940F928091AF258F5F8093AF2543
S1132DE080913C2690913D26892B99F08091AB25CA
S1132DF0811118C0E0913C26F0913D26D6015696EB
S1132E008C919689891788F0C0923C26D0923D26F1
S1132E100CC0C0923C26D0923D268091AF258130D3
S1132E2009F456C0D60156968C919091A7259F5FC0
S1132E309093A725F60191A39091AC25981780F162
S1132E4090E09C01220F331F220F331F220F331FE8
S1132E50820F931FBE018E519A4D0E94B30C0F90A6
S1132E600FBE8091AB25882351F0E0913C26F09170
S1132E703D269689D60156968C919817B0F081E03C
S1132E80DF91CF911F910F91FF90EF90DF90CF9042
S1132E90BF90AF909F908F907F906F905F900895B8
S1132EA08093AC25CDCF09E05DCF0E94D60D81E0A3
S1132EB0E7CFC8010E94760C8FEFE2CF60E673E0A3
S1132EC085EB90E20E94811DF6018789908D27CFC2
S1132ED002EE15E25CE3E52E56E2F52EC8010E94EF
S1132EE0A10C075F1F4FE016F106C1F789ED95E2CB
S1132EF00E94A10C80ED95E20E94A10C83EC95E266
S1132F000E94A10C8AEB95E20E94A10C80EB95E251
S1132F100E94A10C89ED95E28093CE259093CF2554
S1132F2080ED95E28093CC259093CD25F60186899A
S1132F307CCF0F931F93CF93DF93EC010FB6F894DC
S1132F400F92892B09F462C08E010E5F1F4FC801D6
S1132F500E94050D8C899D89892B21F0CE010C9648
S1132F600E94050DB80180EB95E20E94B30C8FA579
S1132F70813021F10F900FBE8091AB25882391F011
S1132F800FB6F8940F92E091CE25F091CF25808171
S1132F9081112BC08FEF9FEF8093A5259093A625D9
S1132FA00F900FBE80913C2690913D26C817D907FB
S1132FB039F0DF91CF911F910F9108951FA6DACFB9
S1132FC08091AB258823A1F08091A225882331F03C
S1132FD068EC76E085EB90E20E94811D0E94D60D9C
S1132FE0DF91CF911F910F9108950E941515D8CFAD
S1132FF09091B0258091AF25981799F08091A225E2
S1133000882349F081E08093A925D3CFC0913C2641
S1133010D0913D2699CFDF91CF911F910F910C94C0
S1133020A11510923C2610923D26C3CF0F931F93F7
S1133030CF93DF93EC01892B09F43DC080913C26AA
S113304090913D26C817D90751F00FB6F8940F9206
S1133050CE010E942615811107C00F900FBEDF918B
S1133060CF911F910F9108958E010E5F1F4FC801DC
S11330700E94050D8E899091AC25981710F48093C9
S1133080AC2590E09C01220F331F220F331F220F27
S1133090331F820F931FB8018E519A4D0E94B30CB7
S11330A0E0913C26F0913D269E8986899817A8F2E6
S11330B00E94D60DD2CF6CE177E085EB90E20E94BE
S11330C0811D80913C2690913D26C9CFEF92FF92BD
S11330D00F9383EAE82E85E2F82E00E020E030E04A
S11330E040E051E069EC70E287EE94E10E946316DF
S11330F0813079F08F3F21F00F91FF90EF90089588
S113310067E078E085EB90E20F91FF90EF900C94EC
S1133110811DF8942FEF3FEF2093A5253093A6252A
S11331208093AB251092AD251092AE250E94C60E59
S11331300F91FF90EF900C94990D8091A2258F5FD1
S11331408093A22508950FB6F8940F928091AD252F
S11331509091AE250F900FBE0895DF92EF92FF92EB
S11331600F931F93CF93DF938091A2258111B9C050
S1133170E090AD25F090AE258FEFE81AF80AE092C2
S1133180AD25F092AE25E114F10449F5E091CE2588
S1133190F091CF2580818111ABC08091CE25909193
S11331A0CF252091CC253091CD252093CE25309369
S11331B0CF258093CC259093CD258091A8258F5F32
S11331C08093A825E091CE25F091CF2580818111AF
S11331D096C08FEF9FEF8093A5259093A6258091AD
S11331E0A5259091A625D12CE816F90608F453C01C
S11331F0E091CE25F091CF258081882309F445C044
S1133200E091CE25F091CF250580F681E02DC68191
S1133210D7818A819B81E816F90608F473C08E0170
S11332200E5F1F4FC8010E94050D8C899D89892B53
S113323021F0CE010C960E94050D8E899091AC254B
S1133240981710F48093AC2590E09C01220F331F53
S1133250220F331F220F331F820F931FB8018E5189
S11332609A4D0E94B30CE0913C26F0913D269E8934
S11332708689981708F4BCCFDD24D394E091CE2539
S1133280F091CF2580818111BBCF8FEF9FEF809389
S1133290A5259093A625E0913C26F0913D268689AC
S11332A090E0FC01EE0FFF1FEE0FFF1FEE0FFF1F5C
S11332B08E0F9F1FFC01EE51FA4D8081823010F079
S11332C0DD24D3948091A925882311F0DD24D3949F
S11332D08D2DDF91CF911F910F91FF90EF90DF9093
S11332E008958091AA258F5F8093AA25D12CEACFD7
S11332F066E67AE085EB90E20E94811D4ECF0E9443
S113330015156DCF8093A5259093A625C4CFFF9264
S11333100F931F93CF93DF938091A225882309F401
S113332077C00FB6F8940F928091A22581508093B4
S1133330A2258091A225811162C08091AF258823A6
S113334009F45DC0C0E0D0E0FF24F3948091C3256C
S11333508823A1F1E091C825F091C925C681D781C0
S1133360CE010C960E94050D8E010E5F1F4FC80101
S11333700E94050D8E899091AC25981710F48093C6
S1133380AC2590E09C01220F331F220F331F220F24
S1133390331F820F931FB8018E519A4D0E94B30CB4
S11333A0E0913C26F0913D269E898689981770F21B
S11333B0F092A9258091C3258111CCCFCD2B69F042
S11333C0E091CE25F091CF25808181112CC08FEF23
S11333D09FEF8093A5259093A625C091AA25CC2381
S11333E051F0D1E00E94AD188111D093A925C150AC
S11333F0C9F71092AA258091A925811110C080E0F7
S11334000F900FBEDF91CF911F910F91FF90089500
S11334106CE678E085EB90E20E94811D82CF0E94E9
S1133420D60D81E0EDCF0E941515D7CF0F931F93D2
S1133430CF93DF938C01EB01892B09F446C02097CD
S1133440E9F18091A225811132C08091A2258F5F7C
S11334508093A2254091AD255091AE25F80120819D
S11334603181CE01820F931F4217530788F48217CC
S1133470930788F0F801808391830E948719811152
S113348002C00E94D60DDF91CF911F910F91089534
S11334908217930718F04817590760F7F8018083DB
S11334A0918360E0841B950B0E944515E6CF6CEC7C
S11334B074E085EB90E20E94811DC7CF6BEC74E051
S11334C085EB90E20E94811DBCCF6AEC74E085EB31
S11334D090E20E94811DB3CFCF93DF93EC01892B3F
S11334E029F40E94D60DDF91CF9108958091A225F1
S11334F0811110C08091A2258F5F8093A22560E086
S1133500CE010E9445150E948719882351F3DF914B
S1133510CF91089560E275E085EB90E20E94811DF1
S1133520E9CF8091A225811102C00C94A11581E0FC
S11335308093A92508950F931F93CF93DF93EC01F4
S11335408B01892B89F060913C2670913D26645F44
S11335507F4FCE010E94D40C61E0C801DF91CF916E
S11335601F910F910C94451563EA7BE085EB90E283
S11335700E94811DE8CF0F931F93CF93DF93DC014B
S11335801596ED91FC911697C681D781209709F481
S113359042C08E01045F1F4FC8010E94050D809137
S11335A0A225811129C00A501109C8010E94050DE4
S11335B08E899091AC25981728F190E09C01220FF8
S11335C0331F220F331F220F331F820F931FB801A3
S11335D08E519A4D0E94B30CE0913C26F0913D2609
S11335E09E898689891788F481E08093A925DF91D3
S11335F0CF911F910F910895B80183EC95E20E9439
S1133600B30CEACF8093AC25D8CF80E0DF91CF9183
S11336101F910F9108956EEF7BE085EB90E20E947D
S1133620811DB7CF2091A825FC0120832091AD25D1
S11336303091AE252183328308950F931F93CF9346
S1133640DF93EC018B01892B09F440C001151105AE
S113365009F443C00FB6F8940F928091AD25909170
S1133660AE25F801208131812F3FFFEF3F0761F143
S113367049815A816091A8257881761719F08417B9
S1133680950780F4841B950B8217930768F0F80163
S11336901082118281E00F900FBEDF91CF911F91B4
S11336A00F91089581E0F7CF281B390BF80120838F
S11336B031838091A82588838091AD259091AE2592
S11336C089839A8380E0E7CF80E0E5CF69E67CE0F8
S11336D085EB90E20E94811DB9CF6AE67CE085EB20
S11336E090E20E94811DB6CF81E08093A9250895C0
S11336F00F931F93CF93DF93FC01892B09F441C0EF
S11337002689A0913C26B0913D2656968C91281787
S113371070F58485958597FD0CC0A0913C26B091E9
S11337203D2656963C918AE090E0831B910984875C
S1133730958730E0C901880F991F880F991F880F5A
S1133740991F280F391F2E513A4D82859385821770
S11337509307E9F0A0913C26B0913D2656968C91B2
S1133760868B81E0DF91CF911F910F910895A091F5
S11337703C26B0913D2681E023A156969C912917C1
S113378088F380E0DF91CF911F910F9108958F010D
S1133790EF012296CE010E94050DE0913C26F091A6
S11337A03D268689F801868B9091AC25981710F4F4
S11337B08093AC2590E09C01220F331F220F331F0E
S11337C0220F331F820F931FBE018E519A4D0E9408
S11337D0B30C81E0C7CF0F931F93CF93DF93009770
S11337E0C9F0EC0180913C2690913D26C817D90779
S11337F031F06EE77FE085EB90E20E94811D8CA1A1
S11338008823C1F181508CA32E899BA1291711F023
S1133810882331F080E0DF91CF911F910F910895BB
S11338208E010E5F1F4FC8010E94050D2BA12E8B28
S1133830822F90E04AE050E0481B590B4C875D878B
S11338403091AC25321710F42093AC259C01220F43
S1133850331F220F331F220F331F820F931FB80110
S11338608E519A4D0E94B30C81E0DF91CF911F914C
S11338700F9108956FE77FE085EB90E20E94811D30
S11338808CA1C0CF0F931F93CF93DF93009779F050
S1133890162FEC018CA1882309F454C00BA1011745
S11338A058F08E89801719F09CA1913039F0DF917E
S11338B0CF911F910F910895012FF3CF20913C26B2
S11338C030913D26C217D30709F443C00E8B2C85D3
S11338D03D8537FD06C02AE030E0201B31092C87E6
S11338E03D8790E09C01220F331F220F331F220FCC
S11338F0331F820F931F8E519A4D2A853B852817BB
S11339003907A9F68E010E5F1F4FC8010E94050DED
S11339108E899091AC25981710F48093AC2590E093
S11339209C01220F331F220F331F220F331F820FDC
S1133930931FB8018E519A4DDF91CF911F910F9132
S11339400C94B30C6DEC7FE085EB90E20E94811D3A
S1133950A5CF68EE7FE085EB90E20E94811D8E8901
S1133960B5CF80913C2690913D26892B39F0E0918A
S11339703C26F0913D2684A18F5F84A380913C2650
S113398090913D260895EF92FF920F931F93CF934A
S1133990DF93EC018B01892B09F462C02FA582E02F
S11339A08FA78BA59CA5ADA5BEA50196A11DB11D94
S11339B08BA79CA7ADA7BEA7213039F0DF91CF918B
S11339C01F910F91FF90EF9008958C899D89892B09
S11339D031F066E373E185EB90E20E94811D8091F2
S11339E0A2258823F9F0BE01645F7F4F83EC95E242
S11339F00E94B30CE0913C26F0913D269E89868975
S1133A008917E0F60115110519F081E0F8018083AA
S1133A1081E08093A925DF91CF911F910F91FF90B1
S1133A20EF9008957E0182E0E80EF11CC7010E9428
S1133A30050D8E899091AC25981710F48093AC25D0
S1133A4090E09C01220F331F220F331F220F331FDC
S1133A50820F931FB7018E519A4D0E94B30CCACFA7
S1133A6060E173E185EB90E20E94811D97CF089598
S1133A70F89488EF90E20E94C40280E880930106E3
S1133A80809305062FEF33EC99E0215030409040AD
S1133A90E1F700C00000809306062FEF33EC99E0B5
S1133AA0215030409040E1F700C00000E9CFEB0125
S1133AB0F89480E8809301068AE191E20E94C402AE
S1133AC06AE070E0CE010E94E30285EF90E20E947A
S1133AD0C40280E8809305062FEF33ED90E3215074
S1133AE030409040E1F700C00000809306062FEFBD
S1133AF033ED90E3215030409040E1F700C00000E6
S1133B00E9CF8C01EB01F89480E88093010682E30D
S1133B1091E20E94C40264E670E0C8010E94E302DC
S1133B2082E491E20E94C402CE010E94080385EF60
S1133B3090E20E94C40280E8809305062FEF33ECE4
S1133B4099E0215030409040E1F700C0000080939C
S1133B5006062FEF33ED90E3215030409040E1F71B
S1133B6000C00000E9CF0E94130980E090E40E94A5
S1133B703B2E8093C4269093C526892B59F087E069
S1133B808093A20078940E947D270E94661880E0AA
S1133B9090E00895FFCFCF93DF9300D01F92CDB76D
S1133BA0DEB70E944D060E94A31889839A830CED08
S1133BB015E0C12CD12C760140E050E060E070E0CB
S1133BC0CE0103960E9423076B817C81072E000C93
S1133BD0880B990B0E94B22820E030E040E858E3BB
S1133BE00E94A6299B01AC01C701B6010E9492273D
S1133BF06B017C018AE090E00E946C1A015011096B
S1133C00D9F620E030E84BEB54E4C701B6010E943A
S1133C10082860933E2670933F2680934026909315
S1133C204126A12CB12CC12CD12C6DC02AE037ED3A
S1133C3043EA5BEBC301B2010E94A12918160CF000
S1133C4094C060E070E0CB012B013C01409242261D
S1133C5050924326609244267092452620914A262B
S1133C6030914B2640914C2650914D260E9492272C
S1133C707B018C01CB01D80180934A2690934B267B
S1133C80A0934C26B0934D269701A801B501C60117
S1133C900E94922720E030E040E05FE30E94A629E2
S1133CA020E030E040E251E40E94A62920E030E028
S1133CB04AE754E40E9408289B01AC01609146261F
S1133CC07091472680914826909149260E94922718
S1133CD060934626709347268093482690934926FE
S1133CE020E040E050E060E070E080914E2690914A
S1133CF04F260E947C106AE070E0CE0101960E947B
S1133D00161A5701680140E050E060E070E0CE010F
S1133D1003960E9423076FEF7FEF80914E269091C8
S1133D204F260E94D0126B817C81072E000C880BD9
S1133D30990B0E94B22820E030E040E858E30E944A
S1133D40A62920913E2630913F264091402650914D
S1133D5041260E9491272B013C012AE037ED43EADA
S1133D605BE30E94FE2787FD61CF20E030E040E264
S1133D7051E4C301B2010E94A62920E030E04AE7E1
S1133D8054E40E94082862CFEF92FF920F93E12C33
S1133D90F12C03E020E030E040E051E06DE471E21A
S1133DA08BEC9DE10E94631681E00E944B1180938D
S1133DB04E2690934F260F91FF90EF900895CF9346
S1133DC0DF93CDB7DEB76097CDBFDEBF4FEF5FEFB8
S1133DD0BE01675F7F4F8091C6269091C7260E94DF
S1133DE0CA1388E0FE013996DE01119601900D9206
S1133DF08A95E1F729813A814B815C816D817E81CD
S1133E008F8198856096CDBFDEBFDF91CF910895F5
S1133E10CF93DF9300D01F92CDB7DEB70E944D063B
S1133E200E94A31889839A8388EC90E00E946C1AFC
S1133E30AE014D5F5F4F60E070E080E090E00E9473
S1133E40CD066B817C81072E000C880B990B0E9498
S1133E50B2282DE233E24AEF5BE30E94A6294B012C
S1133E605C01612C712CC12CD12C0EC0C501B40194
S1133E700E9492274B015C016AE070E0CE0101963A
S1133E800E94161A37016801AE014D5F5F4F60E072
S1133E9070E080E090E00E94CD066FEF7FEF8091AC
S1133EA05826909159260E94D0126B817C81072E4E
S1133EB0000C880B990B0E94B2282DE233E24AEFE2
S1133EC05BE30E94A629A50194010E9491277B012E
S1133ED08C01CB01D8018093542690935526A0934E
S1133EE05626B093572620E030E048EC52E4B70160
S1133EF0C8010E9408281B012C0120E030E048EC96
S1133F0052E4B301C6010E9408289B01AC01C2011E
S1133F10B1010E94922720E030E040E05FE30E947C
S1133F20A6299B01AC016091502670915126809185
S1133F305226909153260E949227609350267093A4
S1133F405126809352269093532620E040E050E07F
S1133F5060E070E080915826909159260E947C1070
S1133F6020E030E0A901609154267091552680919B
S1133F705626909157260E94A1292FE632E143E864
S1133F805AE318160CF472CFC501B4010E949127AC
S1133F904B015C0171CFEF92FF920F93E12CF12C56
S1133FA003E020E030E040E051E061E571E288E0C8
S1133FB09FE10E94631681E00E944B118093582672
S1133FC0909359260F91FF90EF900895CF93DF932C
S1133FD0CDB7DEB7A297CDBFDEBF0E944D060E94CB
S1133FE0A31889839A831B8E1C8E1D8E1E8E1F8A96
S1133FF0188E198E1A8E1B8A1C8A1D8A1E8AAE017F
S1134000475F5F4FBE01655F7F4FCE010D960E94F3
S11340102307AE014D5F5F4FBE016B5F7F4FCE0143
S113402007960E94CD066D857E85072E000C880BB1
S1134030990B0E94B22820E030E040E858E30E9447
S1134040A62960936E2670936F26809370269093B2
S113405071266B857C85072E000C880B990B0E94BA
S1134060B22820E030E040E858E30E94A62960939B
S11340706A2670936B2680936C2690936D266985CF
S11340807A85072E000C880B990B0E94B22820E039
S113409030E040E858E30E94A629609366267093B6
S11340A0672680936826909369266F817885072E0A
S11340B0000C880B990B0E94B2282DE233E24AEFE0
S11340C05BE30E94A6296093622670936326809323
S11340D06426909365266D817E81072E000C880BE3
S11340E0990B0E94B2282DE233E24AEF5BE30E946F
S11340F0A62960935E2670935F2680936026909332
S113410061266B817C81072E000C880B990B0E9421
S1134110B2282DE233E24AEF5BE30E94A6296093C2
S11341205A2670935B2680935C2690935D266FEFEE
S11341307FEF80918A2690918B260E94D0126B810A
S11341407C81072E000C880B990B0E94B2282DE26B
S113415033E24AEF5BE30E94A62920E030E040E22C
S113416051E40E94A62920E030E04AE754E40E948A
S113417008289B01AC0160917A2670917B2680917E
S11341807C2690917D260E94922760937A267093D4
S11341907B2680937C2690937D266D817E81072EDD
S11341A0000C880B990B0E94B2282DE233E24AEFEF
S11341B05BE30E94A62920E030E040E251E40E9443
S11341C0A62920E030E04AE754E40E940828209120
S11341D076263091772640917826509179260E9450
S11341E092274B015C016093762670937726809327
S11341F07826909379266F817885072E000C880B9A
S1134200990B0E94B2282DE233E24AEF5BE30E944D
S1134210A62920E030E040E251E40E94A62920E0F3
S113422030E04AE754E40E94082820917226309135
S1134230732640917426509175260E9492276B0133
S11342407C016093722670937326809374269093F6
S11342507526C501B4010E94132A2B013C01C70134
S1134260B6010E94132A6F87788B898B9A8BC501BC
S1134270B4010E9403284B015C01C701B6010E94EE
S113428003286F8F78A389A39AA36D857E85072E53
S1134290000C880B990B0E94B22820E030E040E823
S11342A058E30E94A6296B017C0123EC35EF4CE115
S11342B051E4C301B2010E94A6299B01AC01C701CC
S11342C0B6010E9491272B013C016B857C85072E4A
S11342D0000C880B990B0E94B22820E030E040E8E3
S11342E058E30E94A6296B017C016F85788989892E
S11342F09A89905823EC35EF4CE151E40E94A629A9
S11343009B01AC01C701B6010E9491276B017C019E
S113431069857A85072E000C880B990B0E94B228B8
S113432020E030E040E858E30E94A6296F87788BAC
S1134330898B9A8B23EC35EF4CE151E4C501B40130
S11343400E94A6292F8D38A149A15AA10E94A6290D
S11343509B01AC016F85788989899A890E9491278C
S11343604B015C01A30192016B897C898D899E8933
S11343700E94922720E030E040E05FE30E94A629FB
S113438020E030E040E251E40E94A62920E030E041
S11343904AE754E40E9408289B01AC0160918626F8
S11343A07091872680918826909189260E94922771
S11343B06093862670938726809388269093892617
S11343C0A70196016F89788D898D9A8D0E94922715
S11343D020E030E040E05FE30E94A62920E030E0E6
S11343E040E251E40E94A62920E030E04AE754E488
S11343F00E9408289B01AC0160918226709183265B
S113440080918426909185260E949227609382262B
S1134410709383268093842690938526A501940126
S11344206B8D7C8D8D8D9E8D0E94922720E030E0D7
S113443040E05FE30E94A62920E030E040E251E43E
S11344400E94A62920E030E04AE754E40E940828AC
S11344509B01AC0160917E2670917F26809180261D
S1134460909181260E94922760937E2670937F26E6
S1134470809380269093812620E030E040E251E44E
S1134480C301B2010E94A62920E030E04AE754E4C7
S11344900E9408289B01AC016B897C898D899E89C7
S11344A00E9492276B8B7C8B8D8B9E8B20E030E05F
S11344B040E251E4C701B6010E94A62920E030E0A1
S11344C04AE754E40E9408289B01AC016F89788D67
S11344D0898D9A8D0E9492276F8B788F898F9A8FFE
S11344E020E030E040E251E4C501B4010E94A62975
S11344F020E030E04AE754E40E9408289B01AC0124
S11345006B8D7C8D8D8D9E8D0E9492276B8F7C8F01
S11345108D8F9E8F20E040E050E060E070E080915D
S11345208A2690918B260E947C106AE070E0CE016E
S113453001960E94161A63CDEF92FF920F93E12C1D
S1134540F12C03E020E030E040E052E066E571E267
S113455086EE9FE10E94631681E00E944B118093D6
S11345608A2690938B260F91FF90EF900895609385
S1134570902670939126809392269093932620E020
S113458040E050E060E070E080918E2690918F26AC
S11345900C947C1020E040E050E060E070E08091FA
S11345A08C2690918D260C947C10CF93DF93CDB7FD
S11345B0DEB76797CDBFDEBF0FC0823009F4AEC04F
S11345C0833009F4FAC080919626909197260E9430
S11345D0D214882309F496C04FEF5FEFBE016F5FDA
S11345E07F4F80919626909197260E94131289817D
S11345F0813019F74E805F80688479848A809B803B
S1134600AC80BD800E94A3188A879B870E94632682
S11346100E9430270E9402046B017C0120E030E0FC
S1134620A901C501B4010E94A1292DEC3CE44FE489
S113463053E418160CF050C1C501B4010E940828B7
S113464020E030E044EB53E40E94A62920E030E06F
S113465040E450E40E9408286C8B7D8B8E8B9F8BEA
S1134660B601DD0C880B990B0E94B2289B01AC01AA
S11346706C897D898E899F890E9492270E947A285D
S11346808B012DEC3CE44FE453E4C301B2010E94DE
S1134690082820E030E044EB53E40E94A62920E0FF
S11346A030E040E450E40E9408280E947A28DC01AB
S11346B0CB01BC010E94422709C00C151D05B4F0B2
S11346C06AE070E0CE010A960E94161A0E94020463
S11346D06B017C0120E030E0A901C501B4010E9416
S11346E0A129181654F3C016D10654F70E947C264B
S11346F00E943C2780919626909197260E94D2147E
S113470081116ACF20E040E050E060E070E08091E9
S11347109426909195260E947C105ECFCA80DB80FF
S1134720EC80FD800E94A3188A8B9B8B0E946326D9
S11347300E9430270E9402042DEC3CE44FE453E431
S1134740C701B6010E94082820E030E044EB53E49E
S11347500E94A62920E030E040E450E40E940828AA
S11347600E94B72200E010E00BC00F5F1F4F05311D
S11347701105E4F46AE070E0CE0142960E94161A34
S11347800E94DF1E2A873B874C875D876E877F8761
S1134790888B998B2A853B858E859F85820F931FF5
S11347A08A38934114F700E010E0E4CF0E94CA2253
S11347B00E947C260E943C2706CF4E805F8068843E
S11347C079848A809B80AC80BD800E94A3188A87EC
S11347D09B870E9463260E9430270E9402046B017B
S11347E07C0126EC39ED47E75FE3C501B4010E9483
S11347F0A6294B015C0120E030E0A9010E94A12917
S113480018160CF0ABC0B601DD0C880B990B0E9496
S1134810B2286B017C012DEC3CE44FE453E4C50168
S1134820B4010E94082820E030E044EB53E40E94E5
S1134830A62920E030E040E450E40E9408289B01CF
S1134840AC01C701B6010E9491270E947A288B010E
S11348502DEC3CE44FE453E4C301B2010E94082868
S113486020E030E044EB53E40E94A62920E030E04D
S113487040E450E40E9408282B013C010E947A285D
S11348806B017C01C301B20190580E947A28DC01BB
S1134890CB01B6010E9442270AC0C016D1060CF40F
S11348A025CF6AE070E0CE010A960E94161A0E9493
S11348B002046B017C0120E030E0A901C501B401D0
S11348C00E94A12918164CF30C151D0554F70E94DB
S11348D07C260E943C270ECFC501B4010E94082803
S11348E020E030E044EB53E40E94A62920E030E0CD
S11348F040E450E40E9408286C8B7D8B8E8B9F8B48
S1134900B601DD0C880B990B0E94B2289B01AC0107
S11349106C897D898E899F890E9492270E947A28BA
S11349208B012DEC3CE44FE453E4C301B2010E943B
S1134930082820E030E044EB53E40E94A62920E05C
S113494030E040E450E40E94082890580E947A28FD
S1134950DC01CB01BC010E944227B8CEB601DD0CBC
S1134960880B990B0E94B2286B017C012DEC3CE46E
S11349704FE453E4C501B4010E94082820E030E06C
S113498044EB53E40E94A62920E030E040E450E4E4
S11349900E9408289B01AC01C701B6010E9491271F
S11349A00E947A288B012DEC3CE44FE453E4C301CC
S11349B0B2010E94082820E030E044EB53E40E9456
S11349C0A62920E030E040E450E40E9408282B01AE
S11349D03C0190580E947A286B017C01C301B2010A
S11349E00E947A28DC01CB01B6010E9442275FCFE6
S11349F0EF92FF920F93E12CF12C03E020E030E0E2
S1134A0040E051E06AE571E285ED92E20E946316AE
S1134A1040E069E081E00E943810809396269093EC
S1134A20972643E060E081E00E943810809394264A
S1134A30909395260F91FF90EF900895CF93DF9375
S1134A40CDB7DEB72C97CDBFDEBF0E94A3188093ED
S1134A5098269093992619861A861B861C861D8291
S1134A601E821F82188677C020E030E0A901C701AA
S1134A70B6010E94FE2787FF0AC020E030E84BEB16
S1134A8054E4C701B6010E9491276B017C0120E028
S1134A9030EF4FE755ECC701B6010E94FE2787FFB0
S1134AA0B6C001E010EFC501B4010E94B2289B0119
S1134AB0AC0169857A858B859C850E94912720E0CD
S1134AC030E046E953E40E94A6296B017C0120E012
S1134AD030E0A9010E94A129181654F420E030E81E
S1134AE04BEB54E4C701B6010E9492276B017C0191
S1134AF020E030EF4FE755E4C701B6010E94A12939
S1134B0018160CF48AC020E030E0A901C701B601F0
S1134B100E94FE2787FF0AC020E030E84BEB54E4F4
S1134B20C701B6010E9491276B017C0120E030EFA0
S1134B304FE755ECC701B6010E94FE2787FF74C0FA
S1134B4061E070EFC8010E9497036AE070E088E9B1
S1134B5096E20E94161A0E9402046B017C0160E036
S1134B6070E080919E2690919F260E94D01226018B
S1134B70DD0C66087708813009F490C04701FF0C0A
S1134B80AA08BB0840E050E0BE016F5F7F4F8091F0
S1134B909C2690919D260E941312813009F449C0ED
S1134BA0C301B2010E94B2289B01AC016D817E81D8
S1134BB08F8198850E94912720E030E046E953E4F4
S1134BC00E94A6296B017C0120E030E0A9010E942B
S1134BD0A129181654F420E030E84BEB54E4C70143
S1134BE0B6010E9492276B017C0120E030EF4FE771
S1134BF055E4C701B6010E94A12918160CF034CF60
S1134C00C12C90EFD92E9FE7E92E95E4F92EC70128
S1134C10B6010E947A288B0146CFC12C80EFD82E92
S1134C208FE7E82E85E4F82EC701B6010E947A28A2
S1134C3089CF69817A81072E000C880B990B0E9419
S1134C40B22820E030E048EC52E40E9408289B019E
S1134C50AC016D817E818F8198850E9492276D833E
S1134C607E838F8398876B817C81072E000C880B51
S1134C70990B0E94B22820E030E048EC52E40E94F4
S1134C8008289B01AC0169857A858B859C850E94E7
S1134C90922769877A878B879C8782CFC301B20169
S1134CA00E94B2286D837E838F8398874701FF0C0F
S1134CB0AA08BB08C501B4010E94B22869877A8793
S1134CC08B879C875FCF0E943F0620E040E050E046
S1134CD060E070E080919E2690919F260E947C1057
S1134CE00E94A318809398269093992680919A26DF
S1134CF090919B260C94161880919A2690919B264D
S1134D000E94991760E070E080E090E00C949703B3
S1134D10EF92FF920F930E9466038AE9E82E86E2DF
S1134D20F82E03E020E030E040E051E061E671E27B
S1134D308EE195E20E9463160E947C2640E064E0C6
S1134D4081E00E94381080939C2690939D2643E036
S1134D5060E081E00E94381080939E2690939F2605
S1134D60009751F020E040E050E060E070E00F91E7
S1134D70FF90EF900C947C100F91FF90EF900895AA
S1134D80CF93DF9300D01F92CDB7DEB789839A8388
S1134D906B837C8320E04FEF5FEFBE016F5F7F4F3B
S1134DA080919C2690919D260E947C102496CDBFD4
S1134DB0DEBFDF91CF910895CF93DF9300D01F9290
S1134DC0CDB7DEB70E94A3188093A0269093A126A6
S1134DD04FEF5FEFBE016F5F7F4F8091A4269091EC
S1134DE0A5260E94CA136B817C8189819A810E94C5
S1134DF0C0266AE070E080EA96E20E94161AE8CFC4
S1134E00EF92FF920F9382EAE82E86E2F82E03E0F7
S1134E1020E030E040E051E068E671E28CED96E29B
S1134E200E9463168091A2269091A3260E9499174E
S1134E3040E064E081E00E9438108093A4269093BF
S1134E40A526E6EAF6E2108211821282138222E09B
S1134E5040E050E0BF010F91FF90EF900C947C1064
S1134E600E94A3188093A0269093A1268091A22645
S1134E709091A3260C9416188091A2269091A326B3
S1134E800C949917E6EAF6E2808391836283738334
S1134E9022E040E050E0BF018091A4269091A52635
S1134EA00C947C101092B42681E08093B5260E9465
S1134EB009090E9401020E94FE0A0E9405090E943B
S1134EC02E090E94FF0882E00E941A0882E390E003
S1134ED00E946C1A80E2809301060E9488260E9438
S1134EE000270E94CB1F0E94C41E0E949C220E9485
S1134EF0F82480E090E00C949917EF92FF920F93BE
S1134F00E12CF12C03E020E030E040E051E06FE6DA
S1134F1071E282E597E20E9463160F91FF90EF9091
S1134F2008955058BB27AA270E94A9270C945329F7
S1134F300E941A2938F00E94212920F039F49F3F59
S1134F4019F426F40C9417290EF4E095E7FB0C945D
S1134F501129E92F0E94782958F3BA1762077307B9
S1134F608407950720F079F4A6F50C949A290EF499
S1134F70E0950B2EBA2FA02D0B01B90190010C0165
S1134F80CA01A0011124FF27591B99F0593F50F47D
S1134F90503E68F11A16F040A22F232F342F4427D5
S1134FA0585FF3CF469537952795A795F0405395CD
S1134FB0C9F77EF41F16BA0B620B730B840BBAF09D
S1134FC09150A1F0FF0FBB1F661F771F881FC2F708
S1134FD00EC0BA0F621F731F841F48F4879577951C
S1134FE06795B795F7959E3F08F0B0CF9395880FD6
S1134FF008F09927EE0F9795879508950E94ED285C
S113500008F481E008950E942A29E3950C94642908
S11350100E941C280C9453290E94212958F00E94B4
S11350201A2940F029F45F3F29F00C9411295111F9
S11350300C949B290C9417290E94782968F39923CE
S1135040B1F3552391F3951B550BBB27AA27621780
S11350507307840738F09F5F5F4F220F331F441F8D
S1135060AA1FA9F335D00E2E3AF0E0E832D09150C1
S11350705040E695001CCAF72BD0FE2F29D0660FAE
S1135080771F881FBB1F261737074807AB07B0E8F1
S113509009F0BB0B802DBF01FF2793585F4F3AF0F7
S11350A09E3F510578F00C9411290C949B295F3F85
S11350B0E4F3983ED4F3869577956795B795F7957D
S11350C09F5FC9F7880F911D9695879597F9089565
S11350D0E1E0660F771F881FBB1F62177307840701
S11350E0BA0720F0621B730B840BBA0BEE1F88F710
S11350F0E09508950E9481286894B1110C949B292D
S113510008950E94802988F09F5798F0B92F992715
S1135110B751B0F0E1F0660F771F881F991F1AF09E
S1135120BA95C9F714C0B13091F00E949A29B1E040
S113513008950C949A29672F782F8827B85F39F03F
S1135140B93FCCF3869577956795B395D9F73EF437
S113515090958095709561957F4F8F4F9F4F0895DF
S1135160E89409C097FB3EF49095809570956195FD
S11351707F4F8F4F9F4F9923A9F0F92F96E9BB27B3
S11351809395F695879577956795B795F111F8CF2F
S1135190FAF4BB0F11F460FF1BC06F5F7F4F8F4F9A
S11351A09F4F16C0882311F096E911C0772321F090
S11351B09EE8872F762F05C0662371F096E8862F28
S11351C070E060E02AF09A95660F771F881FDAF77F
S11351D0880F9695879597F90895990F0008550FAC
S11351E0AA0BE0E8FEEF16161706E807F907C0F069
S11351F012161306E407F50798F0621B730B840B71
S1135200950B39F40A2661F0232B242B252B21F44A
S113521008950A2609F4A140A6958FEF811D811DEA
S1135220089597F99F6780E870E060E008959FEF24
S113523080EC089500240A94161617061806090629
S1135240089500240A9412161306140605060895F8
S11352500C9417290E948029D8F3E894E0E0BB2736
S11352609F57F0F02AED3FE049EC06C0EE0FBB0F6C
S1135270661F771F881F28F0B23A620773078407F6
S113528028F0B25A620B730B840BE3959A9572F76C
S1135290803830F49A95BB0F661F771F881FD2F7AA
S11352A090480C941D2A092E0394000C11F48823B1
S11352B052F0BB0F40F4BF2B11F460FF04C06F5FCA
S11352C07F4F8F4F9F4F0895EF93E0FF07C0A2EAEF
S11352D02AED3FE049EC5FEB0E94A9270E94532985
S11352E00F90039401FC9058ECEFF1E00C94292A00
S11352F057FD9058440F551F59F05F3F71F0479583
S1135300880F97FB991F61F09F3F79F08795089567
S1135310121613061406551FF2CF4695F1DF08C086
S1135320161617061806991FF1CF869571056105A3
S113533008940895E894BB2766277727CB0197F94B
S113534008950E94ED2808F48FEF08950E94B9296A
S11353500C9453290E941A2938F00E94212920F024
S1135360952311F00C9411290C94172911240C94F1
S11353709B290E94782970F3959FC1F3950F50E003
S1135380551F629FF001729FBB27F00DB11D639FF3
S1135390AA27F00DB11DAA1F649F6627B00DA11D99
S11353A0661F829F2227B00DA11D621F739FB00D3F
S11353B0A11D621F839FA00D611D221F749F3327AF
S11353C0A00D611D231F849F600D211D822F762F48
S11353D06A2F11249F5750409AF0F1F088234AF025
S11353E0EE0FFF1FBB1F661F771F881F9150504091
S11353F0A9F79E3F510580F00C9411290C949B2928
S11354005F3FE4F3983ED4F3869577956795B79517
S1135410F795E7959F5FC1F7FE2B880F911D969531
S1135420879597F908959F930E942A290F9007FC66
S1135430EE5F0C9464299F3F31F0915020F48795DE
S113544077956795B795880F911D9695879597F9E8
S113545008959F938F937F936F93FF93EF939B0193
S1135460AC010E94A629EF91FF910E943D2A2F9141
S11354703F914F915F910C94A629DF93CF931F9393
S11354800F93FF92EF92DF927B018C01689406C028
S1135490DA2EEF010E94B929FE01E894A591259125
S11354A0359145915591A6F3EF010E94A927FE017C
S11354B09701A801DA9469F7DF90EF90FF900F91BC
S11354C01F91CF91DF9108952F923F924F925F9257
S11354D06F927F928F929F92AF92BF92CF92DF9200
S11354E0EF92FF920F931F93CF93DF93CDB7DEB765
S11354F06097CDBFDEBF7C011B016A01FC011682EF
S11355001782838181FF44C39E012F5F3F4F39017E
S1135510F7019381F10193FD859193FF81911F011F
S1135520882309F431C3853239F493FD859193FFBF
S113553081911F01853239F4B70190E00E945A30FD
S113554056016501E5CF10E0512C912CFFE1F915CE
S1135550D8F08B3279F038F4803279F08332A1F4C8
S1135560F92DF0612EC08D3261F0803369F4292D5C
S113557021602DC0392D3260932E892D8460982EA0
S11355802AC0E92DE86015C097FC2DC020ED280F36
S11355902A3088F496FE06C03AE0139F200D1124A9
S11355A0122F19C08AE0589E200D1124522EE92D85
S11355B0E0629E2E10C08E3231F496FCE5C2F92DC5
S11355C0F0649F2E08C08C3621F4292D2068922E79
S11355D002C0883641F4F10193FD859193FF8191D6
S11355E01F018111B3CF9BEB980F933020F4992DB9
S11355F09061805E07C09BE9980F933008F066C104
S1135600992D9F7E96FF16E09F73992E853619F487
S11356109064992E08C0863621F4392F3068932E71
S113562002C01111115097FE07C01C3350F44424DA
S11356304394410E27E00BC0183038F027E017E000
S113564005C027E09CE3492E02C0212F412C5601BE
S113565084E0A80EB11CF60160817181828193817E
S1135660042DA3010E945C2F6C01F981FC87F0FFDB
S113567002C0F3FF06C091FC06C092FE06C000E221
S113568005C00DE203C00BE201C000E08C858C7004
S113569019F001115AC29BC297FE10C04C0CFC8534
S11356A0F4FF04C08A81813309F44A94141474F514
S11356B028E0241578F588E0482E2CC096FC2AC0F2
S11356C0812F90E08C159D059CF03CEFC3163FEFB5
S11356D0D30674F0892D8068982E0AC0E2E0F0E0C9
S11356E0EC0FFD1FE10FF11D8081803319F411507F
S11356F01111F4CF97FE0EC044244394410E812F20
S113570090E0C816D9062CF41C1904C04424439410
S113571001C010E097FE06C01C141D0434F4C60139
S1135720019605C085E090E002C081E090E001119F
S11357300196112331F0212F30E02F5F3F4F820F6C
S1135740931F252D30E08217930714F4581A01C0D3
S1135750512C892D897049F4552039F0B70180E224
S113576090E00E945A305A94F7CF002329F0B701F1
S1135770802F90E00E945A3093FC09C0552039F0E4
S1135780B70180E390E00E945A305A94F7CF97FE15
S11357904CC04601D7FE02C0812C912CC601881949
S11357A09909F301E80FF91FED87FE879601241983
S11357B031092F87388B012F10E0119501951109BC
S11357C03FEF8316930629F4B7018EE290E00E941E
S11357D05A30C814D9044CF08F85988988159905D6
S11357E024F4ED85FE85818101C080E3F1E08F1A08
S11357F091082D853E852F5F3F4F2D873E8780166C
S113580091062CF0B70190E00E945A30D9CFC81409
S1135810D90441F49A81963320F4953319F43C85E4
S113582034FF81E3B70190E04EC08A81813319F0DF
S11358309C859F7E9C87B70190E00E945A3011118D
S113584005C094FC18C085E690E017C0B7018EE24D
S113585090E00E945A301E5F82E001E0080FF301DD
S1135860E80FF11D8081B70190E00E945A30802F2B
S11358700113F3CFE6CF85E490E0B7010E945A30DC
S1135880D7FC06C0C114D10441F4EC85E4FF05C083
S1135890D194C194D1088DE201C08BE2B70190E0AC
S11358A00E945A3080E32AE0C216D1042CF08F5FA4
S11358B0FAE0CF1AD108F7CFB70190E00E945A302E
S11358C0B701C601C0960E945A3054C1833631F0E4
S11358D0833779F0833509F056C020C0560132E091
S11358E0A30EB11CF6018081898301E010E06301FD
S11358F012C05601F2E0AF0EB11CF601C080D18097
S113590096FE03C0612F70E002C06FEF7FEFC60107
S11359100E944F308C01F92DFF7714C0560122E00C
S1135920A20EB11CF601C080D18096FE03C0612F87
S113593070E002C06FEF7FEFC6010E9434308C012B
S1135940F92DF0689F2EF3FD1AC0852D90E00817FD
S11359501907A8F4B70180E290E00E945A305A94E3
S1135960F4CFF60197FC859197FE81916F01B70101
S113597090E00E945A3051105A94015011090115B7
S1135980110579F7F7C0843611F0893661F55601AF
S113599097FE09C024E0A20EB11CF601608171815A
S11359A0828193810AC0F2E0AF0EB11CF6016081DE
S11359B07181072E000C880B990BF92DFF769F2E11
S11359C097FF09C090958095709561957F4F8F4F93
S11359D09F4FF0689F2E2AE030E0A3010E94DA3046
S11359E0C82EC6183FC0092D853721F40F7E2AE042
S11359F030E01DC0097F8F3691F018F4883559F0D6
S1135A00C3C0803719F0883711F0BEC0006104FFAD
S1135A1009C0046007C094FE08C0066006C028E000
S1135A2030E005C020E130E002C020E132E0560160
S1135A3007FF09C084E0A80EB11CF60160817181E2
S1135A408281938108C0F2E0AF0EB11CF60160813F
S1135A50718180E090E0A3010E94DA30C82EC6185C
S1135A600F77902E96FE0BC0092D0E7FC11650F4B1
S1135A7094FE0AC092FC08C0092D0E7E05C0DC2CE1
S1135A80092D03C0DC2C01C0D12E04FF0DC0FE0182
S1135A90EC0DF11D8081803311F4097E09C002FFF1
S1135AA006C0D394D39404C0802F867809F0D3948D
S1135AB003FD11C000FF06C01C2DD51480F4150D84
S1135AC01D190DC0D51458F4B70180E290E00E946E
S1135AD05A30D394F7CFD51410F45D1801C0512C6B
S1135AE004FF10C0B70180E390E00E945A3002FF27
S1135AF017C001FD03C088E790E002C088E590E08C
S1135B00B7010CC0802F867859F001FF02C08BE2E8
S1135B1001C080E207FD8DE2B70190E00E945A3097
S1135B20C11638F4B70180E390E00E945A30115056
S1135B30F7CFCA94F301EC0DF11D8081B70190E019
S1135B400E945A30C110F5CF15C0F4E0F51560F588
S1135B5084E0581A93FE1FC0011127C02C8523FF2F
S1135B602AC002E412E0392D3071932EF801849199
S1135B70811124C0552009F4E4CCB70180E290E0FF
S1135B800E945A305A94F6CFF7018681978126C035
S1135B908FEF9FEF23C0B70180E290E00E945A305C
S1135BA05A945110F8CFD8CF512CB701802F90E0E0
S1135BB00E945A30D3CF06E412E0D5CF9110805220
S1135BC0B70190E00E945A300F5F1F4FCFCF23E000
S1135BD0251510F483E0BDCF512CC0CF6096CDBF06
S1135BE0DEBFDF91CF911F910F91FF90EF90DF9077
S1135BF0CF90BF90AF909F908F907F906F905F9069
S1135C004F903F902F900895AA1BBB1B51E107C0F2
S1135C10AA1FBB1FA617B70710F0A61BB70B881F38
S1135C20991F5A95A9F780959095BC01CD010895C7
S1135C3097FB072E16F4009407D077FD09D00E9435
S1135C40042E07FC05D03EF4909581959F4F08954E
S1135C50709561957F4F0895A29FB001B39FC001D5
S1135C60A39F700D811D1124911DB29F700D811D84
S1135C701124911D08950F931F93CF93DF938230C6
S1135C80910510F482E090E0E091CA26F091CB26D1
S1135C9020E030E0A0E0B0E0309719F1408151817C
S1135CA00281138148175907C8F08417950769F4CE
S1135CB0109731F012960C93129713961C9327C0E9
S1135CC00093CA261093CB2622C02115310519F062
S1135CD04217530718F49A01BD01EF01DF01F801DF
S1135CE0DBCF21153105F9F0281B390B24303105A0
