S01400004C696E65626F7446696E616C2E7372656359
S11300000C9463030C9484030C947F070C940608EB
S11300100C9484030C9484030C9484030C94840340
S11300200C9484030C9484030C9484030C94840330
S11300300C9484030C9484030C94951E0C948403F4
S11300400C94091F0C9484030C9484030C9484036F
S11300500C9484030C9484030C9484030C94840300
S11300600C9484030C9484030C9484030C948403F0
S11300700C9484030C9484030C9484030C948403E0
S11300800C9484030C9484030C9452050C94840300
S11300900C9484030C9484030C9484030C948403C0
S11300A00C9484030C9484030C9484030C948D08A2
S11300B00C9414090C9484030C94D9100C948403A8
S11300C00C9484030C9484030C9484030C94840390
S11300D00C9484030C9484030C9484030C94840380
S11300E00C9484030C9484030C94F9110C948403ED
S11300F00C94B2110C9484030C9484030C94840324
S11301000C9484030C9484030C9484030C9484034F
S11301100C9484030C9484030C9484030C940404BE
S11301200C9484030C9484030C9484030C9484032F
S11301300C9484030C9484030C9484030C9484031F
S11301400C9484030C9484030C9484030C9484030F
S11301500C9484030C9484030C9484030C948403FF
S11301600C9484030C9484030C9484030C948403EF
S11301700C9484030C9484030C9484030C948403DF
S11301800C9484030C9484030C9484030C948403CF
S11301900C9484030C9484030C9484030C948403BF
S11301A00C9484030C9484030C9484030C948403AF
S11301B00C9484030C9484030C9484030C9484039F
S11301C00C9484030C9484030C9484030C9484038F
S11301D00C9484030C9484030C9484030C9484037F
S11301E00C9484030C9484030C9484030C9484036F
S11301F00C9484030C9484030C9484030C9459117C
S11302000C9443110C94FE330C9474300C945839B0
S11302100C9465400C945F330C94B0400C94C7313B
S11302200C94363F0C9446320C94D4340C94292507
S11302300C94B43F0C949A376E616E00696E66003C
S113024000407A10F35A00A0724E18090010A5D489
S1130250E80000E87648170000E40B54020000CAE6
S11302609A3B000000E1F50500008096980000002C
S113027040420F000000A08601000000102700008B
S11302800000E803000000006400000000000A0011
S1130290000000000100000000002C76D888DC6714
S11302A04F0823DFC1DFAE59E1B1B796E5E3E4536C
S11302B0C63AE651997696E8E6C28426EB898C9B89
S11302C062ED407C6FFCEFBC9C9F40F2BAA56FA529
S11302D0F490055A2AF75C936B6CF9676DC11BFCAB
S11302E0E0E40D47FEF520E6B500D0ED902E0300C6
S11302F0943577050080841E080000204E0A000013
S113030000C80C333333330F986E12831141EF8DD1
S11303102114893BE65516CFFEE6DB18D1844B3811
S11303201BF77C1D901DA4BBE424203284725E2242
S11303308100C9F124ECA1E53D274E414E494E49C7
S11303405459494E46CDCCCC3D0AD7233C17B7D19E
S11303503877CC2B329595E6241FB14F0A00002044
S1130360410000C84200401C4620BCBE4CCA1B0EC3
S11303705AAEC59D74617578707772207374617418
S1130380653A277374617465273D313A2074757238
S11303906E206F6E2061757820706F776572206EA5
S11303A065742C20277374617465273D303A20747A
S11303B075726E206F66662061757820706F776540
S11303C072206E65740D0A00676574616463203A77
S11303D072657475726E7320416E616C6F67206311
S11303E068616E6E656C7320696E20666F726D61F4
S11303F07420276C6566745F6C696E655F73656EE7
S1130400736F72206D69645F6C696E655F73656E8E
S1130410736F722072696768745F6C696E655F736D
S1130420656E736F7220706F74656E74696F6D653D
S11304307465720D0A00676574677972203A726593
S11304407475726E73206779726F73636F70652051
S1130450696E666F20696E20666F726D6174202705
S11304607961777261746520286465672F73292028
S113047079617728646567290D0A00676574726776
S113048062203A72657475726E7320524742206C12
S1130490696768742073656E736F722076616C751A
S11304A065730D0A00676574656E63203A67657449
S11304B0206D6F746F7220656E636F646572207651
S11304C0616C7565730D0A007365746D6F74206CCF
S11304D06566746D6F746F725F70776D2072696793
S11304E068746D6F746F725F70776D203A646972AF
S11304F06563746C7920636F6E74726F6C206D6FBA
S1130500746F722070776D207369676E616C2E2032
S113051050776D20697320696E20612072616E6767
S113052065206F66202D3430393520746F203430C7
S113053039350D0A007365746C65642065666665FB
S11305406374203A73657420524742206C656420BA
S11305506566666563742028736565205247425456
S113056061736B2E68290D0A0064727673656720C7
S11305707370656564203A666F6C6C6F77206C6984
S11305806E65207365676D656E7420756E74696C35
S113059020656E6420617420612073706565642039
S11305A06F662027737065656427206D6D2F730D4A
S11305B00A00726F7463747220616E676C652073D5
S11305C070656564203A726F746174652027616E8A
S11305D0676C652720646567726565732061726F57
S11305E0756E642063656E746572206F6620726F29
S11305F0626F742061742061207370656564206F7C
S1130600662027737065656427206D6D2F730D0A4E
S1130610006472767374722064697374616E6365C6
S1130620207370656564203A44726976652073743A
S1130630726169676874206F7665722027646973D4
S113064074616E636527206D6D2061742061207371
S113065070656564206F6620277370656564272064
S11306606D6D2F730D0A006D656D6D6170203A73A9
S1130670686F77206D656D6F7279206D61700D0AFA
S11306800074736B6C7374203A6C697374204672D3
S1130690656552544F53207461736B730D0A00687F
S11306A0656C70203A746869732068656C7020709A
S11306B06167650D0A00436F6D6D616E64206C693E
S11306C073743A0D0A0011241FBECFEFCDBFDFE9CA
S11306D0DEBF00E00CBF18E2A0E0B0E2EAE2F2EA1A
S11306E000E00BBF02C007900D92A037B107D9F705
S11306F02DE2A0E7B8E201C01D92A53EB207E1F7E2
S11307000E9452300C9413510C940000E0E0F2E08B
S113071081E0808396E0918392E0928393E09483D6
S113072082A343E060E00E947A208093BF2D9093DF
S1130730C02D43E060E081E00E947A208093BD2DCB
S11307409093BE2D20E040E050E060E070E08091A6
S1130750BF2D9091C02D0C94BE20CF93DF93C82F52
S1130760D62F6FEF7FEF8091BF2D9091C02D0E9407
S11307701223C03128F080E197E2DF91CF910895F0
S1130780CC0FCC0FCC0FC0932102DF3FA1F1D430AA
S113079068F582E080932002809101028061809359
S11307A0010280912102D82BD09321028091200252
S11307B08068809320026FEF7FEF8091BD2D909130
S11307C0BE2D0E941223C0912402D091250220E064
S11307D040E050E060E070E08091BF2D9091C02D2A
S11307E00E94BE20CE01DF91CF910895D450D43021
S11307F010F68FE1CFCF81E0809320028091010237
S11308008F7E80930102D2CF1F920F920FB60F9268
S113081011240BB60F922F933F934F935F936F93D3
S11308207F938F939F93AF93BF93EF93FF93CF9354
S1130830DF931F92CDB7DEB71982BE016F5F7F4F82
S11308408091BD2D9091BE2D0E940222898181113B
S11308500E94711E0F90DF91CF91FF91EF91BF9194
S1130860AF919F918F917F916F915F914F913F9144
S11308702F910F900BBE0F900FBE0F901F901895E5
S11308800F93CF93DF931F921F92CDB7DEB780E80B
S1130890898381E08A8342E0BE016F5F7F4F89E3F1
S11308A00E94631082E9898301E09E012F5F3F4F1C
S11308B041E0B90189E30E94D40F89818B3A61F048
S11308C01F928F938EED90E29F938F930E94624EBE
S11308D00F900F900F900F9081E889838BED8A839E
S11308E042E0BE016F5F7F4F89E30E9463108FE88F
S11308F0898383E08A8342E0BE016F5F7F4F89E38F
S11309000E9463100F900F90DF91CF910F91089583
S11309108F929F92AF92BF92CF92DF92EF92FF920B
S11309200F931F93CF93DF93CDB7DEB72997CDBF36
S1130930DEBF4C015B016A01790180E8898383E0B1
S11309408A8342E0BE016F5F7F4F89E30E94631098
S113095013E903C0898180FD15C0198301E09E015C
S11309602F5F3F4F41E0B90189E30E94D40F811109
S1130970F1CF63E470E083E091E20E94203089814A
S113098080FFEBCF84E9898308E09E012F5F3F4F0E
S113099041E0B90189E30E94D40F882381F18114D5
S11309A0910429F089819A81F40180839183A114AF
S11309B0B10429F08B819C81F50180839183C1145A
S11309C0D10429F08D819E81F60180839183E11405
S11309D0F10429F08F819885F7018083918329960A
S11309E0CDBFDEBFDF91CF911F910F91FF90EF90AC
S11309F0DF90CF90BF90AF909F908F9008956AE45E
S1130A0070E083E091E20E942030C9CFE0E2F6E09A
S1130A1098EF928389E5838B848B858B868B878B78
S1130A20928781E0818740E061E08AE00E947A2039
S1130A30809376289093772808958091280683FFE1
S1130A4012C080E19091280694FD88609091280658
S1130A5095FD84609091280696FD82609091280609
S1130A6097FD03C0089580E0EDCF81600895CF9392
S1130A70DF931F92CDB7DEB7AC01BE016F5F7F4F2E
S1130A8080917628909177280E945522813029F010
S1130A9080E00F90DF91CF91089589810F90DF91CD
S1130AA0CF9108951F920F920FB60F9211240BB697
S1130AB00F92CF92DF92EF92FF920F931F932F9397
S1130AC03F934F935F936F937F938F939F93AF93D2
S1130AD0BF93EF93FF93CF93DF931F921F92CDB7F2
S1130AE0DEB719828091200890912108C090CF2D03
S1130AF0D090D02DE090D12DF090D22DC80ED91EDB
S1130B00E11CF11C0E941D058A83409172285091BA
S1130B107328609174287091752897018601041BCD
S1130B20150B260B370BB901A8014130584A614611
S1130B30710510F0811121C0898181110E94711EFB
S1130B400F900F90DF91CF91FF91EF91BF91AF91F3
S1130B509F918F917F916F915F914F913F912F91D1
S1130B601F910F91FF90EF90DF90CF900F900BBEED
S1130B700F900FBE0F901F90189520E0AE014F5FAD
S1130B805F4FBE016E5F7F4F8091762890917728EA
S1130B900E94A721C0927228D0927328E0927428F0
S1130BA0F0927528C9CFDC0110927B2810927C2822
S1130BB09C919923B1F0FD01319680E49093A00AB1
S1130BC09091A10A96FFFCCF8093A10A9F012A1B52
S1130BD03B0B91919111F2CF20937B2830937C2889
S1130BE008950895FC0110927B2810927C2890812E
S1130BF09923E1F0319620E030E080E426173707AE
S1130C001CF06115710569F49093A00A9091A10AF2
S1130C1096FFFCCF8093A10A2F5F3F4F91919111D2
S1130C20EDCF20937B2830937C2808950895CF92AC
S1130C30DF92EF92FF920F931F93CF93DF937C0188
S1130C4080E197E28093792890937A28109278280B
S1130C50C5E0D0E0C12CE0E1F7E2A0E4DA2E0AE03E
S1130C6010E0C701BF010E940B49AB019B01ADEC31
S1130C70BCEC0E94554996958795969587959695CF
S1130C8087959C01220F331F880F991F880F991F86
S1130C90880F991F820F931F9A01281B390BC901D2
S1130CA0009711F4CC2059F0805D8093A00A8091C4
S1130CB0A10A86FFFCCFD092A10ACC24C394CF0111
S1130CC0B8010E941F49FB01219759F6C092782868
S1130CD06093792870937A28DF91CF911F910F91B7
S1130CE0FF90EF90DF90CF900895E0E2F6E087E088
S1130CF0818380E4808B818B828BE0E0F6E090E856
S1130D009183878B0895E0E2F6E09481282F277081
S1130D10922B9483E0E0F6E0948188708295807F42
S1130D20892B84830895E0E2F6E02481982F97705C
S1130D30909592239483E0E0F6E094818870829504
S1130D40807F8095892384830895E0EAF6E08FE12B
S1130D50818380E4848B20E12583E0E0FBE091E063
S1130D60908393EF918340E050E146A357A3E0E4DE
S1130D70F6E090EC9283868B878B828790E893874A
S1130D8095E09187E0E8F6E030E33283848B858B4D
S1130D90228780E28387918740E065E084E10E94B6
S1130DA07A208093C52D9093C62D089520E1009755
S1130DB069F56115710509F457C02093A6068130C1
S1130DC020EF92070CF457C0919581959109809377
S1130DD0280B9093290B10922A0B10922B0B7195D0
S1130DE0619571091616170644F1613020EF7207F8
S1130DF00CF444C071956195710960932C0B709348
S1130E002D0B10922E0B10922F0B08952093A606F3
S1130E1018161906A4F61092280B1092290B8115A6
S1130E2020E19207F4F480932A0B90932B0B719595
S1130E306195710916161706C4F610922C0B1092C0
S1130E402D0B611580E178072CF460932E0B7093C1
S1130E502F0B08956FEF7FE060932E0B70932F0B91
S1130E6008958FEF9FE0DFCF2093A506813020EF18
S1130E7092070CF0A9CF81E090EFA6CF61E070EF6C
S1130E80B9CF0FB6F8940F924091C12D5091C22D55
S1130E902091C32D3091C42D0F900FBEBA01C9010A
S1130EA00895CF93DF93CDB7DEB72A97CDBFDEBFCA
S1130EB01E821F82188619861A8640E050E0BE0101
S1130EC06A5F7F4F8091C52D9091C62D0E94552257
S1130ED085E0FE013696DE01119601900D928A9509
S1130EE0E1F729813A814B815C816D8170E080E07A
S1130EF090E02A96CDBFDEBFDF91CF9108951F9277
S1130F000F920FB60F9211240BB60F921F932F93CB
S1130F103F934F935F936F937F938F939F93AF937D
S1130F20BF93EF93FF93CF93DF9300D000D0CDB75F
S1130F30DEB71E8220912008309121088091CF2DA8
S1130F409091D02DA091D12DB091D22D820F931FCD
S1130F50A11DB11D89839A83AB83BC83809148060C
S1130F60182F107886FF37C081E08D8320E0AE0112
S1130F704A5F5F4FBE016F5F7F4F8091C52D909197
S1130F80C62D0E94A7211123B9F18091C12D909102
S1130F90C22D01968093C12D9093C22D8E81811113
S1130FA00E94711E2696CDBFDEBFDF91CF91FF91C7
S1130FB0EF91BF91AF919F918F917F916F915F91CD
S1130FC04F913F912F911F910F900BBE0F900FBE29
S1130FD00F901F90189585E08D8320E0AE014A5F45
S1130FE05F4FBE016F5F7F4F8091C52D9091C62DDD
S1130FF00E94A721112349F28091C12D9091C22D05
S113100001978093C12D9093C22DC8CF1F920F9248
S11310100FB60F9211240BB60F921F932F933F9389
S11310204F935F936F937F938F939F93AF93BF93EC
S1131030EF93FF93CF93DF9300D000D0CDB7DEB70B
S11310401E8220912008309121088091CF2D90910B
S1131050D02DA091D12DB091D22D820F931FA11D1F
S1131060B11D89839A83AB83BC8380914806182F72
S1131070107487FF37C082E08D8320E0AE014A5FA1
S11310805F4FBE016F5F7F4F8091C52D9091C62D3C
S11310900E94A7211123B9F18091C12D9091C22DF5
S11310A001978093C12D9093C22D8E8181110E944E
S11310B0711E2696CDBFDEBFDF91CF91FF91EF91D8
S11310C0BF91AF919F918F917F916F915F914F915C
S11310D03F912F911F910F900BBE0F900FBE0F9059
S11310E01F90189586E08D8320E0AE014A5F5F4F24
S11310F0BE016F5F7F4F8091C52D9091C62D0E94D8
S1131100A721112349F28091C12D9091C22D0196FE
S11311108093C12D9093C22DC8CF1F920F920FB60A
S11311200F9211240BB60F921F932F933F934F935B
S11311305F936F937F938F939F93AF93BF93EF933B
S1131140FF93CF93DF9300D000D0CDB7DEB71E82DC
S113115020912008309121088091CF2D9091D02D9D
S1131160A091D12DB091D22D820F931FA11DB11D3D
S113117089839A83AB83BC8380918806182F10726D
S113118084FF37C083E08D8320E0AE014A5F5F4F68
S1131190BE016F5F7F4F8091C52D9091C62D0E9437
S11311A0A7211123B9F18091C32D9091C42D0196EB
S11311B08093C32D9093C42D8E8181110E94711E42
S11311C02696CDBFDEBFDF91CF91FF91EF91BF9106
S11311D0AF919F918F917F916F915F914F913F91CB
S11311E02F911F910F900BBE0F900FBE0F901F9069
S11311F0189587E08D8320E0AE014A5F5F4FBE0102
S11312006F5F7F4F8091C52D9091C62D0E94A721BD
S1131210112349F28091C32D9091C42D019780939D
S1131220C32D9093C42DC8CF1F920F920FB60F9267
S113123011240BB60F921F932F933F934F935F93F9
S11312406F937F938F939F93AF93BF93EF93FF938A
S1131250CF93DF9300D000D0CDB7DEB71E822091AC
S11312602008309121088091CF2D9091D02DA0910C
S1131270D12DB091D22D820F931FA11DB11D898351
S11312809A83AB83BC8380918806182F107284FFE5
S11312901CC084E08D8320E0AE014A5F5F4FBE0135
S11312A06F5F7F4F8091C52D9091C62D0E94A7211D
S11312B0112309F447C08091C32D9091C42D019747
S11312C08093C32D9093C42D1AC088E08D8320E0B1
S11312D0AE014A5F5F4FBE016F5F7F4F8091C52DA6
S11312E09091C62D0E94A7218091C32D9091C42D69
S11312F0111122C001978093C32D9093C42D8E8128
S113130081110E94711E2696CDBFDEBFDF91CF9161
S1131310FF91EF91BF91AF919F918F917F916F91C9
S11313205F914F913F912F911F910F900BBE0F90A2
S11313300FBE0F901F90189501968093C32D909324
S1131340C42DDDCF8091C32D9091C42D019680933F
S1131350C32D9093C42DD3CF0FB6F8940F9210924F
S1131360C12D1092C22D1092C32D1092C42D0F9036
S11313700FBE08950F931F93CF93DF931F921F9275
S1131380CDB7DEB785E7898301E09E012F5F3F4F2C
S113139041E0B90188E60E94D40F8823D9F08981FD
S11313A0883619F11F9298E69F931F928F9384E3D6
S11313B091E29F938F930E94624E0F900F900F9033
S11313C00F900F900F900F900F90DF91CF911F917E
S11313D00F9108958FE191E20E949E4E0F900F901D
S11313E0DF91CF911F910F91089589E189831A822A
S11313F042E0BE016F5F7F4F88E60E9463108AE17E
S1131400898311E01A8342E0BE016F5F7F4F88E653
S11314100E9463108BE189831A8242E0BE016F5FF0
S11314207F4F88E60E94631087E3898380E18A8383
S113143042E0BE016F5F7F4F88E60E94631088E33D
S113144089831A8342E0BE016F5F7F4F88E60E9462
S113145063108BE689831A8342E0BE016F5F7F4F7E
S113146088E60E9463100F900F90DF91CF911F9137
S11314700F910895AF92BF92CF92DF92EF92FF92B5
S11314800F93CF93DF93CDB7DEB72C97CDBFDEBFDD
S11314905C016B017A0183E4898306E09E012F5F7E
S11314A03F4F41E0B90188E60E94D40F882389F1B7
S11314B08A818B8789818C878C8189878B818A87B4
S11314C08E818F838D818887A114B10429F08B8547
S11314D09C85F50180839183C114D10429F0898509
S11314E09A85F60180839183E114F10429F08F81B8
S11314F09885F701808391832C96CDBFDEBFDF9161
S1131500CF910F91FF90EF90DF90CF90BF90AF906D
S1131510089565E570E08BE691E20E942030C8CF23
S11315201F93CF93DF931F921F92CDB7DEB710E8BE
S1131530198382E28A8342E0BE016F5F7F4F8CE3AE
S11315400E94631019831A8242E0BE016F5F7F4FCD
S11315508CE30E946310198387E08A8342E0BE0112
S11315606F5F7F4F8CE30E9463100F900F90DF91A9
S1131570CF911F9108951F93CF93DF931F921F92D2
S1131580CDB7DEB710E8198381E28A8342E0BE0159
S11315906F5F7F4F8CE30E94631019831A8242E0CD
S11315A0BE016F5F7F4F8CE30E94631019838FE746
S11315B08A8342E0BE016F5F7F4F8CE30E94631019
S11315C00F900F90DF91CF911F91089590917E28F5
S11315D091111CC087FD19C06034B8F4962F9695FC
S11315E096959695E82FF0E020E8929FE00DF11D86
S11315F01124E158F74D677081E090E001C0880F35
S11316006A95EAF79081892B80830895913021F1BE
S11316109230D9F787FDF9CF6034B8F770E0EFE383
S1131620F0E0E61BF70BF595E795F595E795F5954D
S1131630E795F695FE2FEE27F795E7952FE730E02F
S1131640A901481B5109E40FF51FE158F74D6095B6
S1131650709567707727D0CF8034B8F667FDD5CF03
S1131660982F969596959695AFE7B0E0A61BB1098D
S113167040E8949FA00DB11D1124A158B74DE82F47
S1131680E77081E090E001C0880FEA95EAF79C9149
S1131690892B8C93089590917E2891111DC087FD0C
S11316A01AC06034C0F4962F969596959695E82FB7
S11316B0F0E020E8929FE00DF11D1124E158F74D70
S11316C0677081E090E001C0880F6A95EAF7809521
S11316D09081892380830895913021F19230D9F744
S11316E087FDF9CF6034B8F770E0EFE3F0E0E61B74
S11316F0F70BF595E795F595E795F595E795F69547
S1131700FE2FEE27F795E7952FE730E0A901481B58
S11317105109E40FF51FE158F74D60957095677016
S11317207727CFCF8034B8F667FDD5CF982F96951D
S113173096959695AFE7B0E0A61BB10940E8949F53
S1131740A00DB11D1124A158B74DE82FE77081E019
S113175090E001C0880FEA95EAF780959C9189236F
S11317608C9308956F927F928F929F92AF92BF92C3
S1131770CF92DF92EF92FF920F931F93CF93DF9359
S113178090917E28911128C02223D1F126E0829FD6
S1131790C001112420E8629F800D911D112450E0A6
S11317A040525109FA01EE0FFF1FEE0FFF1FE40F25
S11317B0F51FEA57FE4DDC01A158B74DAC014B5F54
S11317C05F4F019621912D9384179507D1F7FC0162
S11317D0E158F74D108205C09130E9F0923009F4D8
S11317E077C0DF91CF911F910F91FF90EF90DF9021
S11317F0CF90BF90AF909F908F907F906F900895FF
S113180026E0829FC00111248B3791051CF26F5F83
S113181080E090E0BFCF882E880C880D882E880C3D
S1131820662E660C660C660CE62CF12C87E0E80E3E
S1131830F11CA82CB12C24E0A20EB11C762C50E093
S113184040525109CC24C394D12CEA01CC0FDD1FA2
S1131850CC0FDD1F4C0F5D1FEA01CA57DE4D872DEB
S11318608619860102C0000F111F8A95E2F7982C91
S11318700AC080917D28811126C09394892D90E01F
S1131880A816B906CCF0892D8819FE01E80FF11DC0
S1131890808190E080239123892B59F780917D28C2
S11318A0882359F3672D892D0E944B0B9394892D1E
S11318B090E0A816B9063CF77394872D90E0E816DB
S11318C0F9066CF68ECF672D892D0E94E60AD5CFD6
S11318D0882E880C880D882E880C662E660C660C63
S11318E0660CE62CF12C87E0E80EF11CA82CB12C38
S11318F024E0A20EB11C762C50E040525109CC24B5
S1131900C394D12CEA01CC0FDD1FCC0FDD1F4C0F8B
S11319105D1FEA01CA57DE4D872D8619860102C074
S1131920000F111F8A95E2F7982C0AC080917D2838
S1131930811126C09394892D90E0A816B906CCF0A5
S1131940892D8819FE01E80FF11D808190E0802324
S11319509123892B59F780917D28882359F3672D8A
S1131960892D0E944B0B9394892D90E0A816B906FB
S11319703CF77394872D90E0E816F9066CF631CFA6
S1131980672D892D0E94E60AD5CFBF92CF92DF92B0
S1131990EF92FF920F931F93CF93DF93CDB7DEB7F0
S11319A06197CDBFDEBF80917D28882349F10E94D5
S11319B0BB0A80917D28811130C08FE7C82E88E250
S11319C0D82E9FE7E92E9CE2F92E8E010E5E1F4F62
S11319D020E4B22EB982FE013296D6018D91819314
S11319E0E017F107D9F741E1BE016F5F7F4F8CE348
S11319F00E94631080E1C80ED11CEC14FD0451F761
S1131A006196CDBFDEBFDF91CF911F910F91FF9003
S1131A10EF90DF90CF90BF9008950E94900ACDCFB1
S1131A2090917D28992331F0813820F4613410F4A9
S1131A300C94B20B0895FF920F931F93CF93DF93EF
S1131A40F82E042F80917D28882339F180917E28F7
S1131A50982F9D7F41F527E02F15F8F0FB01408179
S1131A604423D9F0EB01219610E00CC026E0129F2C
S1131A70C00111248B37910564F0F39411E049916E
S1131A80442359F0113818F4F0E4FF1568F50023E5
S1131A9069F31F5F49914111F5CFDF91CF911F91F8
S1131AA00F91FF9008958130C1F78FE08F15A8F34F
S1131AB0FB014081442389F3EB01219610E00BC024
S1131AC026E0129FC0011124CB9764F0F39411E037
S1131AD04991442311F3113818F4F0E4FF1550F43C
S1131AE0002371F31F5FF4CF202F6F2D812F0E94ED
S1131AF0B20BCDCF202F6F2D812F0E94B20BF0CFD0
S1131B0080E094E0EFE7F8E2DF019C011D922150B0
S1131B103040E1F708950F931F93CF93DF9300D0E4
S1131B201F92CDB7DEB710927D2880937E2810E8EF
S1131B3019838EEA8A8342E0BE016F5F7F4F8CE394
S1131B400E946310882309F4C3C0198385ED8A8336
S1131B501B831C8344E0BE016F5F7F4F8CE30E94B4
S1131B606310198388EA8A831B838FE38C8344E0A0
S1131B70BE016F5F7F4F8CE30E946310198383ED76
S1131B808A831B831C8244E0BE016F5F7F4F8CE31A
S1131B900E94631019838DE88A831B8384E18C83FC
S1131BA044E0BE016F5F7F4F8CE30E946310198392
S1131BB000E40A8342E0BE016F5F7F4F8CE30E9422
S1131BC06310198386EA8A8342E0BE016F5F7F4F08
S1131BD08CE30E946310198384EA8A8342E0BE0185
S1131BE06F5F7F4F8CE30E946310198381EA8A83BD
S1131BF042E0BE016F5F7F4F8CE30E946310198344
S1131C0088EC8A8342E0BE016F5F7F4F8CE30E94C1
S1131C106310198380E28A8342E0BE016F5F7F4FC5
S1131C208CE30E94631019831A8242E0BE016F5F45
S1131C307F4F8CE30E94631019838AED8A831B8390
S1131C4082E18C8344E0BE016F5F7F4F8CE30E948E
S1131C506310198381E88A831B838FE88C8344E0B3
S1131C60BE016F5F7F4F8CE30E946310198389ED7F
S1131C708A831B8381EF8C8344E0BE016F5F7F4FB7
S1131C808CE30E94631019838BED8A831B830C837E
S1131C9044E0BE016F5F7F4F8CE30E9463101983A1
S1131CA08FEA8A8342E0BE016F5F7F4F8CE30E941C
S1131CB0631080E094E0EFE7F8E2DF019C011D92FD
S1131CC021503040E1F70E94C50C81E080937D28CB
S1131CD02496CDBFDEBFDF91CF911F910F91089560
S1131CE0CF93C82F8091CE2C8E3450F59091CF2C69
S1131CF0911106C0E82FF0E0E058F34D2FEF208358
S1131D00C11110C0E82FF0E0E058F34D20E830E0B6
S1131D10092E02C0359527950A94E2F72095308163
S1131D20232320839F5F983039F41092CF2C8F5F48
S1131D308093CE2CCF9108959093CF2CCF9108957A
S1131D4067E270E08CE593E20E9420309091CF2C02
S1131D508091CE2C91110DC0E82FF0E0E058F34DA6
S1131D602FEF20838E3460F281E08093CF2CCF91CB
S1131D7008958E3428F29F5F9830B9F2DDCF80E069
S1131D800E94700E81E00E94700E81E00E94700E2D
S1131D9081E00E94700E81E00C94700E80E00E943D
S1131DA0700E80E00E94700E80E00E94700E80E051
S1131DB00E94700E81E00C94700ECF93DF93D82FA5
S1131DC0C8E005C00E94BF0EDD0FC15039F0D7FF37
S1131DD0F9CF0E94CE0EDD0FC150C9F7DF91CF912C
S1131DE00895E0E0F6E080E48183868308953F92DD
S1131DF04F925F926F927F928F929F92AF92BF9217
S1131E00CF92DF92EF92FF920F931F93CF93DF93C2
S1131E10362E472E582ED22E132FD42F88E080939F
S1131E20610690E4909373061092A3098093A40929
S1131E3080EC8093A50985E08093A60980E8882E2C
S1131E408CE2982E9EEC692E9CE2792EF4018FEFA1
S1131E5081936E167F06E1F71092CE2CC5E881E0DF
S1131E600E94700EC150D9F7832D0E94DD0E842D7F
S1131E700E94DD0E852D0E94DD0E8D2D0E94DD0E4B
S1131E80812F0E94DD0E8D2F0E94DD0E8E2D0E946B
S1131E90DD0E8F2D0E94DD0E802F0E94DD0E8A2D17
S1131EA00E94DD0E8B2D0E94DD0E8C2D0E94DD0E16
S1131EB00FB6F8940F9210927F2C80E4809305065D
S1131EC020E4F40191914F018091A10985FFFCCF99
S1131ED02093A1099093A0096814790491F78FEED7
S1131EE090E00197F1F700C0000080E480930606BB
S1131EF00F900FBEDF91CF911F910F91FF90EF9044
S1131F00DF90CF90BF90AF909F908F907F906F9015
S1131F105F904F903F90089580E28093410608952A
S1131F20811104C080E280934606089580E2809384
S1131F30450608958BEC8093520088E0809350000E
S1131F408091510083FFFCCF82EC8093550088E19F
S1131F50809350008091510084FFFCCF88ED84BFB2
S1131F6084E08093400080E008951092D52CE0E84E
S1131F70F6E088E1808B818BE0EAF4E088E78183F6
S1131F8083E2858381E084830E948D218093D22C17
S1131F909093D32C43E060E081E00E947A20809308
S1131FA0D02C9093D12C0895CF92DF92EF92FF9290
S1131FB00F931F93CF93DF93D82F6B01142F7901C5
S1131FC06FEF7FEF8091D22C9091D32C0E9412233B
S1131FD0C092DC2CD092DD2CE092DA2CF092DB2C37
S1131FE0C091D52CC11155C081E08093D52C10929D
S1131FF0D42C8D2F880F8093DE2C1093D92C009332
S1132000D82C1092D72C1092D62C8091D92C8823BE
S1132010B1F18091DE2C8E7F8093A6046FEF7FEF69
S11320208091D02C9091D12C0E9412238091D42C99
S11320308130E1F11F928F931F92DF938BE793E23C
S11320409F938F930E94624E20E040E050E060E056
S113205070E08091D22C9091D32C0E94BE200F90DE
S11320600F900F900F900F900F908C2FDF91CF91C6
S11320701F910F91FF90EF90DF90CF900895809182
S1132080D82C882359F28091DE2C81608093A60499
S1132090C5CF20E040E050E060E070E08091D22CB9
S11320A09091D32C0E94BE20C0E0DFCF20E040E01E
S11320B050E060E070E08091D22C9091D32C0E948B
S11320C0BE20C1E0D2CF0F9300E020E030E00E94B8
S11320D0D40F0F9108959091D92C2091D82C8091F0
S11320E0A40484FD22C08091D72C891768F08091C4
S11320F0D62C821718F183E08093A30481E08093A7
S1132100D42C1092D52C08958091D72CE091DC2CFE
S1132110F091DD2CE80FF11D80818093A70480915C
S1132120D72C8F5F8093D72C089583E08093A304EA
S113213085E08093D42C1092D52C08958091DE2CC8
S113214081608093A60408958091D62C8032F8F49F
S11321508091A7049091D62CE091DA2CF091DB2C9D
S1132160E90FF11D80838091D62C8F5F8093D62C4C
S11321709091D82C8091D62C8917B8F087E0809361
S1132180A30481E08093D42C1092D52C089583E08D
S11321908093A30482E08093D42C1092D52C909148
S11321A0D82C8091D62C891748F782E08093A30419
S11321B008951F920F920FB60F9211240BB60F922F
S11321C02F933F934F935F936F937F938F939F933B
S11321D0AF93BF93EF93FF93CF93DF931F92CDB74A
S11321E0DEB719828091A404982F9C70E1F486FDD7
S11321F044C087FD45C086E08093D42C1092D52C32
S11322008091D52C81111FC0BE016F5F7F4F8091DB
S1132210D02C9091D12C0E9402228981882399F09C
S11322200E94711E10C08091A40482FD22C093E01C
S11322309093D42C88608093A4041092D52C809120
S1132240D52C882309F30F90DF91CF91FF91EF9163
S1132250BF91AF919F918F917F916F915F914F91BA
S11322603F912F910F900BBE0F900FBE0F901F90B8
S1132270189594E09093D42CDDCF0E946B10DFCF9F
S11322800E94A410DCCFCF93DF931F92CDB7DEB7AB
S11322904FEF5FEFBE016F5F7F4F8091C72D90912D
S11322A0C82D0E945522898190E00F90DF91CF9133
S11322B00895CF93DF931F921F92CDB7DEB78A8321
S11322C020E04FEF5FEFBE016E5F7F4F8091C92D1D
S11322D09091CA2D0E94BE208091A10A85FF0EC054
S11322E040E050E0BE016F5F7F4F8091C92D909117
S11322F0CA2D0E94552289818093A00A80E090E033
S11323000F900F90DF91CF91089540E061E080E855
S11323100E947A208093C92D9093CA2D40E061E0F9
S113232080E80E947A208093C72D9093C82DE0E81E
S1132330F6E088E0818384E08283E0EAFAE084E1E5
S1132340838388E1848383E0858385EE86838CEBB5
S11323508783EDEDFDE286E090E2828393838083C0
S1132360918308951F920F920FB60F9211240BB60A
S11323700F922F933F934F935F936F937F938F931A
S11323809F93AF93BF93EF93FF93CF93DF931F92EA
S11323901F92CDB7DEB71982AE014F5F5F4FBE010A
S11323A06E5F7F4F8091C92D9091CA2D0E94C924E0
S11323B08130D9F0898181110E94711E0F900F9094
S11323C0DF91CF91FF91EF91BF91AF919F918F9149
S11323D07F916F915F914F913F912F910F900BBE21
S11323E00F900FBE0F901F9018958A818093A00ABA
S11323F0E1CF1F920F920FB60F9211240BB60F92DA
S11324002F933F934F935F936F937F938F939F93F8
S1132410AF93BF93EF93FF93CF93DF931F921F92DA
S1132420CDB7DEB719828091A00A8A8320E0AE017D
S11324304F5F5F4FBE016E5F7F4F8091C72D9091BC
S1132440C82D0E94A721898181110E94711E0F90BD
S11324500F90DF91CF91FF91EF91BF91AF919F9139
S11324608F917F916F915F914F913F912F910F9039
S11324700BBE0F900FBE0F901F901895EF92FF9216
S11324800F93CF93DF9300D01F92CDB7DEB77C01BB
S113249081E0898301E09E012F5F3F4F41E0B90154
S11324A089E20E94D40F898184FB992790F9F7016E
S11324B0908383FB992790F9928382FB992790F963
S11324C0918386FB992790F99383881F8827881F17
S11324D084832496CDBFDEBFDF91CF910F91FF900F
S11324E0EF9008950F931F93CF93DF9300D01F9223
S11324F0CDB7DEB7198281608A8342E0BE016F5F87
S11325007F4F89E20E9463102091200830912108B6
S11325108091CF2D9091D02DA091D12DB091D22D1D
S1132520820F931FA11DB11D8093DF2C9093E02C8B
S1132530A093E12CB093E22C13E1198301E09E01F6
S11325402F5F3F4F41E0B90189E20E94D40F898196
S1132550877099F38BE0898381E08A8342E0BE012E
S11325606F5F7F4F89E20E94631019821A8242E0F2
S1132570BE016F5F7F4F89E20E94631081E0249661
S1132580CDBFDEBFDF91CF911F910F910895EF92E0
S1132590FF920F93CF93DF9300D01F92CDB7DEB796
S11325A07B01898302E09E012F5F3F4F41E0B90127
S11325B089E20E94D40FE114F10461F0298130E032
S11325C09A81985F02C0220F331F9A95E2F7F701B0
S11325D0208331832496CDBFDEBFDF91CF910F914D
S11325E0FF90EF9008958F929F92AF92BF92CF92F7
S11325F0DF92EF92FF920F931F93CF93DF9300D05C
S113260000D0CDB7DEB76C017B0180E5898301E0A2
S11326109E012F5F3F4F41E0B90189E20E94D40F30
S113262089818F5F880F90E0F7018083918386E42E
S113263089839E012F5F3F4F41E0B90189E20E94E7
S1132640D40F098110E00F5F1F4FF7010483158336
S1132650A081B0E020E03FE24AE350E00E946449F8
S11326606C507E4F8F4F9F4F38EE832E33E0932E66
S1132670A12CB12CA50194010E943349D8010E94D8
S11326806F496C507E4F8F4F9F4FA50194010E945C
S11326903349F7012287338744875587BE016B5F2F
S11326A07F4F81E50E94C7128D819E818C01112785
S11326B002C0000F111F9A95E2F70F5F1F4FF70139
S11326C006831783A081B0E020E03FE24AE350E0B4
S11326D00E9464496C507E4F8F4F9F4FA501940117
S11326E00E943349D8010E9464496C507E4F8F4F39
S11326F09F4FA50194010E943349F701268737872C
S1132700408B518B80E7898301E09E012F5F3F4F0F
S113271041E0B90189E20E94D40F89818F5F880F5B
S113272090E0F70182839383BE016B5F7F4F81E763
S11327300E94C7128D819E818C01112702C0000F57
S1132740111F9A95E2F70F5F1F4FF701008711875A
S1132750F6018081882339F0F70186819781081B6F
S1132760190B00871187F701A281B0E020E03FE256
S11327704AE350E00E9464496C507E4F8F4F9F4F54
S113278028EE822E23E0922EA12CB12CA5019401D7
S11327900E943349D8010E9464496C507E4F8F4F88
S11327A09F4FA50194010E943349F701228B338B7B
S11327B0448B558B2696CDBFDEBFDF91CF911F9101
S11327C00F91FF90EF90DF90CF90BF90AF909F90CC
S11327D08F9008954F925F926F927F928F929F9203
S11327E0AF92BF92CF92DF92EF92FF921F93CF935B
S11327F0DF93CDB7DEB76F97CDBFDEBF6B017C0132
S1132800CE0147960E943E12BE016F5F7F4FCE01FC
S11328104A960E94F3128F89882309F4B0C08B85ED
S11328209C85AD85BE858C57924FAF4FBF4F298D88
S1132830222309F493C04B855C856D857E854E54B7
S11328405D4F6F4F7F4F440F551F661F771F840FD7
S1132850951FA61FB71F1A8D112361F04F85588944
S113286069897A894C565D4F6F4F7F4F840F951F4E
S1132870A61FB71F2B8D222309F49AC02C013D01FA
S113288026E2420E22E0521E611C711CC414D504BF
S1132890E604F70408F478C0AB81B0E020E03FE23E
S11328A04AE350E00E9464494B015C0124EF820E2C
S11328B021E0921EA11CB11CA7019601241935091F
S11328C046095709A8EEB3E00E9464492B013C0174
S11328D0C501B40120ED37E040E050E00E943349E7
S11328E0420E531E641E751EC501B40128EE33E06A
S11328F040E050E00E943349C301B2010E943349D1
S1132900112331F08F819885280F391F411D511DE6
S1132910211531054105510509F44CC0DA01C901FD
S11329200197A109B109AC01BD01442720E030E0C1
S1132930452B462B472B79F0B695A7959795879508
S11329402F5F3F4FAC01BD014427452B462B472B3E
S113295099F7322F2227822B932B2EC0288D2223E6
S113296009F479CF4B855C856D857E854C565D4F2A
S11329706F4F7F4F840F951FA61FB71F6CCF86E341
S11329809BE0A0E0B0E053CF80E06F96CDBFDEBF08
S1132990DF91CF911F91FF90EF90DF90CF90BF9088
S11329A0AF909F908F907F906F905F904F9008951D
S11329B081E0EBCF80E090E021E72C8F9D8F8E8F1C
S11329C043E0BE01645E7F4F89E20E946310C092BF
S11329D0CB2DD092CC2DE092CD2DF092CE2D81E056
S11329E0D4CF2F923F924F925F926F927F928F92A9
S11329F09F92AF92BF92CF92DF92EF92FF920F938A
S1132A001F93CF93DF93CDB7DEB7A197CDBFDEBFC2
S1132A1080EC898301E09E012F5F3F4F41E0B901C3
S1132A2089E20E94D40F9981882309F4EFC59E3E60
S1132A30D9F08BEA93E20E949E4E80E0A196CDBF2E
S1132A40DEBFDF91CF911F910F91FF90EF90DF9048
S1132A50CF90BF90AF909F908F907F906F905F903A
S1132A604F903F902F90089588E889831A8242E01E
S1132A70BE016F5F7F4F89E20E946310E0E8EE2E93
S1132A80E98211E01A8342E0BE016F5F7F4F89E261
S1132A900E946310FF24FA94F9821A8342E0BE0173
S1132AA06F5F7F4F89E20E94631019821A8242E0AD
S1132AB0BE016F5F7F4F89E20E94631081E98983C1
S1132AC001E09E012F5F3F4F41E0B90189E20E947E
S1132AD0D40F89818093E32C19821A8342E0BE01CA
S1132AE06F5F7F4F89E20E946310F9821A8242E08D
S1132AF0BE016F5F7F4F89E20E946310E9821A82F0
S1132B0042E0BE016F5F7F4F89E20E946310F0E6EE
S1132B10DF2ED9829E012F5F3F4F41E0B90189E248
S1132B200E94D40F8981D98282618A8342E0BE01E6
S1132B306F5F7F4F89E20E94631084E489831A8265
S1132B4080E28B8343E0BE016F5F7F4F89E20E9486
S1132B5063101983FA8242E0BE016F5F7F4F89E2FE
S1132B600E946310E9821A8342E0BE016F5F7F4FC7
S1132B7089E20E946310F9821A8342E0BE016F5F0A
S1132B807F4F89E20E94631019821A8242E0BE01DB
S1132B906F5F7F4F89E20E946310F98286E08A8327
S1132BA042E0BE016F5F7F4F89E20E946310A3E899
S1132BB0DA2ED9829E012F5F3F4F41E0B90189E2AD
S1132BC00E94D40F8981D98284608A8342E0BE0145
S1132BD06F5F7F4F89E20E946310F98287E08A83E6
S1132BE042E0BE016F5F7F4F89E20E94631081E87B
S1132BF089831A8342E0BE016F5F7F4F89E20E949E
S1132C006310E9821A8342E0BE016F5F7F4F89E25D
S1132C100E94631084E989838BE68A8342E0BE01C3
S1132C206F5F7F4F89E20E946310D9821A8242E06B
S1132C30BE016F5F7F4F89E20E94631020912008DC
S1132C40309121088091CF2D9091D02DA091D12D3C
S1132C50B091D22D820F931FA11DB11D8093DF2C43
S1132C609093E02CA093E12CB093E22CB3E8FB2EDC
S1132C7013E8F98201E09E012F5F3F4F41E0B90163
S1132C8089E20E94D40F8981882391F31983DD247A
S1132C90D394DA8242E0BE016F5F7F4F89E20E94E3
S1132CA0631082E989839E012F5F3F4F41E0B901A0
S1132CB089E20E94D40FF98081E889831A8242E074
S1132CC0BE016F5F7F4F89E20E946310EE24EA9495
S1132CD0E98286E08A8342E0BE016F5F7F4F89E22A
S1132CE00E94631019839E012F5F3F4F41E0B90199
S1132CF089E20E94D40F898119838B7F8A8342E001
S1132D00BE016F5F7F4F89E20E946310E982DA821D
S1132D1042E0BE016F5F7F4F89E20E946310198217
S1132D20DA8242E0BE016F5F7F4F89E20E94631046
S1132D30E9821A8242E0BE016F5F7F4F89E20E94FE
S1132D40631080E889831A8242E0BE016F5F7F4F7F
S1132D5089E20E94631080EB898306E09E01295E6C
S1132D603F4F41E0BE016F5F7F4F89E20E94D40F65
S1132D70E982DA8242E0BE016F5F7F4F89E20E94FE
S1132D8063108FE489831A8242E0BE016F5F7F4F34
S1132D9089E20E9463108EE489838CE28A8342E094
S1132DA0BE016F5F7F4F89E20E946310E9821A823D
S1132DB042E0BE016F5F7F4F89E20E94631086EBA1
S1132DC0898384EB8A8342E0BE016F5F7F4F89E28F
S1132DD00E946310F7FC20C440E000E050E021E0D2
S1132DE030E07F2D7F7710C05717D1F0808190E0BD
S1132DF0602F677002C0959587956A95E2F780FD0C
S1132E005F5F0F5F0033E1F0802F8695869586958E
S1132E10E7E1F0E0EC0FFD1FE80FF11D041720F7C8
S1132E20802F8770D90102C0AA0FBB1F8A95E2F7D1
S1132E30CD0180959081892380830F5F003321F732
S1132E4080EB898386E0FE017796DE01129601907D
S1132E500D928A95E1F747E0BE016F5F7F4F89E2EB
S1132E600E9463101FEF1983FF24F394FA8242E057
S1132E70BE016F5F7F4F89E20E94631019821A823C
S1132E8042E0BE016F5F7F4F89E20E9463101983A5
S1132E901A8242E0BE016F5F7F4F89E20E94631095
S1132EA039E0B32EB9821A8242E0BE016F5F7F4FD0
S1132EB089E20E94631080E189831A8242E0BE01A4
S1132EC06F5F7F4F89E20E94631081E189831A82D8
S1132ED042E0BE016F5F7F4F89E20E94631084E28B
S1132EE08983FA8242E0BE016F5F7F4F89E20E94CC
S1132EF0631045E2942E99821A8342E0BE016F5F0B
S1132F007F4F89E20E94631085E789831A8242E039
S1132F10BE016F5F7F4F89E20E9463101983FA82BA
S1132F2042E0BE016F5F7F4F89E20E9463108EE42E
S1132F3089838CE28A8342E0BE016F5F7F4F89E21E
S1132F400E94631058E4A52EA9821A8242E0BE01B1
S1132F506F5F7F4F89E20E946310098360E2D62E7F
S1132F60DA8242E0BE016F5F7F4F89E20E94631004
S1132F7019831A8242E0BE016F5F7F4F89E20E948B
S1132F8063100983BA8242E0BE016F5F7F4F89E21A
S1132F900E94631084E589831A8242E0BE016F5F58
S1132FA07F4F89E20E94631071E3572E5982B4E087
S1132FB0BA8342E0BE016F5F7F4F89E20E946310D3
S1132FC0E2E38E2E8982F3E04F2E4A8242E0BE0174
S1132FD06F5F7F4F89E20E946310A0E4EA2EE982CA
S1132FE083E88A8342E0BE016F5F7F4F89E20E94DB
S1132FF06310B6E46B2E69829A8242E0BE016F5F71
S11330007F4F89E20E94631080E689831A8242E03E
S1133010BE016F5F7F4F89E20E94631087E289835C
S11330201A8242E0BE016F5F7F4F89E20E94631003
S113303080E5898386E0282E2A8242E0BE016F5F04
S11330407F4F89E20E94631081E589831A8242E0FE
S1133050BE016F5F7F4F89E20E94631082E589831E
S113306086E98A8342E0BE016F5F7F4F89E20E9456
S1133070631086E5898398E0992E9A8242E0BE0126
S11330806F5F7F4F89E20E94631087E589830A831B
S113309042E0BE016F5F7F4F89E20E94631081E6C8
S11330A089831A8242E0BE016F5F7F4F89E20E94EA
S11330B0631082E689831A8242E0BE016F5F7F4F0C
S11330C089E20E94631084E689831A8242E0BE0189
S11330D06F5F7F4F89E20E94631085E689831A82BD
S11330E042E0BE016F5F7F4F89E20E94631086E673
S11330F0898380EA8A8342E0BE016F5F7F4F89E261
S11331000E9463101983FA8242E0BE016F5F7F4F11
S113311089E20E94631082E289838A8242E0BE01CE
S11331206F5F7F4F89E20E94631027E4822E8982B9
S113313084E18A8342E0BE016F5F7F4F89E20E948F
S1133140631089E489831A8342E0BE016F5F7F4F75
S113315089E20E9463108AE489831A8242E0BE01F4
S11331606F5F7F4F89E20E94631019831A8242E0E5
S1133170BE016F5F7F4F89E20E9463108AE78983F3
S11331802AE02A8342E0BE016F5F7F4F89E20E94FA
S113319063108BE789831A8242E0BE016F5F7F4F21
S11331A089E20E94631088E7898381E28A8342E08E
S11331B0BE016F5F7F4F89E20E9463101983FA8218
S11331C042E0BE016F5F7F4F89E20E94631083E299
S11331D0898334E3332E3A8242E0BE016F5F7F4F2E
S11331E089E20E94631082E489831A8242E0BE016C
S11331F06F5F7F4F89E20E94631044E4C42EC9824A
S11332001A8342E0BE016F5F7F4F89E20E94631020
S113321055E4752E798286E28A8342E0BE016F5FAF
S11332207F4F89E20E946310698265E0662E6A829C
S113323042E0BE016F5F7F4F89E20E946310E98222
S1133240EA8242E0BE016F5F7F4F89E20E94631011
S11332508EE089832A8242E0BE016F5F7F4F89E25C
S11332600E946310D9828AE18A8342E0BE016F5FC3
S11332707F4F89E20E94631083E48983EA8242E0FB
S1133280BE016F5F7F4F89E20E94631019831A8227
S113329042E0BE016F5F7F4F89E20E946310398272
S11332A04A8242E0BE016F5F7F4F89E20E94631051
S11332B085E38983CA8242E0BE016F5F7F4F89E262
S11332C00E9463101983FA8242E0BE016F5F7F4F50
S11332D089E20E946310598284E08A8342E0BE013D
S11332E06F5F7F4F89E20E9463108BE48983BA8207
S11332F042E0BE016F5F7F4F89E20E9463108CE45D
S113330089836A8242E0BE016F5F7F4F89E20E9437
S113331063108DE48983A4E0AA8342E0BE016F5F59
S11333207F4F89E20E94631019831A8242E0BE0132
S11333306F5F7F4F89E20E946310C9821A8242E064
S1133340BE016F5F7F4F89E20E9463107982DA8247
S113335042E0BE016F5F7F4F89E20E946310898261
S11333609A8242E0BE016F5F7F4F89E20E94631040
S1133370A98288E28A8342E0BE016F5F7F4F89E2BF
S11333800E94631087E689831A8242E0BE016F5F60
S11333907F4F89E20E94631080E78983B4E0BA8397
S11333A042E0BE016F5F7F4F89E20E94631081E7B4
S11333B08983FA8242E0BE016F5F7F4F89E20E94F7
S11333C0631082E789838EEF8A8342E0BE016F5FD8
S11333D07F4F89E20E94631086E789831A8242E064
S11333E0BE016F5F7F4F89E20E94631087E7898384
S11333F01A8242E0BE016F5F7F4F89E20E94631030
S11334001983FA8242E0BE016F5F7F4F89E20E9416
S113341063108DE08983FA8242E0BE016F5F7F4FC3
S113342089E20E94631019831A8242E0BE016F5F31
S11334307F4F89E20E94631070E8E72EE982FA82E6
S113344042E0BE016F5F7F4F89E20E946310F98200
S113345088EF8A8342E0BE016F5F7F4F89E20E945A
S113346063101983FA8242E0BE016F5F7F4F89E2E5
S11334700E9463108EE88983FA8242E0BE016F5F86
S11334807F4F89E20E9463101982FA8242E0BE01F2
S11334906F5F7F4F89E20E94631019831A8242E0B2
S11334A0BE016F5F7F4F89E20E946310E9821A8236
S11334B042E0BE016F5F7F4F89E20E9463102AE001
S11334C0298384E08A8342E0BE016F5F7F4F89E2F3
S11334D00E94631014E8198301E09E012F5F3F4F9F
S11334E041E0B90189E20E94D40F898119838F7E5A
S11334F08A8342E0BE016F5F7F4F89E20E946310BE
S11335008BE08983FA8242E0BE016F5F7F4F89E2DC
S11335100E946310CE014D960E943E12BE016F5F61
S11335207F4FCE0180960E94F3128D8D882309F47B
S113353086C08B859C85AD85BE858C57924FAF4FD9
S1133540BF4F2F8D222309F469C04B855C856D859F
S11335507E854E545D4F6F4F7F4F440F551F661F3E
S1133560771F840F951FA61FB71F28A1222361F080
S11335704F85588969897A894C565D4F6F4F7F4FC3
S1133580840F951FA61FB71F29A1222361F04B8921
S11335905C896D897E894A5D5D4F6F4F7F4F840FD3
S11335A0951FA61FB71F8093CB2D9093CC2DA0936E
S11335B0CD2DB093CE2D81E0898388EE8A8342E0BD
S11335C0BE016F5F7F4F89E20E9463106091CB2D33
S11335D07091CC2D8091CD2D9091CE2D6032AEE4A2
S11335E07A078105910508F04AC011E019831A830E
S11335F042E0BE016F5F7F4F89E20E94631080E466
S11336000E947212811120C080E018CA83E993E2FB
S11336100E949E4E80E012CA4CE0DFCB2E8D222306
S113362009F4A3CF4B855C856D857E854C565D4F33
S11336306F4F7F4F840F951FA61FB71F96CF86E34A
S11336409BE0A0E0B0E07DCF198382E08A8342E072
S1133650BE016F5F7F4F89E20E94631080E00E9489
S11336607212882389F2198388EE8A8342E0BE01AC
S11336706F5F7F4F89E20E94631081E0DFC90E947F
S1133680EA13B3CF0F931F93CF93DF9300D000D0EF
S1133690CDB7DEB720912008309121088091CF2D3D
S11336A09091D02DA091D12DB091D22D820F931F46
S11336B0A11DB11D8093DF2C9093E02CA093E12CED
S11336C0B093E22C13E1198301E09E012F5F3F4F79
S11336D041E0B90189E20E94D40F8981877099F38E
S11336E0BE016B5F7F4F8EE10E94C7120D811E8168
S11336F08BE0898381E08A8342E0BE016F5F7F4F64
S113370089E20E946310C8012696CDBFDEBFDF9117
S1133710CF911F910F910895FF920F931F93CF9311
S1133720DF9300D01F92CDB7DEB700E8098311E024
S11337301A8342E0BE016F5F7F4F89E20E946310EB
S1133740FF24FA94F9821A8342E0BE016F5F7F4F2F
S113375089E20E94631019821A8242E0BE016F5FFF
S11337607F4F89E20E9463108091E32C91E9998351
S11337708A8342E0BE016F5F7F4F89E20E9463103B
S113378019821A8342E0BE016F5F7F4F89E20E9473
S11337906310F9821A8242E0BE016F5F7F4F89E2B3
S11337A00E94631009831A8242E0BE016F5F7F4F5B
S11337B089E20E94631019821A8342E0BE016F5F9E
S11337C07F4F89E20E9463102091200830912108E4
S11337D08091CF2D9091D02DA091D12DB091D22D4B
S11337E0820F931FA11DB11D8093DF2C9093E02CB9
S11337F0A093E12CB093E22C198201E09E012F5F8B
S11338003F4F41E0B90189E20E94D40F898180FDD4
S1133810F3CF0E94421B2496CDBFDEBFDF91CF9130
S11338201F910F91FF9008950F931F93CF93DF93F0
S1133830EC010E944E298091E42C811121C0E09179
S1133840D32DF091D42DCF0101968093E92C909340
S1133850EA2C1092EB2C1092EC2C8FEF9FE38093C8
S1133860E72C9093E82C1092E52C1092E62C83839D
S1133870948385EE9CE28183928381E08093E42C9F
S1133880209709F464C0AE014C5F5F4F2396CE3F8E
S1133890DF4308F05CC0E091E92CF091EA2CA9EE3A
S11338A0BCE206C080819181009739F0DF01FC0100
S11338B02281338124173507A8F3CCE2E53EFC07C7
S11338C009F445C0CD91DC9111978E010C5F1F4F17
S11338D0808191818D939C93C901841B950B8930C0
S11338E0910500F1BF01640F751FDB0112968D93E2
S11338F09C9313974283538312962D913C91139773
S1133900A9EEBCE201C0DF01ED91FC911197828127
S1133910938182179307B8F3EB01E883F9836D93DE
S11339207C939A018091142090911520821B930B13
S113393080931420909315200E944A2A01151105A2
S113394041F0C801DF91CF911F910F9108950E941A
S11339504A2A0E94D72F00E010E0C801DF91CF91DE
S11339601F910F910895CF93DF93009721F1EC01FC
S113397024970E944E294A815B81A9EEBCE201C0D2
S1133980DF01ED91FC9111972281338124173507D2
S1133990B8F3E883F983CD93DC938091142090915C
S11339A01520480F591F4093142050931520DF9180
S11339B0CF910C944A2ADF91CF91089580911420DD
S11339C0909115200895FC010396818392832FEF33
S11339D03FEF238334838583968387839087108284
S11339E00895FC01108611860895CF93DF939C01FE
S11339F0FB01DC011196CD91DC911297C283D38334
S1133A008C819D81848395838C819D81DC011296B8
S1133A106D937C9313976C837D8320873187F901A1
S1133A2080818F5F8083DF91CF910895CF93DF935F
S1133A30EB01488159814F3F2FEF520701F1DC011F
S1133A40139601C0DF011296ED91FC91139720812A
S1133A50318142175307B0F7EA83FB83C483D583CC
S1133A60AC83BD831296CD93DC9313978887998793
S1133A70FC0120812F5F2083DF91CF910895FC0109
S1133A80A781B0851296ED91FC911397E5CFCF9362
S1133A90DF93FC01A085B1852281338184819581E6
S1133AA0E9018C839D8384819581EC012A833B8386
S1133AB011962D913C911297E217F30749F0108665
S1133AC011868C9181508C938C91DF91CF910895C4
S1133AD011968D939C931297F2CF31E1FC013083C0
S1133AE0319722E220833197A3E3A0833197608347
S1133AF0319770833197108231971082319760E843
S1133B00608331971082319762E06083319763E07C
S1133B106083319764E06083319765E06083319717
S1133B2066E06083319767E06083319768E0608383
S1133B30319769E06083319760E160833197308326
S1133B40319732E13083319733E13083319734E177
S1133B503083319735E13083319736E130833197C3
S1133B6037E13083319738E13083319739E130835D
S1133B70319730E23083319731E2308331972083BB
S1133B80319723E2208331974083319750833197D3
S1133B9026E22083319727E22083319728E220838D
S1133BA0319729E22083319720E32083319721E361
S1133BB0208387970895E0E0F8E08FEF9FEF80A7D8
S1133BC091A781E0808390E491838683878380E05A
S1133BD09DE786A397A3A0918B2DB0918C2DCD91B9
S1133BE0CDBFDD91DEBFFF91EF91DF91CF91BF910A
S1133BF0AF919F918F917F916F915F914F913F9181
S1133C002F911F910F91FF90EF90DF90CF90BF9075
S1133C10AF909F908F907F906F905F904F903F9068
S1133C202F901F900F900FBE0F90089581E008957C
S1133C300F920FB6F8940F921F9211242F923F9275
S1133C404F925F926F927F928F929F92AF92BF92A8
S1133C50CF92DF92EF92FF920F931F932F933F9394
S1133C604F935F936F937F938F939F93AF93BF9380
S1133C70CF93DF93EF93FF93A0918B2DB0918C2D75
S1133C800DB60D920EB60D920E94542BA0918B2D61
S1133C90B0918C2DCD91CDBFDD91DEBFFF91EF9121
S1133CA0DF91CF91BF91AF919F918F917F916F9150
S1133CB05F914F913F912F911F910F91FF90EF9042
S1133CC0DF90CF90BF90AF909F908F907F906F9038
S1133CD05F904F903F902F901F900F900FBE0F90CA
S1133CE0089580912008909121088C599F4F8093CA
S1133CF02808909329082091280830912908809158
S1133D002608909127082817390770F02091260873
S1133D10309127088091280890912908821B930BE1
S1133D20809328089093290808950F920FB6F89469
S1133D300F921F9211242F923F924F925F926F9293
S1133D407F928F929F92AF92BF92CF92DF92EF9227
S1133D50FF920F931F932F933F934F935F936F9310
S1133D607F938F939F93AF93BF93CF93DF93EF93FF
S1133D70FF93A0918B2DB0918C2D0DB60D920EB6A4
S1133D800D9220912608309127088091CF2D909193
S1133D90D02DA091D12DB091D22D820F931FA11DB2
S1133DA0B11D8093CF2D9093D02DA093D12DB0939E
S1133DB0D22D0E9470290E94542BA0918B2DB0917A
S1133DC08C2DCD91CDBFDD91DEBFFF91EF91DF91C1
S1133DD0CF91BF91AF919F918F917F916F915F919F
S1133DE04F913F912F911F910F91FF90EF90DF9092
S1133DF0CF90BF90AF909F908F907F906F905F9087
S1133E004F903F902F901F900F900FBE0F901895DA
S1133E1008950F920FB6F8940F921F9211242F92C7
S1133E203F924F925F926F927F928F929F92AF9246
S1133E30BF92CF92DF92EF92FF920F931F932F9333
S1133E403F934F935F936F937F938F939F93AF931E
S1133E50BF93CF93DF93EF93FF93A0918B2DB091FA
S1133E608C2D0DB60D920EB60D928FEF9FEF8093B1
S1133E702808909329080E94542BA0918B2DB0916F
S1133E808C2DCD91CDBFDD91DEBFFF91EF91DF9100
S1133E90CF91BF91AF919F918F917F916F915F91DE
S1133EA04F913F912F911F910F91FF90EF90DF90D1
S1133EB0CF90BF90AF909F908F907F906F905F90C6
S1133EC04F903F902F901F900F900FBE0F9018951A
S1133ED00F931F93CF93DF93EC01042F1A8D4C8D16
S1133EE041110DC088819981892B09F443C01F5F5A
S1133EF080E01A8FDF91CF911F910F91089550E0C8
S1133F00011115C08A819B810E94914D2C8D8A815B
S1133F109B81820F911D8A839B832C813D81821713
S1133F20930728F3888199818A839B83E0CF8E81CC
S1133F309F810E94914D8C8D90E09195819591097E
S1133F402E813F81280F391F2E833F834881598159
S1133F502417350730F42C813D81820F931F8E8303
S1133F609F83023021F6112311F080E0C2CF11E0CB
S1133F7080E0BFCF8C819D810E94482E1C821D82CF
S1133F801F5FB7CFFC01CB01448D442391F050E077
S1133F9066817781640F751F6683778324813581F9
S1133FA06217730720F060817181668377830C94B4
S1133FB0914D0895EF92FF920F931F93CF938C012D
S1133FC00FB6F8940F92FC01C68D1C16C4F4FC01C4
S1133FD081898823A1F07801F1E1EF0EF11C06C07C
S1133FE0C15069F0F8018189882349F0C7010E9412
S1133FF07E2B8823A9F30E94372CC15099F78FEFA9
S1134000F801868F0F900FBE0FB6F8940F92C58DEE
S11340101C16C4F4F80180858823A1F07801F8E027
S1134020EF0EF11C06C0C15069F0F80180858823A9
S113403049F0C7010E947E2B8823A9F30E94372CE4
S1134040C15099F78FEFF801858F0F900FBECF9174
S11340501F910F91FF90EF9008951F93CF93DF93DB
S1134060EC01162F892B09F43EC00FB6F8940F9279
S1134070488159818B8D6C8D9A01869F200D311D4D
S113408011242C833D831A8E4A835B8390E001972D
S1134090689F9001699F300D1124CA01820F931FFC
S11340A08E839F838FEF8D8F8E8F111113C0888520
S11340B0811107C00F900FBE81E0DF91CF911F9156
S11340C00895CE0108960E947E2B882399F30E94BE
S11340D0181EF0CFCE0108960E94E31CCE01419633
S11340E00E94E31CE7CF63E071E08AEC93E20E9454
S11340F02030BBCFFF920F931F93CF93DF93182FE2
S1134100062FF42E882399F10023D1F0109FC001CB
S1134110112481960E94141CEC01009751F08196A1
S1134120888399831B8F0C8F61E0CE010E942D2020
S1134130F8A2CE01DF91CF911F910F91FF900895C6
S113414081E290E00E94141CEC01892B91F3C88356
S1134150D9831B8F0C8F61E0CE010E942D20F8A221
S1134160CE01DF91CF911F910F91FF90089566E7E3
S113417071E08AEC93E20E942030C6CFBF92CF92C6
S1134180DF92EF92FF920F931F93CF93DF93CDB7FC
S1134190DEB72597CDBFDEBF8C016B014C835D83F9
S11341A0B22E892B09F4B2C0C114D10409F4A2C0FF
S11341B0F2E0BF1609F47DC0F801838D20E0780198
S11341C0F8E0EF0EF11C10C06C817D81C7010E94E4
S11341D05E2BC8010E94DA1F0E944A2A882309F430
S11341E04AC0F801838D21E00FB6F8940F92F801CC
S11341F0928D981708F442C0F2E0BF1609F43EC04D
S11342008C819D81892B09F460C0222359F10F9080
S11342100FBE0E944E290FB6F8940F92F801858DB7
S11342208F3F39F1F801868D8F3F09F10F900FBE52
S1134230BE016C5F7F4FCE0101960E94E02B81117D
S113424048C00FB6F8940F92F801928D0F900FBEEC
S1134250838D981709F4B8CFC8010E94DA1F0E9411
S11342604A2ABFCFCE0101960E94D52BD0CF168EFD
S1134270DDCF158ED7CF0E94181EB3CF4B2DB601BC
S1134280C8010E94681FF801918991112CC0811105
S113429027C00F900FBE81E02596CDBFDEBFDF9112
S11342A0CF911F910F91FF90EF90DF90CF90BF902F
S11342B00895F801838D813009F480CF63EF72E0B3
S11342C08AEC93E20E94203077CF0F900FBE80E0FB
S11342D0E3CFC8010E94DA1F0E944A2A80E0DCCFA3
S11342E00E94181ED6CFC80141960E947E2B8823B7
S11342F081F2F6CFF801848D882309F459CF62EF57
S113430072E08AEC93E20E94203052CF61EF72E0B7
S11343108AEC93E20E94203047CFCF93DF93482F5B
S113432060E081E00E947A20EC01009761F01C8239
S11343301D82188219821E8220E040E050E060E075
S113434070E00E94BE20CE01DF91CF910895CF92FC
S1134350DF92EF92FF920F931F93CF93DF93EC01C1
S11343608B016A01F22E892B09F445C00115110550
S1134370C1F182E0F81671F09A8D8B8D9817A0F038
S113438080E0DF91CF911F910F91FF90EF90DF902C
S1134390CF9008958B8D813031F065EC73E08AEC19
S11343A093E20E9420308A8DEE8C4F2DB801CE010D
S11343B00E94681FEFEFEE1621F0E394EE8E81E089
S11343C0E0CF89898823D9F3CE0141960E947E2BC0
S11343D08823A9F3C114D10491F381E0F601808309
S11343E0D0CF8C8D882329F264EC73E08AEC93E2BD
S11343F00E942030BECF63EC73E08AEC93E20E940B
S11344002030B4CF0F931F93CF93DF93EC018B0134
S1134410892B09F443C08C8D81111BC0888199813B
S1134420892B09F18A8D9B8D891768F49E8D8F5F86
S11344308A8F9F3F19F19F5F9E8F81E0DF91CF911B
S11344401F910F91089580E0DF91CF911F910F91FB
S1134450089564E674E08AEC93E20E942030888137
S11344609981892BF9F68C819D81892BD9F269E692
S113447074E08AEC93E20E942030D4CF89898823A7
S1134480E1F2CE0141960E947E2B8823B1F2011500
S1134490110599F281E0F8018083D0CF60E674E0E1
S11344A08AEC93E20E942030B6CFAF92BF92CF92B3
S11344B0DF92FF920F931F93CF93DF93CDB7DEB7B5
S11344C02597CDBFDEBF8C015B014C835D83892BB7
S11344D009F4A1C0A114B10409F491C020E0680159
S11344E0F1E1CF0ED11C0FB6F8940F92F801F28CC3
S11344F0F1106AC08C819D81892B09F473C0222339
S113450009F459C00F900FBE0E944E290FB6F894BB
S11345100F92F801858D8F3F09F454C0F801868D00
S11345208F3F09F44DC00F900FBEBE016C5F7F4FEB
S1134530CE0101960E94E02B811122C00FB6F8949F
S11345400F92F801828D0F900FBE811112C06C8101
S11345507D81C6010E945E2BC8010E94DA1F0E9461
S11345604A2A882311F021E0BECF0E94181E21E0C0
S1134570BACFC8010E94DA1F0E944A2A21E0B3CFB1
S1134580C8010E94DA1F0E944A2A0FB6F8940F92BB
S1134590F801828D0F900FBE8111E5CF2596CDBF16
S11345A0DEBFDF91CF911F910F91FF90DF90CF90ED
S11345B0BF90AF900895CE0101960E94D52BA2CF53
S11345C0168EB1CF158EAACFB501C8010E94C21FA5
S11345D0FA94F801F28E8085811108C00F900FBE05
S11345E081E0DCCF0F900FBE80E0D8CFC8010896E1
S11345F00E947E2B882391F30E94181EEFCFF801AE
S1134600848D882309F46ACF64E075E08AEC93E230
S11346100E94203063CF60E075E08AEC93E20E9450
S1134620203058CFDF92EF92FF920F931F93CF93D6
S1134630DF93CDB7DEB72597CDBFDEBF8C016C838A
S11346407D83892B09F4D0C0D8015C968C918111AB
S1134650BBC0D12C20E07801B1E1EB0EF11C0FB608
S1134660F8940F92F801828D811189C08C819D810B
S1134670892B09F49DC0222309F45FC00F900FBE5B
S11346800E944E290FB6F8940F92D8015D968C9132
S11346905D978F3F09F456C0F801868D8F3F09F46A
S11346A058C00F900FBEBE016C5F7F4FCE010196C4
S11346B00E94E02B811123C00FB6F8940F92D80109
S11346C05A968C915A970F900FBE811144C0F801ED
S11346D080819181892B09F445C06C817D81C7015A
S11346E00E945E2BC8010E94DA1F0E944A2A882376
S11346F011F021E0B4CF0E94181E21E0B0CFC80110
S11347000E94DA1F0E944A2A0FB6F8940F92F80109
S1134710828D0F900FBE8111ECCFDD2009F472C0A1
S11347200FB6F8940F928189811165C060E0F80199
S1134730848195810E949F2E43C0CE0101960E94E0
S1134740D52B9CCF5D961C92F801868D8F3F09F086
S1134750A8CF168EA6CFC8010E94DA1F0E944A2A4B
S113476021E07DCF0FB6F8940F9214968D919C9111
S113477015970E94D52DD82E0F900FBEAECF815025
S1134780828F80819181892B09F43EC0F801808554
S1134790811121C00F900FBE81E02596CDBFDEBFF1
S11347A0DF91CF911F910F91FF90EF90DF900895CB
S11347B0DD2031F061EE75E08AEC93E20E94203056
S11347C00F900FBE80E0E9CF65E975E08AEC93E2D3
S11347D00E9420303ECFC80108960E947E2B882379
S11347E0C9F20E94181ED6CF61E975E08AEC93E203
S11347F00E94203029CF0688F789E02D80816AE065
S1134800681B95CF80E0C9CF0E94C42FD8011496AD
S11348108D939C931597BACFCF92DF92EF92FF922C
S11348200F931F93CF93DF93CDB7DEB72597CDBFFB
S1134830DEBF8C016B014C835D83892B09F4A2C01C
S1134840C114D10409F492C020E07801F1E1EF0E23
S1134850F11C0FB6F8940F92F801828D811169C092
S11348608C819D81892B09F474C0222309F458C0DA
S11348700F900FBE0E944E290FB6F8940F92F801C4
S1134880858D8F3F09F453C0F801868D8F3F09F45D
S11348904CC00F900FBEBE016C5F7F4FCE010196DE
S11348A00E94E02B811122C00FB6F8940F92F801F8
S11348B0828D0F900FBE811112C06C817D81C70162
S11348C00E945E2BC8010E94DA1F0E944A2A882394
S11348D011F021E0BECF0E94181E21E0BACFC8011A
S11348E00E94DA1F0E944A2A21E0B3CFC8010E9425
S11348F0DA1F0E944A2A0FB6F8940F92F801828DAB
S11349000F900FBE8111E5CF2596CDBFDEBFDF919D
S1134910CF911F910F91FF90EF90DF90CF9008956A
S1134920CE0101960E94D52BA3CF168EB2CF158E41
S1134930ABCFE680F780B601C8010E94C21FF80120
S1134940E682F7828189811108C00F900FBE81E051
S1134950DBCF0F900FBE80E0D7CFC80141960E94F5
S11349607E2B882391F30E94181EEFCFF801848DCB
S1134970882309F469CF6CE676E08AEC93E20E941E
S1134980203062CF68E676E08AEC93E20E94203021
S113499057CFCF92DF92EF92FF920F931F93CF9353
S11349A0DF93EC017B016A01892BB9F1E114F10475
S11349B0D1F01A8D11110AC080E0DF91CF911F91BF
S11349C00F91FF90EF90DF90CF9008950D8DB70178
S11349D0CE010E94C21F11501A8F0F3F71F00F5F5A
S11349E00D8F81E0EACF8C8D882319F36CEF76E08C
S11349F08AEC93E20E942030DCCF8885882389F3F7
S1134A00CE0108960E947E2B882359F3C114D10449
S1134A1041F381E0F6018083D0CF6BEF76E08AEC3E
S1134A2093E20E942030C2CFCF93DF93EC01892B15
S1134A3049F00FB6F8940F928A8D0F900FBEDF9154
S1134A40CF9108956AE877E08AEC93E20E942030DF
S1134A50F0CF20C00FB6F8940F92E0910E2DF09194
S1134A600F2DC681D781CE0102960E94471D8091E9
S1134A70FE2C81508093FE2C8091082D81508093D0
S1134A80082D0F900FBE8F89988D0E94B31CCE0104
S1134A900E94B31C8091082D8111DCCF8091312DAF
S1134AA0823010F00E94181E0E94D62FF3CFCF93AD
S1134AB0DF93EC010E94A14DFE0101900020E9F773
S1134AC03197EC1BFD0BE730F10560F4EC0FFD1F93
S1134AD09E01295F3F4F80E28193E217F307E1F7DC
S1134AE0E7E0F0E0CE018E0F9F1FFC011082DF9102
S1134AF0CF910895E0911D2DF0911E2D0580F68132
S1134B00E02D0680F781E02D828193818093F42C3F
S1134B109093F52C0895CF93DF93EC01892B99F0B2
S1134B208A859B858F5F9C4221F080E0DF91CF9145
S1134B3008952C893D898DE222313807B1F381E053
S1134B40232B99F7F3CF62EF76E08EED93E20E9488
S1134B502030E6CFFF920F931F93CF93DF93EC01A6
S1134B60F62E0091FC2C1091FD2C80918B2D9091B0
S1134B708C2D02960E94471DCF3F8FEFD807A9F1D5
S1134B80C00FD11FE0918B2DF0918C2DC283D38364
S1134B9060918B2D70918C2DC017D107C8F0809136
S1134BA01D2D90911E2D6E5F7F4F0E94161D8091CA
S1134BB0F42C9091F52CC817D90720F4C093F42C49
S1134BC0D093F52CDF91CF911F910F91FF90089511
S1134BD080911B2D90911C2D6E5F7F4FDF91CF91A3
S1134BE01F910F91FF900C94161DFF2049F26091C4
S1134BF08B2D70918C2D6E5F7F4F8FEF9CE2DF9138
S1134C00CF911F910F91FF900C94F51C0F931F935C
S1134C10CF931092F82C2091200830912108809194
S1134C20CF2D9091D02DA091D12DB091D22D820F66
S1134C30931FA11DB11D0091ED2C1091EE2C20911C
S1134C40EF2C3091F02C081719072A073B07A0F422
S1134C50E0918B2DF0918C2D47A150A561A572A5F3
S1134C60401B510B620B730B480F591F6A1F7B1FAC
S1134C7047A350A761A772A78093ED2C9093EE2CC5
S1134C80A093EF2CB093F02CE0918B2DF0918C2D10
S1134C900788F08DE02D80819181A281B381853ACE
S1134CA0954AA54AB54A09F44CC060918B2D709180
S1134CB08C2D80918B2D90918C2D675E7F4F0E945F
S1134CC0F62FC091FB2C8C2F90E09C01220F331FF8
S1134CD0220F331F220F331FF901E80FF91FEF5C76
S1134CE0F24D408141110CC0CC2311F0C150EBCFE7
S1134CF06CE87BE08EED93E20E942030C150E3CF5C
S1134D00820F931FDC01AF5CB24D1196ED91FC91C3
S1134D1012970280F381E02D1196ED93FC93129784
S1134D208C5C924DE817F90759F18681978180933D
S1134D308B2D90938C2DC093FB2CCF911F910F91B1
S1134D40089584819581A681B781853A954AA54ABB
S1134D50B54A09F0AACF80859185A285B385853AA5
S1134D60954AA54AB54A09F0A0CF84859585A685BC
S1134D70B785853A954AA54AB54A09F096CFA1CF99
S1134D800280F381E02D1196ED93FC931297CDCF21
S1134D905F926F927F928F929F92AF92BF92CF92C7
S1134DA0DF92EF92FF920F931F93CF93DF934C0107
S1134DB0EB015A013901502ECA010E94141C8C01C6
S1134DC0892B09F4DEC080E390E00E94141C6C017E
S1134DD0009709F4D3C0DC0157960D931C935897A0
S1134DE0209709F4D0C0C801A50165EA70E00E94CB
S1134DF09A4DF1E0AF1AB108D60157968D919C9166
S1134E005897A80EB91EF60179969E01285F3F4F68
S1134E10DE01899181938C91882319F0C217D307FD
S1134E20B9F7F60110A2052D0A3008F0A1C0D60189
S1134E3056960C93569793960C93939794961C922C
S1134E40E6012296CE010E94F11CC6010C960E9436
S1134E50F11CF601C086D1868AE090E0801B91099E
S1134E6084879587C28AD38A15A216A217A210A690
S1134E7011A612A613A614A615A616A617A6A30174
S1134E80B401C5010E946D1DD6018D939C93E1145C
S1134E90F10419F0F701C082D1820FB6F8940F9291
S1134EA08091FE2C8F5F8093FE2C80918B2D9091AE
S1134EB08C2D892B99F08091FA2C811118C0E091E6
S1134EC08B2DF0918C2DD60156968C91968989174D
S1134ED088F0C0928B2DD0928C2D0CC0C0928B2D5B
S1134EE0D0928C2D8091FE2C813009F456C0D601CD
S1134EF056968C919091F62C9F5F9093F62CF60128
S1134F0091A39091FB2C981780F190E09C01220FC3
S1134F10331F220F331F220F331F820F931FBE0133
S1134F208F5C924D0E94F51C0F900FBE8091FA2C5D
S1134F30882351F0E0918B2DF0918C2D9689D60128
S1134F4056968C919817B0F081E0DF91CF911F9124
S1134F500F91FF90EF90DF90CF90BF90AF909F9014
S1134F608F907F906F905F9008958093FB2CCDCFAE
S1134F7009E05DCF0E94181E81E0E7CFC8010E94BE
S1134F80B31C8FEFE2CF60E673E08EED93E20E94F4
S1134F902030F6018789908D27CF01E31DE25BE87D
S1134FA0E52E5DE2F52EC8010E94E31C075F1F4F4A
S1134FB0E016F106C1F788E29DE20E94E31C8FE14E
S1134FC09DE20E94E31C82E19DE20E94E31C89E0D1
S1134FD09DE20E94E31C8FEF9CE20E94E31C88E2A6
S1134FE09DE280931D2D90931E2D8FE19DE2809371
S1134FF01B2D90931C2DF60186897CCFCF93DF93D4
S1135000EC01892B09F43AC080918B2D90918C2D61
S1135010C817D90779F10FB6F8940F928A859B8542
S113502020911D2D30911E2D40911B2D50911C2D32
S11350300F900FBE82179307A9F08417950791F07C
S11350402CE28F3F920751F02DE28930920771F0E4
S1135050892B61F081E0DF91CF9108958C899D893E
S1135060892B99F082E0DF91CF91089584E0DF915C
S1135070CF91089580E0DF91CF9108956CE475E0BD
S11350808EED93E20E942030BFCF8FA5813051F383
S113509083E0E1CF0F931F93CF93DF93EC010FB61F
S11350A0F8940F92892B09F462C08E010E5F1F4F92
S11350B0C8010E94471D8C899D89892B21F0CE014E
S11350C00C960E94471DB8018FEF9CE20E94F51CCC
S11350D08FA5813021F10F900FBE8091FA2C882387
S11350E091F00FB6F8940F92E0911D2DF0911E2DC2
S11350F0808181112BC08FEF9FEF8093F42C9093CC
S1135100F52C0F900FBE80918B2D90918C2DC8178C
S1135110D90739F0DF91CF911F910F9108951FA600
S1135120DACF8091FA2C8823A1F08091F12C882386
S113513031F068EC76E08EED93E20E9420300E941C
S1135140181EDF91CF911F910F9108950E947A2527
S1135150D8CF9091FF2C8091FE2C981799F08091D4
S1135160F12C882349F081E08093F82CD3CFC091AF
S11351708B2DD0918C2D99CFDF91CF911F910F91D1
S11351800C94062610928B2D10928C2DC3CF0F9366
S11351901F93CF93DF93EC01892B09F43DC08091D9
S11351A08B2D90918C2DC817D90751F00FB6F89418
S11351B00F92CE010E948B25811107C00F900FBE64
S11351C0DF91CF911F910F9108958E010E5F1F4FB4
S11351D0C8010E94471D8E899091FB2C981710F4EA
S11351E08093FB2C90E09C01220F331F220F331F6E
S11351F0220F331F820F931FB8018F5C924D0E94C0
S1135200F51CE0918B2DF0918C2D9E898689981741
S1135210A8F20E94181ED2CF6CE177E08EED93E2E3
S11352200E94203080918B2D90918C2DC9CFEF92CC
S1135230FF920F9382EFE82E8CE2F82E00E020E03C
S113524030E040E051E062EF73E289E295E20E94CF
S1135250C826813079F08F3F21F00F91FF90EF90B5
S1135260089567E078E08EED93E20F91FF90EF9060
S11352700C942030F8942FEF3FEF2093F42C3093CC
S1135280F52C8093FA2C1092FC2C1092FD2C0E9489
S1135290081F0F91FF90EF900C94DB1D8091F12C6F
S11352A08F5F8093F12C08950FB6F8940F9280913C
S11352B0FC2C9091FD2C0F900FBE08958091F22C40
S11352C09091F32C009709F008956AEE79E08EED41
S11352D093E20E9420308091F22C9091F32C089557
S11352E0DF92EF92FF920F931F93CF93DF938091FE
S11352F0F12C8111B9C0E090FC2CF090FD2C8FEFC3
S1135300E81AF80AE092FC2CF092FD2CE114F10466
S113531049F5E0911D2DF0911E2D80818111ABC0C6
S113532080911D2D90911E2D20911B2D30911C2DAF
S113533020931D2D30931E2D80931B2D90931C2D97
S11353408091F72C8F5F8093F72CE0911D2DF091C5
S11353501E2D8081811196C08FEF9FEF8093F42CD6
S11353609093F52C8091F42C9091F52CD12CE81687
S1135370F90608F453C0E0911D2DF0911E2D808193
S1135380882309F445C0E0911D2DF0911E2D058060
S1135390F681E02DC681D7818A819B81E816F906C2
S11353A008F473C08E010E5F1F4FC8010E94471D91
S11353B08C899D89892B21F0CE010C960E94471D72
S11353C08E899091FB2C981710F48093FB2C90E01D
S11353D09C01220F331F220F331F220F331F820F12
S11353E0931FB8018F5C924D0E94F51CE0918B2DA8
S11353F0F0918C2D9E898689981708F4BCCFDD2402
S1135400D394E0911D2DF0911E2D80818111BBCF8D
S11354108FEF9FEF8093F42C9093F52CE0918B2DDC
S1135420F0918C2D868990E0FC01EE0FFF1FEE0FAA
S1135430FF1FEE0FFF1F8E0F9F1FFC01EF5CF24D4D
S11354408081823010F0DD24D3948091F82C88235D
S113545011F0DD24D3948D2DDF91CF911F910F9105
S1135460FF90EF90DF9008958091F92C8F5F8093E7
S1135470F92CD12CEACF66E67AE08EED93E20E9415
S113548020304ECF0E947A256DCF8093F42C9093D8
S1135490F52CC4CFFF920F931F93CF93DF9380918A
S11354A0F12C882309F477C00FB6F8940F928091F9
S11354B0F12C81508093F12C8091F12C811162C0E8
S11354C08091FE2C882309F45DC0C0E0D0E0FF2465
S11354D0F3948091122D8823A1F1E091172DF0917E
S11354E0182DC681D781CE010C960E94471D8E01CE
S11354F00E5F1F4FC8010E94471D8E899091FB2C9F
S1135500981710F48093FB2C90E09C01220F331F1A
S1135510220F331F220F331F820F931FB8018F5C9A
S1135520924D0E94F51CE0918B2DF0918C2D9E895B
S11355308689981770F2F092F82C8091122D8111BF
S1135540CCCFCD2B69F0E0911D2DF0911E2D8081E3
S113555081112CC08FEF9FEF8093F42C9093F52C46
S1135560C091F92CCC2351F0D1E00E947029811113
S1135570D093F82CC150C9F71092F92C8091F82CD3
S1135580811110C080E00F900FBEDF91CF911F9169
S11355900F91FF9008956CE678E08EED93E20E94FF
S11355A0203082CF0E94181E81E0EDCF0E947A2520
S11355B0D7CF0F931F93CF93DF938C01EB01892BEC
S11355C009F446C02097E9F18091F12C811132C091
S11355D08091F12C8F5F8093F12C4091FC2C5091A1
S11355E0FD2CF80120813181CE01820F931F4217D7
S11355F0530788F48217930788F0F8018083918316
S11356000E944A2A811102C00E94181EDF91CF9184
S11356101F910F9108958217930718F0481759079F
S113562060F7F8018083918360E0841B950B0E94EE
S1135630AA25E6CF6CEC74E08EED93E20E94203054
S1135640C7CF6BEC74E08EED93E20E942030BCCFA8
S11356506AEC74E08EED93E20E942030B3CFCF93D6
S1135660DF93EC01892B29F40E94181EDF91CF915E
S113567008958091F12C811110C08091F12C8F5FDD
S11356808093F12C60E0CE010E94AA250E944A2A50
S1135690882351F3DF91CF91089560E275E08EED98
S11356A093E20E942030E9CF8091F12C811102C055
S11356B00C94062681E08093F82C08950F931F9391
S11356C0CF93DF93EC018B01892B89F060918B2DB3
S11356D070918C2D645F7F4FCE010E94161D61E096
S11356E0C801DF91CF911F910F910C94AA2563EA11
S11356F07BE08EED93E20E942030E8CF0F931F935E
S1135700CF93DF93DC011596ED91FC911697C6813A
S1135710D781209709F442C08E01045F1F4FC8014E
S11357200E94471D8091F12C811129C00A50110952
S1135730C8010E94471D8E899091FB2C981728F16F
S113574090E09C01220F331F220F331F220F331FBF
S1135750820F931FB8018F5C924D0E94F51CE0915B
S11357608B2DF0918C2D9E898689891788F481E090
S11357708093F82CDF91CF911F910F910895B80178
S113578082E19DE20E94F51CEACF8093FB2CD8CFE6
S113579080E0DF91CF911F910F9108956EEF7BE030
S11357A08EED93E20E942030B7CF2091F72CFC01BC
S11357B020832091FC2C3091FD2C21833283089589
S11357C00F931F93CF93DF93EC018B01892B09F483
S11357D040C00115110509F443C00FB6F8940F92A7
S11357E08091FC2C9091FD2CF801208131812F3F78
S11357F0FFEF3F0761F149815A816091F72C78816D
S1135800761719F08417950780F4841B950B82177B
S1135810930768F0F8011082118281E00F900FBEA7
S1135820DF91CF911F910F91089581E0F7CF281B4D
S1135830390BF801208331838091F72C8883809180
S1135840FC2C9091FD2C89839A8380E0E7CF80E043
S1135850E5CF69E67CE08EED93E20E942030B9CF7B
S11358606AE67CE08EED93E20E942030B6CF81E0C0
S11358708093F82C0895FF920F931F93CF93DF9397
S11358808C01EB01F42E892B09F464C0088319837D
S1135890C80149968A839B83D80156968C91569762
S11358A08E8357968D919C9158978C879D8791965E
S11358B08C9191978C8393968C9193978F839796E1
S11358C08D919D910D90BC91A02D88879987AA8771
S11358D0BB87253009F443C080918B2D90918C2D8A
S11358E00817190709F440C02D83233021F1FF2044
S11358F0D1F0D8015796ED91FC9158978081853A63
S1135900A9F5319680E090E0DC010196A11DB11D5E
S11359102191253AD1F38E879F87DF91CF911F91F3
S11359200F91FF9008951E861F86DF91CF911F91DE
S11359300F91FF9008958091F12C8F5F8093F12C4B
S1135940F80184899589892B11F082E08D830E9466
S11359504A2ACDCF00918B2D10918C2D97CFC80161
S11359600E94FE278D83C3CF1D82C1CF80E090E0CB
S1135970D2CF8F929F92AF92BF92CF92DF92EF924B
S1135980FF920F931F93CF93DF935C018B01D42F6E
S1135990DB011196ED91FC9112970280F381E02DC9
S11359A01196ED93FC9312977B01B3E0EB0EF11C7F
S11359B0EE15FF05E1F1C680D780C0E016C08680F1
S11359C09780B501B0E1CB9F600D711D11242D2F7F
S11359D041E0C4010E943B2CCF5FC814D904C9F034
S11359E0D8011196ED91FC9112970280F381E02D7C
S11359F0D8011196ED93FC931297EE16FF06F9F673
S1135A001596ED91FC9116971196ED93FC931297D0
S1135A10D6CF8C2FDF91CF911F910F91FF90EF90F4
S1135A20DF90CF90BF90AF909F908F9008950280A9
S1135A30F381E02DC0CFEF92FF920F931F93CF938A
S1135A40DF938C017A018091F12C8F5F8093F12C8C
S1135A508091FE2C681708F466C0CAE0D0E004C048
S1135A6080E0D80FCC23F9F0C1506C2F70E0CB014B
S1135A70880F991F880F991F880F991F680F791F26
S1135A80FB01EF5CF24D8081882351F341E0BF01BB
S1135A90C80120E1D29F800D911D11240E94B92CD0
S1135AA0D80FC111E1CFE0911D2DF0911E2D808101
S1135AB081113BC080E0D80FE0911B2DF0911C2D8B
S1135AC08081811145C080E0D80F8091092D81111A
S1135AD04FC080E0D80F8091FF2C81115AC080E024
S1135AE0D80FE114F104A9F0209120083091210885
S1135AF08091CF2D9091D02DA091D12DB091D22D08
S1135B00820F931FA11DB11DF70180839183A2838E
S1135B10B3830E944A2A8D2FDF91CF911F910F9159
S1135B20FF90EF900895D0E0F4CF42E0BF01C801A8
S1135B30E0E1DE9F800D911D11240E94B92CD80F45
S1135B40E0911B2DF0911C2D8081882309F4BBCF9B
S1135B5042E0BF01C801F0E1DF9F800D911D1124D7
S1135B600E94B92CD80F8091092D882309F4B1CF54
S1135B7044E069E07DE2C80120E1D29F800D911DDF
S1135B8011240E94B92CD80F8091FF2C882309F48A
S1135B90A6CF43E06FEF7CE2C801E0E1DE9F800D19
S1135BA0911D11240E94B92C9BCF0F931F93CF9367
S1135BB0DF93FC01892B09F441C02689A0918B2D28
S1135BC0B0918C2D56968C91281770F58485958507
S1135BD097FD0CC0A0918B2DB0918C2D56963C91C5
S1135BE08AE090E0831B91098487958730E0C9019E
S1135BF0880F991F880F991F880F991F280F391F25
S1135C002F5C324D8285938582179307E9F0A0912A
S1135C108B2DB0918C2D56968C91868B81E0DF91E3
S1135C20CF911F910F910895A0918B2DB0918C2D40
S1135C3081E023A156969C91291788F380E0DF9197
S1135C40CF911F910F9108958F01EF012296CE01FC
S1135C500E94471DE0918B2DF0918C2D8689F801CF
S1135C60868B9091FB2C981710F48093FB2C90E07A
S1135C709C01220F331F220F331F220F331F820F69
S1135C80931FBE018F5C924D0E94F51C81E0C7CF2B
S1135C900F931F93CF93DF930097C9F0EC0180918A
S1135CA08B2D90918C2DC817D90731F06EE77FE0CA
S1135CB08EED93E20E9420308CA18823C1F18150A3
S1135CC08CA32E899BA1291711F0882331F080E041
S1135CD0DF91CF911F910F9108958E010E5F1F4F99
S1135CE0C8010E94471D2BA12E8B822F90E04AE011
