:100000000C946E030C948F030C949B070C942208A1
:100010000C948F030C948F030C948F030C948F0318
:100020000C948F030C948F030C948F030C948F0308
:100030000C948F030C948F030C94FE1D0C948F036F
:100040000C94721E0C948F030C948F030C948F03EA
:100050000C948F030C948F030C948F030C948F03D8
:100060000C948F030C948F030C948F030C948F03C8
:100070000C948F030C948F030C948F030C948F03B8
:100080000C948F030C948F030C945D050C948F03D8
:100090000C948F030C948F030C948F030C948F0398
:1000A0000C948F030C948F030C948F030C94A90869
:1000B0000C9430090C948F030C941F100C948F0334
:1000C0000C948F030C948F030C948F030C948F0368
:1000D0000C948F030C948F030C948F030C948F0358
:1000E0000C948F030C948F030C943F110C948F038A
:1000F0000C94F8100C948F030C948F030C948F03C2
:100100000C948F030C948F030C948F030C948F0327
:100110000C948F030C948F030C948F030C940F0496
:100120000C948F030C948F030C948F030C948F0307
:100130000C948F030C948F030C948F030C948F03F7
:100140000C948F030C948F030C948F030C948F03E7
:100150000C948F030C948F030C948F030C948F03D7
:100160000C948F030C948F030C948F030C948F03C7
:100170000C948F030C948F030C948F030C948F03B7
:100180000C948F030C948F030C948F030C948F03A7
:100190000C948F030C948F030C948F030C948F0397
:1001A0000C948F030C948F030C948F030C948F0387
:1001B0000C948F030C948F030C948F030C948F0377
:1001C0000C948F030C948F030C948F030C948F0367
:1001D0000C948F030C948F030C948F030C948F0357
:1001E0000C948F030C948F030C948F030C948F0347
:1001F0000C948F030C948F030C948F030C94891030
:100200000C9436320C949F100C948B3E0C94853FCA
:100210000C942F380C9471360C943C3F0C94D532CE
:100220000C9429300C94AC2A0C947C310C94AB3394
:100230000C940D3E6E616E00696E660000407A108F
:10024000F35A00A0724E18090010A5D4E80000E887
:100250007648170000E40B54020000CA9A3B0000E5
:1002600000E1F505000080969800000040420F0074
:100270000000A08601000000102700000000E80335
:10028000000000006400000000000A000000000000
:100290000100000000002C76D888DC674F0823DFBF
:1002A000C1DFAE59E1B1B796E5E3E453C63AE65192
:1002B000997696E8E6C28426EB898C9B62ED407CB9
:1002C0006FFCEFBC9C9F40F2BAA56FA5F490055A55
:1002D0002AF75C936B6CF9676DC11BFCE0E40D477A
:1002E000FEF520E6B500D0ED902E0300943577059D
:1002F0000080841E080000204E0A000000C80C3355
:100300003333330F986E12831141EF8D2114893BE3
:10031000E65516CFFEE6DB18D1844B381BF77C1D63
:10032000901DA4BBE424203284725E228100C9F1B6
:1003300024ECA1E53D274E414E494E495459494EC2
:1003400046CDCCCC3D0AD7233C17B7D13877CC2B40
:10035000329595E6241FB14F0A000020410000C8E5
:100360004200401C4620BCBE4CCA1B0E5AAEC59D66
:1003700074736C656570203A656E74657220736C79
:10038000656570206D6F64650D0A00617578707722
:10039000722073746174653A277374617465273DC4
:1003A000313A207475726E206F6E206175782070FE
:1003B0006F776572206E65742C2027737461746585
:1003C000273D303A207475726E206F666620617525
:1003D0007820706F776572206E65740D0A0067650E
:1003E00074616463203A72657475726E7320416E35
:1003F000616C6F67206368616E6E656C7320696EF7
:1004000020666F726D617420276C6566745F6C691D
:100410006E655F73656E736F72206D69645F6C6982
:100420006E655F73656E736F722072696768745F63
:100430006C696E655F73656E736F7220706F746543
:100440006E74696F6D657465720D0A006765746717
:100450007972203A72657475726E73206779726F63
:1004600073636F706520696E666F20696E20666FBA
:10047000726D6174202779617772617465202864D8
:1004800065672F73292079617728646567290D0ACC
:1004900000676574726762203A72657475726E7374
:1004A00020524742206C696768742073656E736FD1
:1004B000722076616C7565730D0A00676574656EF0
:1004C00063203A676574206D6F746F7220656E6388
:1004D0006F6465722076616C7565730D0A007365D3
:1004E000746D6F74206C6566746D6F746F725F707D
:1004F000776D2072696768746D6F746F725F707763
:100500006D203A6469726563746C7920636F6E74F0
:10051000726F6C206D6F746F722070776D207369CD
:10052000676E616C2E2050776D20697320696E2094
:10053000612072616E6765206F66202D3430393519
:1005400020746F20343039350D0A007365746C6582
:100550006420656666656374203A7365742052474B
:1005600042206C6564206566666563742028736547
:1005700065205247425461736B2E68290D0A00644E
:100580007276736567207370656564203A666F6C78
:100590006C6F77206C696E65207365676D656E742E
:1005A00020756E74696C20656E6420617420612012
:1005B0007370656564206F662027737065656427B6
:1005C000206D6D2F730D0A00726F74637472206159
:1005D0006E676C65207370656564203A726F746134
:1005E00074652027616E676C652720646567726596
:1005F00065732061726F756E642063656E746572D9
:10060000206F6620726F626F7420617420612073A6
:1006100070656564206F66202773706565642720A8
:100620006D6D2F730D0A00647276737472206469A5
:100630007374616E6365207370656564203A4472FB
:10064000697665207374726169676874206F766576
:1006500072202764697374616E636527206D6D2055
:1006600061742061207370656564206F6620277354
:100670007065656427206D6D2F730D0A006D656DC3
:100680006D6170203A73686F77206D656D6F727958
:10069000206D61700D0A0074736B6C7374203A6C7A
:1006A000697374204672656552544F5320746173A8
:1006B0006B730D0A0068656C70203A74686973206A
:1006C00068656C7020706167650D0A00436F6D6D21
:1006D000616E64206C6973743A0D0A0011241FBEA8
:1006E000CFEFCDBFDFE9DEBF00E00CBF18E2A0E036
:1006F000B0E2E6E1F0EA00E00BBF02C007900D9225
:10070000A632B107D9F72DE2A6E2B8E201C01D92E8
:10071000AB39B207E1F70E9411300C9409500C94E8
:100720000000E0E0F2E081E0808396E0918392E0D7
:10073000928393E0948382A343E060E00E94E31FEE
:100740008093752D9093762D43E060E081E00E94C8
:10075000E31F8093732D9093742D20E040E050E0D0
:1007600060E070E08091752D9091762D0C9427209B
:10077000CF93DF93C82FD62F6FEF7FEF8091752D2A
:100780009091762D0E947B22C03128F080E197E283
:10079000DF91CF910895CC0FCC0FCC0FC0932102E5
:1007A000DF3FA1F1D43068F582E080932002809190
:1007B000010280618093010280912102D82BD093A5
:1007C0002102809120028068809320026FEF7FEFEA
:1007D0008091732D9091742D0E947B22C0912402F0
:1007E000D091250220E040E050E060E070E0809190
:1007F000752D9091762D0E942720CE01DF91CF910B
:100800000895D450D43010F68FE1CFCF81E080939B
:100810002002809101028F7E80930102D2CF1F922D
:100820000F920FB60F9211240BB60F922F933F9396
:100830004F935F936F937F938F939F93AF93BF93E8
:10084000EF93FF93CF93DF931F92CDB7DEB719825B
:10085000BE016F5F7F4F8091732D9091742D0E9428
:100860006B21898181110E94DA1D0F90DF91CF9158
:10087000FF91EF91BF91AF919F918F917F916F9178
:100880005F914F913F912F910F900BBE0F900FBE34
:100890000F901F9018950F93CF93DF931F921F9285
:1008A000CDB7DEB780E8898381E08A8342E0BE016C
:1008B0006F5F7F4F89E30E94A90F82E9898301E07E
:1008C0009E012F5F3F4F41E0B90189E30E941A0F5B
:1008D00089818B3A61F01F928F938EED90E29F9306
:1008E0008F930E94584D0F900F900F900F9081E8BA
:1008F00089838BED8A8342E0BE016F5F7F4F89E37E
:100900000E94A90F8FE8898383E08A8342E0BE01B9
:100910006F5F7F4F89E30E94A90F0F900F90DF91C7
:10092000CF910F9108958F929F92AF92BF92CF92E5
:10093000DF92EF92FF920F931F93CF93DF93CDB788
:10094000DEB72997CDBFDEBF4C015B016A0179019B
:1009500080E8898383E08A8342E0BE016F5F7F4F36
:1009600089E30E94A90F13E903C0898180FD15C0A6
:10097000198301E09E012F5F3F4F41E0B90189E3F8
:100980000E941A0F8111F1CF63E470E083E091E2DD
:100990000E94DF2F898180FFEBCF84E9898308E003
:1009A0009E012F5F3F4F41E0B90189E30E941A0F7A
:1009B000882381F18114910429F089819A81F401BD
:1009C00080839183A114B10429F08B819C81F5016E
:1009D00080839183C114D10429F08D819E81F60119
:1009E00080839183E114F10429F08F819885F701C8
:1009F000808391832996CDBFDEBFDF91CF911F9178
:100A00000F91FF90EF90DF90CF90BF90AF909F90AD
:100A10008F9008956AE470E083E091E20E94DF2FF6
:100A2000C9CFE0E2F6E098EF928389E5838B848B6F
:100A3000858B868B878B928783E0818740E061E09E
:100A40008AE00E94E31F80932C2890932D2808951C
:100A50008091280683FF12C080E19091280694FDC2
:100A600088609091280695FD84609091280696FDF7
:100A700082609091280697FD03C0089580E0EDCF35
:100A800081600895CF93DF931F92CDB7DEB7AC019D
:100A9000BE016F5F7F4F80912C2890912D280E947E
:100AA000BE21813029F080E00F90DF91CF91089531
:100AB00089810F90DF91CF9108951F920F920FB609
:100AC0000F9211240BB60F92CF92DF92EF92FF920A
:100AD0000F931F932F933F934F935F936F937F9346
:100AE0008F939F93AF93BF93EF93FF93CF93DF9336
:100AF0001F921F92CDB7DEB78FE191E29F938F9344
:100B00000E94584D81E090E00E94D60E8091A20094
:100B100087608093A200198280912008909121081B
:100B2000C090852DD090862DE090872DF090882D57
:100B3000C80ED91EE11CF11C0E9428058A83409131
:100B400028285091292860912A2870912B289701F4
:100B50008601041B150B260B370BB901A8010F905A
:100B60000F904130584A6146710510F0811121C043
:100B7000898181110E94DA1D0F900F90DF91CF9132
:100B8000FF91EF91BF91AF919F918F917F916F9165
:100B90005F914F913F912F911F910F91FF90EF9097
:100BA000DF90CF900F900BBE0F900FBE0F901F9055
:100BB000189520E0AE014F5F5F4FBE016E5F7F4F23
:100BC00080912C2890912D280E941021C0922828D5
:100BD000D0922928E0922A28F0922B28C9CFDC0154
:100BE00010923128109232289C919923B1F0FD0186
:100BF000319680E49093A00A9091A10A96FFFCCFD1
:100C00008093A10A9F012A1B3B0B91919111F2CF76
:100C1000209331283093322808950895FC011092D2
:100C200031281092322890819923E1F0319620E00A
:100C300030E080E4261737071CF06115710569F470
:100C40009093A00A9091A10A96FFFCCF8093A10AED
:100C50002F5F3F4F91919111EDCF20933128309329
:100C6000322808950895CF92DF92EF92FF920F936A
:100C70001F93CF93DF937C0180E197E280932F282D
:100C80009093302810922E28C5E0D0E0C12CE0E1EE
:100C9000F7E2A0E4DA2E0AE010E0C701BF010E94EB
:100CA0000148AB019B01ADECBCEC0E944B48969512
:100CB000879596958795969587959C01220F331F6A
:100CC000880F991F880F991F880F991F820F931FF4
:100CD0009A01281B390BC901009711F4CC2059F057
:100CE000805D8093A00A8091A10A86FFFCCFD092FC
:100CF000A10ACC24C394CF01B8010E941548FB017E
:100D0000219759F6C0922E2860932F28709330288F
:100D1000DF91CF911F910F91FF90EF90DF90CF90D7
:100D20000895E0E2F6E087E0818380E4808B818BA8
:100D3000828BE0E0F6E090E89183878B0895E0E213
:100D4000F6E09481282F2770922B9483E0E0F6E060
:100D5000948188708295807F892B84830895E0E256
:100D6000F6E02481982F9770909592239483E0E089
:100D7000F6E0948188708295807F809589238483B2
:100D80000895E0EAF6E08FE1818380E4848B20E13E
:100D90002583E0E0FBE091E0908393EF918340E0D6
:100DA00050E146A357A3E0E4F6E090EC9283868BF3
:100DB000878B828790E8938795E09187E0E8F6E05B
:100DC00030E33283848B858B228780E2838791870F
:100DD00040E065E084E10E94E31F80937B2D9093C7
:100DE0007C2D089520E1009769F56115710509F4DE
:100DF00057C02093A606813020EF92070CF457C00D
:100E00009195819591098093280B9093290B1092CD
:100E10002A0B10922B0B7195619571091616170606
:100E200044F1613020EF72070CF444C07195619574
:100E3000710960932C0B70932D0B10922E0B109256
:100E40002F0B08952093A60618161906A4F61092E3
:100E5000280B1092290B811520E19207F4F480935E
:100E60002A0B90932B0B7195619571091616170635
:100E7000C4F610922C0B10922D0B611580E17807AF
:100E80002CF460932E0B70932F0B08956FEF7FE07F
:100E900060932E0B70932F0B08958FEF9FE0DFCFA1
:100EA0002093A506813020EF92070CF0A9CF81E0B6
:100EB00090EFA6CF61E070EFB9CF0FB6F8940F9224
:100EC0004091772D5091782D2091792D30917A2D68
:100ED0000F900FBEBA01C9010895CF93DF93CDB72C
:100EE000DEB72A97CDBFDEBF1E821F821886198605
:100EF0001A8640E050E0BE016A5F7F4F80917B2DF3
:100F000090917C2D0E94BE2185E0FE013696DE0187
:100F1000119601900D928A95E1F729813A814B81D2
:100F20005C816D8170E080E090E02A96CDBFDEBFED
:100F3000DF91CF9108951F920F920FB60F92112457
:100F40000BB60F921F932F933F934F935F936F9323
:100F50007F938F939F93AF93BF93EF93FF93CF9321
:100F6000DF9300D000D0CDB7DEB71E8220912008DD
:100F7000309121088091852D9091862DA091872D0B
:100F8000B091882D820F931FA11DB11D89839A8373
:100F9000AB83BC8380914806182F107886FF37C03A
:100FA00081E08D8320E0AE014A5F5F4FBE016F5F3D
:100FB0007F4F80917B2D90917C2D0E9410211123D9
:100FC000B9F18091772D9091782D01968093772DAE
:100FD0009093782D8E8181110E94DA1D2696CDBFC7
:100FE000DEBFDF91CF91FF91EF91BF91AF919F91C4
:100FF0008F917F916F915F914F913F912F911F91B1
:101000000F900BBE0F900FBE0F901F90189585E0AC
:101010008D8320E0AE014A5F5F4FBE016F5F7F4F5F
:1010200080917B2D90917C2D0E941021112349F2FB
:101030008091772D9091782D01978093772D9093C3
:10104000782DC8CF1F920F920FB60F9211240BB6B6
:101050000F921F932F933F934F935F936F937F93C1
:101060008F939F93AF93BF93EF93FF93CF93DF93B0
:1010700000D000D0CDB7DEB71E822091200830917D
:1010800021088091852D9091862DA091872DB0917A
:10109000882D820F931FA11DB11D89839A83AB8375
:1010A000BC8380914806182F107487FF37C082E0F8
:1010B0008D8320E0AE014A5F5F4FBE016F5F7F4FBF
:1010C00080917B2D90917C2D0E9410211123B9F1EC
:1010D0008091772D9091782D01978093772D909323
:1010E000782D8E8181110E94DA1D2696CDBFDEBF3C
:1010F000DF91CF91FF91EF91BF91AF919F918F9130
:101100007F916F915F914F913F912F911F910F9020
:101110000BBE0F900FBE0F901F90189586E08D8329
:1011200020E0AE014A5F5F4FBE016F5F7F4F80914D
:101130007B2D90917C2D0E941021112349F28091EA
:10114000772D9091782D01968093772D9093782D1F
:10115000C8CF1F920F920FB60F9211240BB60F92A9
:101160001F932F933F934F935F936F937F938F932F
:101170009F93AF93BF93EF93FF93CF93DF9300D0F1
:1011800000D0CDB7DEB71E82209120083091210813
:101190008091852D9091862DA091872DB091882DDD
:1011A000820F931FA11DB11D89839A83AB83BC83DA
:1011B00080918806182F107284FF37C083E08D83DA
:1011C00020E0AE014A5F5F4FBE016F5F7F4F8091AD
:1011D0007B2D90917C2D0E9410211123B9F18091DB
:1011E000792D90917A2D01968093792D90937A2D77
:1011F0008E8181110E94DA1D2696CDBFDEBFDF9160
:10120000CF91FF91EF91BF91AF919F918F917F917E
:101210006F915F914F913F912F911F910F900BBE56
:101220000F900FBE0F901F90189587E08D8320E0E0
:10123000AE014A5F5F4FBE016F5F7F4F80917B2D94
:1012400090917C2D0E941021112349F28091792DDB
:1012500090917A2D01978093792D90937A2DC8CF14
:101260001F920F920FB60F9211240BB60F921F937D
:101270002F933F934F935F936F937F938F939F939E
:10128000AF93BF93EF93FF93CF93DF9300D000D042
:10129000CDB7DEB71E8220912008309121088091C1
:1012A000852D9091862DA091872DB091882D820F4C
:1012B000931FA11DB11D89839A83AB83BC83809149
:1012C0008806182F107284FF1CC084E08D8320E0F4
:1012D000AE014A5F5F4FBE016F5F7F4F80917B2DF4
:1012E00090917C2D0E941021112309F447C0809118
:1012F000792D90917A2D01978093792D90937A2D65
:101300001AC088E08D8320E0AE014A5F5F4FBE01C6
:101310006F5F7F4F80917B2D90917C2D0E941021DB
:101320008091792D90917A2D111122C0019780938F
:10133000792D90937A2D8E8181110E94DA1D269647
:10134000CDBFDEBFDF91CF91FF91EF91BF91AF9104
:101350009F918F917F916F915F914F913F912F91CD
:101360001F910F900BBE0F900FBE0F901F901895FE
:1013700001968093792D90937A2DDDCF8091792DF0
:1013800090917A2D01968093792D90937A2DD3CFD9
:101390000FB6F8940F921092772D1092782D10922C
:1013A000792D10927A2D0F900FBE08951F93CF9331
:1013B000DF931F921F92CDB7DEB710E8198382E248
:1013C0008A8342E0BE016F5F7F4F8CE30E94A90FCA
:1013D00019831A8242E0BE016F5F7F4F8CE30E9447
:1013E000A90F198387E08A8342E0BE016F5F7F4FB8
:1013F0008CE30E94A90F0F900F90DF91CF911F9166
:1014000008951F93CF93DF931F921F92CDB7DEB73E
:1014100010E8198381E28A8342E0BE016F5F7F4F4B
:101420008CE30E94A90F19831A8242E0BE016F5F0C
:101430007F4F8CE30E94A90F19838FE78A8342E0D4
:10144000BE016F5F7F4F8CE30E94A90F0F900F903A
:10145000DF91CF911F9108959091342891111CC074
:1014600087FD19C06034B8F4962F96959695969599
:10147000E82FF0E020E8929FE00DF11D1124EB5CD5
:10148000F74D677081E090E001C0880F6A95EAF738
:101490009081892B80830895913021F19230D9F782
:1014A00087FDF9CF6034B8F770E0EFE3F0E0E61BBA
:1014B000F70BF595E795F595E795F595E795F6958D
:1014C000FE2FEE27F795E7952FE730E0A901481B9F
:1014D0005109E40FF51FEB5CF74D6095709567704F
:1014E0007727D0CF8034B8F667FDD5CF982F969563
:1014F00096959695AFE7B0E0A61BB10940E8949F9A
:10150000A00DB11D1124AB5CB74DE82FE77081E051
:1015100090E001C0880FEA95EAF79C91892B8C93A3
:1015200008959091342891111DC087FD1AC0603430
:10153000C0F4962F969596959695E82FF0E020E8C2
:10154000929FE00DF11D1124EB5CF74D677081E077
:1015500090E001C0880F6A95EAF780959081892311
:1015600080830895913021F19230D9F787FDF9CF2A
:101570006034B8F770E0EFE3F0E0E61BF70BF595A9
:10158000E795F595E795F595E795F695FE2FEE2706
:10159000F795E7952FE730E0A901481B5109E40FC3
:1015A000F51FEB5CF74D6095709567707727CFCF8F
:1015B0008034B8F667FDD5CF982F96959695969579
:1015C000AFE7B0E0A61BB10940E8949FA00DB11DA4
:1015D0001124AB5CB74DE82FE77081E090E001C0CB
:1015E000880FEA95EAF780959C9189238C9308955A
:1015F0006F927F928F929F92AF92BF92CF92DF9223
:10160000EF92FF920F931F93CF93DF939091342823
:10161000911128C02223D1F126E0829FC00111241C
:1016200020E8629F800D911D112450E04052510925
:10163000FA01EE0FFF1FEE0FFF1FE40FF51FE55D30
:10164000FE4DDC01AB5CB74DAC014B5F5F4F0196CB
:1016500021912D9384179507D1F7FC01EB5CF74D91
:10166000108205C09130E9F0923009F477C0DF9123
:10167000CF911F910F91FF90EF90DF90CF90BF908F
:10168000AF909F908F907F906F90089526E0829FFB
:10169000C00111248B3791051CF26F5F80E090E050
:1016A000BFCF882E880C880D882E880C662E660C7D
:1016B000660C660CE62CF12C87E0E80EF11CA82CD9
:1016C000B12C24E0A20EB11C762C50E040525109FE
:1016D000CC24C394D12CEA01CC0FDD1FCC0FDD1F2D
:1016E0004C0F5D1FEA01C55DDE4D872D8619860111
:1016F00002C0000F111F8A95E2F7982C0AC0809152
:101700003328811126C09394892D90E0A816B9063C
:10171000CCF0892D8819FE01E80FF11D808190E041
:1017200080239123892B59F780913328882359F3FB
:10173000672D892D0E94910A9394892D90E0A81617
:10174000B9063CF77394872D90E0E816F9066CF61D
:101750008ECF672D892D0E942C0AD5CF882E880C1C
:10176000880D882E880C662E660C660C660CE62C9E
:10177000F12C87E0E80EF11CA82CB12C24E0A20E7D
:10178000B11C762C50E040525109CC24C394D12C8A
:10179000EA01CC0FDD1FCC0FDD1F4C0F5D1FEA01EE
:1017A000C55DDE4D872D8619860102C0000F111F11
:1017B0008A95E2F7982C0AC080913328811126C0BF
:1017C0009394892D90E0A816B906CCF0892D88193C
:1017D000FE01E80FF11D808190E080239123892B89
:1017E00059F780913328882359F3672D892D0E945A
:1017F000910A9394892D90E0A816B9063CF773944A
:10180000872D90E0E816F9066CF631CF672D892D0B
:101810000E942C0AD5CFBF92CF92DF92EF92FF9217
:101820000F931F93CF93DF93CDB7DEB76197CDBFF3
:10183000DEBF80913328882349F10E94010A8091FC
:101840003328811130C085E3C82E88E2D82E95E375
:10185000E92E9CE2F92E8E010E5E1F4F20E4B22E7F
:10186000B982FE013296D6018D918193E017F1077E
:10187000D9F741E1BE016F5F7F4F8CE30E94A90F52
:1018800080E1C80ED11CEC14FD0451F76196CDBF68
:10189000DEBFDF91CF911F910F91FF90EF90DF900E
:1018A000CF90BF9008950E94D609CDCF9091332854
:1018B000992331F0813820F4613410F40C94F80A43
:1018C0000895FF920F931F93CF93DF93F82E042F69
:1018D00080913328882339F180913428982F9D7F77
:1018E00041F527E02F15F8F0FB0140814423D9F0A2
:1018F000EB01219610E00CC026E0129FC0011124DC
:101900008B37910564F0F39411E04991442359F029
:10191000113818F4F0E4FF1568F5002369F31F5F30
:1019200049914111F5CFDF91CF911F910F91FF9018
:1019300008958130C1F78FE08F15A8F3FB01408136
:10194000442389F3EB01219610E00BC026E0129F9F
:10195000C0011124CB9764F0F39411E04991442322
:1019600011F3113818F4F0E4FF1550F4002371F36B
:101970001F5FF4CF202F6F2D812F0E94F80ACDCF4B
:10198000202F6F2D812F0E94F80AF0CF80E094E085
:10199000E5E3F8E2DF019C011D9221503040E1F7C0
:1019A00008950F931F93CF93DF9300D01F92CDB76D
:1019B000DEB7109233288093342810E819838EEA1A
:1019C0008A8342E0BE016F5F7F4F8CE30E94A90FC4
:1019D000882309F4C3C0198385ED8A831B831C8384
:1019E00044E0BE016F5F7F4F8CE30E94A90F198313
:1019F00088EA8A831B838FE38C8344E0BE016F5F98
:101A00007F4F8CE30E94A90F198383ED8A831B8388
:101A10001C8244E0BE016F5F7F4F8CE30E94A90FE0
:101A200019838DE88A831B8384E18C8344E0BE01A3
:101A30006F5F7F4F8CE30E94A90F198300E40A8334
:101A400042E0BE016F5F7F4F8CE30E94A90F1983B4
:101A500086EA8A8342E0BE016F5F7F4F8CE30E947B
:101A6000A90F198384EA8A8342E0BE016F5F7F4F2A
:101A70008CE30E94A90F198381EA8A8342E0BE01A8
:101A80006F5F7F4F8CE30E94A90F198388EC8A83D4
:101A900042E0BE016F5F7F4F8CE30E94A90F198364
:101AA00080E28A8342E0BE016F5F7F4F8CE30E9439
:101AB000A90F19831A8242E0BE016F5F7F4F8CE34A
:101AC0000E94A90F19838AED8A831B8382E18C838C
:101AD00044E0BE016F5F7F4F8CE30E94A90F198322
:101AE00081E88A831B838FE88C8344E0BE016F5FAB
:101AF0007F4F8CE30E94A90F198389ED8A831B8392
:101B000081EF8C8344E0BE016F5F7F4F8CE30E94C6
:101B1000A90F19838BED8A831B830C8344E0BE01DC
:101B20006F5F7F4F8CE30E94A90F19838FEA8A832E
:101B300042E0BE016F5F7F4F8CE30E94A90F80E0FF
:101B400094E0E5E3F8E2DF019C011D922150304072
:101B5000E1F70E940B0C81E0809333282496CDBFDF
:101B6000DEBFDF91CF911F910F910895CF93C82FC2
:101B70008091842C8E3450F59091852C911106C063
:101B8000E82FF0E0EA5CF34D2FEF2083C11110C085
:101B9000E82FF0E0EA5CF34D20E830E0092E02C0C7
:101BA000359527950A94E2F72095308123232083E9
:101BB0009F5F983039F41092852C8F5F8093842C2E
:101BC000CF9108959093852CCF91089567E270E0AE
:101BD00081E093E20E94DF2F9091852C8091842CEC
:101BE00091110DC0E82FF0E0EA5CF34D2FEF208358
:101BF0008E3460F281E08093852CCF9108958E34ED
:101C000028F29F5F9830B9F2DDCF80E00E94B60DD8
:101C100081E00E94B60D81E00E94B60D81E00E9435
:101C2000B60D81E00C94B60D80E00E94B60D80E008
:101C30000E94B60D80E00E94B60D80E00E94B60DB5
:101C400081E00C94B60DCF93DF93D82FC8E005C088
:101C50000E94050EDD0FC15039F0D7FFF9CF0E9469
:101C6000140EDD0FC150C9F7DF91CF910895E0E068
:101C7000F6E080E48183868308953F924F925F92DD
:101C80006F927F928F929F92AF92BF92CF92DF928C
:101C9000EF92FF920F931F93CF93DF93362E472E31
:101CA000582ED22E132FD42F88E08093610690E413
:101CB000909373061092A3098093A40980EC8093FB
:101CC000A50985E08093A60986E3882E8CE2982EEC
:101CD00094E8692E9CE2792EF4018FEF81936E16C1
:101CE0007F06E1F71092842CC5E881E00E94B60DD2
:101CF000C150D9F7832D0E94230E842D0E94230EFC
:101D0000852D0E94230E8D2D0E94230E812F0E946F
:101D1000230E8D2F0E94230E8E2D0E94230E8F2DB9
:101D20000E94230E802F0E94230E8A2D0E94230ED4
:101D30008B2D0E94230E8C2D0E94230E0FB6F8943B
:101D40000F921092352C80E48093050620E4F40174
:101D500091914F018091A10985FFFCCF2093A109AA
:101D60009093A0096814790491F78FEE90E00197A1
:101D7000F1F700C0000080E4809306060F900FBECC
:101D8000DF91CF911F910F91FF90EF90DF90CF9057
:101D9000BF90AF909F908F907F906F905F904F908B
:101DA0003F90089580E2809341060895811104C018
:101DB00080E280934606089580E280934506089568
:101DC0008BEC8093520088E080935000809151000A
:101DD00083FFFCCF82EC8093550088E18093500014
:101DE0008091510084FFFCCF88ED84BF84E0809314
:101DF000400080E0089510928B2CE0E8F6E088E146
:101E0000808B818BE0EAF4E088E7818383E285833D
:101E100081E084830E94F6208093882C9093892C03
:101E200043E060E081E00E94E31F8093862C909362
:101E3000872C0895CF92DF92EF92FF920F931F931A
:101E4000CF93DF93D82F6B01142F79016FEF7FEFC2
:101E50008091882C9091892C0E947B22C092922C98
:101E6000D092932CE092902CF092912CC0918B2CDC
:101E7000C11155C081E080938B2C10928A2C8D2F3C
:101E8000880F8093942C10938F2C00938E2C10929B
:101E90008D2C10928C2C80918F2C8823B1F1809105
:101EA000942C8E7F8093A6046FEF7FEF8091862C19
:101EB0009091872C0E947B2280918A2C8130E1F1C5
:101EC0001F928F931F92DF9380E293E29F938F93F1
:101ED0000E94584D20E040E050E060E070E08091CA
:101EE000882C9091892C0E9427200F900F900F90A2
:101EF0000F900F900F908C2FDF91CF911F910F912A
:101F0000FF90EF90DF90CF90089580918E2C8823E2
:101F100059F28091942C81608093A604C5CF20E073
:101F200040E050E060E070E08091882C9091892C36
:101F30000E942720C0E0DFCF20E040E050E060E0DA
:101F400070E08091882C9091892C0E942720C1E01C
:101F5000D2CF0F9300E020E030E00E941A0F0F91E3
:101F6000089590918F2C20918E2C8091A40484FD53
:101F700022C080918D2C891768F080918C2C82175B
:101F800018F183E08093A30481E080938A2C10925F
:101F90008B2C089580918D2CE091922CF091932CB4
:101FA000E80FF11D80818093A70480918D2C8F5FB5
:101FB00080938D2C089583E08093A30485E0809323
:101FC0008A2C10928B2C08958091942C81608093A0
:101FD000A604089580918C2C8032F8F48091A70497
:101FE00090918C2CE091902CF091912CE90FF11DA7
:101FF000808380918C2C8F5F80938C2C90918E2C81
:1020000080918C2C8917B8F087E08093A30481E03D
:1020100080938A2C10928B2C089583E08093A304E4
:1020200082E080938A2C10928B2C90918E2C809140
:102030008C2C891748F782E08093A30408951F929F
:102040000F920FB60F9211240BB60F922F933F935E
:102050004F935F936F937F938F939F93AF93BF93B0
:10206000EF93FF93CF93DF931F92CDB7DEB7198223
:102070008091A404982F9C70E1F486FD44C087FDF4
:1020800045C086E080938A2C10928B2C80918B2CFB
:1020900081111FC0BE016F5F7F4F8091862C909190
:1020A000872C0E946B218981882399F00E94DA1D78
:1020B00010C08091A40482FD22C093E090938A2CEA
:1020C00088608093A40410928B2C80918B2C8823A1
:1020D00009F30F90DF91CF91FF91EF91BF91AF91F5
:1020E0009F918F917F916F915F914F913F912F9130
:1020F0000F900BBE0F900FBE0F901F90189594E09D
:1021000090938A2CDDCF0E94B10FDFCF0E94EA0F9F
:10211000DCCFCF93DF931F92CDB7DEB74FEF5FEFEA
:10212000BE016F5F7F4F80917D2D90917E2D0E942B
:10213000BE21898190E00F90DF91CF910895CF93D8
:10214000DF931F921F92CDB7DEB78A8320E04FEF57
:102150005FEFBE016E5F7F4F80917F2D9091802D4C
:102160000E9427208091A10A85FF0EC040E050E028
:10217000BE016F5F7F4F80917F2D9091802D0E94D7
:10218000BE2189818093A00A80E090E00F900F909B
:10219000DF91CF91089540E061E080E80E94E31F65
:1021A00080937F2D9093802D40E061E080E80E9435
:1021B000E31F80937D2D90937E2DE0E8F6E088E08C
:1021C000818384E08283E0EAFAE088E3838388E124
:1021D000848383E0858385EE86838CEB8783E3E9C4
:1021E000FDE286E090E28283938380839183089569
:1021F0001F920F920FB60F9211240BB60F922F93CE
:102200003F934F935F936F937F938F939F93AF937E
:10221000BF93EF93FF93CF93DF931F921F92CDB79E
:10222000DEB71982AE014F5F5F4FBE016E5F7F4F19
:1022300080917F2D9091802D0E9432248130D9F0A1
:10224000898181110E94DA1D0F900F90DF91CF914B
:10225000FF91EF91BF91AF919F918F917F916F917E
:102260005F914F913F912F910F900BBE0F900FBE3A
:102270000F901F9018958A818093A00AE1CF1F923A
:102280000F920FB60F9211240BB60F922F933F931C
:102290004F935F936F937F938F939F93AF93BF936E
:1022A000EF93FF93CF93DF931F921F92CDB7DEB7CB
:1022B00019828091A00A8A8320E0AE014F5F5F4FB0
:1022C000BE016E5F7F4F80917D2D90917E2D0E948B
:1022D0001021898181110E94DA1D0F900F90DF91EA
:1022E000CF91FF91EF91BF91AF919F918F917F918E
:1022F0006F915F914F913F912F910F900BBE0F9077
:102300000FBE0F901F901895EF92FF920F93CF93EF
:10231000DF9300D01F92CDB7DEB77C0181E08983C7
:1023200001E09E012F5F3F4F41E0B90189E20E9429
:102330001A0F898184FB992790F9F701908383FB19
:10234000992790F9928382FB992790F9918386FBD4
:10235000992790F99383881F8827881F8483249660
:10236000CDBFDEBFDF91CF910F91FF90EF90089529
:102370000F931F93CF93DF9300D01F92CDB7DEB79B
:10238000198281608A8342E0BE016F5F7F4F89E2DC
:102390000E94A90F20912008309121088091852D5D
:1023A0009091862DA091872DB091882D820F931F3B
:1023B000A11DB11D8093952C9093962CA093972CE2
:1023C000B093982C13E1198301E09E012F5F3F4FDA
:1023D00041E0B90189E20E941A0F8981877099F35F
:1023E0008BE0898381E08A8342E0BE016F5F7F4F8B
:1023F00089E20E94A90F19821A8242E0BE016F5F32
:102400007F4F89E20E94A90F81E02496CDBFDEBFF5
:10241000DF91CF911F910F910895EF92FF920F934B
:10242000CF93DF9300D01F92CDB7DEB77B018983B6
:1024300002E09E012F5F3F4F41E0B90189E20E9417
:102440001A0FE114F10461F0298130E09A81985F5C
:1024500002C0220F331F9A95E2F7F70120833183E0
:102460002496CDBFDEBFDF91CF910F91FF90EF900B
:1024700008958F929F92AF92BF92CF92DF92EF9288
:10248000FF920F931F93CF93DF9300D000D0CDB76F
:10249000DEB76C017B0180E5898301E09E012F5F3F
:1024A0003F4F41E0B90189E20E941A0F89818F5F95
:1024B000880F90E0F7018083918386E489839E01F1
:1024C0002F5F3F4F41E0B90189E20E941A0F098155
:1024D00010E00F5F1F4FF70104831583A081B0E068
:1024E00020E03FE24AE350E00E945A486C507E4FA1
:1024F0008F4F9F4F38EE832E33E0932EA12CB12CBB
:10250000A50194010E942948D8010E9465486C5099
:102510007E4F8F4F9F4FA50194010E942948F701DC
:102520002287338744875587BE016B5F7F4F81E5E4
:102530000E940D128D819E818C01112702C0000F17
:10254000111F9A95E2F70F5F1F4FF701068317835C
:10255000A081B0E020E03FE24AE350E00E945A4808
:102560006C507E4F8F4F9F4FA50194010E942948C8
:10257000D8010E945A486C507E4F8F4F9F4FA50143
:1025800094010E942948F70126873787408B518B99
:1025900080E7898301E09E012F5F3F4F41E0B90151
:1025A00089E20E941A0F89818F5F880F90E0F701FE
:1025B00082839383BE016B5F7F4F81E70E940D1280
:1025C0008D819E818C01112702C0000F111F9A95E9
:1025D000E2F70F5F1F4FF70100871187F601808137
:1025E000882339F0F70186819781081B190B008732
:1025F0001187F701A281B0E020E03FE24AE350E01A
:102600000E945A486C507E4F8F4F9F4F28EE822E6B
:1026100023E0922EA12CB12CA50194010E942948FF
:10262000D8010E945A486C507E4F8F4F9F4FA50192
:1026300094010E942948F701228B338B448B558BE0
:102640002696CDBFDEBFDF91CF911F910F91FF90F6
:10265000EF90DF90CF90BF90AF909F908F900895B4
:102660004F925F926F927F928F929F92AF92BF92A2
:10267000CF92DF92EF92FF921F93CF93DF93CDB76C
:10268000DEB76F97CDBFDEBF6B017C01CE014796F1
:102690000E948411BE016F5F7F4FCE014A960E9457
:1026A00039128F89882309F4B0C08B859C85AD854C
:1026B000BE858C57924FAF4FBF4F298D222309F40F
:1026C00093C04B855C856D857E854E545D4F6F4F05
:1026D0007F4F440F551F661F771F840F951FA61F3E
:1026E000B71F1A8D112361F04F85588969897A893E
:1026F0004C565D4F6F4F7F4F840F951FA61FB71F1E
:102700002B8D222309F49AC02C013D0126E2420EB2
:1027100022E0521E611C711CC414D504E604F704A7
:1027200008F478C0AB81B0E020E03FE24AE350E03B
:102730000E945A484B015C0124EF820E21E0921E58
:10274000A11CB11CA7019601241935094609570996
:10275000A8EEB3E00E945A482B013C01C501B40128
:1027600020ED37E040E050E00E942948420E531E21
:10277000641E751EC501B40128EE33E040E050E050
:102780000E942948C301B2010E942948112331F057
:102790008F819885280F391F411D511D2115310545
:1027A0004105510509F44CC0DA01C9010197A1099D
:1027B000B109AC01BD01442720E030E0452B462B98
:1027C000472B79F0B695A795979587952F5F3F4F43
:1027D000AC01BD014427452B462B472B99F7322FDF
:1027E0002227822B932B2EC0288D222309F479CF08
:1027F0004B855C856D857E854C565D4F6F4F7F4F59
:10280000840F951FA61FB71F6CCF86E39BE0A0E047
:10281000B0E053CF80E06F96CDBFDEBFDF91CF91A8
:102820001F91FF90EF90DF90CF90BF90AF909F905F
:102830008F907F906F905F904F90089581E0EBCFE5
:1028400080E090E021E72C8F9D8F8E8F43E0BE01CA
:10285000645E7F4F89E20E94A90FC092812DD092C1
:10286000822DE092832DF092842D81E0D4CF2F929F
:102870003F924F925F926F927F928F929F92AF9210
:10288000BF92CF92DF92EF92FF920F931F93CF935D
:10289000DF93CDB7DEB7A197CDBFDEBF80EC8983D4
:1028A00001E09E012F5F3F4F41E0B90189E20E94A4
:1028B0001A0F9981882309F4EFC59E3ED9F080E56F
:1028C00093E20E94944D80E0A196CDBFDEBFDF91E0
:1028D000CF911F910F91FF90EF90DF90CF90BF901D
:1028E000AF909F908F907F906F905F904F903F90B0
:1028F0002F90089588E889831A8242E0BE016F5FB5
:102900007F4F89E20E94A90FE0E8EE2EE98211E0F4
:102910001A8342E0BE016F5F7F4F89E20E94A90FD8
:10292000FF24FA94F9821A8342E0BE016F5F7F4F61
:1029300089E20E94A90F19821A8242E0BE016F5FEC
:102940007F4F89E20E94A90F81E9898301E09E01FE
:102950002F5F3F4F41E0B90189E20E941A0F898140
:102960008093992C19821A8342E0BE016F5F7F4FDA
:1029700089E20E94A90FF9821A8242E0BE016F5FCC
:102980007F4F89E20E94A90FE9821A8242E0BE01CC
:102990006F5F7F4F89E20E94A90FF0E6DF2ED98298
:1029A0009E012F5F3F4F41E0B90189E20E941A0F5B
:1029B0008981D98282618A8342E0BE016F5F7F4F45
:1029C00089E20E94A90F84E489831A8280E28B83C2
:1029D00043E0BE016F5F7F4F89E20E94A90F198318
:1029E000FA8242E0BE016F5F7F4F89E20E94A90F29
:1029F000E9821A8342E0BE016F5F7F4F89E20E9445
:102A0000A90FF9821A8342E0BE016F5F7F4F89E20E
:102A10000E94A90F19821A8242E0BE016F5F7F4FA8
:102A200089E20E94A90FF98286E08A8342E0BE0112
:102A30006F5F7F4F89E20E94A90FA3E8DA2ED98247
:102A40009E012F5F3F4F41E0B90189E20E941A0FBA
:102A50008981D98284608A8342E0BE016F5F7F4FA3
:102A600089E20E94A90FF98287E08A8342E0BE01D1
:102A70006F5F7F4F89E20E94A90F81E889831A83E3
:102A800042E0BE016F5F7F4F89E20E94A90FE98299
:102A90001A8342E0BE016F5F7F4F89E20E94A90F57
:102AA00084E989838BE68A8342E0BE016F5F7F4FB2
:102AB00089E20E94A90FD9821A8242E0BE016F5FAB
:102AC0007F4F89E20E94A90F2091200830912108B0
:102AD0008091852D9091862DA091872DB091882D84
:102AE000820F931FA11DB11D8093952C9093962C5E
:102AF000A093972CB093982CB3E8FB2E13E8F9829F
:102B000001E09E012F5F3F4F41E0B90189E20E9441
:102B10001A0F8981882391F31983DD24D394DA82F3
:102B200042E0BE016F5F7F4F89E20E94A90F82E9F8
:102B300089839E012F5F3F4F41E0B90189E20E94E6
:102B40001A0FF98081E889831A8242E0BE016F5F23
:102B50007F4F89E20E94A90FEE24EA94E98286E081
:102B60008A8342E0BE016F5F7F4F89E20E94A90F16
:102B700019839E012F5F3F4F41E0B90189E20E9416
:102B80001A0F898119838B7F8A8342E0BE016F5FB0
:102B90007F4F89E20E94A90FE982DA8242E0BE01FA
:102BA0006F5F7F4F89E20E94A90F1982DA8242E0AB
:102BB000BE016F5F7F4F89E20E94A90FE9821A82EE
:102BC00042E0BE016F5F7F4F89E20E94A90F80E85B
:102BD00089831A8242E0BE016F5F7F4F89E20E94C3
:102BE000A90F80EB898306E09E01295E3F4F41E0FB
:102BF000BE016F5F7F4F89E20E941A0FE982DA827D
:102C000042E0BE016F5F7F4F89E20E94A90F8FE40F
:102C100089831A8242E0BE016F5F7F4F89E20E9482
:102C2000A90F8EE489838CE28A8342E0BE016F5F44
:102C30007F4F89E20E94A90FE9821A8242E0BE0119
:102C40006F5F7F4F89E20E94A90F86EB898384EB37
:102C50008A8342E0BE016F5F7F4F89E20E94A90F25
:102C6000F7FC20C440E000E050E021E030E07F2DA0
:102C70007F7710C05717D1F0808190E0602F677088
:102C800002C0959587956A95E2F780FD5F5F0F5FBB
:102C90000033E1F0802F869586958695E7E1F0E098
:102CA000EC0FFD1FE80FF11D041720F7802F877030
:102CB000D90102C0AA0FBB1F8A95E2F7CD0180950A
:102CC0009081892380830F5F003321F780EB898314
:102CD00086E0FE017796DE01129601900D928A95AC
:102CE000E1F747E0BE016F5F7F4F89E20E94A90FC5
:102CF0001FEF1983FF24F394FA8242E0BE016F5F55
:102D00007F4F89E20E94A90F19821A8242E0BE0118
:102D10006F5F7F4F89E20E94A90F19831A8242E0F8
:102D2000BE016F5F7F4F89E20E94A90F39E0B32E89
:102D3000B9821A8242E0BE016F5F7F4F89E20E9432
:102D4000A90F80E189831A8242E0BE016F5F7F4F45
:102D500089E20E94A90F81E189831A8242E0BE01C3
:102D60006F5F7F4F89E20E94A90F84E28983FA8214
:102D700042E0BE016F5F7F4F89E20E94A90F45E2EA
:102D8000942E99821A8342E0BE016F5F7F4F89E2E1
:102D90000E94A90F85E789831A8242E0BE016F5F16
:102DA0007F4F89E20E94A90F1983FA8242E0BE0197
:102DB0006F5F7F4F89E20E94A90F8EE489838CE2C6
:102DC0008A8342E0BE016F5F7F4F89E20E94A90FB4
:102DD00058E4A52EA9821A8242E0BE016F5F7F4FA0
:102DE00089E20E94A90F098360E2D62EDA8242E0CE
:102DF000BE016F5F7F4F89E20E94A90F19831A827B
:102E000042E0BE016F5F7F4F89E20E94A90F0983F4
:102E1000BA8242E0BE016F5F7F4F89E20E94A90F34
:102E200084E589831A8242E0BE016F5F7F4F89E2A9
:102E30000E94A90F71E3572E5982B4E0BA8342E091
:102E4000BE016F5F7F4F89E20E94A90FE2E38E2EE1
:102E50008982F3E04F2E4A8242E0BE016F5F7F4FCE
:102E600089E20E94A90FA0E4EA2EE98283E88A831E
:102E700042E0BE016F5F7F4F89E20E94A90FB6E476
:102E80006B2E69829A8242E0BE016F5F7F4F89E2BA
:102E90000E94A90F80E689831A8242E0BE016F5F1B
:102EA0007F4F89E20E94A90F87E289831A8242E05C
:102EB000BE016F5F7F4F89E20E94A90F80E5898381
:102EC00086E0282E2A8242E0BE016F5F7F4F89E2B2
:102ED0000E94A90F81E589831A8242E0BE016F5FDB
:102EE0007F4F89E20E94A90F82E5898386E98A8360
:102EF00042E0BE016F5F7F4F89E20E94A90F86E525
:102F0000898398E0992E9A8242E0BE016F5F7F4FDD
:102F100089E20E94A90F87E589830A8342E0BE0106
:102F20006F5F7F4F89E20E94A90F81E689831A8231
:102F300042E0BE016F5F7F4F89E20E94A90F82E6E7
:102F400089831A8242E0BE016F5F7F4F89E20E944F
:102F5000A90F84E689831A8242E0BE016F5F7F4F2A
:102F600089E20E94A90F85E689831A8242E0BE01A8
:102F70006F5F7F4F89E20E94A90F86E6898380EA0E
:102F80008A8342E0BE016F5F7F4F89E20E94A90FF2
:102F90001983FA8242E0BE016F5F7F4F89E20E948F
:102FA000A90F82E289838A8242E0BE016F5F7F4F70
:102FB00089E20E94A90F27E4822E898284E18A8314
:102FC00042E0BE016F5F7F4F89E20E94A90F89E452
:102FD00089831A8342E0BE016F5F7F4F89E20E94BE
:102FE000A90F8AE489831A8242E0BE016F5F7F4F96
:102FF00089E20E94A90F19831A8242E0BE016F5F25
:103000007F4F89E20E94A90F8AE789832AE02A83F9
:1030100042E0BE016F5F7F4F89E20E94A90F8BE7FC
:1030200089831A8242E0BE016F5F7F4F89E20E946E
:10303000A90F88E7898381E28A8342E0BE016F5F3E
:103040007F4F89E20E94A90F1983FA8242E0BE01F4
:103050006F5F7F4F89E20E94A90F83E2898334E387
:10306000332E3A8242E0BE016F5F7F4F89E20E94B9
:10307000A90F82E489831A8242E0BE016F5F7F4F0D
:1030800089E20E94A90F44E4C42EC9821A8342E057
:10309000BE016F5F7F4F89E20E94A90F55E4752E34
:1030A000798286E28A8342E0BE016F5F7F4F89E2C8
:1030B0000E94A90F698265E0662E6A8242E0BE0125
:1030C0006F5F7F4F89E20E94A90FE982EA8242E0A6
:1030D000BE016F5F7F4F89E20E94A90F8EE0898356
:1030E0002A8242E0BE016F5F7F4F89E20E94A90FF2
:1030F000D9828AE18A8342E0BE016F5F7F4F89E215
:103100000E94A90F83E48983EA8242E0BE016F5FD7
:103110007F4F89E20E94A90F19831A8242E0BE0103
:103120006F5F7F4F89E20E94A90F39824A8242E095
:10313000BE016F5F7F4F89E20E94A90F85E38983FB
:10314000CA8242E0BE016F5F7F4F89E20E94A90FF1
:103150001983FA8242E0BE016F5F7F4F89E20E94CD
:10316000A90F598284E08A8342E0BE016F5F7F4FDE
:1031700089E20E94A90F8BE48983BA8242E0BE01F2
:103180006F5F7F4F89E20E94A90F8CE489836A8276
:1031900042E0BE016F5F7F4F89E20E94A90F8DE47C
:1031A0008983A4E0AA8342E0BE016F5F7F4F89E27A
:1031B0000E94A90F19831A8242E0BE016F5F7F4F00
:1031C00089E20E94A90FC9821A8242E0BE016F5FA4
:1031D0007F4F89E20E94A90F7982DA8242E0BE0124
:1031E0006F5F7F4F89E20E94A90F89829A8242E035
:1031F000BE016F5F7F4F89E20E94A90FA98288E21A
:103200008A8342E0BE016F5F7F4F89E20E94A90F6F
:1032100087E689831A8242E0BE016F5F7F4F89E2B1
:103220000E94A90F80E78983B4E0BA8342E0BE011F
:103230006F5F7F4F89E20E94A90F81E78983FA823D
:1032400042E0BE016F5F7F4F89E20E94A90F82E7D3
:1032500089838EEF8A8342E0BE016F5F7F4F89E2F0
:103260000E94A90F86E789831A8242E0BE016F5F40
:103270007F4F89E20E94A90F87E789831A8242E083
:10328000BE016F5F7F4F89E20E94A90F1983FA8206
:1032900042E0BE016F5F7F4F89E20E94A90F8DE07F
:1032A0008983FA8242E0BE016F5F7F4F89E20E940C
:1032B000A90F19831A8242E0BE016F5F7F4F89E236
:1032C0000E94A90F70E8E72EE982FA8242E0BE016F
:1032D0006F5F7F4F89E20E94A90FF98288EF8A838E
:1032E00042E0BE016F5F7F4F89E20E94A90F198300
:1032F000FA8242E0BE016F5F7F4F89E20E94A90F10
:103300008EE88983FA8242E0BE016F5F7F4F89E2D7
:103310000E94A90F1982FA8242E0BE016F5F7F4FBF
:1033200089E20E94A90F19831A8242E0BE016F5FF1
:103330007F4F89E20E94A90FE9821A8242E0BE0112
:103340006F5F7F4F89E20E94A90F2AE0298384E002
:103350008A8342E0BE016F5F7F4F89E20E94A90F1E
:1033600014E8198301E09E012F5F3F4F41E0B9014E
:1033700089E20E941A0F898119838F7E8A8342E035
:10338000BE016F5F7F4F89E20E94A90F8BE08983A6
:10339000FA8242E0BE016F5F7F4F89E20E94A90F6F
:1033A000CE014D960E948411BE016F5F7F4FCE010A
:1033B00080960E9439128D8D882309F486C08B85F2
:1033C0009C85AD85BE858C57924FAF4FBF4F2F8DDB
:1033D000222309F469C04B855C856D857E854E543A
:1033E0005D4F6F4F7F4F440F551F661F771F840F30
:1033F000951FA61FB71F28A1222361F04F8558896A
:1034000069897A894C565D4F6F4F7F4F840F951FA6
:10341000A61FB71F29A1222361F04B895C896D8902
:103420007E894A5D5D4F6F4F7F4F840F951FA61FAA
:10343000B71F8093812D9093822DA093832DB093FD
:10344000842D81E0898388EE8A8342E0BE016F5F2C
:103450007F4F89E20E94A90F6091812D7091822D8A
:103460008091832D9091842D6032AEE47A0781059E
:10347000910508F04AC011E019831A8342E0BE01A9
:103480006F5F7F4F89E20E94A90F80E40E94B8110C
:10349000811120C080E018CA88E393E20E94944D15
:1034A00080E012CA4CE0DFCB2E8D222309F4A3CF9B
:1034B0004B855C856D857E854C565D4F6F4F7F4F8C
:1034C000840F951FA61FB71F96CF86E39BE0A0E051
:1034D000B0E07DCF198382E08A8342E0BE016F5F56
:1034E0007F4F89E20E94A90F80E00E94B8118823D3
:1034F00089F2198388EE8A8342E0BE016F5F7F4FB5
:1035000089E20E94A90F81E0DFC90E943013B3CF86
:103510000F931F93CF93DF9300D000D0CDB7DEB7CA
:1035200020912008309121088091852D9091862D41
:10353000A091872DB091882D820F931FA11DB11DE1
:103540008093952C9093962CA093972CB093982CC5
:1035500013E1198301E09E012F5F3F4F41E0B90164
:1035600089E20E941A0F8981877099F3BE016B5F0F
:103570007F4F8EE10E940D120D811E818BE08983A9
:1035800081E08A8342E0BE016F5F7F4F89E20E9443
:10359000A90FC8012696CDBFDEBFDF91CF911F9145
:1035A0000F910895FF920F931F93CF93DF9300D055
:1035B0001F92CDB7DEB700E8098311E01A8342E01D
:1035C000BE016F5F7F4F89E20E94A90FFF24FA942A
:1035D000F9821A8342E0BE016F5F7F4F89E20E9449
:1035E000A90F19821A8242E0BE016F5F7F4F89E204
:1035F0000E94A90F8091992C91E999838A8342E0D6
:10360000BE016F5F7F4F89E20E94A90F19821A8362
:1036100042E0BE016F5F7F4F89E20E94A90FF982ED
:103620001A8242E0BE016F5F7F4F89E20E94A90FBC
:1036300009831A8242E0BE016F5F7F4F89E20E94D8
:10364000A90F19821A8342E0BE016F5F7F4F89E2A2
:103650000E94A90F20912008309121088091852D8A
:103660009091862DA091872DB091882D820F931F68
:10367000A11DB11D8093952C9093962CA093972C0F
:10368000B093982C198201E09E012F5F3F4F41E0DB
:10369000B90189E20E941A0F898180FDF3CF0E944F
:1036A000881A2496CDBFDEBFDF91CF911F910F9175
:1036B000FF900895CF93DF93C8E4D0E08881817FA5
:1036C00084608883789484E690E00E94872AE0EA08
:1036D000F0E082818C7F828380E00E94D60E888118
:1036E0008160888382E390E00E94872A88958881A0
:1036F0008E7F8883DF91CF9108950F931F93CF938F
:10370000DF93EC010E94A62880919A2C811121C0A0
:10371000E091892DF0918A2DCF01019680939F2C05
:103720009093A02C1092A12C1092A22C8FEF9FE3CB
:1037300080939D2C90939E2C10929B2C10929C2CED
:10374000838394838BE99CE28183928381E08093DD
:103750009A2C209709F464C0AE014C5F5F4F23960A
:10376000CE3FDF4308F05CC0E0919F2CF091A02C8D
:10377000AFE9BCE206C080819181009739F0DF019A
:10378000FC012281338124173507A8F3CCE2EB3901
:10379000FC0709F445C0CD91DC9111978E010C5FB7
:1037A0001F4F808191818D939C93C901841B950B40
:1037B0008930910500F1BF01640F751FDB0112967E
:1037C0008D939C9313974283538312962D913C9132
:1037D0001397AFE9BCE201C0DF01ED91FC911197B5
:1037E0008281938182179307B8F3EB01E883F98311
:1037F0006D937C939A018091142090911520821BE7
:10380000930B80931420909315200E94A2290115F8
:10381000110541F0C801DF91CF911F910F910895DB
:103820000E94A2290E94962F00E010E0C801DF91BB
:10383000CF911F910F910895CF93DF93009721F1BE
:10384000EC0124970E94A6284A815B81AFE9BCE283
:1038500001C0DF01ED91FC91119722813381241782
:103860003507B8F3E883F983CD93DC938091142076
:1038700090911520480F591F409314205093152004
:10388000DF91CF910C94A229DF91CF91089580917F
:103890001420909115200895FC0103968183928352
:1038A0002FEF3FEF2383348385839683878390872D
:1038B00010820895FC01108611860895CF93DF933E
:1038C0009C01FB01DC011196CD91DC911297C28322
:1038D000D3838C819D81848395838C819D81DC0140
:1038E00012966D937C9313976C837D832087318729
:1038F000F90180818F5F8083DF91CF910895CF930D
:10390000DF93EB01488159814F3F2FEF520701F1BF
:10391000DC01139601C0DF011296ED91FC91139723
:103920002081318142175307B0F7EA83FB83C483B8
:10393000D583AC83BD831296CD93DC931397888790
:103940009987FC0120812F5F2083DF91CF9108951B
:10395000FC01A781B0851296ED91FC911397E5CFFC
:10396000CF93DF93FC01A085B185228133818481CF
:103970009581E9018C839D8384819581EC012A8363
:103980003B8311962D913C911297E217F30749F072
:10399000108611868C9181508C938C91DF91CF9100
:1039A000089511968D939C931297F2CF31E1FC010B
:1039B0003083319722E220833197A3E3A0833197AC
:1039C00060833197708331971082319710823197DD
:1039D00060E8608331971082319762E060833197AD
:1039E00063E06083319764E06083319765E06083D2
:1039F000319766E06083319767E06083319768E0D4
:103A00006083319769E06083319760E1608331972B
:103A10003083319732E13083319733E1308331970E
:103A200034E13083319735E13083319736E13083AB
:103A3000319737E13083319738E13083319739E17D
:103A40003083319730E23083319731E230833197E0
:103A50002083319723E2208331974083319750832D
:103A6000319726E22083319727E22083319728E29D
:103A70002083319729E22083319720E320833197F7
:103A800021E3208387970895E0E0F8E08FEF9FEF30
:103A900080A791A781E0808390E4918386838783C8
:103AA00080E09DE786A397A3A091412DB091422D80
:103AB000CD91CDBFDD91DEBFFF91EF91DF91CF9131
:103AC000BF91AF919F918F917F916F915F914F9136
:103AD0003F912F911F910F91FF90EF90DF90CF902A
:103AE000BF90AF909F908F907F906F905F904F901E
:103AF0003F902F901F900F900FBE0F90089581E080
:103B000008950F920FB6F8940F921F9211242F92DE
:103B10003F924F925F926F927F928F929F92AF925D
:103B2000BF92CF92DF92EF92FF920F931F932F934A
:103B30003F934F935F936F937F938F939F93AF9335
:103B4000BF93CF93DF93EF93FF93A091412DB0915B
:103B5000422D0DB60D920EB60D920E94F92AA0913B
:103B6000412DB091422DCD91CDBFDD91DEBFFF91B2
:103B7000EF91DF91CF91BF91AF919F918F917F9105
:103B80006F915F914F913F912F911F910F91FF90F6
:103B9000EF90DF90CF90BF90AF909F908F907F90ED
:103BA0006F905F904F903F902F901F900F900FBE9F
:103BB0000F90089580912008909121088C599F4F73
:103BC000809328089093290820912808309129088B
:103BD00080912608909127082817390770F02091C6
:103BE0002608309127088091280890912908821B87
:103BF000930B809328089093290808950F920FB68D
:103C0000F8940F921F9211242F923F924F925F923D
:103C10006F927F928F929F92AF92BF92CF92DF92DC
:103C2000EF92FF920F931F932F933F934F935F93C6
:103C30006F937F938F939F93AF93BF93CF93DF93B4
:103C4000EF93FF93A091412DB091422D0DB60D92AF
:103C50000EB60D9220912608309127088091852D6F
:103C60009091862DA091872DB091882D820F931F62
:103C7000A11DB11D8093852D9093862DA093872D36
:103C8000B093882D0E94C8280E94F92AA091412D46
:103C9000B091422DCD91CDBFDD91DEBFFF91EF916F
:103CA000DF91CF91BF91AF919F918F917F916F9154
:103CB0005F914F913F912F911F910F91FF90EF9046
:103CC000DF90CF90BF90AF909F908F907F906F903C
:103CD0005F904F903F902F901F900F900FBE0F90CE
:103CE000189508950F920FB6F8940F921F92112411
:103CF0002F923F924F925F926F927F928F929F92FC
:103D0000AF92BF92CF92DF92EF92FF920F931F93E9
:103D10002F933F934F935F936F937F938F939F93D3
:103D2000AF93BF93CF93DF93EF93FF93A091412D78
:103D3000B091422D0DB60D920EB60D928FEF9FEF02
:103D400080932808909329080E94F92AA091412D78
:103D5000B091422DCD91CDBFDD91DEBFFF91EF91AE
:103D6000DF91CF91BF91AF919F918F917F916F9193
:103D70005F914F913F912F911F910F91FF90EF9085
:103D8000DF90CF90BF90AF909F908F907F906F907B
:103D90005F904F903F902F901F900F900FBE0F900D
:103DA00018950F931F93CF93DF93EC01042F1A8D77
:103DB0004C8D41110DC088819981892B09F443C034
:103DC0001F5F80E01A8FDF91CF911F910F910895AF
:103DD00050E0011115C08A819B810E94874C2C8D77
:103DE0008A819B81820F911D8A839B832C813D81D7
:103DF0008217930728F3888199818A839B83E0CF78
:103E00008E819F810E94874C8C8D90E09195819549
:103E100091092E813F81280F391F2E833F834881CE
:103E200059812417350730F42C813D81820F931F6F
:103E30008E839F83023021F6112311F080E0C2CFE0
:103E400011E080E0BFCF8C819D810E94072E1C82F3
:103E50001D821F5FB7CFFC01CB01448D442391F03D
:103E600050E066817781640F751F668377832481B4
:103E700035816217730720F06081718166837783D3
:103E80000C94874C0895EF92FF920F931F93CF935A
:103E90008C010FB6F8940F92FC01C68D1C16C4F469
:103EA000FC0181898823A1F07801F1E1EF0EF11C7A
:103EB00006C0C15069F0F8018189882349F0C70123
:103EC0000E94232B8823A9F30E94F62BC15099F757
:103ED0008FEFF801868F0F900FBE0FB6F8940F92F8
:103EE000C58D1C16C4F4F80180858823A1F07801E3
:103EF000F8E0EF0EF11C06C0C15069F0F8018085B2
:103F0000882349F0C7010E94232B8823A9F30E942C
:103F1000F62BC15099F78FEFF801858F0F900FBEE8
:103F2000CF911F910F91FF90EF9008951F93CF9322
:103F3000DF93EC01162F892B09F43EC00FB6F894DD
:103F40000F92488159818B8D6C8D9A01869F200D2F
:103F5000311D11242C833D831A8E4A835B8390E0AC
:103F60000197689F9001699F300D1124CA01820F4B
:103F7000931F8E839F838FEF8D8F8E8F111113C0B0
:103F80008885811107C00F900FBE81E0DF91CF912E
:103F90001F910895CE0108960E94232B882399F340
:103FA0000E94811DF0CFCE0108960E944C1CCE01CC
:103FB00041960E944C1CE7CF63E071E08FE693E2EC
:103FC0000E94DF2FBBCFFF920F931F93CF93DF93FE
:103FD000182F062FF42E882399F10023D1F0109F7B
:103FE000C001112481960E947D1BEC01009751F0C5
:103FF0008196888399831B8F0C8F61E0CE010E948C
:10400000961FF8A2CE01DF91CF911F910F91FF90E3
:10401000089581E290E00E947D1BEC01892B91F3D1
:10402000C883D9831B8F0C8F61E0CE010E94961F3D
:10403000F8A2CE01DF91CF911F910F91FF900895CB
:1040400066E771E08FE693E20E94DF2FC6CFBF9252
:10405000CF92DF92EF92FF920F931F93CF93DF9354
:10406000CDB7DEB72597CDBFDEBF8C016B014C838A
:104070005D83B22E892B09F4B2C0C114D10409F4B6
:10408000A2C0F2E0BF1609F47DC0F801838D20E0E4
:104090007801F8E0EF0EF11C10C06C817D81C70142
:1040A0000E94032BC8010E94431F0E94A22988235B
:1040B00009F44AC0F801838D21E00FB6F8940F92FD
:1040C000F801928D981708F442C0F2E0BF1609F487
:1040D0003EC08C819D81892B09F460C0222359F157
:1040E0000F900FBE0E94A6280FB6F8940F92F80109
:1040F000858D8F3F39F1F801868D8F3F09F10F9043
:104100000FBEBE016C5F7F4FCE0101960E949F2BB8
:10411000811148C00FB6F8940F92F801928D0F905C
:104120000FBE838D981709F4B8CFC8010E94431FB2
:104130000E94A229BFCFCE0101960E94942BD0CF1E
:10414000168EDDCF158ED7CF0E94811DB3CF4B2D9C
:10415000B601C8010E94D11EF801918991112CC0AD
:10416000811127C00F900FBE81E02596CDBFDEBF25
:10417000DF91CF911F910F91FF90EF90DF90CF9043
:10418000BF900895F801838D813009F480CF63EFEB
:1041900072E08FE693E20E94DF2F77CF0F900FBE81
:1041A00080E0E3CFC8010E94431F0E94A22980E063
:1041B000DCCF0E94811DD6CFC80141960E94232BDF
:1041C000882381F2F6CFF801848D882309F459CF32
:1041D00062EF72E08FE693E20E94DF2F52CF61EF31
:1041E00072E08FE693E20E94DF2F47CFCF93DF93F9
:1041F000482F60E081E00E94E31FEC01009761F02E
:104200001C821D82188219821E8220E040E050E04C
:1042100060E070E00E942720CE01DF91CF910895E9
:10422000CF92DF92EF92FF920F931F93CF93DF9382
:10423000EC018B016A01F22E892B09F445C00115AE
:104240001105C1F182E0F81671F09A8D8B8D9817E7
:10425000A0F080E0DF91CF911F910F91FF90EF9040
:10426000DF90CF9008958B8D813031F065EC73E055
:104270008FE693E20E94DF2F8A8DEE8C4F2DB801DE
:10428000CE010E94D11EEFEFEE1621F0E394EE8EE8
:1042900081E0E0CF89898823D9F3CE0141960E943D
:1042A000232B8823A9F3C114D10491F381E0F601F3
:1042B0008083D0CF8C8D882329F264EC73E08FE665
:1042C00093E20E94DF2FBECF63EC73E08FE693E2B0
:1042D0000E94DF2FB4CF0F931F93CF93DF93EC0196
:1042E0008B01892B09F443C08C8D81111BC08881FF
:1042F0009981892B09F18A8D9B8D891768F49E8D90
:104300008F5F8A8F9F3F19F19F5F9E8F81E0DF91C2
:10431000CF911F910F91089580E0DF91CF911F9170
:104320000F91089564E674E08FE693E20E94DF2F18
:1043300088819981892BF9F68C819D81892BD9F20D
:1043400069E674E08FE693E20E94DF2FD4CF89897B
:104350008823E1F2CE0141960E94232B8823B1F2FB
:104360000115110599F281E0F8018083D0CF60E654
:1043700074E08FE693E20E94DF2FB6CFAF92BF9238
:10438000CF92DF92FF920F931F93CF93DF93CDB71E
:10439000DEB72597CDBFDEBF8C015B014C835D830B
:1043A000892B09F4A1C0A114B10409F491C020E043
:1043B0006801F1E1CF0ED11C0FB6F8940F92F8010D
:1043C000F28CF1106AC08C819D81892B09F473C035
:1043D000222309F459C00F900FBE0E94A6280FB6E1
:1043E000F8940F92F801858D8F3F09F454C0F801BD
:1043F000868D8F3F09F44DC00F900FBEBE016C5FDC
:104400007F4FCE0101960E949F2B811122C00FB6D3
:10441000F8940F92F801828D0F900FBE811112C097
:104420006C817D81C6010E94032BC8010E94431F3D
:104430000E94A229882311F021E0BECF0E94811D95
:1044400021E0BACFC8010E94431F0E94A22921E0A7
:10445000B3CFC8010E94431F0E94A2290FB6F8944F
:104460000F92F801828D0F900FBE8111E5CF259636
:10447000CDBFDEBFDF91CF911F910F91FF90DF90F5
:10448000CF90BF90AF900895CE0101960E94942BDB
:10449000A2CF168EB1CF158EAACFB501C8010E944A
:1044A0002B1FFA94F801F28E8085811108C00F90BD
:1044B0000FBE81E0DCCF0F900FBE80E0D8CFC801E7
:1044C00008960E94232B882391F30E94811DEFCF31
:1044D000F801848D882309F46ACF64E075E08FE6E3
:1044E00093E20E94DF2F63CF60E075E08FE693E2F6
:1044F0000E94DF2F58CFDF92EF92FF920F931F930E
:10450000CF93DF93CDB7DEB72597CDBFDEBF8C014C
:104510006C837D83892B09F4D0C0D8015C968C9183
:104520008111BBC0D12C20E07801B1E1EB0EF11C70
:104530000FB6F8940F92F801828D811189C08C8199
:104540009D81892B09F49DC0222309F45FC00F903F
:104550000FBE0E94A6280FB6F8940F92D8015D9660
:104560008C915D978F3F09F456C0F801868D8F3F7F
:1045700009F458C00F900FBEBE016C5F7F4FCE0193
:1045800001960E949F2B811123C00FB6F8940F92C1
:10459000D8015A968C915A970F900FBE811144C042
:1045A000F80180819181892B09F445C06C817D815E
:1045B000C7010E94032BC8010E94431F0E94A22929
:1045C000882311F021E0B4CF0E94811D21E0B0CFFB
:1045D000C8010E94431F0E94A2290FB6F8940F92AF
:1045E000F801828D0F900FBE8111ECCFDD2009F410
:1045F00072C00FB6F8940F928189811165C060E096
:10460000F801848195810E945E2E43C0CE010196FF
:104610000E94942B9CCF5D961C92F801868D8F3F53
:1046200009F0A8CF168EA6CFC8010E94431F0E9492
:10463000A22921E07DCF0FB6F8940F9214968D91A8
:104640009C9115970E94942DD82E0F900FBEAECF3F
:104650008150828F80819181892B09F43EC0F801BD
:104660008085811121C00F900FBE81E02596CDBFBE
:10467000DEBFDF91CF911F910F91FF90EF90DF9000
:104680000895DD2031F061EE75E08FE693E20E943F
:10469000DF2F0F900FBE80E0E9CF65E975E08FE670
:1046A00093E20E94DF2F3ECFC80108960E94232B81
:1046B0008823C9F20E94811DD6CF61E975E08FE69B
:1046C00093E20E94DF2F29CF0688F789E02D8081B1
:1046D0006AE0681B95CF80E0C9CF0E94832FD80184
:1046E00014968D939C931597BACFCF92DF92EF9249
:1046F000FF920F931F93CF93DF93CDB7DEB725972C
:10470000CDBFDEBF8C016B014C835D83892B09F427
:10471000A2C0C114D10409F492C020E07801F1E1F3
:10472000EF0EF11C0FB6F8940F92F801828D8111F3
:1047300069C08C819D81892B09F474C0222309F4FE
:1047400058C00F900FBE0E94A6280FB6F8940F9283
:10475000F801858D8F3F09F453C0F801868D8F3F96
:1047600009F44CC00F900FBEBE016C5F7F4FCE01AD
:1047700001960E949F2B811122C00FB6F8940F92D0
:10478000F801828D0F900FBE811112C06C817D8166
:10479000C7010E94032BC8010E94431F0E94A22947
:1047A000882311F021E0BECF0E94811D21E0BACF05
:1047B000C8010E94431F0E94A22921E0B3CFC80173
:1047C0000E94431F0E94A2290FB6F8940F92F8018D
:1047D000828D0F900FBE8111E5CF2596CDBFDEBF34
:1047E000DF91CF911F910F91FF90EF90DF90CF90CD
:1047F0000895CE0101960E94942BA3CF168EB2CFBE
:10480000158EABCFE680F780B601C8010E942B1F42
:10481000F801E682F7828189811108C00F900FBEEE
:1048200081E0DBCF0F900FBE80E0D7CFC80141966B
:104830000E94232B882391F30E94811DEFCFF80162
:10484000848D882309F469CF6CE676E08FE693E2E5
:104850000E94DF2F62CF68E676E08FE693E20E9447
:10486000DF2F57CFCF92DF92EF92FF920F931F93DC
:10487000CF93DF93EC017B016A01892BB9F1E1143D
:10488000F104D1F01A8D11110AC080E0DF91CF91AF
:104890001F910F91FF90EF90DF90CF9008950D8DB5
:1048A000B701CE010E942B1F11501A8F0F3F71F0DC
:1048B0000F5F0D8F81E0EACF8C8D882319F36CEFA9
:1048C00076E08FE693E20E94DF2FDCCF8885882395
:1048D00089F3CE0108960E94232B882359F3C11433
:1048E000D10441F381E0F6018083D0CF6BEF76E015
:1048F0008FE693E20E94DF2FC2CFCF93DF93EC01CC
:10490000892B49F00FB6F8940F928A8D0F900FBE45
:10491000DF91CF9108956AE877E08FE693E20E94F5
:10492000DF2FF0CFCF93DF93EC010E94974CFE0175
:1049300001900020E9F73197EC1BFD0BE730F10502
:1049400060F4EC0FFD1F9E01295F3F4F80E28193D1
:10495000E217F307E1F7E7E0F0E0CE018E0F9F1FCB
:10496000FC011082DF91CF9108959091B12CE091DC
:10497000412DF091422D8689811104C08091E72C50
:10498000823018F080E090E008959111FBCF809183
:10499000AA2C9091AB2C2091B22C3091B32C821B7D
:1049A000930B0895E091D32CF091D42C0580F681DF
:1049B000E02D0680F781E02D828193818093AA2CDF
:1049C0009093AB2C0895CF93DF93EC01892B99F052
:1049D0008A859B85855B9C4221F080E0DF91CF91A9
:1049E00008952C893D898CE2283C3807B1F381E099
:1049F000232B99F7F3CF62EF76E083E893E20E94EE
:104A0000DF2FE6CFFF920F931F93CF93DF93EC013D
:104A1000F62E0091B22C1091B32C8091412D9091E3
:104A2000422D02960E94B01CCF3F8FEFD807A9F10C
:104A3000C00FD11FE091412DF091422DC283D3834D
:104A40006091412D7091422DC017D107C8F080911F
:104A5000D32C9091D42C6E5F7F4F0E947F1C80914D
:104A6000AA2C9091AB2CC817D90720F4C093AA2C7C
:104A7000D093AB2CDF91CF911F910F91FF900895B0
:104A80008091D12C9091D22C6E5F7F4FDF91CF918E
:104A90001F910F91FF900C947F1CFF2049F26091B1
:104AA000412D7091422D6E5F7F4F85EB9CE2DF912F
:104AB000CF911F910F91FF900C945E1C0F931F9349
:104AC000CF931092AE2C2091200830912108809134
:104AD000852D9091862DA091872DB091882D820FE4
:104AE000931FA11DB11D0091A32C1091A42C209106
:104AF000A52C3091A62C081719072A073B07A0F40C
:104B0000E091412DF091422D47A150A561A572A5DC
:104B1000401B510B620B730B480F591F6A1F7B1F01
:104B200047A350A761A772A78093A32C9093A42CAE
:104B3000A093A52CB093A62CE091412DF091422D8D
:104B40000788F08DE02D80819181A281B381853A23
:104B5000954AA54AB54A09F44CC06091412D70911F
:104B6000422D8091412D9091422D675E7F4F0E9492
:104B7000B52FC091B12C8C2F90E09C01220F331FD8
:104B8000220F331F220F331FF901E80FF91FE951DC
:104B9000F34D408141110CC0CC2311F0C150EBCF3B
:104BA0006CE87BE083E893E20E94DF2FC150E3CF03
:104BB000820F931FDC01A951B34D1196ED91FC9129
:104BC00012970280F381E02D1196ED93FC931297DA
:104BD0008651934DE817F90759F1868197818093A3
:104BE000412D9093422DC093B12CCF911F910F91E5
:104BF000089584819581A681B781853A954AA54A11
:104C0000B54A09F0AACF80859185A285B385853AFA
:104C1000954AA54AB54A09F0A0CF84859585A68511
:104C2000B785853A954AA54AB54A09F096CFA1CFEE
:104C30000280F381E02D1196ED93FC931297CDCF76
:104C40005F926F927F928F929F92AF92BF92CF921C
:104C5000DF92EF92FF920F931F93CF93DF934C015C
:104C6000EB015A013901502ECA010E947D1B8C01B3
:104C7000892B09F4DEC080E390E00E947D1B6C016B
:104C8000009709F4D3C0DC0157960D931C935897F5
:104C9000209709F4D0C0C801A50165EA70E00E9420
:104CA000904CF1E0AF1AB108D60157968D919C91C6
:104CB0005897A80EB91EF60179969E01285F3F4FBE
:104CC000DE01899181938C91882319F0C217D30753
:104CD000B9F7F60110A2052D0A3008F0A1C0D601DF
:104CE00056960C93569793960C93939794961C9282
:104CF000E6012296CE010E945A1CC6010C960E9423
:104D00005A1CF601C086D1868AE090E0801B91098A
:104D100084879587C28AD38A15A216A217A210A6E5
:104D200011A612A613A614A615A616A617A6A301C9
:104D3000B401C5010E94D61CD6018D939C93E11449
:104D4000F10419F0F701C082D1820FB6F8940F92E6
:104D50008091B42C8F5F8093B42C8091412D9091E1
:104D6000422D892B99F08091B02C811118C0E091CF
:104D7000412DF091422DD60156968C919689891736
:104D800088F0C092412DD092422D0CC0C092412D8E
:104D9000D092422D8091B42C813009F456C0D601B6
:104DA00056968C919091AC2C9F5F9093AC2CF60111
:104DB00091A39091B12C981780F190E09C01220F63
:104DC000331F220F331F220F331F820F931FBE0189
:104DD0008951934D0E945E1C0F900FBE8091B02CA4
:104DE000882351F0E091412DF091422D9689D60112
:104DF00056968C919817B0F081E0DF91CF911F917A
:104E00000F91FF90EF90DF90CF90BF90AF909F9069
:104E10008F907F906F905F9008958093B12CCDCF4D
:104E200009E05DCF0E94811D81E0E7CFC8010E94AB
:104E30001C1C8FEFE2CF60E673E083E893E20E94F0
:104E4000DF2FF6018789908D27CF07EE1CE251E412
:104E5000E52E5DE2F52EC8010E944C1C075F1F4F36
:104E6000E016F106C1F78EED9CE20E944C1C85ED28
:104E70009CE20E944C1C88EC9CE20E944C1C8FEB34
:104E80009CE20E944C1C85EB9CE20E944C1C8EED27
:104E90009CE28093D32C9093D42C85ED9CE280935C
:104EA000D12C9093D22CF60186897CCFCF93DF93BF
:104EB000EC01892B09F43AC08091412D9091422D4B
:104EC000C817D90779F10FB6F8940F928A859B8598
:104ED0002091D32C3091D42C4091D12C5091D22CB4
:104EE0000F900FBE82179307A9F08417950791F0D2
:104EF0002CE2853B920751F02CE28F3B920771F038
:104F0000892B61F081E0DF91CF9108958C899D8993
:104F1000892B99F082E0DF91CF91089584E0DF91B1
:104F2000CF91089580E0DF91CF9108956CE475E012
:104F300083E893E20E94DF2FBFCF8FA5813051F32A
:104F400083E0E1CF0F931F93CF93DF93EC010FB674
:104F5000F8940F92892B09F462C08E010E5F1F4FE7
:104F6000C8010E94B01C8C899D89892B21F0CE013B
:104F70000C960E94B01CB80185EB9CE20E945E1C5E
:104F80008FA5813021F10F900FBE8091B02C882326
:104F900091F00FB6F8940F92E091D32CF091D42CAD
:104FA000808181112BC08FEF9FEF8093AA2C90936B
:104FB000AB2C0F900FBE8091412D9091422DC817C0
:104FC000D90739F0DF91CF911F910F9108951FA656
:104FD000DACF8091B02C8823A1F08091A72C882370
:104FE00031F068EC76E083E893E20E94DF2F0E94C4
:104FF000811DDF91CF911F910F9108950E94D224BE
:10500000D8CF9091B52C8091B42C981799F08091BD
:10501000A72C882349F081E08093AE2CD3CFC09198
:10502000412DD091422D99CFDF91CF911F910F91BA
:105030000C945E251092412D1092422DC3CF0F93F8
:105040001F93CF93DF93EC01892B09F43DC080912E
:10505000412D9091422DC817D90751F00FB6F89401
:105060000F92CE010E94E324811107C00F900FBE62
:10507000DF91CF911F910F9108958E010E5F1F4F09
:10508000C8010E94B01C8E899091B12C981710F421
:105090008093B12C90E09C01220F331F220F331F0D
:1050A000220F331F820F931FB8018951934D0E9425
:1050B0005E1CE091412DF091422D9E8986899817C2
:1050C000A8F20E94811DD2CF6CE177E083E893E2E1
:1050D0000E94DF2F8091412D9091422DC9CFEF92F8
:1050E000FF920F9388EAE82E8CE2F82E00E020E091
:1050F00030E040E051E067E973E28CEA9AE20E9416
:105100002026813079F08F3F21F00F91FF90EF90B2
:10511000089567E078E083E893E20F91FF90EF90C5
:105120000C94DF2FF8942FEF3FEF2093AA2C3093AD
:10513000AB2C8093B02C1092B22C1092B32C0E9406
:10514000711E0F91FF90EF900C94441D8091A72C3D
:105150008F5F8093A72C08950FB6F8940F928091DB
:10516000B22C9091B32C0F900FBE08958091A82C73
:105170009091A92C009709F008956AEE79E083E8F0
:1051800093E20E94DF2F8091A82C9091A92C089582
:10519000DF92EF92FF920F931F93CF93DF93809153
:1051A000A72C8111B9C0E090B22CF090B32C8FEFF6
:1051B000E81AF80AE092B22CF092B32CE114F10450
:1051C00049F5E091D32CF091D42C80818111ABC0B2
:1051D0008091D32C9091D42C2091D12C3091D22C31
:1051E0002093D32C3093D42C8093D12C9093D22C19
:1051F0008091AD2C8F5F8093AD2CE091D32CF091FA
:10520000D42C8081811196C08FEF9FEF8093AA2CC0
:105210009093AB2C8091AA2C9091AB2CD12CE816BA
:10522000F90608F453C0E091D32CF091D42C80817E
:10523000882309F445C0E091D32CF091D42C05804B
:10524000F681E02DC681D7818A819B81E816F90617
:1052500008F473C08E010E5F1F4FC8010E94B01C7E
:105260008C899D89892B21F0CE010C960E94B01C5F
:105270008E899091B12C981710F48093B12C90E006
:105280009C01220F331F220F331F220F331F820F67
:10529000931FB8018951934D0E945E1CE091412DEE
:1052A000F091422D9E898689981708F4BCCFDD24A1
:1052B000D394E091D32CF091D42C80818111BBCF79
:1052C0008FEF9FEF8093AA2C9093AB2CE091412D10
:1052D000F091422D868990E0FC01EE0FFF1FEE0F4A
:1052E000FF1FEE0FFF1F8E0F9F1FFC01E951F34DB3
:1052F0008081823010F0DD24D3948091AE2C8823FD
:1053000011F0DD24D3948D2DDF91CF911F910F915A
:10531000FF90EF90DF9008958091AF2C8F5F809386
:10532000AF2CD12CEACF66E67AE083E893E20E94C4
:10533000DF2F4ECF0E94D2246DCF8093AA2C909362
:10534000AB2CC4CFFF920F931F93CF93DF93809129
:10535000A72C882309F477C00FB6F8940F92809198
:10536000A72C81508093A72C8091A72C811162C01B
:105370008091B42C882309F45DC0C0E0D0E0FF2404
:10538000F3948091C82C8823A1F1E091CD2CF09169
:10539000CE2CC681D781CE010C960E94B01C8E0106
:1053A0000E5F1F4FC8010E94B01C8E899091B12CD6
:1053B000981710F48093B12C90E09C01220F331FBA
:1053C000220F331F220F331F820F931FB801895101
:1053D000934D0E945E1CE091412DF091422D9E89DB
:1053E0008689981770F2F092AE2C8091C82C8111AA
:1053F000CCCFCD2B69F0E091D32CF091D42C8081CF
:1054000081112CC08FEF9FEF8093AA2C9093AB2C2F
:10541000C091AF2CCC2351F0D1E00E94C82881115B
:10542000D093AE2CC150C9F71092AF2C8091AE2C06
:10543000811110C080E00F900FBEDF91CF911F91BE
:105440000F91FF9008956CE678E083E893E20E9464
:10545000DF2F82CF0E94811D81E0EDCF0E94D224F8
:10546000D7CF0F931F93CF93DF938C01EB01892B41
:1054700009F446C02097E9F18091A72C811132C030
:105480008091A72C8F5F8093A72C4091B22C5091D4
:10549000B32CF80120813181CE01820F931F421776
:1054A000530788F48217930788F0F801808391836B
:1054B0000E94A229811102C00E94811DDF91CF911B
:1054C0001F910F9108958217930718F048175907F5
:1054D00060F7F8018083918360E0841B950B0E9444
:1054E0000225E6CF6CEC74E083E893E20E94DF2FA4
:1054F000C7CF6BEC74E083E893E20E94DF2FBCCF50
:105500006AEC74E083E893E20E94DF2FB3CFCF937D
:10551000DF93EC01892B29F40E94811DDF91CF914B
:1055200008958091A72C811110C08091A72C8F5FC6
:105530008093A72C60E0CE010E9402250E94A22940
:10554000882351F3DF91CF91089560E275E083E8FD
:1055500093E20E94DF2FE9CF20C00FB6F8940F929C
:10556000E091C42CF091C52CC681D781CE01029662
:105570000E94B01C8091B42C81508093B42C8091F7
:10558000BE2C81508093BE2C0F900FBE8F89988DBA
:105590000E941C1CCE010E941C1C8091BE2C8111FB
:1055A000DCCF8091E72C823010F00E94811D0E9498
:1055B000952F0E94B524029780F38091A72C8F5FCE
:1055C0008093A72C2091AA2C3091AB2C8091B22CE7
:1055D0009091B32C2817390728F00E94B5240E9417
:1055E000A229DBCF61E37DE083E893E20E94DF2F15
:1055F000F4CF8091A72C811102C00C945E2581E02C
:105600008093AE2C08950F931F93CF93DF93EC01FB
:105610008B01892B89F06091412D7091422D645F3F
:105620007F4FCE010E947F1C61E0C801DF91CF91C6
:105630001F910F910C94022563EA7BE083E893E2CB
:105640000E94DF2FE8CF0F931F93CF93DF93DC01EE
:105650001596ED91FC911697C681D781209709F494
:105660005CC08E01045F1F4FC8010E94B01C809176
:10567000A72C811139C00A501109C8010E94B01C21
:105680008E899091B12C981708F444C090E09C0149
:10569000220F331F220F331F220F331F820F931F3E
:1056A000B8018951934D0E945E1CE091412DF0910B
:1056B000422D9E8986898917E8F481E08093AE2C7B
:1056C000C1E0E091D32CF091D42C808181111AC0DB
:1056D0008FEF9FEF8093AA2C9093AB2C8C2FDF91B0
:1056E000CF911F910F910895B80188EC9CE20E9420
:1056F0005E1CDBCFC0E0E091D32CF091D42C8081F4
:10570000882331F30E94D2248C2FDF91CF911F91F7
:105710000F9108958093B12CB9CF6EEF7BE083E8B1
:1057200093E20E94DF2F9DCF2091AD2CFC012083BE
:105730002091B22C3091B32C2183328308950F93A2
:105740001F93CF93DF93EC018B01892B09F440C0A9
:105750000115110509F443C00FB6F8940F9280911A
:10576000B22C9091B32CF801208131812F3FFFEFB3
:105770003F0761F149815A816091AD2C788176179C
:1057800019F08417950780F4841B950B82179307F3
:1057900068F0F8011082118281E00F900FBEDF9156
:1057A000CF911F910F91089581E0F7CF281B390BFE
:1057B000F801208331838091AD2C88838091B22CB5
:1057C0009091B32C89839A8380E0E7CF80E0E5CF86
:1057D00069E67CE083E893E20E94DF2FB9CF6AE6B6
:1057E0007CE083E893E20E94DF2FB6CF81E08093D4
:1057F000AE2C0895FF920F931F93CF93DF938C01EC
:10580000EB01F42E892B09F464C008831983C801C5
:1058100049968A839B83D80156968C9156978E839E
:1058200057968D919C9158978C879D8791968C91D6
:1058300091978C8393968C9193978F8397968D9164
:105840009D910D90BC91A02D88879987AA87BB87D1
:10585000253009F443C08091412D9091422D0817C5
:10586000190709F440C02D83233021F1FF20D1F026
:10587000D8015796ED91FC9158978081853AA9F50A
:10588000319680E090E0DC010196A11DB11D2191CF
:10589000253AD1F38E879F87DF91CF911F910F918A
:1058A000FF9008951E861F86DF91CF911F910F9163
:1058B000FF9008958091A72C8F5F8093A72CF8010B
:1058C00084899589892B11F082E08D830E94A22919
:1058D000CDCF0091412D1091422D97CFC8010E944C
:1058E00056278D83C3CF1D82C1CF80E090E0D2CFF9
:1058F0008F929F92AF92BF92CF92DF92EF92FF92E0
:105900000F931F93CF93DF935C018B01D42FDB01A7
:105910001196ED91FC9112970280F381E02D119682
:10592000ED93FC9312977B01B3E0EB0EF11CEE15A7
:10593000FF05E1F1C680D780C0E016C08680978061
:10594000B501B0E1CB9F600D711D11242D2F41E0F9
:10595000C4010E94FA2BCF5FC814D904C9F0D80142
:105960001196ED91FC9112970280F381E02DD80100
:105970001196ED93FC931297EE16FF06F9F6159625
:10598000ED91FC9116971196ED93FC931297D6CF5B
:105990008C2FDF91CF911F910F91FF90EF90DF90AF
:1059A000CF90BF90AF909F908F9008950280F38129
:1059B000E02DC0CFEF92FF920F931F93CF93DF9311
:1059C0008C017A018091A72C8F5F8093A72C809106
:1059D000B42C681708F466C0CAE0D0E004C080E0C8
:1059E000D80FCC23F9F0C1506C2F70E0CB01880F99
:1059F000991F880F991F880F991F680F791FFB0146
:105A0000E951F34D8081882351F341E0BF01C80182
:105A100020E1D29F800D911D11240E94782CD80F77
:105A2000C111E1CFE091D32CF091D42C8081811170
:105A30003BC080E0D80FE091D12CF091D22C808136
:105A4000811145C080E0D80F8091BF2C81114FC0DB
:105A500080E0D80F8091B52C81115AC080E0D80F1A
:105A6000E114F104A9F020912008309121088091DF
:105A7000852D9091862DA091872DB091882D820F34
:105A8000931FA11DB11DF70180839183A283B3836E
:105A90000E94A2298D2FDF91CF911F910F91FF902E
:105AA000EF900895D0E0F4CF42E0BF01C801E0E1FB
:105AB000DE9F800D911D11240E94782CD80FE0915B
:105AC000D12CF091D22C8081882309F4BBCF42E005
:105AD000BF01C801F0E1DF9F800D911D11240E94DC
