S01400004C696E65626F7446696E616C2E7372656359
S11300000C9463030C9484030C9490070C941708C9
S11300100C9484030C9484030C9484030C94840340
S11300200C9484030C9484030C9484030C94840330
S11300300C9484030C9484030C94C61E0C948403C3
S11300400C943A1F0C9484030C9484030C9484033E
S11300500C9484030C9484030C9484030C94840300
S11300600C9484030C9484030C9484030C948403F0
S11300700C9484030C9484030C9484030C948403E0
S11300800C9484030C9484030C9452050C94840300
S11300900C9484030C9484030C9484030C948403C0
S11300A00C9484030C9484030C9484030C949E0891
S11300B00C9425090C9484030C94EA100C94840386
S11300C00C9484030C9484030C9484030C94840390
S11300D00C9484030C9484030C9484030C94840380
S11300E00C9484030C9484030C940A120C948403DB
S11300F00C94C3110C9484030C9484030C94840313
S11301000C9484030C9484030C9484030C9484034F
S11301100C9484030C9484030C9484030C940404BE
S11301200C9484030C9484030C9484030C9484032F
S11301300C9484030C9484030C9484030C9484031F
S11301400C9484030C9484030C9484030C9484030F
S11301500C9484030C9484030C9484030C948403FF
S11301600C9484030C9484030C9484030C948403EF
S11301700C9484030C9484030C9484030C948403DF
S11301800C9484030C9484030C9484030C948403CF
S11301900C9484030C9484030C9484030C948403BF
S11301A00C9484030C9484030C9484030C948403AF
S11301B00C9484030C9484030C9484030C9484039F
S11301C00C9484030C9484030C9484030C9484038F
S11301D00C9484030C9484030C9484030C9484037F
S11301E00C9484030C9484030C9484030C9484036F
S11301F00C9484030C9484030C9484030C94314273
S11302000C940F310C94E2420C94B0410C9471356F
S11302100C946A110C94CB3A0C945A250C940D3915
S11302200C94E1320C9462320C942D430C945411CE
S11302300C9447360C94D2346E616E00696E66007D
S113024000407A10F35A00A0724E18090010A5D489
S1130250E80000E87648170000E40B54020000CAE6
S11302609A3B000000E1F50500008096980000002C
S113027040420F000000A08601000000102700008B
S11302800000E803000000006400000000000A0011
S1130290000000000100000000002C76D888DC6714
S11302A04F0823DFC1DFAE59E1B1B796E5E3E4536C
S11302B0C63AE651997696E8E6C28426EB898C9B89
S11302C062ED407C6FFCEFBC9C9F40F2BAA56FA529
S11302D0F490055A2AF75C936B6CF9676DC11BFCAB
S11302E0E0E40D47FEF520E6B500D0ED902E0300C6
S11302F0943577050080841E080000204E0A000013
S113030000C80C333333330F986E12831141EF8DD1
S11303102114893BE65516CFFEE6DB18D1844B3811
S11303201BF77C1D901DA4BBE424203284725E2242
S11303308100C9F124ECA1E53D274E414E494E49C7
S11303405459494E46CDCCCC3D0AD7233C17B7D19E
S11303503877CC2B329595E6241FB14F0A00002044
S1130360410000C84200401C4620BCBE4CCA1B0EC3
S11303705AAEC59D74617578707772207374617418
S1130380653A277374617465273D313A2074757238
S11303906E206F6E2061757820706F776572206EA5
S11303A065742C20277374617465273D303A20747A
S11303B075726E206F66662061757820706F776540
S11303C072206E65740D0A00676574616463203A77
S11303D072657475726E7320416E616C6F67206311
S11303E068616E6E656C7320696E20666F726D61F4
S11303F07420276C6566745F6C696E655F73656EE7
S1130400736F72206D69645F6C696E655F73656E8E
S1130410736F722072696768745F6C696E655F736D
S1130420656E736F7220706F74656E74696F6D653D
S11304307465720D0A00676574677972203A726593
S11304407475726E73206779726F73636F70652051
S1130450696E666F20696E20666F726D6174202705
S11304607961777261746520286465672F73292028
S113047079617728646567290D0A00676574726776
S113048062203A72657475726E7320524742206C12
S1130490696768742073656E736F722076616C751A
S11304A065730D0A00676574656E63203A67657449
S11304B0206D6F746F7220656E636F646572207651
S11304C0616C7565730D0A007365746D6F74206CCF
S11304D06566746D6F746F725F70776D2072696793
S11304E068746D6F746F725F70776D203A646972AF
S11304F06563746C7920636F6E74726F6C206D6FBA
S1130500746F722070776D207369676E616C2E2032
S113051050776D20697320696E20612072616E6767
S113052065206F66202D3430393520746F203430C7
S113053039350D0A007365746C65642065666665FB
S11305406374203A73657420524742206C656420BA
S11305506566666563742028736565205247425456
S113056061736B2E68290D0A0064727673656720C7
S11305707370656564203A666F6C6C6F77206C6984
S11305806E65207365676D656E7420756E74696C35
S113059020656E6420617420612073706565642039
S11305A06F662027737065656427206D6D2F730D4A
S11305B00A00726F7463747220616E676C652073D5
S11305C070656564203A726F746174652027616E8A
S11305D0676C652720646567726565732061726F57
S11305E0756E642063656E746572206F6620726F29
S11305F0626F742061742061207370656564206F7C
S1130600662027737065656427206D6D2F730D0A4E
S1130610006472767374722064697374616E6365C6
S1130620207370656564203A44726976652073743A
S1130630726169676874206F7665722027646973D4
S113064074616E636527206D6D2061742061207371
S113065070656564206F6620277370656564272064
S11306606D6D2F730D0A006D656D6D6170203A73A9
S1130670686F77206D656D6F7279206D61700D0AFA
S11306800074736B6C7374203A6C697374204672D3
S1130690656552544F53207461736B730D0A00687F
S11306A0656C70203A746869732068656C7020709A
S11306B06167650D0A00436F6D6D616E64206C693E
S11306C073743A0D0A0011241FBECFEFCDBFDFE9CA
S11306D0DEBF00E00CBF18E2A0E0B0E2E4E2F7EA1B
S11306E000E00BBF02C007900D92AC3EB107D9F7F2
S11306F02EE2ACEEB8E201C01D92A438B207E1F7D5
S11307000E94F7300C9490530C940000E0E0F2E067
S113071081E0808396E0918392E0928393E09483D6
S113072082A343E060E00E94AB208093562E909316
S1130730572E43E060E081E00E94AB208093542E6A
S11307409093552E20E040E050E060E070E080910E
S1130750562E9091572E0C94EF20CF93DF93C82FF1
S1130760D62F6FEF7FEF8091562E9091572E0E94D7
S11307704323C03128F080E197E2DF91CF910895BF
S1130780CC0FCC0FCC0FC0932102DF3FA1F1D430AA
S113079068F582E080932002809101028061809359
S11307A0010280912102D82BD09321028091200252
S11307B08068809320026FEF7FEF8091542E909198
S11307C0552E0E944323C0912402D091250220E09B
S11307D040E050E060E070E08091562E9091572EFA
S11307E00E94EF20CE01DF91CF910895D450D430F0
S11307F010F68FE1CFCF81E0809320028091010237
S11308008F7E80930102D2CF1F920F920FB60F9268
S113081011240BB60F922F933F934F935F936F93D3
S11308207F938F939F93AF93BF93EF93FF93CF9354
S1130830DF931F92CDB7DEB71982BE016F5F7F4F82
S11308408091542E9091552E0E94332289818111DA
S11308500E94A21E0F90DF91CF91FF91EF91BF9163
S1130860AF919F918F917F916F915F914F913F9144
S11308702F910F900BBE0F900FBE0F901F901895E5
S11308800F93CF93DF931F921F92CDB7DEB780E80B
S1130890898381E08A8342E0BE016F5F7F4F89E3F1
S11308A00E94741082E9898301E09E012F5F3F4F0B
S11308B041E0B90189E30E94E50F89818B3A61F037
S11308C01F928F9382EF90E29F938F930E94DF5049
S11308D00F900F900F900F9081E889838BED8A839E
S11308E042E0BE016F5F7F4F89E30E9474108FE87E
S11308F0898383E08A8342E0BE016F5F7F4F89E38F
S11309000E9474100F900F90DF91CF910F91089572
S11309108F929F92AF92BF92CF92DF92EF92FF920B
S11309200F931F93CF93DF93CDB7DEB72997CDBF36
S1130930DEBF4C015B016A01790180E8898383E0B1
S11309408A8342E0BE016F5F7F4F89E30E94741087
S113095013E903C0898180FD15C0198301E09E015C
S11309602F5F3F4F41E0B90189E30E94E50F8111F8
S1130970F1CF63E470E087E191E20E94C5308981A0
S113098080FFEBCF84E9898308E09E012F5F3F4F0E
S113099041E0B90189E30E94E50F882381F18114C4
S11309A0910429F089819A81F40180839183A114AF
S11309B0B10429F08B819C81F50180839183C1145A
S11309C0D10429F08D819E81F60180839183E11405
S11309D0F10429F08F819885F7018083918329960A
S11309E0CDBFDEBFDF91CF911F910F91FF90EF90AC
S11309F0DF90CF90BF90AF909F908F9008956AE45E
S1130A0070E087E191E20E94C530C9CFE0E2F6E0F0
S1130A1098EF928389E5838B848B858B868B878B78
S1130A20928783E0818740E061E08AE00E94AB2006
S1130A308093F2289093F32808958091280683FFE9
S1130A4012C080E19091280694FD88609091280658
S1130A5095FD84609091280696FD82609091280609
S1130A6097FD03C0089580E0EDCF81600895CF9392
S1130A70DF931F92CDB7DEB7AC01BE016F5F7F4F2E
S1130A808091F2289091F3280E948622813029F0E7
S1130A9080E00F90DF91CF91089589810F90DF91CD
S1130AA0CF9108951F920F920FB60F9211240BB697
S1130AB00F92CF92DF92EF92FF920F931F932F9397
S1130AC03F934F935F936F937F938F939F93AF93D2
S1130AD0BF93EF93FF93CF93DF931F921F92CDB7F2
S1130AE0DEB783E391E29F938F930E94DF5081E00E
S1130AF090E00E94A10F8091A20087608093A200E1
S1130B0019828091200890912108C0906E2ED09077
S1130B106F2EE090702EF090712EC80ED91EE11C3D
S1130B20F11C0E941D058A834091EE285091EF2804
S1130B306091F0287091F12897018601041B150B30
S1130B40260B370BB901A8010F900F904130584A7A
S1130B506146710510F0811121C0898181110E94C3
S1130B60A21E0F900F90DF91CF91FF91EF91BF9153
S1130B70AF919F918F917F916F915F914F913F9131
S1130B802F911F910F91FF90EF90DF90CF900F90D6
S1130B900BBE0F900FBE0F901F90189520E0AE0172
S1130BA04F5F5F4FBE016E5F7F4F8091F22890913F
S1130BB0F3280E94D821C092EE28D092EF28E09228
S1130BC0F028F092F128C9CFDC011092F728109296
S1130BD0F8289C919923B1F0FD01319680E490931B
S1130BE0A00A9091A10A96FFFCCF8093A10A9F01CD
S1130BF02A1B3B0B91919111F2CF2093F72830934C
S1130C00F82808950895FC011092F7281092F82806
S1130C1090819923E1F0319620E030E080E42617BA
S1130C2037071CF06115710569F49093A00A90913F
S1130C30A10A96FFFCCF8093A10A2F5F3F4F9191A9
S1130C409111EDCF2093F7283093F8280895089553
S1130C50CF92DF92EF92FF920F931F93CF93DF9384
S1130C607C0180E197E28093F5289093F628109216
S1130C70F428C5E0D0E0C12CE0E1F7E2A0E4DA2EEC
S1130C800AE010E0C701BF010E94884BAB019B0141
S1130C90ADECBCEC0E94D24B9695879596958795C2
S1130CA0969587959C01220F331F880F991F880FF3
S1130CB0991F880F991F820F931F9A01281B390BC4
S1130CC0C901009711F4CC2059F0805D8093A00AEB
S1130CD08091A10A86FFFCCFD092A10ACC24C394B0
S1130CE0CF01B8010E949C4BFB01219759F6C09299
S1130CF0F4286093F5287093F628DF91CF911F9123
S1130D000F91FF90EF90DF90CF900895E0E2F6E02E
S1130D1087E0818380E4808B818B828BE0E0F6E046
S1130D2090E89183878B0895E0E2F6E09481282F80
S1130D302770922B9483E0E0F6E09481887082958A
S1130D40807F892B84830895E0E2F6E02481982F44
S1130D509770909592239483E0E0F6E094818870F4
S1130D608295807F8095892384830895E0EAF6E064
S1130D708FE1818380E4848B20E12583E0E0FBE044
S1130D8091E0908393EF918340E050E146A357A311
S1130D90E0E4F6E090EC9283868B878B828790E880
S1130DA0938795E09187E0E8F6E030E33283848B23
S1130DB0858B228780E28387918740E065E084E128
S1130DC00E94AB2080935C2E90935D2E089520E1C9
S1130DD0009769F56115710509F457C02093A606BB
S1130DE0813020EF92070CF457C0919581959109B9
S1130DF08093280B9093290B10922A0B10922B0BA3
S1130E007195619571091616170644F1613020EF4A
S1130E1072070CF444C071956195710960932C0BB1
S1130E2070932D0B10922E0B10922F0B089520937C
S1130E30A60618161906A4F61092280B1092290B70
S1130E40811520E19207F4F480932A0B90932B0BE5
S1130E5071956195710916161706C4F610922C0B3C
S1130E6010922D0B611580E178072CF460932E0B02
S1130E7070932F0B08956FEF7FE060932E0B7093A8
S1130E802F0B08958FEF9FE0DFCF2093A5068130CD
S1130E9020EF92070CF0A9CF81E090EFA6CF61E09C
S1130EA070EFB9CF0FB6F8940F924091582E50912D
S1130EB0592E20915A2E30915B2E0F900FBEBA01FD
S1130EC0C9010895CF93DF93CDB7DEB72A97CDBF7D
S1130ED0DEBF1E821F82188619861A8640E050E003
S1130EE0BE016A5F7F4F80915C2E90915D2E0E94BF
S1130EF0862285E0FE013696DE01119601900D9260
S1130F008A95E1F729813A814B815C816D8170E09A
S1130F1080E090E02A96CDBFDEBFDF91CF910895A7
S1130F201F920F920FB60F9211240BB60F921F93BC
S1130F302F933F934F935F936F937F938F939F93DD
S1130F40AF93BF93EF93FF93CF93DF9300D000D081
S1130F50CDB7DEB71E822091200830912108809100
S1130F606E2E90916F2EA091702EB091712E820FE3
S1130F70931FA11DB11D89839A83AB83BC83809188
S1130F804806182F107886FF37C081E08D8320E053
S1130F90AE014A5F5F4FBE016F5F7F4F80915C2E51
S1130FA090915D2E0E94D8211123B9F18091582E81
S1130FB09091592E01968093582E9093592E8E819C
S1130FC081110E94A21E2696CDBFDEBFDF91CF9174
S1130FD0FF91EF91BF91AF919F918F917F916F910D
S1130FE05F914F913F912F911F910F900BBE0F90E6
S1130FF00FBE0F901F90189585E08D8320E0AE0101
S11310004A5F5F4FBE016F5F7F4F80915C2E90916E
S11310105D2E0E94D821112349F28091582E90917F
S1131020592E01978093582E9093592EC8CF1F9212
S11310300F920FB60F9211240BB60F921F932F939A
S11310403F934F935F936F937F938F939F93AF934C
S1131050BF93EF93FF93CF93DF9300D000D0CDB72E
S1131060DEB71E82209120083091210880916E2ED7
S113107090916F2EA091702EB091712E820F931FBC
S1131080A11DB11D89839A83AB83BC8380914806DB
S1131090182F107487FF37C082E08D8320E0AE01E3
S11310A04A5F5F4FBE016F5F7F4F80915C2E9091CE
S11310B05D2E0E94D8211123B9F18091582E909170
S11310C0592E01978093582E9093592E8E81811119
S11310D00E94A21E2696CDBFDEBFDF91CF91FF9165
S11310E0EF91BF91AF919F918F917F916F915F919C
S11310F04F913F912F911F910F900BBE0F900FBEF8
S11311000F901F90189586E08D8320E0AE014A5F12
S11311105F4FBE016F5F7F4F80915C2E90915D2E7B
S11311200E94D821112349F28091582E9091592E72
S113113001968093582E9093592EC8CF1F920F92E8
S11311400FB60F9211240BB60F921F932F933F9358
S11311504F935F936F937F938F939F93AF93BF93BB
S1131160EF93FF93CF93DF9300D000D0CDB7DEB7DA
S11311701E82209120083091210880916E2E90913A
S11311806F2EA091702EB091712E820F931FA11D0E
S1131190B11D89839A83AB83BC8380918806182F01
S11311A0107284FF37C083E08D8320E0AE014A5F74
S11311B05F4FBE016F5F7F4F80915C2E90915D2EDB
S11311C00E94D8211123B9F180915A2E90915B2E5F
S11311D0019680935A2E90935B2E8E8181110E94EA
S11311E0A21E2696CDBFDEBFDF91CF91FF91EF9176
S11311F0BF91AF919F918F917F916F915F914F912B
S11312003F912F911F910F900BBE0F900FBE0F9027
S11312101F90189587E08D8320E0AE014A5F5F4FF1
S1131220BE016F5F7F4F80915C2E90915D2E0E9476
S1131230D821112349F280915A2E90915B2E019767
S113124080935A2E90935B2EC8CF1F920F920FB6A5
S11312500F9211240BB60F921F932F933F934F932A
S11312605F936F937F938F939F93AF93BF93EF930A
S1131270FF93CF93DF9300D000D0CDB7DEB71E82AB
S1131280209120083091210880916E2E90916F2E2C
S1131290A091702EB091712E820F931FA11DB11DCC
S11312A089839A83AB83BC8380918806182F10723C
S11312B084FF1CC084E08D8320E0AE014A5F5F4F51
S11312C0BE016F5F7F4F80915C2E90915D2E0E94D6
S11312D0D821112309F447C080915A2E90915B2E96
S11312E0019780935A2E90935B2E1AC088E08D83C9
S11312F020E0AE014A5F5F4FBE016F5F7F4F809178
S11313005C2E90915D2E0E94D82180915A2E90914E
S11313105B2E111122C0019780935A2E90935B2E5D
S11313208E8181110E94A21E2696CDBFDEBFDF9161
S1131330CF91FF91EF91BF91AF919F918F917F9149
S11313406F915F914F913F912F911F910F900BBE21
S11313500F900FBE0F901F901895019680935A2EF0
S113136090935B2EDDCF80915A2E90915B2E019647
S113137080935A2E90935B2ED3CF0FB6F8940F928E
S11313801092582E1092592E10925A2E10925B2EB3
S11313900F900FBE08950F931F93CF93DF931F9267
S11313A01F92CDB7DEB785E7898301E09E012F5FE9
S11313B03F4F41E0B90188E60E94E50F8823D9F048
S11313C08981883619F11F9298E69F931F928F9313
S11313D084E591E29F938F930E94DF500F900F90CA
S11313E00F900F900F900F900F900F90DF91CF916F
S11313F01F910F9108958FE391E20E941B510F906A
S11314000F90DF91CF911F910F91089589E1898306
S11314101A8242E0BE016F5F7F4F88E60E9474101B
S11314208AE1898311E01A8342E0BE016F5F7F4F36
S113143088E60E9474108BE189831A8242E0BE011F
S11314406F5F7F4F88E60E94741087E3898380E191
S11314508A8342E0BE016F5F7F4F88E60E9474106A
S113146088E389831A8342E0BE016F5F7F4F88E679
S11314700E9474108BE689831A8342E0BE016F5F79
S11314807F4F88E60E9474100F900F90DF91CF91E8
S11314901F910F910895AF92BF92CF92DF92EF9276
S11314A0FF920F93CF93DF93CDB7DEB72C97CDBFC9
S11314B0DEBF5C016B017A0183E4898306E09E014F
S11314C02F5F3F4F41E0B90188E60E94E50F882372
S11314D089F18A818B8789818C878C8189878B812B
S11314E08A878E818F838D818887A114B10429F026
S11314F08B859C85F50180839183C114D10429F0E7
S113150089859A85F60180839183E114F10429F099
S11315108F819885F701808391832C96CDBFDEBFA0
S1131520DF91CF910F91FF90EF90DF90CF90BF901C
S1131530AF9008956FE770E08BE891E20E94C530A8
S1131540C8CF1F93CF93DF931F921F92CDB7DEB7FF
S113155010E8198382E28A8342E0BE016F5F7F4F05
S11315608CE30E94741019831A8242E0BE016F5FFB
S11315707F4F8CE30E947410198387E08A8342E0D2
S1131580BE016F5F7F4F8CE30E9474100F900F9029
S1131590DF91CF911F9108951F93CF93DF931F92F3
S11315A01F92CDB7DEB710E8198381E28A8342E047
S11315B0BE016F5F7F4F8CE30E94741019831A82FF
S11315C042E0BE016F5F7F4F8CE30E947410198369
S11315D08FE78A8342E0BE016F5F7F4F8CE30E94F6
S11315E074100F900F90DF91CF911F9108959091F7
S11315F0FA2891111CC087FD19C06034B8F4962FE5
S1131600969596959695E82FF0E020E8929FE00D48
S1131610F11D1124E550F74D677081E090E001C0A1
S1131620880F6A95EAF79081892B80830895913019
S113163021F19230D9F787FDF9CF6034B8F770E023
S1131640EFE3F0E0E61BF70BF595E795F595E795E5
S1131650F595E795F695FE2FEE27F795E7952FE795
S113166030E0A901481B5109E40FF51FE550F74D7F
S11316706095709567707727D0CF8034B8F667FD92
S1131680D5CF982F969596959695AFE7B0E0A61B83
S1131690B10940E8949FA00DB11D1124A550B74D88
S11316A0E82FE77081E090E001C0880FEA95EAF73F
S11316B09C91892B8C9308959091FA2891111DC0C7
S11316C087FD1AC06034C0F4962F9695969596952A
S11316D0E82FF0E020E8929FE00DF11D1124E55081
S11316E0F74D677081E090E001C0880F6A95EAF7D2
S11316F080959081892380830895913021F19230DF
S1131700D9F787FDF9CF6034B8F770E0EFE3F0E084
S1131710E61BF70BF595E795F595E795F595E795B0
S1131720F695FE2FEE27F795E7952FE730E0A90110
S1131730481B5109E40FF51FE550F74D609570956E
S113174067707727CFCF8034B8F667FDD5CF982F51
S1131750969596959695AFE7B0E0A61BB10940E83B
S1131760949FA00DB11D1124A550B74DE82FE7702B
S113177081E090E001C0880FEA95EAF780959C919A
S113178089238C9308956F927F928F929F92AF9248
S1131790BF92CF92DF92EF92FF920F931F93CF935A
S11317A0DF939091FA28911128C02223D1F126E0E9
S11317B0829FC001112420E8629F800D911D112495
S11317C050E040525109FA01EE0FFF1FEE0FFF1FC8
S11317D0E40FF51FEA55FE4DDC01A550B74DAC01F1
S11317E04B5F5F4F019621912D9384179507D1F795
S11317F0FC01E550F74D108205C09130E9F09230BC
S113180009F477C0DF91CF911F910F91FF90EF9072
S1131810DF90CF90BF90AF909F908F907F906F900C
S1131820089526E0829FC00111248B3791051CF294
S11318306F5F80E090E0BFCF882E880C880D882EE3
S1131840880C662E660C660C660CE62CF12C87E080
S1131850E80EF11CA82CB12C24E0A20EB11C762CAD
S113186050E040525109CC24C394D12CEA01CC0F4E
S1131870DD1FCC0FDD1F4C0F5D1FEA01CA55DE4D85
S1131880872D8619860102C0000F111F8A95E2F781
S1131890982C0AC08091F928811126C09394892D2F
S11318A090E0A816B906CCF0892D8819FE01E80F3E
S11318B0F11D808190E080239123892B59F7809139
S11318C0F928882359F3672D892D0E945C0B939482
S11318D0892D90E0A816B9063CF77394872D90E003
S11318E0E816F9066CF68ECF672D892D0E94F70A4B
S11318F0D5CF882E880C880D882E880C662E660C11
S1131900660C660CE62CF12C87E0E80EF11CA82C82
S1131910B12C24E0A20EB11C762C50E040525109A7
S1131920CC24C394D12CEA01CC0FDD1FCC0FDD1FD6
S11319304C0F5D1FEA01CA55DE4D872D86198601BD
S113194002C0000F111F8A95E2F7982C0AC08091FB
S1131950F928811126C09394892D90E0A816B90620
S1131960CCF0892D8819FE01E80FF11D808190E0EB
S113197080239123892B59F78091F928882359F3DF
S1131980672D892D0E945C0B9394892D90E0A816F5
S1131990B9063CF77394872D90E0E816F9066CF6C7
S11319A031CF672D892D0E94F70AD5CFBF92CF92F0
S11319B0DF92EF92FF920F931F93CF93DF93CDB7F4
S11319C0DEB76197CDBFDEBF8091F928882349F146
S11319D00E94CC0A8091F928811130C08BEFC82E67
S11319E088E2D82E9BEFE92E9CE2F92E8E010E5E42
S11319F01F4F20E4B22EB982FE013296D6018D919A
S1131A008193E017F107D9F741E1BE016F5F7F4F82
S1131A108CE30E94741080E1C80ED11CEC14FD0408
S1131A2051F76196CDBFDEBFDF91CF911F910F912A
S1131A30FF90EF90DF90CF90BF9008950E94A10A8D
S1131A40CDCF9091F928992331F0813820F4613475
S1131A5010F40C94C30B0895FF920F931F93CF932C
S1131A60DF93F82E042F8091F928882339F180918F
S1131A70FA28982F9D7F41F527E02F15F8F0FB01F8
S1131A8040814423D9F0EB01219610E00CC026E0FC
S1131A90129FC00111248B37910564F0F39411E077
S1131AA04991442359F0113818F4F0E4FF1568F50E
S1131AB0002369F31F5F49914111F5CFDF91CF9165
S1131AC01F910F91FF9008958130C1F78FE08F151A
S1131AD0A8F3FB014081442389F3EB01219610E034
S1131AE00BC026E0129FC0011124CB9764F0F3943D
S1131AF011E04991442311F3113818F4F0E4FF156F
S1131B0050F4002371F31F5FF4CF202F6F2D812F2A
S1131B100E94C30BCDCF202F6F2D812F0E94C30BAA
S1131B20F0CF80E094E0EBEFF8E2DF019C011D923E
S1131B3021503040E1F708950F931F93CF93DF9323
S1131B4000D01F92CDB7DEB71092F9288093FA28FF
S1131B5010E819838EEA8A8342E0BE016F5F7F4FEB
S1131B608CE30E947410882309F4C3C0198385EDA3
S1131B708A831B831C8344E0BE016F5F7F4F8CE329
S1131B800E947410198388EA8A831B838FE38C83F1
S1131B9044E0BE016F5F7F4F8CE30E947410198391
S1131BA083ED8A831B831C8244E0BE016F5F7F4FF9
S1131BB08CE30E94741019838DE88A831B8384E16B
S1131BC08C8344E0BE016F5F7F4F8CE30E947410EE
S1131BD0198300E40A8342E0BE016F5F7F4F8CE308
S1131BE00E947410198386EA8A8342E0BE016F5F03
S1131BF07F4F8CE30E947410198384EA8A8342E045
S1131C00BE016F5F7F4F8CE30E947410198381EAD9
S1131C108A8342E0BE016F5F7F4F8CE30E947410A1
S1131C20198388EC8A8342E0BE016F5F7F4F8CE3A7
S1131C300E947410198380E28A8342E0BE016F5FC0
S1131C407F4F8CE30E94741019831A8242E0BE0114
S1131C506F5F7F4F8CE30E94741019838AED8A832F
S1131C601B8382E18C8344E0BE016F5F7F4F8CE372
S1131C700E947410198381E88A831B838FE88C8304
S1131C8044E0BE016F5F7F4F8CE30E9474101983A0
S1131C9089ED8A831B8381EF8C8344E0BE016F5FEF
S1131CA07F4F8CE30E94741019838BED8A831B830E
S1131CB00C8344E0BE016F5F7F4F8CE30E9474107D
S1131CC019838FEA8A8342E0BE016F5F7F4F8CE302
S1131CD00E94741080E094E0EBEFF8E2DF019C01D5
S1131CE01D9221503040E1F70E94D60C81E0809390
S1131CF0F9282496CDBFDEBFDF91CF911F910F91BC
S1131D000895CF93C82F80914A2D8E3450F5909129
S1131D104B2D911106C0E82FF0E0E450F34D2FEF66
S1131D202083C11110C0E82FF0E0E450F34D20E807
S1131D3030E0092E02C0359527950A94E2F72095E4
S1131D403081232320839F5F983039F410924B2DE8
S1131D508F5F80934A2DCF91089590934B2DCF910F
S1131D60089567E270E08CE793E20E94C530909199
S1131D704B2D80914A2D91110DC0E82FF0E0E450D5
S1131D80F34D2FEF20838E3460F281E080934B2D4E
S1131D90CF9108958E3428F29F5F9830B9F2DDCF49
S1131DA080E00E94810E81E00E94810E81E00E9409
S1131DB0810E81E00E94810E81E00C94810E80E00E
S1131DC00E94810E80E00E94810E80E00E94810EBC
S1131DD080E00E94810E81E00C94810ECF93DF930A
S1131DE0D82FC8E005C00E94D00EDD0FC15039F0D5
S1131DF0D7FFF9CF0E94DF0EDD0FC150C9F7DF9185
S1131E00CF910895E0E0F6E080E48183868308952D
S1131E103F924F925F926F927F928F929F92AF9276
S1131E20BF92CF92DF92EF92FF920F931F93CF93C3
S1131E30DF93362E472E582ED22E132FD42F88E020
S1131E408093610690E4909373061092A3098093A3
S1131E50A40980EC8093A50985E08093A6098CEF02
S1131E60882E8CE2982E9AE4692E9DE2792EF40154
S1131E708FEF81936E167F06E1F710924A2DC5E825
S1131E8081E00E94810EC150D9F7832D0E94EE0E8D
S1131E90842D0E94EE0E852D0E94EE0E8D2D0E9443
S1131EA0EE0E812F0E94EE0E8D2F0E94EE0E8E2DCF
S1131EB00E94EE0E8F2D0E94EE0E802F0E94EE0ED9
S1131EC08A2D0E94EE0E8B2D0E94EE0E8C2D0E9408
S1131ED0EE0E0FB6F8940F921092FB2C80E48093D0
S1131EE0050620E4F40191914F018091A10985FF39
S1131EF0FCCF2093A1099093A0096814790491F769
S1131F008FEE90E00197F1F700C0000080E4809329
S1131F1006060F900FBEDF91CF911F910F91FF9096
S1131F20EF90DF90CF90BF90AF909F908F907F9075
S1131F306F905F904F903F90089580E280934106A8
S1131F400895811104C080E280934606089580E2DA
S1131F508093450608958BEC8093520088E080932B
S1131F6050008091510083FFFCCF82EC8093550098
S1131F7088E1809350008091510084FFFCCF88ED6C
S1131F8084BF84E08093400080E008951092512D36
S1131F90E0E8F6E088E1808B818BE0EAF4E088E712
S1131FA0818383E2858381E084830E94BE218093C0
S1131FB04E2D90934F2D43E060E081E00E94AB20D2
S1131FC080934C2D90934D2D0895CF92DF92EF92F4
S1131FD0FF920F931F93CF93DF93D82F6B01142F8E
S1131FE079016FEF7FEF80914E2D90914F2D0E94DC
S1131FF04323C092582DD092592DE092562DF09241
S1132000572DC091512DC11155C081E08093512DA0
S11320101092502D8D2F880F80935A2D1093552D8B
S11320200093542D1092532D1092522D8091552DC2
S11320308823B1F180915A2D8E7F8093A6046FEF8F
S11320407FEF80914C2D90914D2D0E9443238091E0
S1132050502D8130E1F11F928F931F92DF938BE912
S113206093E29F938F930E94DF5020E040E050E082
S113207060E070E080914E2D90914F2D0E94EF20F2
S11320800F900F900F900F900F900F908C2FDF9167
S1132090CF911F910F91FF90EF90DF90CF90089513
S11320A08091542D882359F280915A2D8160809318
S11320B0A604C5CF20E040E050E060E070E08091ED
S11320C04E2D90914F2D0E94EF20C0E0DFCF20E0F5
S11320D040E050E060E070E080914E2D90914F2DF3
S11320E00E94EF20C1E0D2CF0F9300E020E030E067
S11320F00E94E50F0F9108959091552D2091542D34
S11321008091A40484FD22C08091532D891768F026
S11321108091522D821718F183E08093A30481E00B
S11321208093502D1092512D08958091532DE0915C
S1132130582DF091592DE80FF11D80818093A7044B
S11321408091532D8F5F8093532D089583E0809366
S1132150A30485E08093502D1092512D0895809111
S11321605A2D81608093A60408958091522D803267
S1132170F8F48091A7049091522DE091562DF0919E
S1132180572DE90FF11D80838091522D8F5F80932D
S1132190522D9091542D8091522D8917B8F087E0DB
S11321A08093A30481E08093502D1092512D0895C3
S11321B083E08093A30482E08093502D1092512DEC
S11321C09091542D8091522D891748F782E0809385
S11321D0A30408951F920F920FB60F9211240BB609
S11321E00F922F933F934F935F936F937F938F93AC
S11321F09F93AF93BF93EF93FF93CF93DF931F927C
S1132200CDB7DEB719828091A404982F9C70E1F4B5
S113221086FD44C087FD45C086E08093502D109212
S1132220512D8091512D81111FC0BE016F5F7F4FD1
S113223080914C2D90914D2D0E94332289818823C9
S113224099F00E94A21E10C08091A40482FD22C0B5
S113225093E09093502D88608093A4041092512DA4
S11322608091512D882309F30F90DF91CF91FF9135
S1132270EF91BF91AF919F918F917F916F915F91FA
S11322804F913F912F910F900BBE0F900FBE0F9067
S11322901F90189594E09093502DDDCF0E947C10F0
S11322A0DFCF0E94B510DCCFCF93DF931F92CDB761
S11322B0DEB74FEF5FEFBE016F5F7F4F8091602EFF
S11322C09091612E0E948622898190E00F90DF9187
S11322D0CF910895CF93DF931F921F92CDB7DEB7AE
S11322E08A8320E04FEF5FEFBE016E5F7F4F8091E6
S11322F0682E9091692E0E94EF208091A10A85FF9B
S11323000EC040E050E0BE016F5F7F4F8091682EA9
S11323109091692E0E94862289818093A00A80E090
S113232090E00F900F90DF91CF91089540E061E02D
S113233080E80E94AB208093682E9093692E40E041
S113234061E080E80E94AB208093602E9093612E20
S1132350E0E8F6E088E0818384E08283E0EAFAE062
S113236088E3838388E1848383E0858385EE8683A1
S11323708CEB8783ECE7FEE286E090E28283938332
S11323808083918308951F920F920FB60F921124A8
S11323900BB60F922F933F934F935F936F937F935B
S11323A08F939F93AF93BF93EF93FF93CF93DF9359
S11323B01F921F92CDB7DEB71982AE014F5F5F4FF8
S11323C0BE016E5F7F4F8091682E9091692E0E94AE
S11323D0FA248130D9F0898181110E94A21E0F90C4
S11323E00F90DF91CF91FF91EF91BF91AF919F91AA
S11323F08F917F916F915F914F913F912F910F90AA
S11324000BBE0F900FBE0F901F9018958A8180937A
S1132410A00AE1CF1F920F920FB60F9211240BB6B0
S11324200F922F933F934F935F936F937F938F9369
S11324309F93AF93BF93EF93FF93CF93DF931F9239
S11324401F92CDB7DEB719828091A00A8A8390913A
S11324505B2D9130C9F08B3571F10F900F90DF91A6
S1132460CF91FF91EF91BF91AF919F918F917F9108
S11324706F915F914F913F912F910F900BBE0F90F1
S11324800FBE0F901F9018958D35D9F090935E2E46
S113249020E0AE014F5F5F4FBE016E5F7F4F8091C2
S11324A0602E9091612E0E94D82189818823A9F2FF
S11324B00E94A21ED2CF81E080935B2D10925F2EEA
S11324C0CCCF10925B2D90935F2EBE016F5F7F4F38
S11324D08091622E9091632E0E940730E6CFEF9296
S11324E0FF920F93CF93DF9300D01F92CDB7DEB747
S11324F07C0181E0898301E09E012F5F3F4F41E031
S1132500B90189E20E94E50F898184FB992790F93A
S1132510F701908383FB992790F9928382FB992793
S113252090F9918386FB992790F99383881F8827D4
S1132530881F84832496CDBFDEBFDF91CF910F9196
S1132540FF90EF9008950F931F93CF93DF9300D0E4
S11325501F92CDB7DEB7198281608A8342E0BE0143
S11325606F5F7F4F89E20E947410209120083091A0
S1132570210880916E2E90916F2EA091702EB091B3
S1132580712E820F931FA11DB11D80935C2D90931A
S11325905D2DA0935E2DB0935F2D13E1198301E0AF
S11325A09E012F5F3F4F41E0B90189E20E94E50F90
S11325B08981877099F38BE0898381E08A8342E083
S11325C0BE016F5F7F4F89E20E94741019821A82E4
S11325D042E0BE016F5F7F4F89E20E94741081E088
S11325E02496CDBFDEBFDF91CF911F910F91089547
S11325F0EF92FF920F93CF93DF9300D01F92CDB74A
S1132600DEB77B01898302E09E012F5F3F4F41E0EB
S1132610B90189E20E94E50FE114F10461F0298116
S113262030E09A81985F02C0220F331F9A95E2F737
S1132630F701208331832496CDBFDEBFDF91CF9194
S11326400F91FF90EF9008958F929F92AF92BF9257
S1132650CF92DF92EF92FF920F931F93CF93DF936A
S113266000D000D0CDB7DEB76C017B0180E5898353
S113267001E09E012F5F3F4F41E0B90189E20E94D2
S1132680E50F89818F5F880F90E0F7018083918344
S113269086E489839E012F5F3F4F41E0B90189E2BF
S11326A00E94E50F098110E00F5F1F4FF7010483BB
S11326B01583A081B0E020E03FE24AE350E00E94AD
S11326C0E14B6C507E4F8F4F9F4F38EE832E33E09B
S11326D0932EA12CB12CA50194010E94B04BD801DA
S11326E00E94EC4B6C507E4F8F4F9F4FA50194017D
S11326F00E94B04BF7012287338744875587BE0178
S11327006B5F7F4F81E50E94F8128D819E818C0161
S1132710112702C0000F111F9A95E2F70F5F1F4F98
S1132720F70106831783A081B0E020E03FE24AE38B
S113273050E00E94E14B6C507E4F8F4F9F4FA5019C
S113274094010E94B04BD8010E94E14B6C507E4F23
S11327508F4F9F4FA50194010E94B04BF70126872C
S11327603787408B518B80E7898301E09E012F5F7F
S11327703F4F41E0B90189E20E94E50F89818F5FF3
S1132780880F90E0F70182839383BE016B5F7F4FD4
S113279081E70E94F8128D819E818C01112702C06D
S11327A0000F111F9A95E2F70F5F1F4FF701008783
S11327B01187F6018081882339F0F701868197819A
S11327C0081B190B00871187F701A281B0E020E0F4
S11327D03FE24AE350E00E94E14B6C507E4F8F4F42
S11327E09F4F28EE822E23E0922EA12CB12CA5011E
S11327F094010E94B04BD8010E94E14B6C507E4F73
S11328008F4F9F4FA50194010E94B04BF701228B7B
S1132810338B448B558B2696CDBFDEBFDF91CF9192
S11328201F910F91FF90EF90DF90CF90BF90AF90EA
S11328309F908F9008954F925F926F927F928F92A4
S11328409F92AF92BF92CF92DF92EF92FF921F932B
S1132850CF93DF93CDB7DEB76F97CDBFDEBF6B01EC
S11328607C01CE0147960E946F12BE016F5F7F4FBD
S1132870CE014A960E9424138F89882309F4B0C09C
S11328808B859C85AD85BE858C57924FAF4FBF4FCE
S1132890298D222309F493C04B855C856D857E8543
S11328A04E545D4F6F4F7F4F440F551F661F771F68
S11328B0840F951FA61FB71F1A8D112361F04F8532
S11328C0588969897A894C565D4F6F4F7F4F840FC1
S11328D0951FA61FB71F2B8D222309F49AC02C0124
S11328E03D0126E2420E22E0521E611C711CC414FA
S11328F0D504E604F70408F478C0AB81B0E020E026
S11329003FE24AE350E00E94E14B4B015C0124EFBB
S1132910820E21E0921EA11CB11CA701960124196C
S1132920350946095709A8EEB3E00E94E14B2B0193
S11329303C01C501B40120ED37E040E050E00E94C5
S1132940B04B420E531E641E751EC501B40128EE21
S113295033E040E050E00E94B04BC301B2010E945A
S1132960B04B112331F08F819885280F391F411DF9
S1132970511D211531054105510509F44CC0DA01F9
S1132980C9010197A109B109AC01BD01442720E0A7
S113299030E0452B462B472B79F0B695A7959795B4
S11329A087952F5F3F4FAC01BD014427452B462B34
S11329B0472B99F7322F2227822B932B2EC0288D59
S11329C0222309F479CF4B855C856D857E854C5631
S11329D05D4F6F4F7F4F840F951FA61FB71F6CCF9E
S11329E086E39BE0A0E0B0E053CF80E06F96CDBFDC
S11329F0DEBFDF91CF911F91FF90EF90DF90CF90DA
S1132A00BF90AF909F908F907F906F905F904F900A
S1132A10089581E0EBCF80E090E021E72C8F9D8F3B
S1132A208E8F43E0BE01645E7F4F89E20E94741082
S1132A30C0926A2ED0926B2EE0926C2EF0926D2E84
S1132A4081E0D4CF2F923F924F925F926F927F9208
S1132A508F929F92AF92BF92CF92DF92EF92FF92AA
S1132A600F931F93CF93DF93CDB7DEB7A197CDBF5D
S1132A70DEBF80EC898301E09E012F5F3F4F41E080
S1132A80B90189E20E94E50F9981882309F4EFC511
S1132A909E3ED9F08BEC93E20E941B5180E0A196FC
S1132AA0CDBFDEBFDF91CF911F910F91FF90EF90CB
S1132AB0DF90CF90BF90AF909F908F907F906F905A
S1132AC05F904F903F902F90089588E889831A82F1
S1132AD042E0BE016F5F7F4F89E20E947410E0E81C
S1132AE0EE2EE98211E01A8342E0BE016F5F7F4F50
S1132AF089E20E947410FF24FA94F9821A8342E056
S1132B00BE016F5F7F4F89E20E94741019821A829E
S1132B1042E0BE016F5F7F4F89E20E94741081E939
S1132B20898301E09E012F5F3F4F41E0B90189E2B3
S1132B300E94E50F89818093602D19821A8342E0F7
S1132B40BE016F5F7F4F89E20E947410F9821A827E
S1132B5042E0BE016F5F7F4F89E20E947410E982F8
S1132B601A8242E0BE016F5F7F4F89E20E947410B7
S1132B70F0E6DF2ED9829E012F5F3F4F41E0B9017D
S1132B8089E20E94E50F8981D98282618A8342E0C9
S1132B90BE016F5F7F4F89E20E94741084E48983D1
S1132BA01A8280E28B8343E0BE016F5F7F4F89E22C
S1132BB00E9474101983FA8242E0BE016F5F7F4F56
S1132BC089E20E947410E9821A8342E0BE016F5FB9
S1132BD07F4F89E20E947410F9821A8342E0BE0199
S1132BE06F5F7F4F89E20E94741019821A8242E05B
S1132BF0BE016F5F7F4F89E20E947410F98286E004
S1132C008A8342E0BE016F5F7F4F89E20E947410A5
S1132C10A3E8DA2ED9829E012F5F3F4F41E0B9012C
S1132C2089E20E94E50F8981D98284608A8342E027
S1132C30BE016F5F7F4F89E20E947410F98287E0C2
S1132C408A8342E0BE016F5F7F4F89E20E94741065
S1132C5081E889831A8342E0BE016F5F7F4F89E276
S1132C600E947410E9821A8342E0BE016F5F7F4FB5
S1132C7089E20E94741084E989838BE68A8342E0A6
S1132C80BE016F5F7F4F89E20E947410D9821A825D
S1132C9042E0BE016F5F7F4F89E20E947410209171
S1132CA020083091210880916E2E90916F2EA09172
S1132CB0702EB091712E820F931FA11DB11D8093B0
S1132CC05C2D90935D2DA0935E2DB0935F2DB3E8A2
S1132CD0FB2E13E8F98201E09E012F5F3F4F41E094
S1132CE0B90189E20E94E50F8981882391F3198350
S1132CF0DD24D394DA8242E0BE016F5F7F4F89E224
S1132D000E94741082E989839E012F5F3F4F41E046
S1132D10B90189E20E94E50FF98081E889831A826A
S1132D2042E0BE016F5F7F4F89E20E947410EE247F
S1132D30EA94E98286E08A8342E0BE016F5F7F4FB6
S1132D4089E20E94741019839E012F5F3F4F41E076
S1132D50B90189E20E94E50F898119838B7F8A83F7
S1132D6042E0BE016F5F7F4F89E20E947410E982E6
S1132D70DA8242E0BE016F5F7F4F89E20E947410E5
S1132D801982DA8242E0BE016F5F7F4F89E20E94BE
S1132D907410E9821A8242E0BE016F5F7F4F89E2BC
S1132DA00E94741080E889831A8242E0BE016F5F3A
S1132DB07F4F89E20E94741080EB898306E09E01B4
S1132DC0295E3F4F41E0BE016F5F7F4F89E20E9461
S1132DD0E50FE982DA8242E0BE016F5F7F4F89E24C
S1132DE00E9474108FE489831A8242E0BE016F5FEF
S1132DF07F4F89E20E9474108EE489838CE28A8377
S1132E0042E0BE016F5F7F4F89E20E947410E98245
S1132E101A8242E0BE016F5F7F4F89E20E94741004
S1132E2086EB898384EB8A8342E0BE016F5F7F4F28
S1132E3089E20E947410F7FC20C440E000E050E0F6
S1132E4021E030E07F2D7F7710C05717D1F08081CB
S1132E5090E0602F677002C0959587956A95E2F7B8
S1132E6080FD5F5F0F5F0033E1F0802F86958695CC
S1132E708695E7E1F0E0EC0FFD1FE80FF11D041764
S1132E8020F7802F8770D90102C0AA0FBB1F8A9533
S1132E90E2F7CD0180959081892380830F5F003311
S1132EA021F780EB898386E0FE017796DE01129696
S1132EB001900D928A95E1F747E0BE016F5F7F4F65
S1132EC089E20E9474101FEF1983FF24F394FA829D
S1132ED042E0BE016F5F7F4F89E20E947410198245
S1132EE01A8242E0BE016F5F7F4F89E20E94741034
S1132EF019831A8242E0BE016F5F7F4F89E20E940C
S1132F00741039E0B32EB9821A8242E0BE016F5FB9
S1132F107F4F89E20E94741080E189831A8242E023
S1132F20BE016F5F7F4F89E20E94741081E1898343
S1132F301A8242E0BE016F5F7F4F89E20E947410E3
S1132F4084E28983FA8242E0BE016F5F7F4F89E2A7
S1132F500E94741045E2942E99821A8342E0BE01C5
S1132F606F5F7F4F89E20E94741085E789831A821C
S1132F7042E0BE016F5F7F4F89E20E9474101983A3
S1132F80FA8242E0BE016F5F7F4F89E20E947410B3
S1132F908EE489838CE28A8342E0BE016F5F7F4FB7
S1132FA089E20E94741058E4A52EA9821A8242E094
S1132FB0BE016F5F7F4F89E20E947410098360E253
S1132FC0D62EDA8242E0BE016F5F7F4F89E20E9413
S1132FD0741019831A8242E0BE016F5F7F4F89E249
S1132FE00E9474100983BA8242E0BE016F5F7F4F72
S1132FF089E20E94741084E589831A8242E0BE014A
S11330006F5F7F4F89E20E94741071E3572E5982DB
S1133010B4E0BA8342E0BE016F5F7F4F89E20E9451
S11330207410E2E38E2E8982F3E04F2E4A8242E04E
S1133030BE016F5F7F4F89E20E947410A0E4EA2E04
S1133040E98283E88A8342E0BE016F5F7F4F89E2B1
S11330500E947410B6E46B2E69829A8242E0BE012B
S11330606F5F7F4F89E20E94741080E689831A8221
S113307042E0BE016F5F7F4F89E20E94741087E2D5
S113308089831A8242E0BE016F5F7F4F89E20E940A
S1133090741080E5898386E0282E2A8242E0BE01EE
S11330A06F5F7F4F89E20E94741081E589831A82E1
S11330B042E0BE016F5F7F4F89E20E94741082E597
S11330C0898386E98A8342E0BE016F5F7F4F89E28C
S11330D00E94741086E5898398E0992E9A8242E0D2
S11330E0BE016F5F7F4F89E20E94741087E5898378
S11330F00A8342E0BE016F5F7F4F89E20E94741031
S113310081E689831A8242E0BE016F5F7F4F89E2C4
S11331100E94741082E689831A8242E0BE016F5FC6
S11331207F4F89E20E94741084E689831A8242E008
S1133130BE016F5F7F4F89E20E94741085E6898328
S11331401A8242E0BE016F5F7F4F89E20E947410D1
S113315086E6898380EA8A8342E0BE016F5F7F4FFF
S113316089E20E9474101983FA8242E0BE016F5F03
S11331707F4F89E20E94741082E289838A8242E04E
S1133180BE016F5F7F4F89E20E94741027E4822E94
S1133190898284E18A8342E0BE016F5F7F4F89E2C6
S11331A00E94741089E489831A8342E0BE016F5F30
S11331B07F4F89E20E9474108AE489831A8242E074
S11331C0BE016F5F7F4F89E20E94741019831A82D7
S11331D042E0BE016F5F7F4F89E20E9474108AE76C
S11331E089832AE02A8342E0BE016F5F7F4F89E230
S11331F00E9474108BE789831A8242E0BE016F5FDC
S11332007F4F89E20E94741088E7898381E28A8370
S113321042E0BE016F5F7F4F89E20E947410198300
S1133220FA8242E0BE016F5F7F4F89E20E94741010
S113323083E2898334E3332E3A8242E0BE016F5F36
S11332407F4F89E20E94741082E489831A8242E0EB
S1133250BE016F5F7F4F89E20E94741044E4C42E64
S1133260C9821A8342E0BE016F5F7F4F89E20E94E8
S1133270741055E4752E798286E28A8342E0BE0199
S11332806F5F7F4F89E20E947410698265E0662E49
S11332906A8242E0BE016F5F7F4F89E20E94741030
S11332A0E982EA8242E0BE016F5F7F4F89E20E94B9
S11332B074108EE089832A8242E0BE016F5F7F4FE3
S11332C089E20E947410D9828AE18A8342E0BE01B5
S11332D06F5F7F4F89E20E94741083E48983EA82DE
S11332E042E0BE016F5F7F4F89E20E947410198330
S11332F01A8242E0BE016F5F7F4F89E20E94741020
S113330039824A8242E0BE016F5F7F4F89E20E94A8
S1133310741085E38983CA8242E0BE016F5F7F4FE8
S113332089E20E9474101983FA8242E0BE016F5F41
S11333307F4F89E20E947410598284E08A8342E0BC
S1133340BE016F5F7F4F89E20E9474108BE4898312
S1133350BA8242E0BE016F5F7F4F89E20E9474101F
S11333608CE489836A8242E0BE016F5F7F4F89E209
S11333700E9474108DE48983A4E0AA8342E0BE0114
S11333806F5F7F4F89E20E94741019831A8242E0B2
S1133390BE016F5F7F4F89E20E947410C9821A8256
S11333A042E0BE016F5F7F4F89E20E947410798210
S11333B0DA8242E0BE016F5F7F4F89E20E9474109F
S11333C089829A8242E0BE016F5F7F4F89E20E9448
S11333D07410A98288E28A8342E0BE016F5F7F4F46
S11333E089E20E94741087E689831A8242E0BE0152
S11333F06F5F7F4F89E20E94741080E78983B4E095
S1133400BA8342E0BE016F5F7F4F89E20E9474106D
S113341081E78983FA8242E0BE016F5F7F4F89E2D0
S11334200E94741082E789838EEF8A8342E0BE0192
S11334306F5F7F4F89E20E94741086E789831A8246
S113344042E0BE016F5F7F4F89E20E94741087E7FC
S113345089831A8242E0BE016F5F7F4F89E20E9436
S113346074101983FA8242E0BE016F5F7F4F89E2D4
S11334700E9474108DE08983FA8242E0BE016F5F7E
S11334807F4F89E20E94741019831A8242E0BE01C0
S11334906F5F7F4F89E20E94741070E8E72EE98223
S11334A0FA8242E0BE016F5F7F4F89E20E9474108E
S11334B0F98288EF8A8342E0BE016F5F7F4F89E221
S11334C00E9474101983FA8242E0BE016F5F7F4F3D
S11334D089E20E9474108EE88983FA8242E0BE0178
S11334E06F5F7F4F89E20E9474101982FA8242E072
S11334F0BE016F5F7F4F89E20E94741019831A82A4
S113350042E0BE016F5F7F4F89E20E947410E9823E
S11335101A8242E0BE016F5F7F4F89E20E947410FD
S11335202AE0298384E08A8342E0BE016F5F7F4FF3
S113353089E20E94741014E8198301E09E012F5F50
S11335403F4F41E0B90189E20E94E50F8981198367
S11335508F7E8A8342E0BE016F5F7F4F89E20E94C3
S113356074108BE08983FA8242E0BE016F5F7F4F63
S113357089E20E947410CE014D960E946F12BE0122
S11335806F5F7F4FCE0180960E9424138D8D882318
S113359009F486C08B859C85AD85BE858C57924F7A
S11335A0AF4FBF4F2F8D222309F469C04B855C8533
S11335B06D857E854E545D4F6F4F7F4F440F551F71
S11335C0661F771F840F951FA61FB71F28A12223EC
S11335D061F04F85588969897A894C565D4F6F4FE0
S11335E07F4F840F951FA61FB71F29A1222361F0C7
S11335F04B895C896D897E894A5D5D4F6F4F7F4F32
S1133600840F951FA61FB71F80936A2E90936B2E6D
S1133610A0936C2EB0936D2E81E0898388EE8A830B
S113362042E0BE016F5F7F4F89E20E947410609197
S11336306A2E70916B2E80916C2E90916D2E60325B
S1133640AEE47A078105910508F04AC011E01983B8
S11336501A8342E0BE016F5F7F4F89E20E947410BB
S113366080E40E94A312811120C080E018CA83EB79
S113367093E20E941B5180E012CA4CE0DFCB2E8DF6
S1133680222309F4A3CF4B855C856D857E854C563A
S11336905D4F6F4F7F4F840F951FA61FB71F96CFA7
S11336A086E39BE0A0E0B0E07DCF198382E08A83CB
S11336B042E0BE016F5F7F4F89E20E94741080E098
S11336C00E94A312882389F2198388EE8A8342E038
S11336D0BE016F5F7F4F89E20E94741081E0DFC9F1
S11336E00E941B14B3CF0F931F93CF93DF9300D08B
S11336F000D0CDB7DEB72091200830912108809109
S11337006E2E90916F2EA091702EB091712E820F1B
S1133710931FA11DB11D80935C2D90935D2DA093EB
S11337205E2DB0935F2D13E1198301E09E012F5F9D
S11337303F4F41E0B90189E20E94E50F898187701A
S113374099F3BE016B5F7F4F8EE10E94F8120D81E9
S11337501E818BE0898381E08A8342E0BE016F5F32
S11337607F4F89E20E947410C8012696CDBFDEBF48
S1133770DF91CF911F910F910895FF920F931F93A3
S1133780CF93DF9300D01F92CDB7DEB700E8098353
S113379011E01A8342E0BE016F5F7F4F89E20E940D
S11337A07410FF24FA94F9821A8342E0BE016F5F19
S11337B07F4F89E20E94741019821A8242E0BE018E
S11337C06F5F7F4F89E20E9474108091602D91E9B0
S11337D099838A8342E0BE016F5F7F4F89E20E9432
S11337E0741019821A8342E0BE016F5F7F4F89E231
S11337F00E947410F9821A8242E0BE016F5F7F4F0B
S113380089E20E94741009831A8242E0BE016F5F4C
S11338107F4F89E20E94741019821A8342E0BE012C
S11338206F5F7F4F89E20E947410209120083091CD
S1133830210880916E2E90916F2EA091702EB091E0
S1133840712E820F931FA11DB11D80935C2D909347
S11338505D2DA0935E2DB0935F2D198201E09E0132
S11338602F5F3F4F41E0B90189E20E94E50F898152
S113387080FDF3CF0E94731B2496CDBFDEBFDF9182
S1133880CF911F910F91FF9008950F931F93CF93A2
S1133890DF93EC010E947F298091612D811121C069
S11338A0E091722EF091732ECF0101968093662DD4
S11338B09093672D1092682D1092692D8FEF9FE3DE
S11338C08093642D9093652D1092622D1092632D38
S11338D08383948382E69DE28183928381E0809353
S11338E0612D209709F464C0AE014C5F5F4F2396AD
S11338F0CE3FDF4308F05CC0E091662DF091672D68
S1133900A6E6BDE206C080819181009739F0DF010F
S1133910FC012281338124173507A8F3CDE2E23676
S1133920FC0709F445C0CD91DC9111978E010C5F21
S11339301F4F808191818D939C93C901841B950BAA
S11339408930910500F1BF01640F751FDB011296E8
S11339508D939C9313974283538312962D913C919C
S11339601397A6E6BDE201C0DF01ED91FC9111972A
S11339708281938182179307B8F3EB01E883F9837B
S11339806D937C939A018091142090911520821B51
S1133990930B80931420909315200E947B2A011589
S11339A0110541F0C801DF91CF911F910F91089546
S11339B00E947B2A0E947C3000E010E0C801DF9165
S11339C0CF911F910F910895CF93DF93009721F129
S11339D0EC0124970E947F294A815B81A6E6BDE21F
S11339E001C0DF01ED91FC911197228133812417ED
S11339F03507B8F3E883F983CD93DC9380911420E1
S1133A0090911520480F591F40931420509315206E
S1133A10DF91CF910C947B2ADF91CF91089580910F
S1133A201420909115200895FC01039681839283BC
S1133A302FEF3FEF23833483858396838783908797
S1133A4010820895FC01108611860895CF93DF93A8
S1133A509C01FB01DC011196CD91DC911297C2838C
S1133A60D3838C819D81848395838C819D81DC01AA
S1133A7012966D937C9313976C837D832087318793
S1133A80F90180818F5F8083DF91CF910895CF9377
S1133A90DF93EB01488159814F3F2FEF520701F12A
S1133AA0DC01139601C0DF011296ED91FC9113978E
S1133AB02081318142175307B0F7EA83FB83C48323
S1133AC0D583AC83BD831296CD93DC9313978887FB
S1133AD09987FC0120812F5F2083DF91CF91089586
S1133AE0FC01A781B0851296ED91FC911397E5CF67
S1133AF0CF93DF93FC01A085B1852281338184813A
S1133B009581E9018C839D8384819581EC012A83CD
S1133B103B8311962D913C911297E217F30749F0DC
S1133B20108611868C9181508C938C91DF91CF916A
S1133B30089511968D939C931297F2CF31E1FC0175
S1133B403083319722E220833197A3E3A083319716
S1133B506083319770833197108231971082319747
S1133B6060E8608331971082319762E06083319717
S1133B7063E06083319764E06083319765E060833C
S1133B80319766E06083319767E06083319768E03E
S1133B906083319769E06083319760E16083319796
S1133BA03083319732E13083319733E13083319779
S1133BB034E13083319735E13083319736E1308316
S1133BC0319737E13083319738E13083319739E1E8
S1133BD03083319730E23083319731E2308331974B
S1133BE02083319723E22083319740833197508398
S1133BF0319726E22083319727E22083319728E208
S1133C002083319729E22083319720E32083319761
S1133C1021E3208387970895E0E0F8E08FEF9FEF9A
S1133C2080A791A781E0808390E491838683878332
S1133C3080E09DE786A397A3A091082EB091092E5A
S1133C40CD91CDBFDD91DEBFFF91EF91DF91CF919B
S1133C50BF91AF919F918F917F916F915F914F91A0
S1133C603F912F911F910F91FF90EF90DF90CF9094
S1133C70BF90AF909F908F907F906F905F904F9088
S1133C803F902F901F900F900FBE0F90089581E0EA
S1133C9008950F920FB6F8940F921F9211242F9249
S1133CA03F924F925F926F927F928F929F92AF92C8
S1133CB0BF92CF92DF92EF92FF920F931F932F93B5
S1133CC03F934F935F936F937F938F939F93AF93A0
S1133CD0BF93CF93DF93EF93FF93A091082EB091FE
S1133CE0092E0DB60D920EB60D920E94852BA09151
S1133CF0082EB091092ECD91CDBFDD91DEBFFF918D
S1133D00EF91DF91CF91BF91AF919F918F917F916F
S1133D106F915F914F913F912F911F910F91FF9060
S1133D20EF90DF90CF90BF90AF909F908F907F9057
S1133D306F905F904F903F902F901F900F900FBE09
S1133D400F90089580912008909121088C599F4FDD
S1133D5080932808909329082091280830912908F5
S1133D6080912608909127082817390770F0209130
S1133D702608309127088091280890912908821BF1
S1133D80930B809328089093290808950F920FB6F7
S1133D90F8940F921F9211242F923F924F925F92A8
S1133DA06F927F928F929F92AF92BF92CF92DF9247
S1133DB0EF92FF920F931F932F933F934F935F9331
S1133DC06F937F938F939F93AF93BF93CF93DF931F
S1133DD0EF93FF93A091082EB091092E0DB60D928A
S1133DE00EB60D92209126083091270880916E2EF0
S1133DF090916F2EA091702EB091712E820F931F0F
S1133E00A11DB11D80936E2E90936F2EA093702EE2
S1133E10B093712E0E94A1290E94852BA091082E97
S1133E20B091092ECD91CDBFDD91DEBFFF91EF9111
S1133E30DF91CF91BF91AF919F918F917F916F91BE
S1133E405F914F913F912F911F910F91FF90EF90B0
S1133E50DF90CF90BF90AF909F908F907F906F90A6
S1133E605F904F903F902F901F900F900FBE0F9038
S1133E70189508950F920FB6F8940F921F9211247B
S1133E802F923F924F925F926F927F928F929F9266
S1133E90AF92BF92CF92DF92EF92FF920F931F9354
S1133EA02F933F934F935F936F937F938F939F933E
S1133EB0AF93BF93CF93DF93EF93FF93A091082E1B
S1133EC0B091092E0DB60D920EB60D928FEF9FEFA5
S1133ED080932808909329080E94852BA091082E8E
S1133EE0B091092ECD91CDBFDD91DEBFFF91EF9151
S1133EF0DF91CF91BF91AF919F918F917F916F91FE
S1133F005F914F913F912F911F910F91FF90EF90EF
S1133F10DF90CF90BF90AF909F908F907F906F90E5
S1133F205F904F903F902F901F900F900FBE0F9077
S1133F3018950F931F93CF93DF93EC01042F1A8DE1
S1133F404C8D41110DC088819981892B09F443C09E
S1133F501F5F80E01A8FDF91CF911F910F91089519
S1133F6050E0011115C08A819B810E940E502C8D56
S1133F708A819B81820F911D8A839B832C813D8141
S1133F808217930728F3888199818A839B83E0CFE2
S1133F908E819F810E940E508C8D90E09195819529
S1133FA091092E813F81280F391F2E833F83488139
S1133FB059812417350730F42C813D81820F931FDA
S1133FC08E839F83023021F6112311F080E0C2CF4B
S1133FD011E080E0BFCF8C819D810E94792E1C82EC
S1133FE01D821F5FB7CFFC01CB01448D442391F0A8
S1133FF050E066817781640F751F6683778324811F
S113400035816217730720F060817181668377833D
S11340100C940E500895EF92FF920F931F93CF9339
S11340208C010FB6F8940F92FC01C68D1C16C4F4D3
S1134030FC0181898823A1F07801F1E1EF0EF11CE4
S113404006C0C15069F0F8018189882349F0C7018D
S11340500E94AF2B8823A9F30E94682CC15099F7C2
S11340608FEFF801868F0F900FBE0FB6F8940F9262
S1134070C58D1C16C4F4F80180858823A1F078014D
S1134080F8E0EF0EF11C06C0C15069F0F80180851C
S1134090882349F0C7010E94AF2B8823A9F30E940B
S11340A0682CC15099F78FEFF801858F0F900FBEE0
S11340B0CF911F910F91FF90EF9008951F93CF938D
S11340C0DF93EC01162F892B09F43EC00FB6F89448
S11340D00F92488159818B8D6C8D9A01869F200D9A
S11340E0311D11242C833D831A8E4A835B8390E017
S11340F00197689F9001699F300D1124CA01820FB6
S1134100931F8E839F838FEF8D8F8E8F111113C01A
S11341108885811107C00F900FBE81E0DF91CF9198
S11341201F910895CE0108960E94AF2B882399F31E
S11341300E94491EF0CFCE0108960E94141DCE01A4
S113414041960E94141DE7CF63E071E08AEE93E28A
S11341500E94C530BBCFFF920F931F93CF93DF9381
S1134160182F062FF42E882399F10023D1F0109FE5
S1134170C001112481960E94451CEC01009751F066
S11341808196888399831B8F0C8F61E0CE010E94F6
S11341905E20F8A2CE01DF91CF911F910F91FF9085
S11341A0089581E290E00E94451CEC01892B91F373
S11341B0C883D9831B8F0C8F61E0CE010E945E20DF
S11341C0F8A2CE01DF91CF911F910F91FF90089536
S11341D066E771E08AEE93E20E94C530C6CFBF92D3
S11341E0CF92DF92EF92FF920F931F93CF93DF93BF
S11341F0CDB7DEB72597CDBFDEBF8C016B014C83F5
S11342005D83B22E892B09F4B2C0C114D10409F420
S1134210A2C0F2E0BF1609F47DC0F801838D20E04E
S11342207801F8E0EF0EF11C10C06C817D81C701AC
S11342300E948F2BC8010E940B200E947B2A882396
S113424009F44AC0F801838D21E00FB6F8940F9267
S1134250F801928D981708F442C0F2E0BF1609F4F1
S11342603EC08C819D81892B09F460C0222359F1C1
S11342700F900FBE0E947F290FB6F8940F92F80199
S1134280858D8F3F39F1F801868D8F3F09F10F90AD
S11342900FBEBE016C5F7F4FCE0101960E94112CB0
S11342A0811148C00FB6F8940F92F801928D0F90C7
S11342B00FBE838D981709F4B8CFC8010E940B2054
S11342C00E947B2ABFCFCE0101960E94062CD0CF3C
S11342D0168EDDCF158ED7CF0E94491EB3CF4B2D3E
S11342E0B601C8010E94991FF801918991112CC04F
S11342F0811127C00F900FBE81E02596CDBFDEBF90
S1134300DF91CF911F910F91FF90EF90DF90CF90AD
S1134310BF900895F801838D813009F480CF63EF55
S113432072E08AEE93E20E94C53077CF0F900FBE01
S113433080E0E3CFC8010E940B200E947B2A80E02A
S1134340DCCF0E94491ED6CFC80141960E94AF2BF4
S1134350882381F2F6CFF801848D882309F459CF9C
S113436062EF72E08AEE93E20E94C53052CF61EFB1
S113437072E08AEE93E20E94C53047CFCF93DF9379
S1134380482F60E081E00E94AB20EC01009761F0CF
S11343901C821D82188219821E8220E040E050E0B7
S11343A060E070E00E94EF20CE01DF91CF9108958C
S11343B0CF92DF92EF92FF920F931F93CF93DF93ED
S11343C0EC018B016A01F22E892B09F445C0011519
S11343D01105C1F182E0F81671F09A8D8B8D981752
S11343E0A0F080E0DF91CF911F910F91FF90EF90AB
S11343F0DF90CF9008958B8D813031F065EC73E0C0
S11344008AEE93E20E94C5308A8DEE8C4F2DB8015E
S1134410CE010E94991FEFEFEE1621F0E394EE8E89
S113442081E0E0CF89898823D9F3CE0141960E94A7
S1134430AF2B8823A9F3C114D10491F381E0F601D1
S11344408083D0CF8C8D882329F264EC73E08AEECC
S113445093E20E94C530BECF63EC73E08AEE93E230
S11344600E94C530B4CF0F931F93CF93DF93EC0119
S11344708B01892B09F443C08C8D81111BC0888169
S11344809981892B09F18A8D9B8D891768F49E8DFA
S11344908F5F8A8F9F3F19F19F5F9E8F81E0DF912D
S11344A0CF911F910F91089580E0DF91CF911F91DB
S11344B00F91089564E674E08AEE93E20E94C53099
S11344C088819981892BF9F68C819D81892BD9F278
S11344D069E674E08AEE93E20E94C530D4CF8989FC
S11344E08823E1F2CE0141960E94AF2B8823B1F2DA
S11344F00115110599F281E0F8018083D0CF60E6BF
S113450074E08AEE93E20E94C530B6CFAF92BF92B8
S1134510CF92DF92FF920F931F93CF93DF93CDB788
S1134520DEB72597CDBFDEBF8C015B014C835D8375
S1134530892B09F4A1C0A114B10409F491C020E0AD
S11345406801F1E1CF0ED11C0FB6F8940F92F80177
S1134550F28CF1106AC08C819D81892B09F473C09F
S1134560222309F459C00F900FBE0E947F290FB671
S1134570F8940F92F801858D8F3F09F454C0F80127
S1134580868D8F3F09F44DC00F900FBEBE016C5F46
S11345907F4FCE0101960E94112C811122C00FB6CB
S11345A0F8940F92F801828D0F900FBE811112C002
S11345B06C817D81C6010E948F2BC8010E940B2053
S11345C00E947B2A882311F021E0BECF0E94491E5D
S11345D021E0BACFC8010E940B200E947B2A21E06F
S11345E0B3CFC8010E940B200E947B2A0FB6F89417
S11345F00F92F801828D0F900FBE8111E5CF2596A1
S1134600CDBFDEBFDF91CF911F910F91FF90DF905F
S1134610CF90BF90AF900895CE0101960E94062CD2
S1134620A2CF168EB1CF158EAACFB501C8010E94B4
S1134630F31FFA94F801F28E8085811108C00F905F
S11346400FBE81E0DCCF0F900FBE80E0D8CFC80151
S113465008960E94AF2B882391F30E94491EEFCF46
S1134660F801848D882309F46ACF64E075E08AEE4A
S113467093E20E94C53063CF60E075E08AEE93E276
S11346800E94C53058CFDF92EF92FF920F931F9391
S1134690CF93DF93CDB7DEB72597CDBFDEBF8C01B7
S11346A06C837D83892B09F4D0C0D8015C968C91EE
S11346B08111BBC0D12C20E07801B1E1EB0EF11CDB
S11346C00FB6F8940F92F801828D811189C08C8104
S11346D09D81892B09F49DC0222309F45FC00F90AA
S11346E00FBE0E947F290FB6F8940F92D8015D96F1
S11346F08C915D978F3F09F456C0F801868D8F3FEA
S113470009F458C00F900FBEBE016C5F7F4FCE01FD
S113471001960E94112C811123C00FB6F8940F92B8
S1134720D8015A968C915A970F900FBE811144C0AC
S1134730F80180819181892B09F445C06C817D81C8
S1134740C7010E948F2BC8010E940B200E947B2A64
S1134750882311F021E0B4CF0E94491E21E0B0CF9C
S1134760C8010E940B200E947B2A0FB6F8940F9276
S1134770F801828D0F900FBE8111ECCFDD2009F47A
S113478072C00FB6F8940F928189811165C060E000
S1134790F801848195810E94D02E43C0CE010196F8
S11347A00E94062C9CCF5D961C92F801868D8F3F4B
S11347B009F0A8CF168EA6CFC8010E940B200E9434
S11347C07B2A21E07DCF0FB6F8940F9214968D9139
S11347D09C9115970E94062ED82E0F900FBEAECF37
S11347E08150828F80819181892B09F43EC0F80128
S11347F08085811121C00F900FBE81E02596CDBF29
S1134800DEBFDF91CF911F910F91FF90EF90DF906A
S11348100895DD2031F061EE75E08AEE93E20E94A6
S1134820C5300F900FBE80E0E9CF65E975E08AEEF0
S113483093E20E94C5303ECFC80108960E94AF2B78
S11348408823C9F20E94491ED6CF61E975E08AEE39
S113485093E20E94C53029CF0688F789E02D808134
S11348606AE0681B95CF80E0C9CF0E94F52FD8017C
S113487014968D939C931597BACFCF92DF92EF92B3
S1134880FF920F931F93CF93DF93CDB7DEB7259796
S1134890CDBFDEBF8C016B014C835D83892B09F492
S11348A0A2C0C114D10409F492C020E07801F1E15E
S11348B0EF0EF11C0FB6F8940F92F801828D81115E
S11348C069C08C819D81892B09F474C0222309F469
S11348D058C00F900FBE0E947F290FB6F8940F9214
S11348E0F801858D8F3F09F453C0F801868D8F3F01
S11348F009F44CC00F900FBEBE016C5F7F4FCE0118
S113490001960E94112C811122C00FB6F8940F92C7
S1134910F801828D0F900FBE811112C06C817D81D0
S1134920C7010E948F2BC8010E940B200E947B2A82
S1134930882311F021E0BECF0E94491E21E0BACFA6
S1134940C8010E940B200E947B2A21E0B3CFC8013A
S11349500E940B200E947B2A0FB6F8940F92F80154
S1134960828D0F900FBE8111E5CF2596CDBFDEBF9E
S1134970DF91CF911F910F91FF90EF90DF90CF9037
S11349800895CE0101960E94062CA3CF168EB2CFB5
S1134990158EABCFE680F780B601C8010E94F31FE5
S11349A0F801E682F7828189811108C00F900FBE59
S11349B081E0DBCF0F900FBE80E0D7CFC8014196D6
S11349C00E94AF2B882391F30E94491EEFCFF80178
S11349D0848D882309F469CF6CE676E08AEE93E24D
S11349E00E94C53062CF68E676E08AEE93E20E94C8
S11349F0C53057CFCF92DF92EF92FF920F931F9360
S1134A00CF93DF93EC017B016A01892BB9F1E114A7
S1134A10F104D1F01A8D11110AC080E0DF91CF9119
S1134A201F910F91FF90EF90DF90CF9008950D8D1F
S1134A30B701CE010E94F31F11501A8F0F3F71F07E
S1134A400F5F0D8F81E0EACF8C8D882319F36CEF13
S1134A5076E08AEE93E20E94C530DCCF8885882315
S1134A6089F3CE0108960E94AF2B882359F3C11411
S1134A70D10441F381E0F6018083D0CF6BEF76E07F
S1134A808AEE93E20E94C530C2CFCF93DF93EC014C
S1134A90892B49F00FB6F8940F928A8D0F900FBEB0
S1134AA0DF91CF9108956AE877E08AEE93E20E945D
S1134AB0C530F0CF20C00FB6F8940F92E0918B2D43
S1134AC0F0918C2DC681D781CE0102960E94781D6B
S1134AD080917B2D815080937B2D8091852D8150F9
S1134AE08093852D0F900FBE8F89988D0E94E41CB2
S1134AF0CE010E94E41C8091852D8111DCCF809130
S1134B00AE2D823010F00E94491E0E947B30F3CFFC
S1134B10CF93DF93EC010E941E50FE010190002010
S1134B20E9F73197EC1BFD0BE730F10560F4EC0F6E
S1134B30FD1F9E01295F3F4F80E28193E217F30737
S1134B40E1F7E7E0F0E0CE018E0F9F1FFC01108239
S1134B50DF91CF910895E0919A2DF0919B2D0580DE
S1134B60F681E02D0680F781E02D82819381809388
S1134B70712D9093722D0895CF93DF93EC01892BBF
S1134B8099F08A859B858C579D4221F080E0DF91C6
S1134B90CF9108952C893D898DE22F383807B1F3E0
S1134BA081E0232B99F7F3CF62EF76E08EEF93E267
S1134BB00E94C530E6CFFF920F931F93CF93DF93EC
S1134BC0EC01F62E0091792D10917A2D8091082E0A
S1134BD09091092E02960E94781DCF3F8FEFD8073F
S1134BE0A9F1C00FD11FE091082EF091092EC283C4
S1134BF0D3836091082E7091092EC017D107C8F095
S1134C0080919A2D90919B2D6E5F7F4F0E94471D3E
S1134C108091712D9091722DC817D90720F4C093FB
S1134C20712DD093722DDF91CF911F910F91FF9031
S1134C3008958091982D9091992D6E5F7F4FDF910B
S1134C40CF911F910F91FF900C94471DFF2049F2C3
S1134C506091082E7091092E6E5F7F4F8CE79DE264
S1134C60DF91CF911F910F91FF900C94261D0F930C
S1134C701F93CF931092752D209120083091210815
S1134C8080916E2E90916F2EA091702EB091712E06
S1134C90820F931FA11DB11D00916A2D10916B2DE0
S1134CA020916C2D30916D2D081719072A073B07A9
S1134CB0A0F4E091082EF091092E47A150A561A51A
S1134CC072A5401B510B620B730B480F591F6A1FCF
S1134CD07B1F47A350A761A772A780936A2D909367
S1134CE06B2DA0936C2DB0936D2DE091082EF09157
S1134CF0092E0788F08DE02D80819181A281B381F6
S1134D00853A954AA54AB54A09F44CC06091082EE3
S1134D107091092E8091082E9091092E675E7F4F25
S1134D200E949B30C091782D8C2F90E09C01220F23
S1134D30331F220F331F220F331FF901E80FF91F0E
S1134D40E255F24D408141110CC0CC2311F0C15009
S1134D50EBCF6CE87BE08EEF93E20E94C530C1504C
S1134D60E3CF820F931FDC01A255B24D1196ED9152
S1134D70FC9112970280F381E02D1196ED93FC9340
S1134D8012978F54924DE817F90759F1868197814C
S1134D908093082E9093092EC093782DCF911F9164
S1134DA00F91089584819581A681B781853A954AAA
S1134DB0A54AB54A09F0AACF80859185A285B38515
S1134DC0853A954AA54AB54A09F0A0CF84859585C8
S1134DD0A685B785853A954AA54AB54A09F096CF7E
S1134DE0A1CF0280F381E02D1196ED93FC931297ED
S1134DF0CDCF5F926F927F928F929F92AF92BF922C
S1134E00CF92DF92EF92FF920F931F93CF93DF9392
S1134E104C01EB015A013901502ECA010E94451C74
S1134E208C01892B09F4DEC080E390E00E94451CCC
S1134E306C01009709F4D3C0DC0157960D931C93C1
S1134E405897209709F4D0C0C801A50165EA70E01D
S1134E500E941750F1E0AF1AB108D60157968D9110
S1134E609C915897A80EB91EF60179969E01285F69
S1134E703F4FDE01899181938C91882319F0C217E9
S1134E80D307B9F7F60110A2052D0A3008F0A1C026
S1134E90D60156960C93569793960C9393979496A3
S1134EA01C92E6012296CE010E94221DC6010C9698
S1134EB00E94221DF601C086D1868AE090E0801B04
S1134EC0910984879587C28AD38A15A216A217A24C
S1134ED010A611A612A613A614A615A616A617A602
S1134EE0A301B401C5010E949E1DD6018D939C931C
S1134EF0E114F10419F0F701C082D1820FB6F894DD
S1134F000F9280917B2D8F5F80937B2D8091082E53
S1134F109091092E892B99F08091772D811118C0D9
S1134F20E091082EF091092ED60156968C9196891F
S1134F30891788F0C092082ED092092E0CC0C09216
S1134F40082ED092092E80917B2D813009F456C011
S1134F50D60156968C919091732D9F5F9093732DEB
S1134F60F60191A39091782D981780F190E09C011F
S1134F70220F331F220F331F220F331F820F931F61
S1134F80BE018255924D0E94261D0F900FBE809146
S1134F90772D882351F0E091082EF091092E9689FF
S1134FA0D60156968C919817B0F081E0DF91CF919D
S1134FB01F910F91FF90EF90DF90CF90BF90AF9033
S1134FC09F908F907F906F905F9008958093782D3D
S1134FD0CDCF09E05DCF0E94491E81E0E7CFC80133
S1134FE00E94E41C8FEFE2CF60E673E08EEF93E261
S1134FF00E94C530F6018789908D27CF0EEA1DE205
S113500058E0E52E5EE2F52EC8010E94141D075FEC
S11350101F4FE016F106C1F785EA9DE20E94141DB8
S11350208CE99DE20E94141D8FE89DE20E94141DEC
S113503086E89DE20E94141D8CE79DE20E94141DE7
S113504085EA9DE280939A2D90939B2D8CE99DE2B5
S11350508093982D9093992DF60186897CCFCF93D8
S1135060DF93EC01892B09F43AC08091082E9091CA
S1135070092EC817D90779F10FB6F8940F928A85CB
S11350809B8520919A2D30919B2D4091982D509184
S1135090992D0F900FBE82179307A9F084179507D7
S11350A091F02DE28C37920751F02DE28638920769
S11350B071F0892B61F081E0DF91CF9108958C89A3
S11350C09D89892B99F082E0DF91CF91089584E046
S11350D0DF91CF91089580E0DF91CF9108956CE442
S11350E075E08EEF93E20E94C530BFCF8FA581306B
S11350F051F383E0E1CF0F931F93CF93DF93EC0140
S11351000FB6F8940F92892B09F462C08E010E5FDA
S11351101F4FC8010E94781D8C899D89892B21F01D
S1135120CE010C960E94781DB8018CE79DE20E9486
S1135130261D8FA5813021F10F900FBE8091772D10
S1135140882391F00FB6F8940F92E0919A2DF09184
S11351509B2D808181112BC08FEF9FEF8093712D48
S11351609093722D0F900FBE8091082E9091092E6E
S1135170C817D90739F0DF91CF911F910F91089586
S11351801FA6DACF8091772D8823A1F080916E2D10
S1135190882331F068EC76E08EEF93E20E94C5300C
S11351A00E94491EDF91CF911F910F9108950E9493
S11351B0AB25D8CF90917C2D80917B2D981799F0B9
S11351C080916E2D882349F081E08093752DD3CF93
S11351D0C091082ED091092E99CFDF91CF911F91C4
S11351E00F910C9437261092082E1092092EC3CFDB
S11351F00F931F93CF93DF93EC01892B09F43DC0E8
S11352008091082E9091092EC817D90751F00FB636
S1135210F8940F92CE010E94BC25811107C00F9013
S11352200FBEDF91CF911F910F9108958E010E5FF4
S11352301F4FC8010E94781D8E899091782D981770
S113524010F48093782D90E09C01220F331F220FDD
S1135250331F220F331F820F931FB8018255924DC3
S11352600E94261DE091082EF091092E9E898689C0
S11352709817A8F20E94491ED2CF6CE177E08EEF16
S113528093E20E94C5308091082E9091092EC9CFD7
S1135290EF92FF920F938FE6E82E8DE2F82E00E056
S11352A020E030E040E051E062E174E28AE595E21A
S11352B00E94F926813079F08F3F21F00F91FF9001
S11352C0EF90089567E078E08EEF93E20F91FF90FE
S11352D0EF900C94C530F8942FEF3FEF2093712D8D
S11352E03093722D8093772D1092792D10927A2D10
S11352F00E94391F0F91FF90EF900C940C1E809127
S11353006E2D8F5F80936E2D08950FB6F8940F92D3
S11353108091792D90917A2D0F900FBE08958091F0
S11353206F2D9091702D009709F008956AEE79E041
S11353308EEF93E20E94C53080916F2D9091702D75
S11353400895DF92EF92FF920F931F93CF93DF9311
S113535080916E2D8111B9C0E090792DF0907A2D55
S11353608FEFE81AF80AE092792DF0927A2DE11481
S1135370F10449F5E0919A2DF0919B2D80818111E2
S1135380ABC080919A2D90919B2D2091982D3091B6
S1135390992D20939A2D30939B2D8093982D909343
S11353A0992D8091742D8F5F8093742DE0919A2DA7
S11353B0F0919B2D8081811196C08FEF9FEF809398
S11353C0712D9093722D8091712D9091722DD12C0D
S11353D0E816F90608F453C0E0919A2DF0919B2D3C
S11353E08081882309F445C0E0919A2DF0919B2D8A
S11353F00580F681E02DC681D7818A819B81E816DC
S1135400F90608F473C08E010E5F1F4FC8010E9495
S1135410781D8C899D89892B21F0CE010C960E94E0
S1135420781D8E899091782D981710F48093782D9B
S113543090E09C01220F331F220F331F220F331FD2
S1135440820F931FB8018255924D0E94261DE09150
S1135450082EF091092E9E898689981708F4BCCFEE
S1135460DD24D394E0919A2DF0919B2D80818111BC
S1135470BBCF8FEF9FEF8093712D9093722DE091AE
S1135480082EF091092E868990E0FC01EE0FFF1F93
S1135490EE0FFF1FEE0FFF1F8E0F9F1FFC01E25543
S11354A0F24D8081823010F0DD24D3948091752DEB
S11354B0882311F0DD24D3948D2DDF91CF911F919A
S11354C00F91FF90EF90DF9008958091762D8F5F7C
S11354D08093762DD12CEACF66E67AE08EEF93E2C4
S11354E00E94C5304ECF0E94AB256DCF8093712DA5
S11354F09093722DC4CFFF920F931F93CF93DF939A
S113550080916E2D882309F477C00FB6F8940F921A
S113551080916E2D815080936E2D80916E2D81111E
S113552062C080917B2D882309F45DC0C0E0D0E087
S1135530FF24F39480918F2D8823A1F1E091942D81
S1135540F091952DC681D781CE010C960E94781DCD
S11355508E010E5F1F4FC8010E94781D8E899091A5
S1135560782D981710F48093782D90E09C01220FE9
S1135570331F220F331F220F331F820F931FB801D3
S11355808255924D0E94261DE091082EF091092E1D
S11355909E898689981770F2F092752D80918F2DCF
S11355A08111CCCFCD2B69F0E0919A2DF0919B2DF8
S11355B0808181112CC08FEF9FEF8093712D909388
S11355C0722DC091762DCC2351F0D1E00E94A129F7
S11355D08111D093752DC150C9F71092762D809109
S11355E0752D811110C080E00F900FBEDF91CF9117
S11355F01F910F91FF9008956CE678E08EEF93E28F
S11356000E94C53082CF0E94491E81E0EDCF0E94E6
S1135610AB25D7CF0F931F93CF93DF938C01EB016F
S1135620892B09F446C02097E9F180916E2D8111F0
S113563032C080916E2D8F5F80936E2D4091792DB5
S113564050917A2DF80120813181CE01820F931F70
S11356504217530788F48217930788F0F801808370
S113566091830E947B2A811102C00E94491EDF910E
S1135670CF911F910F9108958217930718F048173F
S1135680590760F7F8018083918360E0841B950BD0
S11356900E94DB25E6CF6CEC74E08EEF93E20E946F
S11356A0C530C7CF6BEC74E08EEF93E20E94C53037
S11356B0BCCF6AEC74E08EEF93E20E94C530B3CFA6
S11356C0CF93DF93EC01892B29F40E94491EDF91CB
S11356D0CF91089580916E2D811110C080916E2D0F
S11356E08F5F80936E2D60E0CE010E94DB250E94C7
S11356F07B2A882351F3DF91CF91089560E275E00E
S11357008EEF93E20E94C530E9CF80916E2D811116
S113571002C00C94372681E08093752D08950F9371
S11357201F93CF93DF93EC018B01892B89F0609158
S1135730082E7091092E645F7F4FCE010E94471D91
S113574061E0C801DF91CF911F910F910C94DB258B
S113575063EA7BE08EEF93E20E94C530E8CF0F93BB
S11357601F93CF93DF93DC011596ED91FC9116976F
S1135770C681D781209709F442C08E01045F1F4F70
S1135780C8010E94781D80916E2D811129C00A5094
S11357901109C8010E94781D8E899091782D98175F
S11357A028F190E09C01220F331F220F331F220F98
S11357B0331F820F931FB8018255924D0E94261DFC
S11357C0E091082EF091092E9E898689891788F424
S11357D081E08093752DDF91CF911F910F910895F2
S11357E0B8018FE89DE20E94261DEACF8093782DB0
S11357F0D8CF80E0DF91CF911F910F9108956EEF84
S11358007BE08EEF93E20E94C530B7CF2091742DD8
S1135810FC0120832091792D30917A2D21833283CC
S113582008950F931F93CF93DF93EC018B01892B82
S113583009F440C00115110509F443C00FB6F894EA
S11358400F928091792D90917A2DF80120813181E8
S11358502F3FFFEF3F0761F149815A816091742D19
S11358607881761719F08417950780F4841B950BBB
S11358708217930768F0F8011082118281E00F907B
S11358800FBEDF91CF911F910F91089581E0F7CF63
S1135890281B390BF801208331838091742D888370
S11358A08091792D90917A2D89839A8380E0E7CF36
S11358B080E0E5CF69E67CE08EEF93E20E94C5309C
S11358C0B9CF6AE67CE08EEF93E20E94C530B6CF92
S11358D081E08093752D0895FF920F931F93CF93CA
S11358E0DF938C01EB01F42E892B09F464C0088347
S11358F01983C80149968A839B83D80156968C9153
S113590056978E8357968D919C9158978C879D8737
S113591091968C9191978C8393968C9193978F8386
S113592097968D919D910D90BC91A02D8887998714
S1135930AA87BB87253009F443C08091082E909133
S1135940092E0817190709F440C02D83233021F1CB
S1135950FF20D1F0D8015796ED91FC9158978081A2
S1135960853AA9F5319680E090E0DC010196A11D0D
S1135970B11D2191253AD1F38E879F87DF91CF9175
S11359801F910F91FF9008951E861F86DF91CF917E
S11359901F910F91FF90089580916E2D8F5F8093DA
S11359A06E2DF80184899589892B11F082E08D830D
S11359B00E947B2ACDCF0091082E1091092E97CFFB
S11359C0C8010E942F288D83C3CF1D82C1CF80E0E0
S11359D090E0D2CF8F929F92AF92BF92CF92DF92FC
S11359E0EF92FF920F931F93CF93DF935C018B0190
S11359F0D42FDB011196ED91FC9112970280F38173
S1135A00E02D1196ED93FC9312977B01B3E0EB0E1E
S1135A10F11CEE15FF05E1F1C680D780C0E016C089
S1135A2086809780B501B0E1CB9F600D711D112474
S1135A302D2F41E0C4010E946C2CCF5FC814D904FF
S1135A40C9F0D8011196ED91FC9112970280F3816F
S1135A50E02DD8011196ED93FC931297EE16FF06F4
S1135A60F9F61596ED91FC9116971196ED93FC932A
S1135A701297D6CF8C2FDF91CF911F910F91FF906A
S1135A80EF90DF90CF90BF90AF909F908F9008954C
S1135A900280F381E02DC0CFEF92FF920F931F930A
S1135AA0CF93DF938C017A0180916E2D8F5F809369
S1135AB06E2D80917B2D681708F466C0CAE0D0E093
S1135AC004C080E0D80FCC23F9F0C1506C2F70E0F3
S1135AD0CB01880F991F880F991F880F991F680F92
S1135AE0791FFB01E255F24D8081882351F341E097
S1135AF0BF01C80120E1D29F800D911D11240E9495
S1135B00EA2CD80FC111E1CFE0919A2DF0919B2D91
S1135B10808181113BC080E0D80FE091982DF091F5
S1135B20992D8081811145C080E0D80F8091862D08
S1135B3081114FC080E0D80F80917C2D81115AC013
S1135B4080E0D80FE114F104A9F0209120083091ED
S1135B50210880916E2E90916F2EA091702EB0919D
S1135B60712E820F931FA11DB11DF70180839183B4
S1135B70A283B3830E947B2A8D2FDF91CF911F9143
S1135B800F91FF90EF900895D0E0F4CF42E0BF0171
S1135B90C801E0E1DE9F800D911D11240E94EA2CD2
S1135BA0D80FE091982DF091992D8081882309F4E4
S1135BB0BBCF42E0BF01C801F0E1DF9F800D911D22
S1135BC011240E94EA2CD80F8091862D882309F491
S1135BD0B1CF44E066E87DE2C80120E1D29F800DA8
S1135BE0911D11240E94EA2CD80F80917C2D8823CA
S1135BF009F4A6CF43E06CE77DE2C801E0E1DE9F53
S1135C00800D911D11240E94EA2C9BCF0F931F93AA
S1135C10CF93DF93FC01892B09F441C02689A0911D
S1135C20082EB091092E56968C91281770F584850C
S1135C30958597FD0CC0A091082EB091092E56961B
S1135C403C918AE090E0831B91098487958730E03A
S1135C50C901880F991F880F991F880F991F280F52
S1135C60391F2255324D8285938582179307E9F0B7
S1135C70A091082EB091092E56968C91868B81E0C6
S1135C80DF91CF911F910F910895A091082EB091AB
S1135C90092E81E023A156969C91291788F380E070
S1135CA0DF91CF911F910F9108958F01EF012296FB
S1135CB0CE010E94781DE091082EF091092E86896C
S1135CC0F801868B9091782D981710F48093782D95
S1135CD090E09C01220F331F220F331F220F331F2A
S1135CE0820F931FBE018255924D0E94261D81E0B2
